{
  "_format": "hh-sol-artifact-1",
  "contractName": "OracleXMarketFactory",
  "sourceName": "contracts/OracleXMarketFactory.sol",
  "abi": [
    {
      "inputs": [
        {
          "internalType": "contract IERC20",
          "name": "_usdc",
          "type": "address"
        },
        {
          "internalType": "address",
          "name": "_oracleAdapter",
          "type": "address"
        },
        {
          "internalType": "address",
          "name": "_verifier",
          "type": "address"
        }
      ],
      "stateMutability": "nonpayable",
      "type": "constructor"
    },
    {
      "anonymous": false,
      "inputs": [
        {
          "indexed": true,
          "internalType": "bytes32",
          "name": "marketId",
          "type": "bytes32"
        },
        {
          "indexed": true,
          "internalType": "address",
          "name": "vault",
          "type": "address"
        }
      ],
      "name": "MarketCreated",
      "type": "event"
    },
    {
      "inputs": [
        {
          "internalType": "string",
          "name": "eventId",
          "type": "string"
        },
        {
          "internalType": "string",
          "name": "description",
          "type": "string"
        },
        {
          "internalType": "uint256",
          "name": "closeTimestamp",
          "type": "uint256"
        }
      ],
      "name": "createMarket",
      "outputs": [
        {
          "internalType": "bytes32",
          "name": "marketId",
          "type": "bytes32"
        }
      ],
      "stateMutability": "nonpayable",
      "type": "function"
    },
    {
      "inputs": [
        {
          "internalType": "address",
          "name": "market",
          "type": "address"
        }
      ],
      "name": "getVault",
      "outputs": [
        {
          "internalType": "address",
          "name": "",
          "type": "address"
        }
      ],
      "stateMutability": "view",
      "type": "function"
    },
    {
      "inputs": [
        {
          "internalType": "bytes32",
          "name": "",
          "type": "bytes32"
        }
      ],
      "name": "marketIdToVault",
      "outputs": [
        {
          "internalType": "address",
          "name": "",
          "type": "address"
        }
      ],
      "stateMutability": "view",
      "type": "function"
    },
    {
      "inputs": [
        {
          "internalType": "address",
          "name": "",
          "type": "address"
        }
      ],
      "name": "marketToVault",
      "outputs": [
        {
          "internalType": "address",
          "name": "",
          "type": "address"
        }
      ],
      "stateMutability": "view",
      "type": "function"
    },
    {
      "inputs": [],
      "name": "oracleAdapter",
      "outputs": [
        {
          "internalType": "address",
          "name": "",
          "type": "address"
        }
      ],
      "stateMutability": "view",
      "type": "function"
    },
    {
      "inputs": [],
      "name": "owner",
      "outputs": [
        {
          "internalType": "address",
          "name": "",
          "type": "address"
        }
      ],
      "stateMutability": "view",
      "type": "function"
    },
    {
      "inputs": [],
      "name": "usdc",
      "outputs": [
        {
          "internalType": "contract IERC20",
          "name": "",
          "type": "address"
        }
      ],
      "stateMutability": "view",
      "type": "function"
    },
    {
      "inputs": [
        {
          "internalType": "address",
          "name": "",
          "type": "address"
        }
      ],
      "name": "vaultToMarketId",
      "outputs": [
        {
          "internalType": "bytes32",
          "name": "",
          "type": "bytes32"
        }
      ],
      "stateMutability": "view",
      "type": "function"
    },
    {
      "inputs": [],
      "name": "verifier",
      "outputs": [
        {
          "internalType": "address",
          "name": "",
          "type": "address"
        }
      ],
      "stateMutability": "view",
      "type": "function"
    }
  ],
  "bytecode": "0x60e060405234801561001057600080fd5b506040516114d13803806114d183398101604081905261002f91610076565b6001600160a01b0392831660805290821660a0521660c052600080546001600160a01b031916331790556100c3565b6001600160a01b038116811461007357600080fd5b50565b60008060006060848603121561008b57600080fd5b83516100968161005e565b60208501519093506100a78161005e565b60408501519092506100b88161005e565b809150509250925092565b60805160a05160c0516113d26100ff600039600060e601526000818161013b01526102ac015260008181610162015261028a01526113d26000f3fe608060405234801561001057600080fd5b50600436106100935760003560e01c80633e413bee116100665780633e413bee1461015d5780638da5cb5b14610184578063a170c87314610197578063f98b7783146101c0578063fb2f4dbc146101d357600080fd5b80630eb9af38146100985780632b7ac3f3146100e1578063393239ce146101085780633d9f316314610136575b600080fd5b6100c46100a63660046103b1565b6001600160a01b039081166000908152600360205260409020541690565b6040516001600160a01b0390911681526020015b60405180910390f35b6100c47f000000000000000000000000000000000000000000000000000000000000000081565b6101286101163660046103b1565b60026020526000908152604090205481565b6040519081526020016100d8565b6100c47f000000000000000000000000000000000000000000000000000000000000000081565b6100c47f000000000000000000000000000000000000000000000000000000000000000081565b6000546100c4906001600160a01b031681565b6100c46101a53660046103b1565b6003602052600090815260409020546001600160a01b031681565b6101286101ce36600461042a565b6101fc565b6100c46101e136600461049e565b6001602052600090815260409020546001600160a01b031681565b60008585858585334660405160200161021b97969594939291906104b7565b60408051601f198184030181529181528151602092830120600081815260019093529120549091506001600160a01b0316156102865760405162461bcd60e51b815260206004820152600660248201526565786973747360d01b604482015260640160405180910390fd5b60007f0000000000000000000000000000000000000000000000000000000000000000307f000000000000000000000000000000000000000000000000000000000000000084336040516102d9906103a4565b6001600160a01b039586168152938516602085015291841660408401526060830152909116608082015260a001604051809103906000f080158015610322573d6000803e3d6000fd5b50600083815260016020908152604080832080546001600160a01b0386166001600160a01b0319918216811790925581855260028452828520889055600390935281842080549093168117909255519293509184917fbf1a941eb557cc315e2521786648ab4ded508c023dca8feb51ca802e150ed3b891a35095945050505050565b610ea3806104fa83390190565b6000602082840312156103c357600080fd5b81356001600160a01b03811681146103da57600080fd5b9392505050565b60008083601f8401126103f357600080fd5b50813567ffffffffffffffff81111561040b57600080fd5b60208301915083602082850101111561042357600080fd5b9250929050565b60008060008060006060868803121561044257600080fd5b853567ffffffffffffffff8082111561045a57600080fd5b61046689838a016103e1565b9097509550602088013591508082111561047f57600080fd5b5061048c888289016103e1565b96999598509660400135949350505050565b6000602082840312156104b057600080fd5b5035919050565b86888237600087820160008152868882379095019384525060609190911b6bffffffffffffffffffffffff19166020830152603482015260540194935050505056fe61010060405234801561001157600080fd5b50604051610ea3380380610ea38339810160408190526100309161007f565b6001600160a01b0394851660805292841660a05290831660c05260e052600080546001600160a81b031916919092161790556100ea565b6001600160a01b038116811461007c57600080fd5b50565b600080600080600060a0868803121561009757600080fd5b85516100a281610067565b60208701519095506100b381610067565b60408701519094506100c481610067565b6060870151608088015191945092506100dc81610067565b809150509295509295909350565b60805160a05160c05160e051610d5d6101466000396000818161019d015261046f01526000818161013201526102e30152600081816102540152610784015260008181610176015281816106940152610a140152610d5d6000f3fe608060405234801561001057600080fd5b506004361061010b5760003560e01c8063a3b5b2b3116100a2578063c45a015511610071578063c45a01551461024f578063cd2013e214610276578063ea1f466014610296578063f4d4c9d71461029f578063fbf06338146102b257600080fd5b8063a3b5b2b3146101fc578063aa0e6bc414610205578063af00888314610225578063c19d93fb1461022e57600080fd5b80636ed71ede116100de5780636ed71ede1461019857806388ba8dd6146101cd5780638da5cb5b146101d65780638df4ad12146101e957600080fd5b806328cc1b78146101105780633ccfd60b146101255780633d9f31631461012d5780633e413bee14610171575b600080fd5b61012361011e366004610ba5565b6102d8565b005b6101236104b9565b6101547f000000000000000000000000000000000000000000000000000000000000000081565b6040516001600160a01b0390911681526020015b60405180910390f35b6101547f000000000000000000000000000000000000000000000000000000000000000081565b6101bf7f000000000000000000000000000000000000000000000000000000000000000081565b604051908152602001610168565b6101bf60015481565b600054610154906001600160a01b031681565b6101236101f7366004610bc7565b610779565b6101bf60055481565b6101bf610213366004610be9565b60046020526000908152604090205481565b6101bf60025481565b60005461024290600160a01b900460ff1681565b6040516101689190610c4a565b6101547f000000000000000000000000000000000000000000000000000000000000000081565b6101bf610284366004610be9565b60036020526000908152604090205481565b6101bf60065481565b6101236102ad366004610c5e565b610912565b6000546102c690600160a81b900460ff1681565b60405160ff9091168152602001610168565b336001600160a01b037f000000000000000000000000000000000000000000000000000000000000000016146103425760405162461bcd60e51b815260206004820152600a6024820152696e6f74206f7261636c6560b01b60448201526064015b60405180910390fd5b6002600054600160a01b900460ff16600281111561036257610362610c12565b036103995760405162461bcd60e51b8152602060048201526007602482015266616c726561647960c81b6044820152606401610339565b60ff811615806103ac57508060ff166001145b6103e35760405162461bcd60e51b8152602060048201526008602482015267626164207369646560c01b6044820152606401610339565b6000805460ff838116600160a81b0260ff60a01b19811661ffff60a01b19841617600160a11b1793849055604051600160a01b60ff60a81b199094169091178390048216937fe8a97ea87e4388fa22d496b95a8ed5ced6717f49790318de2b928aaf37a021d89361045d9386939190920490911690610c88565b60405180910390a160405160ff8316907f0000000000000000000000000000000000000000000000000000000000000000907f0c2d9797d5715fc35a46380f6116b7cc3e025305d6b552e9a747b36cb808481590600090a35050565b6002600054600160a01b900460ff1660028111156104d9576104d9610c12565b146105145760405162461bcd60e51b815260206004820152600b60248201526a1b9bdd081cd95d1d1b195960aa1b6044820152606401610339565b60008054600160a81b900460ff166001036105b557336000908152600360205260409020548061056f5760405162461bcd60e51b81526020600482015260066024820152651b9bc818985b60d21b6044820152606401610339565b3360009081526003602052604081205560015460025481156105ad57816105968285610cb9565b6105a09190610cd0565b6105aa9084610cf2565b93505b50505061063d565b33600090815260046020526040902054806105fb5760405162461bcd60e51b81526020600482015260066024820152651b9bc818985b60d21b6044820152606401610339565b33600090815260046020526040812055600254600154811561063957816106228285610cb9565b61062c9190610cd0565b6106369084610cf2565b93505b5050505b600081116106785760405162461bcd60e51b81526020600482015260086024820152677a65726f2070617960c01b6044820152606401610339565b60405163a9059cbb60e01b8152336004820152602481018290527f00000000000000000000000000000000000000000000000000000000000000006001600160a01b03169063a9059cbb906044016020604051808303816000875af11580156106e5573d6000803e3d6000fd5b505050506040513d601f19601f820116820180604052508101906107099190610d05565b6107415760405162461bcd60e51b81526020600482015260096024820152681e19995c8819985a5b60ba1b6044820152606401610339565b60405181815233907f7084f5476618d8e60b11ef0d7d3f06914655adb8793e28ff7f018d4c76d505d59060200160405180910390a250565b336001600160a01b037f00000000000000000000000000000000000000000000000000000000000000001614806107ba57506000546001600160a01b031633145b6107f15760405162461bcd60e51b81526020600482015260086024820152670dcdee840c2eae8d60c31b6044820152606401610339565b6002600054600160a01b900460ff16600281111561081157610811610c12565b036108485760405162461bcd60e51b81526020600482015260076024820152661cd95d1d1b195960ca1b6044820152606401610339565b6005829055600681905560008054600160a01b900460ff16600281111561087157610871610c12565b036108d5576000805460ff60a01b198116600160a01b9081179283905560405160ff928290048316937fe8a97ea87e4388fa22d496b95a8ed5ced6717f49790318de2b928aaf37a021d8936108cb93869392041690610c88565b60405180910390a1505b60408051838152602081018390527f06686aaa593b19d01617ac400575a79693899102504b038ef5e3371ff51e4d9f910160405180910390a15050565b60008054600160a01b900460ff16600281111561093157610931610c12565b1461096d5760405162461bcd60e51b815260206004820152600c60248201526b1d985d5b1d0818db1bdcd95960a21b6044820152606401610339565b60ff8216158061098057508160ff166001145b6109b75760405162461bcd60e51b8152602060048201526008602482015267626164207369646560c01b6044820152606401610339565b600081116109f25760405162461bcd60e51b81526020600482015260086024820152671e995c9bc8185b5d60c21b6044820152606401610339565b6040516323b872dd60e01b8152336004820152306024820152604481018290527f00000000000000000000000000000000000000000000000000000000000000006001600160a01b0316906323b872dd906064016020604051808303816000875af1158015610a65573d6000803e3d6000fd5b505050506040513d601f19601f82011682018060405250810190610a899190610d05565b610ac55760405162461bcd60e51b815260206004820152600d60248201526c1e19995c919c9bdb4819985a5b609a1b6044820152606401610339565b8160ff16600103610b13573360009081526003602052604081208054839290610aef908490610cf2565b925050819055508060016000828254610b089190610cf2565b90915550610b519050565b3360009081526004602052604081208054839290610b32908490610cf2565b925050819055508060026000828254610b4b9190610cf2565b90915550505b60405181815260ff83169033907f1d0787aee899a49ef81d0b11da9aca5455b46aefed042a41bd398d74619cab009060200160405180910390a35050565b803560ff81168114610ba057600080fd5b919050565b600060208284031215610bb757600080fd5b610bc082610b8f565b9392505050565b60008060408385031215610bda57600080fd5b50508035926020909101359150565b600060208284031215610bfb57600080fd5b81356001600160a01b0381168114610bc057600080fd5b634e487b7160e01b600052602160045260246000fd5b60038110610c4657634e487b7160e01b600052602160045260246000fd5b9052565b60208101610c588284610c28565b92915050565b60008060408385031215610c7157600080fd5b610c7a83610b8f565b946020939093013593505050565b60408101610c968285610c28565b610bc06020830184610c28565b634e487b7160e01b600052601160045260246000fd5b8082028115828204841417610c5857610c58610ca3565b600082610ced57634e487b7160e01b600052601260045260246000fd5b500490565b80820180821115610c5857610c58610ca3565b600060208284031215610d1757600080fd5b81518015158114610bc057600080fdfea26469706673582212201164ac2842c035fc82144bc9427813c4059806c3a644707805a6567f868d694864736f6c63430008140033a2646970667358221220ce94ed46bef64fe7b66affff44b4911861f1f3f2baed565a5f68c49a8264c44d64736f6c63430008140033",
  "linkReferences": {},
  "deployedLinkReferences": {}
}