{
  "_format": "hh-sol-artifact-1",
  "contractName": "PredictionAMM",
  "sourceName": "contracts-v2/PredictionAMM.sol",
  "abi": [
    {
      "inputs": [],
      "stateMutability": "nonpayable",
      "type": "constructor"
    },
    {
      "inputs": [],
      "name": "AccessControlBadConfirmation",
      "type": "error"
    },
    {
      "inputs": [
        {
          "internalType": "address",
          "name": "account",
          "type": "address"
        },
        {
          "internalType": "bytes32",
          "name": "neededRole",
          "type": "bytes32"
        }
      ],
      "name": "AccessControlUnauthorizedAccount",
      "type": "error"
    },
    {
      "inputs": [
        {
          "internalType": "address",
          "name": "target",
          "type": "address"
        }
      ],
      "name": "AddressEmptyCode",
      "type": "error"
    },
    {
      "inputs": [
        {
          "internalType": "address",
          "name": "implementation",
          "type": "address"
        }
      ],
      "name": "ERC1967InvalidImplementation",
      "type": "error"
    },
    {
      "inputs": [],
      "name": "ERC1967NonPayable",
      "type": "error"
    },
    {
      "inputs": [],
      "name": "EnforcedPause",
      "type": "error"
    },
    {
      "inputs": [],
      "name": "ExpectedPause",
      "type": "error"
    },
    {
      "inputs": [],
      "name": "FailedCall",
      "type": "error"
    },
    {
      "inputs": [],
      "name": "InvalidInitialization",
      "type": "error"
    },
    {
      "inputs": [],
      "name": "NotInitializing",
      "type": "error"
    },
    {
      "inputs": [],
      "name": "ReentrancyGuardReentrantCall",
      "type": "error"
    },
    {
      "inputs": [],
      "name": "UUPSUnauthorizedCallContext",
      "type": "error"
    },
    {
      "inputs": [
        {
          "internalType": "bytes32",
          "name": "slot",
          "type": "bytes32"
        }
      ],
      "name": "UUPSUnsupportedProxiableUUID",
      "type": "error"
    },
    {
      "anonymous": false,
      "inputs": [
        {
          "indexed": false,
          "internalType": "uint64",
          "name": "version",
          "type": "uint64"
        }
      ],
      "name": "Initialized",
      "type": "event"
    },
    {
      "anonymous": false,
      "inputs": [
        {
          "indexed": true,
          "internalType": "bytes32",
          "name": "marketId",
          "type": "bytes32"
        },
        {
          "indexed": true,
          "internalType": "address",
          "name": "provider",
          "type": "address"
        },
        {
          "indexed": false,
          "internalType": "uint256",
          "name": "yesAmount",
          "type": "uint256"
        },
        {
          "indexed": false,
          "internalType": "uint256",
          "name": "noAmount",
          "type": "uint256"
        },
        {
          "indexed": false,
          "internalType": "uint256",
          "name": "lpShares",
          "type": "uint256"
        }
      ],
      "name": "LiquidityAdded",
      "type": "event"
    },
    {
      "anonymous": false,
      "inputs": [
        {
          "indexed": true,
          "internalType": "bytes32",
          "name": "marketId",
          "type": "bytes32"
        },
        {
          "indexed": true,
          "internalType": "address",
          "name": "provider",
          "type": "address"
        },
        {
          "indexed": false,
          "internalType": "uint256",
          "name": "yesAmount",
          "type": "uint256"
        },
        {
          "indexed": false,
          "internalType": "uint256",
          "name": "noAmount",
          "type": "uint256"
        },
        {
          "indexed": false,
          "internalType": "uint256",
          "name": "lpShares",
          "type": "uint256"
        }
      ],
      "name": "LiquidityRemoved",
      "type": "event"
    },
    {
      "anonymous": false,
      "inputs": [
        {
          "indexed": true,
          "internalType": "bytes32",
          "name": "marketId",
          "type": "bytes32"
        },
        {
          "indexed": false,
          "internalType": "uint256",
          "name": "initialYes",
          "type": "uint256"
        },
        {
          "indexed": false,
          "internalType": "uint256",
          "name": "initialNo",
          "type": "uint256"
        }
      ],
      "name": "MarketCreated",
      "type": "event"
    },
    {
      "anonymous": false,
      "inputs": [
        {
          "indexed": true,
          "internalType": "bytes32",
          "name": "marketId",
          "type": "bytes32"
        },
        {
          "indexed": false,
          "internalType": "uint8",
          "name": "winningSide",
          "type": "uint8"
        }
      ],
      "name": "MarketSettled",
      "type": "event"
    },
    {
      "anonymous": false,
      "inputs": [
        {
          "indexed": false,
          "internalType": "address",
          "name": "account",
          "type": "address"
        }
      ],
      "name": "Paused",
      "type": "event"
    },
    {
      "anonymous": false,
      "inputs": [
        {
          "indexed": true,
          "internalType": "bytes32",
          "name": "role",
          "type": "bytes32"
        },
        {
          "indexed": true,
          "internalType": "bytes32",
          "name": "previousAdminRole",
          "type": "bytes32"
        },
        {
          "indexed": true,
          "internalType": "bytes32",
          "name": "newAdminRole",
          "type": "bytes32"
        }
      ],
      "name": "RoleAdminChanged",
      "type": "event"
    },
    {
      "anonymous": false,
      "inputs": [
        {
          "indexed": true,
          "internalType": "bytes32",
          "name": "role",
          "type": "bytes32"
        },
        {
          "indexed": true,
          "internalType": "address",
          "name": "account",
          "type": "address"
        },
        {
          "indexed": true,
          "internalType": "address",
          "name": "sender",
          "type": "address"
        }
      ],
      "name": "RoleGranted",
      "type": "event"
    },
    {
      "anonymous": false,
      "inputs": [
        {
          "indexed": true,
          "internalType": "bytes32",
          "name": "role",
          "type": "bytes32"
        },
        {
          "indexed": true,
          "internalType": "address",
          "name": "account",
          "type": "address"
        },
        {
          "indexed": true,
          "internalType": "address",
          "name": "sender",
          "type": "address"
        }
      ],
      "name": "RoleRevoked",
      "type": "event"
    },
    {
      "anonymous": false,
      "inputs": [
        {
          "indexed": true,
          "internalType": "bytes32",
          "name": "marketId",
          "type": "bytes32"
        },
        {
          "indexed": true,
          "internalType": "address",
          "name": "trader",
          "type": "address"
        },
        {
          "indexed": false,
          "internalType": "uint8",
          "name": "side",
          "type": "uint8"
        },
        {
          "indexed": false,
          "internalType": "bool",
          "name": "isBuy",
          "type": "bool"
        },
        {
          "indexed": false,
          "internalType": "uint256",
          "name": "amountIn",
          "type": "uint256"
        },
        {
          "indexed": false,
          "internalType": "uint256",
          "name": "sharesOut",
          "type": "uint256"
        },
        {
          "indexed": false,
          "internalType": "uint256",
          "name": "fee",
          "type": "uint256"
        }
      ],
      "name": "Trade",
      "type": "event"
    },
    {
      "anonymous": false,
      "inputs": [
        {
          "indexed": false,
          "internalType": "address",
          "name": "account",
          "type": "address"
        }
      ],
      "name": "Unpaused",
      "type": "event"
    },
    {
      "anonymous": false,
      "inputs": [
        {
          "indexed": true,
          "internalType": "address",
          "name": "implementation",
          "type": "address"
        }
      ],
      "name": "Upgraded",
      "type": "event"
    },
    {
      "inputs": [],
      "name": "DEFAULT_ADMIN_ROLE",
      "outputs": [
        {
          "internalType": "bytes32",
          "name": "",
          "type": "bytes32"
        }
      ],
      "stateMutability": "view",
      "type": "function"
    },
    {
      "inputs": [],
      "name": "FEE_DENOMINATOR",
      "outputs": [
        {
          "internalType": "uint256",
          "name": "",
          "type": "uint256"
        }
      ],
      "stateMutability": "view",
      "type": "function"
    },
    {
      "inputs": [],
      "name": "MIN_LIQUIDITY",
      "outputs": [
        {
          "internalType": "uint256",
          "name": "",
          "type": "uint256"
        }
      ],
      "stateMutability": "view",
      "type": "function"
    },
    {
      "inputs": [],
      "name": "OPERATOR_ROLE",
      "outputs": [
        {
          "internalType": "bytes32",
          "name": "",
          "type": "bytes32"
        }
      ],
      "stateMutability": "view",
      "type": "function"
    },
    {
      "inputs": [],
      "name": "PAUSER_ROLE",
      "outputs": [
        {
          "internalType": "bytes32",
          "name": "",
          "type": "bytes32"
        }
      ],
      "stateMutability": "view",
      "type": "function"
    },
    {
      "inputs": [],
      "name": "UPGRADER_ROLE",
      "outputs": [
        {
          "internalType": "bytes32",
          "name": "",
          "type": "bytes32"
        }
      ],
      "stateMutability": "view",
      "type": "function"
    },
    {
      "inputs": [],
      "name": "UPGRADE_INTERFACE_VERSION",
      "outputs": [
        {
          "internalType": "string",
          "name": "",
          "type": "string"
        }
      ],
      "stateMutability": "view",
      "type": "function"
    },
    {
      "inputs": [
        {
          "internalType": "bytes32",
          "name": "marketId",
          "type": "bytes32"
        },
        {
          "internalType": "uint256",
          "name": "yesAmount",
          "type": "uint256"
        },
        {
          "internalType": "uint256",
          "name": "noAmount",
          "type": "uint256"
        }
      ],
      "name": "addLiquidity",
      "outputs": [
        {
          "internalType": "uint256",
          "name": "shares",
          "type": "uint256"
        }
      ],
      "stateMutability": "nonpayable",
      "type": "function"
    },
    {
      "inputs": [
        {
          "internalType": "bytes32",
          "name": "marketId",
          "type": "bytes32"
        },
        {
          "internalType": "uint8",
          "name": "side",
          "type": "uint8"
        },
        {
          "internalType": "uint256",
          "name": "amountIn",
          "type": "uint256"
        },
        {
          "internalType": "uint256",
          "name": "minSharesOut",
          "type": "uint256"
        }
      ],
      "name": "buy",
      "outputs": [
        {
          "internalType": "uint256",
          "name": "sharesOut",
          "type": "uint256"
        }
      ],
      "stateMutability": "nonpayable",
      "type": "function"
    },
    {
      "inputs": [
        {
          "internalType": "bytes32",
          "name": "marketId",
          "type": "bytes32"
        },
        {
          "internalType": "uint256",
          "name": "initialYes",
          "type": "uint256"
        },
        {
          "internalType": "uint256",
          "name": "initialNo",
          "type": "uint256"
        }
      ],
      "name": "createMarket",
      "outputs": [],
      "stateMutability": "nonpayable",
      "type": "function"
    },
    {
      "inputs": [],
      "name": "feeDistributor",
      "outputs": [
        {
          "internalType": "address",
          "name": "",
          "type": "address"
        }
      ],
      "stateMutability": "view",
      "type": "function"
    },
    {
      "inputs": [
        {
          "internalType": "bytes32",
          "name": "marketId",
          "type": "bytes32"
        },
        {
          "internalType": "uint8",
          "name": "side",
          "type": "uint8"
        }
      ],
      "name": "getPrice",
      "outputs": [
        {
          "internalType": "uint256",
          "name": "price",
          "type": "uint256"
        }
      ],
      "stateMutability": "view",
      "type": "function"
    },
    {
      "inputs": [
        {
          "internalType": "bytes32",
          "name": "role",
          "type": "bytes32"
        }
      ],
      "name": "getRoleAdmin",
      "outputs": [
        {
          "internalType": "bytes32",
          "name": "",
          "type": "bytes32"
        }
      ],
      "stateMutability": "view",
      "type": "function"
    },
    {
      "inputs": [
        {
          "internalType": "bytes32",
          "name": "role",
          "type": "bytes32"
        },
        {
          "internalType": "address",
          "name": "account",
          "type": "address"
        }
      ],
      "name": "grantRole",
      "outputs": [],
      "stateMutability": "nonpayable",
      "type": "function"
    },
    {
      "inputs": [
        {
          "internalType": "bytes32",
          "name": "role",
          "type": "bytes32"
        },
        {
          "internalType": "address",
          "name": "account",
          "type": "address"
        }
      ],
      "name": "hasRole",
      "outputs": [
        {
          "internalType": "bool",
          "name": "",
          "type": "bool"
        }
      ],
      "stateMutability": "view",
      "type": "function"
    },
    {
      "inputs": [
        {
          "internalType": "address",
          "name": "_usdc",
          "type": "address"
        },
        {
          "internalType": "address",
          "name": "_positions",
          "type": "address"
        },
        {
          "internalType": "address",
          "name": "_treasury",
          "type": "address"
        },
        {
          "internalType": "address",
          "name": "_feeDistributor",
          "type": "address"
        },
        {
          "internalType": "address",
          "name": "defaultAdmin",
          "type": "address"
        }
      ],
      "name": "initialize",
      "outputs": [],
      "stateMutability": "nonpayable",
      "type": "function"
    },
    {
      "inputs": [
        {
          "internalType": "bytes32",
          "name": "",
          "type": "bytes32"
        },
        {
          "internalType": "address",
          "name": "",
          "type": "address"
        }
      ],
      "name": "lpShares",
      "outputs": [
        {
          "internalType": "uint256",
          "name": "",
          "type": "uint256"
        }
      ],
      "stateMutability": "view",
      "type": "function"
    },
    {
      "inputs": [
        {
          "internalType": "bytes32",
          "name": "",
          "type": "bytes32"
        }
      ],
      "name": "markets",
      "outputs": [
        {
          "internalType": "bytes32",
          "name": "marketId",
          "type": "bytes32"
        },
        {
          "internalType": "uint256",
          "name": "yesPool",
          "type": "uint256"
        },
        {
          "internalType": "uint256",
          "name": "noPool",
          "type": "uint256"
        },
        {
          "internalType": "uint256",
          "name": "k",
          "type": "uint256"
        },
        {
          "internalType": "uint256",
          "name": "totalVolume",
          "type": "uint256"
        },
        {
          "internalType": "uint256",
          "name": "totalFees",
          "type": "uint256"
        },
        {
          "internalType": "bool",
          "name": "active",
          "type": "bool"
        },
        {
          "internalType": "bool",
          "name": "settled",
          "type": "bool"
        },
        {
          "internalType": "uint8",
          "name": "winningSide",
          "type": "uint8"
        }
      ],
      "stateMutability": "view",
      "type": "function"
    },
    {
      "inputs": [],
      "name": "pause",
      "outputs": [],
      "stateMutability": "nonpayable",
      "type": "function"
    },
    {
      "inputs": [],
      "name": "paused",
      "outputs": [
        {
          "internalType": "bool",
          "name": "",
          "type": "bool"
        }
      ],
      "stateMutability": "view",
      "type": "function"
    },
    {
      "inputs": [],
      "name": "positions",
      "outputs": [
        {
          "internalType": "contract IMarketPositions",
          "name": "",
          "type": "address"
        }
      ],
      "stateMutability": "view",
      "type": "function"
    },
    {
      "inputs": [],
      "name": "proxiableUUID",
      "outputs": [
        {
          "internalType": "bytes32",
          "name": "",
          "type": "bytes32"
        }
      ],
      "stateMutability": "view",
      "type": "function"
    },
    {
      "inputs": [
        {
          "internalType": "bytes32",
          "name": "marketId",
          "type": "bytes32"
        },
        {
          "internalType": "uint8",
          "name": "side",
          "type": "uint8"
        },
        {
          "internalType": "uint256",
          "name": "shares",
          "type": "uint256"
        }
      ],
      "name": "redeem",
      "outputs": [
        {
          "internalType": "uint256",
          "name": "payout",
          "type": "uint256"
        }
      ],
      "stateMutability": "nonpayable",
      "type": "function"
    },
    {
      "inputs": [
        {
          "internalType": "bytes32",
          "name": "marketId",
          "type": "bytes32"
        },
        {
          "internalType": "uint256",
          "name": "shares",
          "type": "uint256"
        }
      ],
      "name": "removeLiquidity",
      "outputs": [
        {
          "internalType": "uint256",
          "name": "yesAmount",
          "type": "uint256"
        },
        {
          "internalType": "uint256",
          "name": "noAmount",
          "type": "uint256"
        }
      ],
      "stateMutability": "nonpayable",
      "type": "function"
    },
    {
      "inputs": [
        {
          "internalType": "bytes32",
          "name": "role",
          "type": "bytes32"
        },
        {
          "internalType": "address",
          "name": "callerConfirmation",
          "type": "address"
        }
      ],
      "name": "renounceRole",
      "outputs": [],
      "stateMutability": "nonpayable",
      "type": "function"
    },
    {
      "inputs": [
        {
          "internalType": "bytes32",
          "name": "role",
          "type": "bytes32"
        },
        {
          "internalType": "address",
          "name": "account",
          "type": "address"
        }
      ],
      "name": "revokeRole",
      "outputs": [],
      "stateMutability": "nonpayable",
      "type": "function"
    },
    {
      "inputs": [
        {
          "internalType": "bytes32",
          "name": "marketId",
          "type": "bytes32"
        },
        {
          "internalType": "uint8",
          "name": "side",
          "type": "uint8"
        },
        {
          "internalType": "uint256",
          "name": "sharesIn",
          "type": "uint256"
        },
        {
          "internalType": "uint256",
          "name": "minAmountOut",
          "type": "uint256"
        }
      ],
      "name": "sell",
      "outputs": [
        {
          "internalType": "uint256",
          "name": "amountOut",
          "type": "uint256"
        }
      ],
      "stateMutability": "nonpayable",
      "type": "function"
    },
    {
      "inputs": [
        {
          "internalType": "bytes32",
          "name": "marketId",
          "type": "bytes32"
        },
        {
          "internalType": "uint8",
          "name": "winningSide",
          "type": "uint8"
        }
      ],
      "name": "settleMarket",
      "outputs": [],
      "stateMutability": "nonpayable",
      "type": "function"
    },
    {
      "inputs": [
        {
          "internalType": "bytes4",
          "name": "interfaceId",
          "type": "bytes4"
        }
      ],
      "name": "supportsInterface",
      "outputs": [
        {
          "internalType": "bool",
          "name": "",
          "type": "bool"
        }
      ],
      "stateMutability": "view",
      "type": "function"
    },
    {
      "inputs": [
        {
          "internalType": "bytes32",
          "name": "",
          "type": "bytes32"
        }
      ],
      "name": "totalLpShares",
      "outputs": [
        {
          "internalType": "uint256",
          "name": "",
          "type": "uint256"
        }
      ],
      "stateMutability": "view",
      "type": "function"
    },
    {
      "inputs": [],
      "name": "tradingFee",
      "outputs": [
        {
          "internalType": "uint256",
          "name": "",
          "type": "uint256"
        }
      ],
      "stateMutability": "view",
      "type": "function"
    },
    {
      "inputs": [],
      "name": "treasury",
      "outputs": [
        {
          "internalType": "address",
          "name": "",
          "type": "address"
        }
      ],
      "stateMutability": "view",
      "type": "function"
    },
    {
      "inputs": [],
      "name": "unpause",
      "outputs": [],
      "stateMutability": "nonpayable",
      "type": "function"
    },
    {
      "inputs": [
        {
          "internalType": "address",
          "name": "newImplementation",
          "type": "address"
        },
        {
          "internalType": "bytes",
          "name": "data",
          "type": "bytes"
        }
      ],
      "name": "upgradeToAndCall",
      "outputs": [],
      "stateMutability": "payable",
      "type": "function"
    },
    {
      "inputs": [],
      "name": "usdc",
      "outputs": [
        {
          "internalType": "contract IERC20",
          "name": "",
          "type": "address"
        }
      ],
      "stateMutability": "view",
      "type": "function"
    }
  ],
  "bytecode": "0x60a06040523060805234801562000014575f80fd5b506200001f62000025565b620000d9565b7ff0c57e16840df040f15088dc2f81fe391c3923bec73e23a9662efc9c229c6a00805468010000000000000000900460ff1615620000765760405163f92ee8a960e01b815260040160405180910390fd5b80546001600160401b0390811614620000d65780546001600160401b0319166001600160401b0390811782556040519081527fc7f505b2f371ae2175ee4913f4499e1f2633a7b5936321eed1cdaeb6115181d29060200160405180910390a15b50565b608051612d6d620001005f395f81816122c0015281816122e9015261244a0152612d6d5ff3fe6080604052600436106101fc575f3560e01c80637564912b11610113578063cf7b8aa61161009d578063e63ab1e91161006d578063e63ab1e91461067a578063f025be311461069a578063f5b541a6146106b9578063f72c0d8b146106d9578063f7d959e51461070c575f80fd5b8063cf7b8aa6146105fc578063d547741f14610627578063d73792a914610646578063df0662361461065b575f80fd5b806396844927116100e35780639684492714610538578063a217fddf14610557578063aad8d92e1461056a578063ad3cb1cc146105a0578063ba5b7982146105dd575f80fd5b80637564912b1461042e57806383e0341c146104e65780638456cb591461050557806391d1485414610519575f80fd5b80633e413bee1161019457806356f433521161016457806356f43352146103995780635c975abb146103ae5780635ccfe479146103d157806361d027b3146103f057806371ace7ec1461040f575f80fd5b80633e413bee146103405780633f4ba83a1461035e5780634f1ef2861461037257806352d1902d14610385575f80fd5b806321b77d63116101cf57806321b77d63146102c0578063248a9ca3146102e35780632f2ff15d1461030257806336568abe14610321575f80fd5b806301bd4fa41461020057806301ffc9a7146102395780630d43e8ad146102685780631459457a1461029f575b5f80fd5b34801561020b575f80fd5b5061021f61021a3660046127d3565b61072b565b604080519283526020830191909152015b60405180910390f35b348015610244575f80fd5b506102586102533660046127f3565b6109b4565b6040519015158152602001610230565b348015610273575f80fd5b50600354610287906001600160a01b031681565b6040516001600160a01b039091168152602001610230565b3480156102aa575f80fd5b506102be6102b9366004612835565b6109ea565b005b3480156102cb575f80fd5b506102d56103e881565b604051908152602001610230565b3480156102ee575f80fd5b506102d56102fd366004612896565b610bae565b34801561030d575f80fd5b506102be61031c3660046128ad565b610bce565b34801561032c575f80fd5b506102be61033b3660046128ad565b610bf0565b34801561034b575f80fd5b505f54610287906001600160a01b031681565b348015610369575f80fd5b506102be610c28565b6102be6103803660046128eb565b610c4a565b348015610390575f80fd5b506102d5610c69565b3480156103a4575f80fd5b506102d560045481565b3480156103b9575f80fd5b505f80516020612cf88339815191525460ff16610258565b3480156103dc575f80fd5b506102d56103eb3660046129b7565b610c84565b3480156103fb575f80fd5b50600254610287906001600160a01b031681565b34801561041a575f80fd5b506102d56104293660046129ef565b611197565b348015610439575f80fd5b5061049b610448366004612896565b600560208190525f918252604090912080546001820154600283015460038401546004850154958501546006909501549395929491939092919060ff808216916101008104821691620100009091041689565b60408051998a5260208a0198909852968801959095526060870193909352608086019190915260a0850152151560c0840152151560e083015260ff1661010082015261012001610230565b3480156104f1575f80fd5b506102be6105003660046129ef565b6114af565b348015610510575f80fd5b506102be6117c8565b348015610524575f80fd5b506102586105333660046128ad565b6117e7565b348015610543575f80fd5b506102d5610552366004612a18565b61181d565b348015610562575f80fd5b506102d55f81565b348015610575575f80fd5b506102d56105843660046128ad565b600660209081525f928352604080842090915290825290205481565b3480156105ab575f80fd5b506105d0604051806040016040528060058152602001640352e302e360dc1b81525081565b6040516102309190612a6c565b3480156105e8575f80fd5b50600154610287906001600160a01b031681565b348015610607575f80fd5b506102d5610616366004612896565b60076020525f908152604090205481565b348015610632575f80fd5b506102be6106413660046128ad565b611a19565b348015610651575f80fd5b506102d561271081565b348015610666575f80fd5b506102be610675366004612a9e565b611a35565b348015610685575f80fd5b506102d55f80516020612cb883398151915281565b3480156106a5575f80fd5b506102d56106b43660046129b7565b611b5f565b3480156106c4575f80fd5b506102d55f80516020612c9883398151915281565b3480156106e4575f80fd5b506102d57f189ab7a9244df0848122154315af71fe140f3db0fe014031783b0946b8c9d2e381565b348015610717575f80fd5b506102d5610726366004612a9e565b61201d565b5f806107356120a6565b5f848152600560205260409020836107685760405162461bcd60e51b815260040161075f90612abf565b60405180910390fd5b5f8581526006602090815260408083203384529091529020548411156107cb5760405162461bcd60e51b8152602060048201526018602482015277414d4d3a20696e73756666696369656e742073686172657360401b604482015260640161075f565b5f85815260076020526040902054600182015481906107ea9087612afd565b6107f49190612b14565b9350808260020154866108079190612afd565b6108119190612b14565b925083826001015f8282546108269190612b33565b9250508190555082826002015f8282546108409190612b33565b9091555050600282015460018301546108599190612afd565b60038301555f86815260066020908152604080832033845290915281208054879290610886908490612b33565b90915550505f86815260076020526040812080548792906108a8908490612b33565b90915550505f546001600160a01b031663a9059cbb336108c88688612b46565b6040516001600160e01b031960e085901b1681526001600160a01b03909216600483015260248201526044016020604051808303815f875af1158015610910573d5f803e3d5ffd5b505050506040513d601f19601f820116820180604052508101906109349190612b59565b6109505760405162461bcd60e51b815260040161075f90612b78565b6040805185815260208101859052908101869052339087907f1644e236c5520c62ce0dee793b42f87f940781d55b02c890fbbcdfff1ee5e2519060600160405180910390a350506109ad60015f80516020612d1883398151915255565b9250929050565b5f6001600160e01b03198216637965db0b60e01b14806109e457506301ffc9a760e01b6001600160e01b03198316145b92915050565b5f6109f36120f0565b805490915060ff600160401b820416159067ffffffffffffffff165f81158015610a1a5750825b90505f8267ffffffffffffffff166001148015610a365750303b155b905081158015610a44575080155b15610a625760405163f92ee8a960e01b815260040160405180910390fd5b845467ffffffffffffffff191660011785558315610a8c57845460ff60401b1916600160401b1785555b610a94612118565b610a9c61212a565b610aa461212a565b610aac61212a565b5f80546001600160a01b03808d166001600160a01b0319928316178355600180548d8316908416179055600280548c831690841617905560038054918b1691909216179055601e600455610b009087612132565b50610b185f80516020612c9883398151915287612132565b50610b305f80516020612cb883398151915287612132565b50610b5b7f189ab7a9244df0848122154315af71fe140f3db0fe014031783b0946b8c9d2e387612132565b508315610ba257845460ff60401b19168555604051600181527fc7f505b2f371ae2175ee4913f4499e1f2633a7b5936321eed1cdaeb6115181d29060200160405180910390a15b50505050505050505050565b5f9081525f80516020612cd8833981519152602052604090206001015490565b610bd782610bae565b610be0816121d3565b610bea8383612132565b50505050565b6001600160a01b0381163314610c195760405163334bd91960e11b815260040160405180910390fd5b610c2382826121dd565b505050565b5f80516020612cb8833981519152610c3f816121d3565b610c47612256565b50565b610c526122b5565b610c5b82612359565b610c658282612383565b5050565b5f610c7261243f565b505f80516020612c7883398151915290565b5f610c8d6120a6565b610c95612488565b5f858152600560205260409020600681015460ff168015610cc057506006810154610100900460ff16155b610cdc5760405162461bcd60e51b815260040161075f90612ba6565b60ff85161580610cef57508460ff166001145b610d0b5760405162461bcd60e51b815260040161075f90612bd6565b5f8411610d4d5760405162461bcd60e51b815260206004820152601060248201526f1053534e881e995c9bc8185b5bdd5b9d60821b604482015260640161075f565b5f61271060045486610d5f9190612afd565b610d699190612b14565b90505f610d768287612b33565b90508660ff16600103610dd0575f818460020154610d949190612b46565b90505f818560030154610da79190612b14565b9050808560010154610db99190612b33565b600186019190915560028501919091559350610e19565b5f818460010154610de19190612b46565b90505f818560030154610df49190612b14565b9050808560020154610e069190612b33565b6002860191909155600185019190915593505b84841015610e625760405162461bcd60e51b81526020600482015260166024820152751053534e881cdb1a5c1c1859d948195e18d95959195960521b604482015260640161075f565b85836004015f828254610e759190612b46565b9250508190555081836005015f828254610e8f9190612b46565b90915550505f546040516323b872dd60e01b8152336004820152306024820152604481018890526001600160a01b03909116906323b872dd906064016020604051808303815f875af1158015610ee7573d5f803e3d5ffd5b505050506040513d601f19601f82011682018060405250810190610f0b9190612b59565b610f275760405162461bcd60e51b815260040161075f90612b78565b811561109d575f610f39600384612b14565b90505f610f468285612b33565b5f5460025460405163a9059cbb60e01b81526001600160a01b03918216600482015260248101869052929350169063a9059cbb906044016020604051808303815f875af1158015610f99573d5f803e3d5ffd5b505050506040513d601f19601f82011682018060405250810190610fbd9190612b59565b6110095760405162461bcd60e51b815260206004820152601d60248201527f414d4d3a207472656173757279207472616e73666572206661696c6564000000604482015260640161075f565b5f5460035460405163a9059cbb60e01b81526001600160a01b0391821660048201526024810184905291169063a9059cbb906044016020604051808303815f875af115801561105a573d5f803e3d5ffd5b505050506040513d601f19601f8201168201806040525081019061107e9190612b59565b61109a5760405162461bcd60e51b815260040161075f90612c01565b50505b5f60ff88166110ad8a6002612afd565b6110b79190612b46565b600154604051630ab714fb60e11b815233600482015260248101839052604481018890529192506001600160a01b03169063156e29f6906064015f604051808303815f87803b158015611108575f80fd5b505af115801561111a573d5f803e3d5ffd5b50506040805160ff8c168152600160208201529081018a905260608101889052608081018690523392508b91507f4ea5d76338fdee062dc13df812d740326957191a4699af105dc1d9408acfda969060a0015b60405180910390a35050505061118f60015f80516020612d1883398151915255565b949350505050565b5f6111a06120a6565b6111a8612488565b5f848152600560205260409020600681015460ff1680156111d357506006810154610100900460ff16155b6111ef5760405162461bcd60e51b815260040161075f90612ba6565b5f841180156111fd57505f83115b61123c5760405162461bcd60e51b815260206004820152601060248201526f1053534e881e995c9bc8185b5bdd5b9d60821b604482015260640161075f565b5f858152600760205260408120549081900361126b5761126461125f8587612afd565b6124b8565b92506112ba565b60018201545f9061127c8388612afd565b6112869190612b14565b90505f8360020154838761129a9190612afd565b6112a49190612b14565b90508082106112b357806112b5565b815b945050505b5f83116113045760405162461bcd60e51b8152602060048201526018602482015277414d4d3a20696e73756666696369656e742073686172657360401b604482015260640161075f565b84826001015f8282546113179190612b46565b9250508190555083826002015f8282546113319190612b46565b90915550506002820154600183015461134a9190612afd565b60038301555f86815260066020908152604080832033845290915281208054859290611377908490612b46565b90915550505f8681526007602052604081208054859290611399908490612b46565b90915550505f546001600160a01b03166323b872dd33306113ba888a612b46565b6040516001600160e01b031960e086901b1681526001600160a01b03938416600482015292909116602483015260448201526064016020604051808303815f875af115801561140b573d5f803e3d5ffd5b505050506040513d601f19601f8201168201806040525081019061142f9190612b59565b61144b5760405162461bcd60e51b815260040161075f90612b78565b6040805186815260208101869052908101849052339087907f9c8e2178a53b464e8c6d21c6d0d1f5189e5d2f6f6a79237ba611cf996a6e6b329060600160405180910390a350506114a860015f80516020612d1883398151915255565b9392505050565b5f80516020612c988339815191526114c6816121d3565b6114ce6120a6565b5f848152600560205260409020541561151e5760405162461bcd60e51b8152602060048201526012602482015271414d4d3a206d61726b65742065786973747360701b604482015260640161075f565b6103e8831015801561153257506103e88210155b61157e5760405162461bcd60e51b815260206004820152601b60248201527f414d4d3a20696e73756666696369656e74206c69717569646974790000000000604482015260640161075f565b5f6115898385612afd565b90506040518061012001604052808681526020018581526020018481526020018281526020015f81526020015f81526020016001151581526020015f151581526020015f60ff1681525060055f8781526020019081526020015f205f820151815f01556020820151816001015560408201518160020155606082015181600301556080820151816004015560a0820151816005015560c0820151816006015f6101000a81548160ff02191690831515021790555060e08201518160060160016101000a81548160ff0219169083151502179055506101008201518160060160026101000a81548160ff021916908360ff1602179055509050505f8054906101000a90046001600160a01b03166001600160a01b03166323b872dd333086886116b19190612b46565b6040516001600160e01b031960e086901b1681526001600160a01b03938416600482015292909116602483015260448201526064016020604051808303815f875af1158015611702573d5f803e3d5ffd5b505050506040513d601f19601f820116820180604052508101906117269190612b59565b6117425760405162461bcd60e51b815260040161075f90612b78565b5f61174c826124b8565b5f87815260066020908152604080832033845282528083208490558983526007825291829020839055815188815290810187905291925087917fe9c26e878a05b14bf5f65c1e7086ace85c45a64eebdc1fa45b4341a82d444490910160405180910390a25050610bea60015f80516020612d1883398151915255565b5f80516020612cb88339815191526117df816121d3565b610c47612510565b5f9182525f80516020612cd8833981519152602090815260408084206001600160a01b0393909316845291905290205460ff1690565b5f6118266120a6565b5f8481526005602052604090206006810154610100900460ff1661187f5760405162461bcd60e51b815260206004820152601060248201526f1053534e881b9bdd081cd95d1d1b195960821b604482015260640161075f565b600681015460ff8581166201000090920416146118d15760405162461bcd60e51b815260206004820152601060248201526f414d4d3a206c6f73696e67207369646560801b604482015260640161075f565b5f83116118f05760405162461bcd60e51b815260040161075f90612abf565b8291505f60ff8516611903876002612afd565b61190d9190612b46565b600154604051637a94c56560e11b815233600482015260248101839052604481018790529192506001600160a01b03169063f5298aca906064015f604051808303815f87803b15801561195e575f80fd5b505af1158015611970573d5f803e3d5ffd5b50505f5460405163a9059cbb60e01b8152336004820152602481018790526001600160a01b03909116925063a9059cbb91506044016020604051808303815f875af11580156119c1573d5f803e3d5ffd5b505050506040513d601f19601f820116820180604052508101906119e59190612b59565b611a015760405162461bcd60e51b815260040161075f90612b78565b50506114a860015f80516020612d1883398151915255565b611a2282610bae565b611a2b816121d3565b610bea83836121dd565b5f80516020612c98833981519152611a4c816121d3565b5f838152600560205260409020600681015460ff16611a7d5760405162461bcd60e51b815260040161075f90612ba6565b6006810154610100900460ff1615611ace5760405162461bcd60e51b81526020600482015260146024820152731053534e88185b1c9958591e481cd95d1d1b195960621b604482015260640161075f565b60ff83161580611ae157508260ff166001145b611afd5760405162461bcd60e51b815260040161075f90612bd6565b60068101805460ff1960ff861662010000810262ffff001990931692909217610100171690915560405190815284907facfed0e1eaf322460f4f4e65dbca64c4db48e19844db61bcdf9d3f3ab3bab6089060200160405180910390a250505050565b5f611b686120a6565b611b70612488565b5f858152600560205260409020600681015460ff168015611b9b57506006810154610100900460ff16155b611bb75760405162461bcd60e51b815260040161075f90612ba6565b60ff85161580611bca57508460ff166001145b611be65760405162461bcd60e51b815260040161075f90612bd6565b5f8411611c055760405162461bcd60e51b815260040161075f90612abf565b8460ff16600103611c5a575f848260010154611c219190612b46565b90505f818360030154611c349190612b14565b9050808360020154611c469190612b33565b600184019290925560028301559150611ca0565b5f848260020154611c6b9190612b46565b90505f818360030154611c7e9190612b14565b9050808360010154611c909190612b33565b6002840192909255600183015591505b5f61271060045484611cb29190612afd565b611cbc9190612b14565b90505f611cc98285612b33565b905084811015611d145760405162461bcd60e51b81526020600482015260166024820152751053534e881cdb1a5c1c1859d948195e18d95959195960521b604482015260640161075f565b83836004015f828254611d279190612b46565b9250508190555081836005015f828254611d419190612b46565b909155505f905060ff8816611d578a6002612afd565b611d619190612b46565b600154604051637a94c56560e11b815233600482015260248101839052604481018a90529192506001600160a01b03169063f5298aca906064015f604051808303815f87803b158015611db2575f80fd5b505af1158015611dc4573d5f803e3d5ffd5b50505f5460405163a9059cbb60e01b8152336004820152602481018690526001600160a01b03909116925063a9059cbb91506044016020604051808303815f875af1158015611e15573d5f803e3d5ffd5b505050506040513d601f19601f82011682018060405250810190611e399190612b59565b611e555760405162461bcd60e51b815260040161075f90612b78565b8215611fcb575f611e67600385612b14565b90505f611e748286612b33565b5f5460025460405163a9059cbb60e01b81526001600160a01b03918216600482015260248101869052929350169063a9059cbb906044016020604051808303815f875af1158015611ec7573d5f803e3d5ffd5b505050506040513d601f19601f82011682018060405250810190611eeb9190612b59565b611f375760405162461bcd60e51b815260206004820152601d60248201527f414d4d3a207472656173757279207472616e73666572206661696c6564000000604482015260640161075f565b5f5460035460405163a9059cbb60e01b81526001600160a01b0391821660048201526024810184905291169063a9059cbb906044016020604051808303815f875af1158015611f88573d5f803e3d5ffd5b505050506040513d601f19601f82011682018060405250810190611fac9190612b59565b611fc85760405162461bcd60e51b815260040161075f90612c01565b50505b6040805160ff8a1681525f6020820152908101889052606081018690526080810184905233908a907f4ea5d76338fdee062dc13df812d740326957191a4699af105dc1d9408acfda969060a00161116d565b5f82815260056020526040812060ff831660010361206c57806002015481600101546120499190612b46565b612710826002015461205b9190612afd565b6120659190612b14565b915061209f565b806002015481600101546120809190612b46565b61271082600101546120929190612afd565b61209c9190612b14565b91505b5092915050565b5f80516020612d188339815191528054600119016120d757604051633ee5aeb560e01b815260040160405180910390fd5b60029055565b60015f80516020612d1883398151915255565b5f807ff0c57e16840df040f15088dc2f81fe391c3923bec73e23a9662efc9c229c6a006109e4565b612120612558565b61212861257d565b565b612128612558565b5f5f80516020612cd883398151915261214b84846117e7565b6121ca575f848152602082815260408083206001600160a01b03871684529091529020805460ff191660011790556121803390565b6001600160a01b0316836001600160a01b0316857f2f8788117e7eff1d82e926ec794901d17c78024a50270940304540a733656f0d60405160405180910390a460019150506109e4565b5f9150506109e4565b610c478133612585565b5f5f80516020612cd88339815191526121f684846117e7565b156121ca575f848152602082815260408083206001600160a01b0387168085529252808320805460ff1916905551339287917ff6391f5c32d9c69d2a47ea670b442974b53935d1edc7fd64eb21e047a839171b9190a460019150506109e4565b61225e6125be565b5f80516020612cf8833981519152805460ff191681557f5db9ee0a495bf2e6ff9c91a7834c1ba4fdd244a5e8aa4e537bd38aeae4b073aa335b6040516001600160a01b03909116815260200160405180910390a150565b306001600160a01b037f000000000000000000000000000000000000000000000000000000000000000016148061233b57507f00000000000000000000000000000000000000000000000000000000000000006001600160a01b031661232f5f80516020612c78833981519152546001600160a01b031690565b6001600160a01b031614155b156121285760405163703e46dd60e11b815260040160405180910390fd5b7f189ab7a9244df0848122154315af71fe140f3db0fe014031783b0946b8c9d2e3610c65816121d3565b816001600160a01b03166352d1902d6040518163ffffffff1660e01b8152600401602060405180830381865afa9250505080156123dd575060408051601f3d908101601f191682019092526123da91810190612c45565b60015b61240557604051634c9c8ce360e01b81526001600160a01b038316600482015260240161075f565b5f80516020612c78833981519152811461243557604051632a87526960e21b81526004810182905260240161075f565b610c2383836125ed565b306001600160a01b037f000000000000000000000000000000000000000000000000000000000000000016146121285760405163703e46dd60e11b815260040160405180910390fd5b5f80516020612cf88339815191525460ff16156121285760405163d93c066560e01b815260040160405180910390fd5b5f8060026124c7846001612b46565b6124d19190612b14565b90508291505b8181101561250a579050806002816124ef8186612b14565b6124f99190612b46565b6125039190612b14565b90506124d7565b50919050565b612518612488565b5f80516020612cf8833981519152805460ff191660011781557f62e78cea01bee320cd4e420270b5ea74000d11b0c9f74754ebdbfc544b05a25833612297565b612560612642565b61212857604051631afcd79f60e31b815260040160405180910390fd5b6120dd612558565b61258f82826117e7565b610c655760405163e2517d3f60e01b81526001600160a01b03821660048201526024810183905260440161075f565b5f80516020612cf88339815191525460ff1661212857604051638dfc202b60e01b815260040160405180910390fd5b6125f68261265b565b6040516001600160a01b038316907fbc7cd75a20ee27fd9adebab32041f755214dbc6bffa90cc0225b39da2e5c2d3b905f90a280511561263a57610c2382826126be565b610c65612730565b5f61264b6120f0565b54600160401b900460ff16919050565b806001600160a01b03163b5f0361269057604051634c9c8ce360e01b81526001600160a01b038216600482015260240161075f565b5f80516020612c7883398151915280546001600160a01b0319166001600160a01b0392909216919091179055565b60605f80846001600160a01b0316846040516126da9190612c5c565b5f60405180830381855af49150503d805f8114612712576040519150601f19603f3d011682016040523d82523d5f602084013e612717565b606091505b509150915061272785838361274f565b95945050505050565b34156121285760405163b398979f60e01b815260040160405180910390fd5b6060826127645761275f826127ab565b6114a8565b815115801561277b57506001600160a01b0384163b155b156127a457604051639996b31560e01b81526001600160a01b038516600482015260240161075f565b50806114a8565b8051156127ba57805160208201fd5b60405163d6bda27560e01b815260040160405180910390fd5b5f80604083850312156127e4575f80fd5b50508035926020909101359150565b5f60208284031215612803575f80fd5b81356001600160e01b0319811681146114a8575f80fd5b80356001600160a01b0381168114612830575f80fd5b919050565b5f805f805f60a08688031215612849575f80fd5b6128528661281a565b94506128606020870161281a565b935061286e6040870161281a565b925061287c6060870161281a565b915061288a6080870161281a565b90509295509295909350565b5f602082840312156128a6575f80fd5b5035919050565b5f80604083850312156128be575f80fd5b823591506128ce6020840161281a565b90509250929050565b634e487b7160e01b5f52604160045260245ffd5b5f80604083850312156128fc575f80fd5b6129058361281a565b9150602083013567ffffffffffffffff80821115612921575f80fd5b818501915085601f830112612934575f80fd5b813581811115612946576129466128d7565b604051601f8201601f19908116603f0116810190838211818310171561296e5761296e6128d7565b81604052828152886020848701011115612986575f80fd5b826020860160208301375f6020848301015280955050505050509250929050565b803560ff81168114612830575f80fd5b5f805f80608085870312156129ca575f80fd5b843593506129da602086016129a7565b93969395505050506040820135916060013590565b5f805f60608486031215612a01575f80fd5b505081359360208301359350604090920135919050565b5f805f60608486031215612a2a575f80fd5b83359250612a3a602085016129a7565b9150604084013590509250925092565b5f5b83811015612a64578181015183820152602001612a4c565b50505f910152565b602081525f8251806020840152612a8a816040850160208701612a4a565b601f01601f19169190910160400192915050565b5f8060408385031215612aaf575f80fd5b823591506128ce602084016129a7565b60208082526010908201526f414d4d3a207a65726f2073686172657360801b604082015260600190565b634e487b7160e01b5f52601160045260245ffd5b80820281158282048414176109e4576109e4612ae9565b5f82612b2e57634e487b7160e01b5f52601260045260245ffd5b500490565b818103818111156109e4576109e4612ae9565b808201808211156109e4576109e4612ae9565b5f60208284031215612b69575f80fd5b815180151581146114a8575f80fd5b6020808252601490820152731053534e881d1c985b9cd9995c8819985a5b195960621b604082015260600190565b602080825260169082015275414d4d3a206d61726b6574206e6f742061637469766560501b604082015260600190565b602080825260119082015270414d4d3a20696e76616c6964207369646560781b604082015260600190565b60208082526024908201527f414d4d3a20666565206469737472696275746f72207472616e736665722066616040820152631a5b195960e21b606082015260800190565b5f60208284031215612c55575f80fd5b5051919050565b5f8251612c6d818460208701612a4a565b919091019291505056fe360894a13ba1a3210667c828492db98dca3e2076cc3735a920a3ca505d382bbc97667070c54ef182b0f5858b034beac1b6f3089aa2d3188bb1e8929f4fa9b92965d7a28e3265b37a6474929f336521b332c1681b933f6cb9f3376673440d862a02dd7bc7dec4dceedda775e58dd541e08a116c6c53815c0bd028192f7b626800cd5ed15c6e187e77e9aee88184c21f4f2182ab5827cb3b7e07fbedcd63f033009b779b17422d0df92223018b32b4d1fa46e071723d6817e2486d003becc55f00a2646970667358221220e1cfb02ad78c334c190ec0111825fb2e0f005723e562bf1b383f17d700d09fdd64736f6c63430008180033",
  "linkReferences": {},
  "deployedLinkReferences": {}
}