{
  "_format": "hh-sol-artifact-1",
  "contractName": "MarketFactoryV2",
  "sourceName": "contracts-v2/MarketFactoryV2.sol",
  "abi": [
    {
      "inputs": [],
      "stateMutability": "nonpayable",
      "type": "constructor"
    },
    {
      "inputs": [],
      "name": "AccessControlBadConfirmation",
      "type": "error"
    },
    {
      "inputs": [
        {
          "internalType": "address",
          "name": "account",
          "type": "address"
        },
        {
          "internalType": "bytes32",
          "name": "neededRole",
          "type": "bytes32"
        }
      ],
      "name": "AccessControlUnauthorizedAccount",
      "type": "error"
    },
    {
      "inputs": [
        {
          "internalType": "address",
          "name": "target",
          "type": "address"
        }
      ],
      "name": "AddressEmptyCode",
      "type": "error"
    },
    {
      "inputs": [
        {
          "internalType": "address",
          "name": "implementation",
          "type": "address"
        }
      ],
      "name": "ERC1967InvalidImplementation",
      "type": "error"
    },
    {
      "inputs": [],
      "name": "ERC1967NonPayable",
      "type": "error"
    },
    {
      "inputs": [],
      "name": "EnforcedPause",
      "type": "error"
    },
    {
      "inputs": [],
      "name": "ExpectedPause",
      "type": "error"
    },
    {
      "inputs": [],
      "name": "FailedCall",
      "type": "error"
    },
    {
      "inputs": [],
      "name": "InvalidInitialization",
      "type": "error"
    },
    {
      "inputs": [],
      "name": "NotInitializing",
      "type": "error"
    },
    {
      "inputs": [],
      "name": "ReentrancyGuardReentrantCall",
      "type": "error"
    },
    {
      "inputs": [],
      "name": "UUPSUnauthorizedCallContext",
      "type": "error"
    },
    {
      "inputs": [
        {
          "internalType": "bytes32",
          "name": "slot",
          "type": "bytes32"
        }
      ],
      "name": "UUPSUnsupportedProxiableUUID",
      "type": "error"
    },
    {
      "anonymous": false,
      "inputs": [
        {
          "indexed": false,
          "internalType": "uint64",
          "name": "version",
          "type": "uint64"
        }
      ],
      "name": "Initialized",
      "type": "event"
    },
    {
      "anonymous": false,
      "inputs": [
        {
          "indexed": true,
          "internalType": "bytes32",
          "name": "marketId",
          "type": "bytes32"
        }
      ],
      "name": "MarketClosed",
      "type": "event"
    },
    {
      "anonymous": false,
      "inputs": [
        {
          "indexed": true,
          "internalType": "bytes32",
          "name": "marketId",
          "type": "bytes32"
        },
        {
          "indexed": false,
          "internalType": "string",
          "name": "eventId",
          "type": "string"
        },
        {
          "indexed": false,
          "internalType": "string",
          "name": "description",
          "type": "string"
        },
        {
          "indexed": false,
          "internalType": "enum MarketFactoryV2.MarketCategory",
          "name": "category",
          "type": "uint8"
        },
        {
          "indexed": true,
          "internalType": "address",
          "name": "creator",
          "type": "address"
        },
        {
          "indexed": false,
          "internalType": "uint256",
          "name": "closeTimestamp",
          "type": "uint256"
        }
      ],
      "name": "MarketCreated",
      "type": "event"
    },
    {
      "anonymous": false,
      "inputs": [
        {
          "indexed": false,
          "internalType": "uint256",
          "name": "newFee",
          "type": "uint256"
        }
      ],
      "name": "MarketCreationFeeUpdated",
      "type": "event"
    },
    {
      "anonymous": false,
      "inputs": [
        {
          "indexed": false,
          "internalType": "uint256",
          "name": "newMin",
          "type": "uint256"
        }
      ],
      "name": "MinLiquidityUpdated",
      "type": "event"
    },
    {
      "anonymous": false,
      "inputs": [
        {
          "indexed": false,
          "internalType": "address",
          "name": "account",
          "type": "address"
        }
      ],
      "name": "Paused",
      "type": "event"
    },
    {
      "anonymous": false,
      "inputs": [
        {
          "indexed": true,
          "internalType": "bytes32",
          "name": "role",
          "type": "bytes32"
        },
        {
          "indexed": true,
          "internalType": "bytes32",
          "name": "previousAdminRole",
          "type": "bytes32"
        },
        {
          "indexed": true,
          "internalType": "bytes32",
          "name": "newAdminRole",
          "type": "bytes32"
        }
      ],
      "name": "RoleAdminChanged",
      "type": "event"
    },
    {
      "anonymous": false,
      "inputs": [
        {
          "indexed": true,
          "internalType": "bytes32",
          "name": "role",
          "type": "bytes32"
        },
        {
          "indexed": true,
          "internalType": "address",
          "name": "account",
          "type": "address"
        },
        {
          "indexed": true,
          "internalType": "address",
          "name": "sender",
          "type": "address"
        }
      ],
      "name": "RoleGranted",
      "type": "event"
    },
    {
      "anonymous": false,
      "inputs": [
        {
          "indexed": true,
          "internalType": "bytes32",
          "name": "role",
          "type": "bytes32"
        },
        {
          "indexed": true,
          "internalType": "address",
          "name": "account",
          "type": "address"
        },
        {
          "indexed": true,
          "internalType": "address",
          "name": "sender",
          "type": "address"
        }
      ],
      "name": "RoleRevoked",
      "type": "event"
    },
    {
      "anonymous": false,
      "inputs": [
        {
          "indexed": false,
          "internalType": "address",
          "name": "account",
          "type": "address"
        }
      ],
      "name": "Unpaused",
      "type": "event"
    },
    {
      "anonymous": false,
      "inputs": [
        {
          "indexed": true,
          "internalType": "address",
          "name": "implementation",
          "type": "address"
        }
      ],
      "name": "Upgraded",
      "type": "event"
    },
    {
      "inputs": [],
      "name": "DEFAULT_ADMIN_ROLE",
      "outputs": [
        {
          "internalType": "bytes32",
          "name": "",
          "type": "bytes32"
        }
      ],
      "stateMutability": "view",
      "type": "function"
    },
    {
      "inputs": [],
      "name": "OPERATOR_ROLE",
      "outputs": [
        {
          "internalType": "bytes32",
          "name": "",
          "type": "bytes32"
        }
      ],
      "stateMutability": "view",
      "type": "function"
    },
    {
      "inputs": [],
      "name": "PAUSER_ROLE",
      "outputs": [
        {
          "internalType": "bytes32",
          "name": "",
          "type": "bytes32"
        }
      ],
      "stateMutability": "view",
      "type": "function"
    },
    {
      "inputs": [],
      "name": "UPGRADER_ROLE",
      "outputs": [
        {
          "internalType": "bytes32",
          "name": "",
          "type": "bytes32"
        }
      ],
      "stateMutability": "view",
      "type": "function"
    },
    {
      "inputs": [],
      "name": "UPGRADE_INTERFACE_VERSION",
      "outputs": [
        {
          "internalType": "string",
          "name": "",
          "type": "string"
        }
      ],
      "stateMutability": "view",
      "type": "function"
    },
    {
      "inputs": [
        {
          "internalType": "uint256",
          "name": "",
          "type": "uint256"
        }
      ],
      "name": "allMarketIds",
      "outputs": [
        {
          "internalType": "bytes32",
          "name": "",
          "type": "bytes32"
        }
      ],
      "stateMutability": "view",
      "type": "function"
    },
    {
      "inputs": [],
      "name": "amm",
      "outputs": [
        {
          "internalType": "contract IPredictionAMM",
          "name": "",
          "type": "address"
        }
      ],
      "stateMutability": "view",
      "type": "function"
    },
    {
      "inputs": [
        {
          "internalType": "bytes32",
          "name": "marketId",
          "type": "bytes32"
        }
      ],
      "name": "closeMarket",
      "outputs": [],
      "stateMutability": "nonpayable",
      "type": "function"
    },
    {
      "inputs": [
        {
          "internalType": "string",
          "name": "eventId",
          "type": "string"
        },
        {
          "internalType": "string",
          "name": "description",
          "type": "string"
        },
        {
          "internalType": "enum MarketFactoryV2.MarketCategory",
          "name": "category",
          "type": "uint8"
        },
        {
          "internalType": "string[]",
          "name": "tags",
          "type": "string[]"
        },
        {
          "internalType": "uint256",
          "name": "closeTimestamp",
          "type": "uint256"
        },
        {
          "internalType": "uint256",
          "name": "resolutionTimestamp",
          "type": "uint256"
        },
        {
          "internalType": "uint256",
          "name": "initialYes",
          "type": "uint256"
        },
        {
          "internalType": "uint256",
          "name": "initialNo",
          "type": "uint256"
        }
      ],
      "name": "createMarket",
      "outputs": [
        {
          "internalType": "bytes32",
          "name": "marketId",
          "type": "bytes32"
        }
      ],
      "stateMutability": "nonpayable",
      "type": "function"
    },
    {
      "inputs": [
        {
          "internalType": "address",
          "name": "",
          "type": "address"
        }
      ],
      "name": "creatorMarketCount",
      "outputs": [
        {
          "internalType": "uint256",
          "name": "",
          "type": "uint256"
        }
      ],
      "stateMutability": "view",
      "type": "function"
    },
    {
      "inputs": [
        {
          "internalType": "bytes32",
          "name": "marketId",
          "type": "bytes32"
        }
      ],
      "name": "getMarket",
      "outputs": [
        {
          "internalType": "string",
          "name": "eventId",
          "type": "string"
        },
        {
          "internalType": "string",
          "name": "description",
          "type": "string"
        },
        {
          "internalType": "enum MarketFactoryV2.MarketCategory",
          "name": "category",
          "type": "uint8"
        },
        {
          "internalType": "uint256",
          "name": "closeTimestamp",
          "type": "uint256"
        },
        {
          "internalType": "uint256",
          "name": "resolutionTimestamp",
          "type": "uint256"
        },
        {
          "internalType": "address",
          "name": "creator",
          "type": "address"
        },
        {
          "internalType": "bool",
          "name": "active",
          "type": "bool"
        }
      ],
      "stateMutability": "view",
      "type": "function"
    },
    {
      "inputs": [
        {
          "internalType": "bytes32",
          "name": "marketId",
          "type": "bytes32"
        }
      ],
      "name": "getMarketTags",
      "outputs": [
        {
          "internalType": "string[]",
          "name": "",
          "type": "string[]"
        }
      ],
      "stateMutability": "view",
      "type": "function"
    },
    {
      "inputs": [
        {
          "internalType": "enum MarketFactoryV2.MarketCategory",
          "name": "category",
          "type": "uint8"
        }
      ],
      "name": "getMarketsByCategory",
      "outputs": [
        {
          "internalType": "bytes32[]",
          "name": "",
          "type": "bytes32[]"
        }
      ],
      "stateMutability": "view",
      "type": "function"
    },
    {
      "inputs": [
        {
          "internalType": "bytes32",
          "name": "role",
          "type": "bytes32"
        }
      ],
      "name": "getRoleAdmin",
      "outputs": [
        {
          "internalType": "bytes32",
          "name": "",
          "type": "bytes32"
        }
      ],
      "stateMutability": "view",
      "type": "function"
    },
    {
      "inputs": [],
      "name": "getTotalMarkets",
      "outputs": [
        {
          "internalType": "uint256",
          "name": "",
          "type": "uint256"
        }
      ],
      "stateMutability": "view",
      "type": "function"
    },
    {
      "inputs": [
        {
          "internalType": "bytes32",
          "name": "role",
          "type": "bytes32"
        },
        {
          "internalType": "address",
          "name": "account",
          "type": "address"
        }
      ],
      "name": "grantRole",
      "outputs": [],
      "stateMutability": "nonpayable",
      "type": "function"
    },
    {
      "inputs": [
        {
          "internalType": "bytes32",
          "name": "role",
          "type": "bytes32"
        },
        {
          "internalType": "address",
          "name": "account",
          "type": "address"
        }
      ],
      "name": "hasRole",
      "outputs": [
        {
          "internalType": "bool",
          "name": "",
          "type": "bool"
        }
      ],
      "stateMutability": "view",
      "type": "function"
    },
    {
      "inputs": [
        {
          "internalType": "address",
          "name": "_usdc",
          "type": "address"
        },
        {
          "internalType": "address",
          "name": "_amm",
          "type": "address"
        },
        {
          "internalType": "address",
          "name": "_treasury",
          "type": "address"
        },
        {
          "internalType": "uint256",
          "name": "_marketCreationFee",
          "type": "uint256"
        },
        {
          "internalType": "uint256",
          "name": "_minInitialLiquidity",
          "type": "uint256"
        },
        {
          "internalType": "address",
          "name": "defaultAdmin",
          "type": "address"
        }
      ],
      "name": "initialize",
      "outputs": [],
      "stateMutability": "nonpayable",
      "type": "function"
    },
    {
      "inputs": [],
      "name": "marketCreationFee",
      "outputs": [
        {
          "internalType": "uint256",
          "name": "",
          "type": "uint256"
        }
      ],
      "stateMutability": "view",
      "type": "function"
    },
    {
      "inputs": [
        {
          "internalType": "bytes32",
          "name": "",
          "type": "bytes32"
        }
      ],
      "name": "markets",
      "outputs": [
        {
          "internalType": "bytes32",
          "name": "marketId",
          "type": "bytes32"
        },
        {
          "internalType": "string",
          "name": "eventId",
          "type": "string"
        },
        {
          "internalType": "string",
          "name": "description",
          "type": "string"
        },
        {
          "internalType": "enum MarketFactoryV2.MarketCategory",
          "name": "category",
          "type": "uint8"
        },
        {
          "internalType": "uint256",
          "name": "closeTimestamp",
          "type": "uint256"
        },
        {
          "internalType": "uint256",
          "name": "resolutionTimestamp",
          "type": "uint256"
        },
        {
          "internalType": "address",
          "name": "creator",
          "type": "address"
        },
        {
          "internalType": "uint256",
          "name": "createdAt",
          "type": "uint256"
        },
        {
          "internalType": "bool",
          "name": "active",
          "type": "bool"
        }
      ],
      "stateMutability": "view",
      "type": "function"
    },
    {
      "inputs": [
        {
          "internalType": "enum MarketFactoryV2.MarketCategory",
          "name": "",
          "type": "uint8"
        },
        {
          "internalType": "uint256",
          "name": "",
          "type": "uint256"
        }
      ],
      "name": "marketsByCategory",
      "outputs": [
        {
          "internalType": "bytes32",
          "name": "",
          "type": "bytes32"
        }
      ],
      "stateMutability": "view",
      "type": "function"
    },
    {
      "inputs": [],
      "name": "maxMarketsPerCreator",
      "outputs": [
        {
          "internalType": "uint256",
          "name": "",
          "type": "uint256"
        }
      ],
      "stateMutability": "view",
      "type": "function"
    },
    {
      "inputs": [],
      "name": "minInitialLiquidity",
      "outputs": [
        {
          "internalType": "uint256",
          "name": "",
          "type": "uint256"
        }
      ],
      "stateMutability": "view",
      "type": "function"
    },
    {
      "inputs": [],
      "name": "pause",
      "outputs": [],
      "stateMutability": "nonpayable",
      "type": "function"
    },
    {
      "inputs": [],
      "name": "paused",
      "outputs": [
        {
          "internalType": "bool",
          "name": "",
          "type": "bool"
        }
      ],
      "stateMutability": "view",
      "type": "function"
    },
    {
      "inputs": [],
      "name": "proxiableUUID",
      "outputs": [
        {
          "internalType": "bytes32",
          "name": "",
          "type": "bytes32"
        }
      ],
      "stateMutability": "view",
      "type": "function"
    },
    {
      "inputs": [
        {
          "internalType": "bytes32",
          "name": "role",
          "type": "bytes32"
        },
        {
          "internalType": "address",
          "name": "callerConfirmation",
          "type": "address"
        }
      ],
      "name": "renounceRole",
      "outputs": [],
      "stateMutability": "nonpayable",
      "type": "function"
    },
    {
      "inputs": [
        {
          "internalType": "bytes32",
          "name": "role",
          "type": "bytes32"
        },
        {
          "internalType": "address",
          "name": "account",
          "type": "address"
        }
      ],
      "name": "revokeRole",
      "outputs": [],
      "stateMutability": "nonpayable",
      "type": "function"
    },
    {
      "inputs": [
        {
          "internalType": "address",
          "name": "_amm",
          "type": "address"
        }
      ],
      "name": "setAMM",
      "outputs": [],
      "stateMutability": "nonpayable",
      "type": "function"
    },
    {
      "inputs": [
        {
          "internalType": "uint256",
          "name": "newFee",
          "type": "uint256"
        }
      ],
      "name": "setMarketCreationFee",
      "outputs": [],
      "stateMutability": "nonpayable",
      "type": "function"
    },
    {
      "inputs": [
        {
          "internalType": "uint256",
          "name": "newMax",
          "type": "uint256"
        }
      ],
      "name": "setMaxMarketsPerCreator",
      "outputs": [],
      "stateMutability": "nonpayable",
      "type": "function"
    },
    {
      "inputs": [
        {
          "internalType": "uint256",
          "name": "newMin",
          "type": "uint256"
        }
      ],
      "name": "setMinInitialLiquidity",
      "outputs": [],
      "stateMutability": "nonpayable",
      "type": "function"
    },
    {
      "inputs": [
        {
          "internalType": "address",
          "name": "_treasury",
          "type": "address"
        }
      ],
      "name": "setTreasury",
      "outputs": [],
      "stateMutability": "nonpayable",
      "type": "function"
    },
    {
      "inputs": [
        {
          "internalType": "bytes4",
          "name": "interfaceId",
          "type": "bytes4"
        }
      ],
      "name": "supportsInterface",
      "outputs": [
        {
          "internalType": "bool",
          "name": "",
          "type": "bool"
        }
      ],
      "stateMutability": "view",
      "type": "function"
    },
    {
      "inputs": [],
      "name": "treasury",
      "outputs": [
        {
          "internalType": "address",
          "name": "",
          "type": "address"
        }
      ],
      "stateMutability": "view",
      "type": "function"
    },
    {
      "inputs": [],
      "name": "unpause",
      "outputs": [],
      "stateMutability": "nonpayable",
      "type": "function"
    },
    {
      "inputs": [
        {
          "internalType": "address",
          "name": "newImplementation",
          "type": "address"
        },
        {
          "internalType": "bytes",
          "name": "data",
          "type": "bytes"
        }
      ],
      "name": "upgradeToAndCall",
      "outputs": [],
      "stateMutability": "payable",
      "type": "function"
    },
    {
      "inputs": [],
      "name": "usdc",
      "outputs": [
        {
          "internalType": "contract IERC20",
          "name": "",
          "type": "address"
        }
      ],
      "stateMutability": "view",
      "type": "function"
    }
  ],
  "bytecode": "0x60a06040523060805234801562000014575f80fd5b506200001f62000025565b620000d9565b7ff0c57e16840df040f15088dc2f81fe391c3923bec73e23a9662efc9c229c6a00805468010000000000000000900460ff1615620000765760405163f92ee8a960e01b815260040160405180910390fd5b80546001600160401b0390811614620000d65780546001600160401b0319166001600160401b0390811782556040519081527fc7f505b2f371ae2175ee4913f4499e1f2633a7b5936321eed1cdaeb6115181d29060200160405180910390a15b50565b6080516129b6620001005f395f8181611b0001528181611b290152611c8a01526129b65ff3fe60806040526004361061021d575f3560e01c806381ebf2091161011e578063c3c95c7b116100a8578063e7f9b29d1161006d578063e7f9b29d14610675578063f0f442601461068a578063f5b541a6146106a9578063f72c0d8b146106dc578063fc5ee7de1461070f575f80fd5b8063c3c95c7b146105c6578063cde05316146105f8578063d547741f14610617578063e63ab1e914610636578063e719939614610656575f80fd5b80639f37022a116100ee5780639f37022a1461050c578063a217fddf1461052b578063aa8ea3a01461053e578063ad3cb1cc1461055d578063b54d632a1461059a575f80fd5b806381ebf209146104995780638456cb59146104ad57806391d14854146104c157806396d2fb8c146104e0575f80fd5b80633e413bee116101aa5780635c975abb1161016f5780635c975abb146103e357806361d027b31461040657806367fca1b214610425578063738c4438146104505780637564912b14610465575f80fd5b80633e413bee1461036b5780633f4ba83a146103895780634b636f721461039d5780634f1ef286146103bc57806352d1902d146103cf575f80fd5b80632a943945116101f05780632a943945146102c25780632ef1bdfa146102f95780632f2ff15d1461030e5780632f5b473e1461032d57806336568abe1461034c575f80fd5b806301ffc9a714610221578063031d973e146102555780632318802414610276578063248a9ca3146102a3575b5f80fd5b34801561022c575f80fd5b5061024061023b366004612044565b61072e565b60405190151581526020015b60405180910390f35b348015610260575f80fd5b5061027461026f36600461206b565b610764565b005b348015610281575f80fd5b5061029561029036600461206b565b61084e565b60405190815260200161024c565b3480156102ae575f80fd5b506102956102bd36600461206b565b61086d565b3480156102cd575f80fd5b506001546102e1906001600160a01b031681565b6040516001600160a01b03909116815260200161024c565b348015610304575f80fd5b5061029560035481565b348015610319575f80fd5b5061027461032836600461209d565b61088d565b348015610338575f80fd5b5061029561034736600461215b565b6108af565b348015610357575f80fd5b5061027461036636600461209d565b61103f565b348015610376575f80fd5b505f546102e1906001600160a01b031681565b348015610394575f80fd5b50610274611077565b3480156103a8575f80fd5b506102746103b7366004612221565b611099565b6102746103ca36600461231d565b61126e565b3480156103da575f80fd5b5061029561128d565b3480156103ee575f80fd5b505f805160206129618339815191525460ff16610240565b348015610411575f80fd5b506002546102e1906001600160a01b031681565b348015610430575f80fd5b5061029561043f36600461237b565b60076020525f908152604090205481565b34801561045b575f80fd5b5061029560045481565b348015610470575f80fd5b5061048461047f36600461206b565b6112a8565b60405161024c99989796959493929190612415565b3480156104a4575f80fd5b50600954610295565b3480156104b8575f80fd5b5061027461140c565b3480156104cc575f80fd5b506102406104db36600461209d565b61142b565b3480156104eb575f80fd5b506104ff6104fa36600461206b565b611461565b60405161024c9190612489565b348015610517575f80fd5b5061027461052636600461206b565b611549565b348015610536575f80fd5b506102955f81565b348015610549575f80fd5b5061027461055836600461237b565b611590565b348015610568575f80fd5b5061058d604051806040016040528060058152602001640352e302e360dc1b81525081565b60405161024c91906124eb565b3480156105a5575f80fd5b506105b96105b43660046124fd565b6115bd565b60405161024c9190612516565b3480156105d1575f80fd5b506105e56105e036600461206b565b611646565b60405161024c9796959493929190612559565b348015610603575f80fd5b5061027461061236600461206b565b6117cd565b348015610622575f80fd5b5061027461063136600461209d565b61180c565b348015610641575f80fd5b506102955f8051602061292183398151915281565b348015610661575f80fd5b5061027461067036600461206b565b611828565b348015610680575f80fd5b5061029560055481565b348015610695575f80fd5b506102746106a436600461237b565b611838565b3480156106b4575f80fd5b506102957f97667070c54ef182b0f5858b034beac1b6f3089aa2d3188bb1e8929f4fa9b92981565b3480156106e7575f80fd5b506102957f189ab7a9244df0848122154315af71fe140f3db0fe014031783b0946b8c9d2e381565b34801561071a575f80fd5b506102956107293660046125bd565b611865565b5f6001600160e01b03198216637965db0b60e01b148061075e57506301ffc9a760e01b6001600160e01b03198316145b92915050565b5f818152600660205260409020600981015460ff166107c05760405162461bcd60e51b8152602060048201526013602482015272466163746f72793a206e6f742061637469766560681b60448201526064015b60405180910390fd5b80600501544210156108145760405162461bcd60e51b815260206004820152601a60248201527f466163746f72793a206e6f742079657420636c6f736561626c6500000000000060448201526064016107b7565b60098101805460ff1916905560405182907f685acf17bc506d0cfe7016cdc38205cbb6f983cc284d783ec999a280bb582519905f90a25050565b6009818154811061085d575f80fd5b5f91825260209091200154905081565b5f9081525f80516020612941833981519152602052604090206001015490565b6108968261086d565b61089f81611890565b6108a9838361189a565b50505050565b5f6108b861193b565b6108c0611985565b8a158015906108d0575060648b11155b61091c5760405162461bcd60e51b815260206004820152601860248201527f466163746f72793a20696e76616c6964206576656e744964000000000000000060448201526064016107b7565b881580159061092d57506101f48911155b6109795760405162461bcd60e51b815260206004820152601c60248201527f466163746f72793a20696e76616c6964206465736372697074696f6e0000000060448201526064016107b7565b4285116109c15760405162461bcd60e51b8152602060048201526016602482015275119858dd1bdc9e4e8818db1bdcd9481a5b881c185cdd60521b60448201526064016107b7565b848411610a105760405162461bcd60e51b815260206004820181905260248201527f466163746f72793a20696e76616c6964207265736f6c7574696f6e2074696d6560448201526064016107b7565b6004548310158015610a2457506004548210155b610a705760405162461bcd60e51b815260206004820152601f60248201527f466163746f72793a20696e73756666696369656e74206c69717569646974790060448201526064016107b7565b600554335f9081526007602052604090205410610acf5760405162461bcd60e51b815260206004820152601c60248201527f466163746f72793a2072617465206c696d69742065786365656465640000000060448201526064016107b7565b8b8b8b8b88334642604051602001610aee9897969594939291906125e5565b60408051601f1981840301815291815281516020928301205f818152600690935291205490915015610b5b5760405162461bcd60e51b8152602060048201526016602482015275466163746f72793a206d61726b65742065786973747360501b60448201526064016107b7565b60035415610c2e575f546002546003546040516323b872dd60e01b81523360048201526001600160a01b03928316602482015260448101919091529116906323b872dd906064016020604051808303815f875af1158015610bbe573d5f803e3d5ffd5b505050506040513d601f19601f82011682018060405250810190610be2919061262a565b610c2e5760405162461bcd60e51b815260206004820152601c60248201527f466163746f72793a20666565207472616e73666572206661696c65640000000060448201526064016107b7565b5f610c39838561265d565b5f546001546040516323b872dd60e01b81523360048201526001600160a01b0391821660248201526044810184905292935016906323b872dd906064016020604051808303815f875af1158015610c92573d5f803e3d5ffd5b505050506040513d601f19601f82011682018060405250810190610cb6919061262a565b610d0d5760405162461bcd60e51b815260206004820152602260248201527f466163746f72793a206c6971756964697479207472616e73666572206661696c604482015261195960f21b60648201526084016107b7565b6040518061014001604052808381526020018e8e8080601f0160208091040260200160405190810160405280939291908181526020018383808284375f92019190915250505090825250604080516020601f8f018190048102820181019092528d815291810191908e908e90819084018382808284375f920191909152505050908252506020018a6005811115610da657610da66123e1565b8152602001610db5898b612670565b815260208082018990526040808301899052336060840152426080840152600160a09093018390525f868152600683522083518155908301519091820190610dfd9082612787565b5060408201516002820190610e129082612787565b50606082015160038201805460ff19166001836005811115610e3657610e366123e1565b021790555060808201518051610e56916004840191602090910190611f8e565b5060a082015160058281019190915560c0830151600683015560e08301516007830180546001600160a01b0319166001600160a01b03909216919091179055610100830151600880840191909155610120909301516009928301805460ff191691151591909117905581546001810183555f9283527f6e1540171b6c0c960b71a7020d9f60077f6af931a8bbf590da0223dacf75c7af018590558b90811115610f0157610f016123e1565b6005811115610f1257610f126123e1565b815260208082019290925260409081015f90812080546001810182559082528382200185905533815260079092528120805491610f4e83612847565b90915550506001546040516320f80d0760e21b81526004810184905260248101869052604481018590526001600160a01b03909116906383e0341c906064015f604051808303815f87803b158015610fa4575f80fd5b505af1158015610fb6573d5f803e3d5ffd5b50505050336001600160a01b0316827f89da9b2972db169ac988fe8ba4f1bb331042c71020e3b64714a98ee7fc47a22a8f8f8f8f8f8d604051610ffe96959493929190612887565b60405180910390a35061103060017f9b779b17422d0df92223018b32b4d1fa46e071723d6817e2486d003becc55f0055565b9b9a5050505050505050505050565b6001600160a01b03811633146110685760405163334bd91960e11b815260040160405180910390fd5b61107282826119dd565b505050565b5f8051602061292183398151915261108e81611890565b611096611a56565b50565b5f6110a2611ab5565b805490915060ff600160401b820416159067ffffffffffffffff165f811580156110c95750825b90505f8267ffffffffffffffff1660011480156110e55750303b155b9050811580156110f3575080155b156111115760405163f92ee8a960e01b815260040160405180910390fd5b845467ffffffffffffffff19166001178555831561113b57845460ff60401b1916600160401b1785555b611143611add565b61114b611add565b611153611ae5565b61115b611add565b5f80546001600160a01b03808e166001600160a01b0319928316178355600180548e831690841617905560028054918d16919092161790556003899055600488905560646005556111ac908761189a565b506111d77f97667070c54ef182b0f5858b034beac1b6f3089aa2d3188bb1e8929f4fa9b9298761189a565b506111ef5f805160206129218339815191528761189a565b5061121a7f189ab7a9244df0848122154315af71fe140f3db0fe014031783b0946b8c9d2e38761189a565b50831561126157845460ff60401b19168555604051600181527fc7f505b2f371ae2175ee4913f4499e1f2633a7b5936321eed1cdaeb6115181d29060200160405180910390a15b5050505050505050505050565b611276611af5565b61127f82611b99565b6112898282611bc3565b5050565b5f611296611c7f565b505f8051602061290183398151915290565b60066020525f9081526040902080546001820180549192916112c990612704565b80601f01602080910402602001604051908101604052809291908181526020018280546112f590612704565b80156113405780601f1061131757610100808354040283529160200191611340565b820191905f5260205f20905b81548152906001019060200180831161132357829003601f168201915b50505050509080600201805461135590612704565b80601f016020809104026020016040519081016040528092919081815260200182805461138190612704565b80156113cc5780601f106113a3576101008083540402835291602001916113cc565b820191905f5260205f20905b8154815290600101906020018083116113af57829003601f168201915b50505060038401546005850154600686015460078701546008880154600990980154969760ff948516979396509194506001600160a01b03169290911689565b5f8051602061292183398151915261142381611890565b611096611cc8565b5f9182525f80516020612941833981519152602090815260408084206001600160a01b0393909316845291905290205460ff1690565b606060065f8381526020019081526020015f20600401805480602002602001604051908101604052809291908181526020015f905b8282101561153e578382905f5260205f200180546114b390612704565b80601f01602080910402602001604051908101604052809291908181526020018280546114df90612704565b801561152a5780601f106115015761010080835404028352916020019161152a565b820191905f5260205f20905b81548152906001019060200180831161150d57829003601f168201915b505050505081526020019060010190611496565b505050509050919050565b5f61155381611890565b60038290556040518281527fd4cd6d3dd2d4eed9ea6d19ab96d341a7f4bcecd1f0c9a3dff30cc091b01d609a906020015b60405180910390a15050565b5f61159a81611890565b50600180546001600160a01b0319166001600160a01b0392909216919091179055565b606060085f8360058111156115d4576115d46123e1565b60058111156115e5576115e56123e1565b81526020019081526020015f2080548060200260200160405190810160405280929190818152602001828054801561163a57602002820191905f5260205f20905b815481526020019060010190808311611626575b50505050509050919050565b5f8181526006602081905260408220600381015460058201549282015460078301546009840154600185018054606098899890978897889788978897939695600288019560ff9485169590946001600160a01b0390931692169087906116ab90612704565b80601f01602080910402602001604051908101604052809291908181526020018280546116d790612704565b80156117225780601f106116f957610100808354040283529160200191611722565b820191905f5260205f20905b81548152906001019060200180831161170557829003601f168201915b5050505050965085805461173590612704565b80601f016020809104026020016040519081016040528092919081815260200182805461176190612704565b80156117ac5780601f10611783576101008083540402835291602001916117ac565b820191905f5260205f20905b81548152906001019060200180831161178f57829003601f168201915b50505050509550975097509750975097509750975050919395979092949650565b5f6117d781611890565b60048290556040518281527fb2ee55c75b3383382e754fd3eff2d543c0e990be639421a4e2d8f2a42c5b8fdb90602001611584565b6118158261086d565b61181e81611890565b6108a983836119dd565b5f61183281611890565b50600555565b5f61184281611890565b50600280546001600160a01b0319166001600160a01b0392909216919091179055565b6008602052815f5260405f20818154811061187e575f80fd5b905f5260205f20015f91509150505481565b6110968133611d10565b5f5f805160206129418339815191526118b3848461142b565b611932575f848152602082815260408083206001600160a01b03871684529091529020805460ff191660011790556118e83390565b6001600160a01b0316836001600160a01b0316857f2f8788117e7eff1d82e926ec794901d17c78024a50270940304540a733656f0d60405160405180910390a4600191505061075e565b5f91505061075e565b7f9b779b17422d0df92223018b32b4d1fa46e071723d6817e2486d003becc55f0080546001190161197f57604051633ee5aeb560e01b815260040160405180910390fd5b60029055565b5f805160206129618339815191525460ff16156119b55760405163d93c066560e01b815260040160405180910390fd5b565b60017f9b779b17422d0df92223018b32b4d1fa46e071723d6817e2486d003becc55f0055565b5f5f805160206129418339815191526119f6848461142b565b15611932575f848152602082815260408083206001600160a01b0387168085529252808320805460ff1916905551339287917ff6391f5c32d9c69d2a47ea670b442974b53935d1edc7fd64eb21e047a839171b9190a4600191505061075e565b611a5e611d49565b5f80516020612961833981519152805460ff191681557f5db9ee0a495bf2e6ff9c91a7834c1ba4fdd244a5e8aa4e537bd38aeae4b073aa335b6040516001600160a01b03909116815260200160405180910390a150565b5f807ff0c57e16840df040f15088dc2f81fe391c3923bec73e23a9662efc9c229c6a0061075e565b6119b5611d78565b611aed611d78565b6119b5611d9d565b306001600160a01b037f0000000000000000000000000000000000000000000000000000000000000000161480611b7b57507f00000000000000000000000000000000000000000000000000000000000000006001600160a01b0316611b6f5f80516020612901833981519152546001600160a01b031690565b6001600160a01b031614155b156119b55760405163703e46dd60e11b815260040160405180910390fd5b7f189ab7a9244df0848122154315af71fe140f3db0fe014031783b0946b8c9d2e361128981611890565b816001600160a01b03166352d1902d6040518163ffffffff1660e01b8152600401602060405180830381865afa925050508015611c1d575060408051601f3d908101601f19168201909252611c1a918101906128ce565b60015b611c4557604051634c9c8ce360e01b81526001600160a01b03831660048201526024016107b7565b5f805160206129018339815191528114611c7557604051632a87526960e21b8152600481018290526024016107b7565b6110728383611da5565b306001600160a01b037f000000000000000000000000000000000000000000000000000000000000000016146119b55760405163703e46dd60e11b815260040160405180910390fd5b611cd0611985565b5f80516020612961833981519152805460ff191660011781557f62e78cea01bee320cd4e420270b5ea74000d11b0c9f74754ebdbfc544b05a25833611a97565b611d1a828261142b565b6112895760405163e2517d3f60e01b81526001600160a01b0382166004820152602481018390526044016107b7565b5f805160206129618339815191525460ff166119b557604051638dfc202b60e01b815260040160405180910390fd5b611d80611dfa565b6119b557604051631afcd79f60e31b815260040160405180910390fd5b6119b7611d78565b611dae82611e13565b6040516001600160a01b038316907fbc7cd75a20ee27fd9adebab32041f755214dbc6bffa90cc0225b39da2e5c2d3b905f90a2805115611df2576110728282611e76565b611289611ee8565b5f611e03611ab5565b54600160401b900460ff16919050565b806001600160a01b03163b5f03611e4857604051634c9c8ce360e01b81526001600160a01b03821660048201526024016107b7565b5f8051602061290183398151915280546001600160a01b0319166001600160a01b0392909216919091179055565b60605f80846001600160a01b031684604051611e9291906128e5565b5f60405180830381855af49150503d805f8114611eca576040519150601f19603f3d011682016040523d82523d5f602084013e611ecf565b606091505b5091509150611edf858383611f07565b95945050505050565b34156119b55760405163b398979f60e01b815260040160405180910390fd5b606082611f1c57611f1782611f66565b611f5f565b8151158015611f3357506001600160a01b0384163b155b15611f5c57604051639996b31560e01b81526001600160a01b03851660048201526024016107b7565b50805b9392505050565b805115611f7557805160208201fd5b60405163d6bda27560e01b815260040160405180910390fd5b828054828255905f5260205f20908101928215611fd2579160200282015b82811115611fd25782518290611fc29082612787565b5091602001919060010190611fac565b50611fde929150611fe2565b5090565b80821115611fde575f611ff58282611ffe565b50600101611fe2565b50805461200a90612704565b5f825580601f10612019575050565b601f0160209004905f5260205f209081019061109691905b80821115611fde575f8155600101612031565b5f60208284031215612054575f80fd5b81356001600160e01b031981168114611f5f575f80fd5b5f6020828403121561207b575f80fd5b5035919050565b80356001600160a01b0381168114612098575f80fd5b919050565b5f80604083850312156120ae575f80fd5b823591506120be60208401612082565b90509250929050565b5f8083601f8401126120d7575f80fd5b50813567ffffffffffffffff8111156120ee575f80fd5b602083019150836020828501011115612105575f80fd5b9250929050565b803560068110612098575f80fd5b5f8083601f84011261212a575f80fd5b50813567ffffffffffffffff811115612141575f80fd5b6020830191508360208260051b8501011115612105575f80fd5b5f805f805f805f805f805f6101008c8e031215612176575f80fd5b67ffffffffffffffff808d35111561218c575f80fd5b6121998e8e358f016120c7565b909c509a5060208d01358110156121ae575f80fd5b6121be8e60208f01358f016120c7565b909a5098506121cf60408e0161210c565b97508060608e013511156121e1575f80fd5b506121f28d60608e01358e0161211a565b9b9e9a9d50989b979a9699969760808101359760a0820135975060c0820135965060e090910135945092505050565b5f805f805f8060c08789031215612236575f80fd5b61223f87612082565b955061224d60208801612082565b945061225b60408801612082565b9350606087013592506080870135915061227760a08801612082565b90509295509295509295565b634e487b7160e01b5f52604160045260245ffd5b604051601f8201601f1916810167ffffffffffffffff811182821017156122c0576122c0612283565b604052919050565b5f67ffffffffffffffff8311156122e1576122e1612283565b6122f4601f8401601f1916602001612297565b9050828152838383011115612307575f80fd5b828260208301375f602084830101529392505050565b5f806040838503121561232e575f80fd5b61233783612082565b9150602083013567ffffffffffffffff811115612352575f80fd5b8301601f81018513612362575f80fd5b612371858235602084016122c8565b9150509250929050565b5f6020828403121561238b575f80fd5b611f5f82612082565b5f5b838110156123ae578181015183820152602001612396565b50505f910152565b5f81518084526123cd816020860160208601612394565b601f01601f19169290920160200192915050565b634e487b7160e01b5f52602160045260245ffd5b6006811061241157634e487b7160e01b5f52602160045260245ffd5b9052565b5f6101208b835280602084015261242e8184018c6123b6565b90508281036040840152612442818b6123b6565b91505061245260608301896123f5565b608082019690965260a08101949094526001600160a01b039290921660c084015260e0830152151561010090910152949350505050565b5f60208083016020845280855180835260408601915060408160051b8701019250602087015f5b828110156124de57603f198886030184526124cc8583516123b6565b945092850192908501906001016124b0565b5092979650505050505050565b602081525f611f5f60208301846123b6565b5f6020828403121561250d575f80fd5b611f5f8261210c565b602080825282518282018190525f9190848201906040850190845b8181101561254d57835183529284019291840191600101612531565b50909695505050505050565b60e081525f61256b60e083018a6123b6565b828103602084015261257d818a6123b6565b91505061258d60408301886123f5565b606082019590955260808101939093526001600160a01b039190911660a0830152151560c0909101529392505050565b5f80604083850312156125ce575f80fd5b6125d78361210c565b946020939093013593505050565b878982375f8882015f8152878982379096019485525060609290921b6bffffffffffffffffffffffff1916602084015260348301526054820152607401949350505050565b5f6020828403121561263a575f80fd5b81518015158114611f5f575f80fd5b634e487b7160e01b5f52601160045260245ffd5b8082018082111561075e5761075e612649565b5f67ffffffffffffffff8084111561268a5761268a612283565b8360051b602061269c60208301612297565b868152918501916020810190368411156126b4575f80fd5b865b848110156126f8578035868111156126cc575f80fd5b880136601f8201126126dc575f80fd5b6126ea3682358784016122c8565b8452509183019183016126b6565b50979650505050505050565b600181811c9082168061271857607f821691505b60208210810361273657634e487b7160e01b5f52602260045260245ffd5b50919050565b601f82111561107257805f5260205f20601f840160051c810160208510156127615750805b601f840160051c820191505b81811015612780575f815560010161276d565b5050505050565b815167ffffffffffffffff8111156127a1576127a1612283565b6127b5816127af8454612704565b8461273c565b602080601f8311600181146127e8575f84156127d15750858301515b5f19600386901b1c1916600185901b17855561283f565b5f85815260208120601f198616915b82811015612816578886015182559484019460019091019084016127f7565b508582101561283357878501515f19600388901b60f8161c191681555b505060018460011b0185555b505050505050565b5f6001820161285857612858612649565b5060010190565b81835281816020850137505f828201602090810191909152601f909101601f19169091010190565b608081525f61289a60808301888a61285f565b82810360208401526128ad81878961285f565b9150506128bd60408301856123f5565b826060830152979650505050505050565b5f602082840312156128de575f80fd5b5051919050565b5f82516128f6818460208701612394565b919091019291505056fe360894a13ba1a3210667c828492db98dca3e2076cc3735a920a3ca505d382bbc65d7a28e3265b37a6474929f336521b332c1681b933f6cb9f3376673440d862a02dd7bc7dec4dceedda775e58dd541e08a116c6c53815c0bd028192f7b626800cd5ed15c6e187e77e9aee88184c21f4f2182ab5827cb3b7e07fbedcd63f03300a264697066735822122054cfa27f1ba7f5cb75c6f52b8b73be8f206d7667bc357ee076114421a5fc566d64736f6c63430008180033",
  "linkReferences": {},
  "deployedLinkReferences": {}
}