{
  "_format": "hh-sol-artifact-1",
  "contractName": "FeeDistributor",
  "sourceName": "contracts-v2/FeeDistributor.sol",
  "abi": [
    {
      "inputs": [],
      "stateMutability": "nonpayable",
      "type": "constructor"
    },
    {
      "inputs": [],
      "name": "AccessControlBadConfirmation",
      "type": "error"
    },
    {
      "inputs": [
        {
          "internalType": "address",
          "name": "account",
          "type": "address"
        },
        {
          "internalType": "bytes32",
          "name": "neededRole",
          "type": "bytes32"
        }
      ],
      "name": "AccessControlUnauthorizedAccount",
      "type": "error"
    },
    {
      "inputs": [
        {
          "internalType": "address",
          "name": "target",
          "type": "address"
        }
      ],
      "name": "AddressEmptyCode",
      "type": "error"
    },
    {
      "inputs": [
        {
          "internalType": "address",
          "name": "implementation",
          "type": "address"
        }
      ],
      "name": "ERC1967InvalidImplementation",
      "type": "error"
    },
    {
      "inputs": [],
      "name": "ERC1967NonPayable",
      "type": "error"
    },
    {
      "inputs": [],
      "name": "FailedCall",
      "type": "error"
    },
    {
      "inputs": [],
      "name": "InvalidInitialization",
      "type": "error"
    },
    {
      "inputs": [],
      "name": "NotInitializing",
      "type": "error"
    },
    {
      "inputs": [],
      "name": "ReentrancyGuardReentrantCall",
      "type": "error"
    },
    {
      "inputs": [],
      "name": "UUPSUnauthorizedCallContext",
      "type": "error"
    },
    {
      "inputs": [
        {
          "internalType": "bytes32",
          "name": "slot",
          "type": "bytes32"
        }
      ],
      "name": "UUPSUnsupportedProxiableUUID",
      "type": "error"
    },
    {
      "anonymous": false,
      "inputs": [
        {
          "indexed": true,
          "internalType": "uint256",
          "name": "epoch",
          "type": "uint256"
        },
        {
          "indexed": false,
          "internalType": "uint256",
          "name": "totalRewards",
          "type": "uint256"
        },
        {
          "indexed": false,
          "internalType": "uint256",
          "name": "totalVeORX",
          "type": "uint256"
        }
      ],
      "name": "EpochFinalized",
      "type": "event"
    },
    {
      "anonymous": false,
      "inputs": [
        {
          "indexed": false,
          "internalType": "uint64",
          "name": "version",
          "type": "uint64"
        }
      ],
      "name": "Initialized",
      "type": "event"
    },
    {
      "anonymous": false,
      "inputs": [
        {
          "indexed": true,
          "internalType": "uint256",
          "name": "epoch",
          "type": "uint256"
        },
        {
          "indexed": false,
          "internalType": "uint256",
          "name": "amount",
          "type": "uint256"
        }
      ],
      "name": "RewardsAdded",
      "type": "event"
    },
    {
      "anonymous": false,
      "inputs": [
        {
          "indexed": true,
          "internalType": "address",
          "name": "user",
          "type": "address"
        },
        {
          "indexed": true,
          "internalType": "uint256",
          "name": "epoch",
          "type": "uint256"
        },
        {
          "indexed": false,
          "internalType": "uint256",
          "name": "amount",
          "type": "uint256"
        }
      ],
      "name": "RewardsClaimed",
      "type": "event"
    },
    {
      "anonymous": false,
      "inputs": [
        {
          "indexed": true,
          "internalType": "bytes32",
          "name": "role",
          "type": "bytes32"
        },
        {
          "indexed": true,
          "internalType": "bytes32",
          "name": "previousAdminRole",
          "type": "bytes32"
        },
        {
          "indexed": true,
          "internalType": "bytes32",
          "name": "newAdminRole",
          "type": "bytes32"
        }
      ],
      "name": "RoleAdminChanged",
      "type": "event"
    },
    {
      "anonymous": false,
      "inputs": [
        {
          "indexed": true,
          "internalType": "bytes32",
          "name": "role",
          "type": "bytes32"
        },
        {
          "indexed": true,
          "internalType": "address",
          "name": "account",
          "type": "address"
        },
        {
          "indexed": true,
          "internalType": "address",
          "name": "sender",
          "type": "address"
        }
      ],
      "name": "RoleGranted",
      "type": "event"
    },
    {
      "anonymous": false,
      "inputs": [
        {
          "indexed": true,
          "internalType": "bytes32",
          "name": "role",
          "type": "bytes32"
        },
        {
          "indexed": true,
          "internalType": "address",
          "name": "account",
          "type": "address"
        },
        {
          "indexed": true,
          "internalType": "address",
          "name": "sender",
          "type": "address"
        }
      ],
      "name": "RoleRevoked",
      "type": "event"
    },
    {
      "anonymous": false,
      "inputs": [
        {
          "indexed": true,
          "internalType": "address",
          "name": "implementation",
          "type": "address"
        }
      ],
      "name": "Upgraded",
      "type": "event"
    },
    {
      "inputs": [],
      "name": "DEFAULT_ADMIN_ROLE",
      "outputs": [
        {
          "internalType": "bytes32",
          "name": "",
          "type": "bytes32"
        }
      ],
      "stateMutability": "view",
      "type": "function"
    },
    {
      "inputs": [],
      "name": "EPOCH_DURATION",
      "outputs": [
        {
          "internalType": "uint256",
          "name": "",
          "type": "uint256"
        }
      ],
      "stateMutability": "view",
      "type": "function"
    },
    {
      "inputs": [],
      "name": "UPGRADER_ROLE",
      "outputs": [
        {
          "internalType": "bytes32",
          "name": "",
          "type": "bytes32"
        }
      ],
      "stateMutability": "view",
      "type": "function"
    },
    {
      "inputs": [],
      "name": "UPGRADE_INTERFACE_VERSION",
      "outputs": [
        {
          "internalType": "string",
          "name": "",
          "type": "string"
        }
      ],
      "stateMutability": "view",
      "type": "function"
    },
    {
      "inputs": [
        {
          "internalType": "uint256",
          "name": "amount",
          "type": "uint256"
        }
      ],
      "name": "addRewards",
      "outputs": [],
      "stateMutability": "nonpayable",
      "type": "function"
    },
    {
      "inputs": [
        {
          "internalType": "uint256[]",
          "name": "epochIds",
          "type": "uint256[]"
        }
      ],
      "name": "claimMultipleEpochs",
      "outputs": [],
      "stateMutability": "nonpayable",
      "type": "function"
    },
    {
      "inputs": [
        {
          "internalType": "uint256",
          "name": "epochId",
          "type": "uint256"
        }
      ],
      "name": "claimRewards",
      "outputs": [],
      "stateMutability": "nonpayable",
      "type": "function"
    },
    {
      "inputs": [],
      "name": "currentEpoch",
      "outputs": [
        {
          "internalType": "uint256",
          "name": "",
          "type": "uint256"
        }
      ],
      "stateMutability": "view",
      "type": "function"
    },
    {
      "inputs": [
        {
          "internalType": "uint256",
          "name": "",
          "type": "uint256"
        }
      ],
      "name": "epochs",
      "outputs": [
        {
          "internalType": "uint256",
          "name": "startTime",
          "type": "uint256"
        },
        {
          "internalType": "uint256",
          "name": "endTime",
          "type": "uint256"
        },
        {
          "internalType": "uint256",
          "name": "totalRewards",
          "type": "uint256"
        },
        {
          "internalType": "uint256",
          "name": "totalVeORXSupply",
          "type": "uint256"
        }
      ],
      "stateMutability": "view",
      "type": "function"
    },
    {
      "inputs": [],
      "name": "finalizeEpoch",
      "outputs": [],
      "stateMutability": "nonpayable",
      "type": "function"
    },
    {
      "inputs": [
        {
          "internalType": "address",
          "name": "user",
          "type": "address"
        },
        {
          "internalType": "uint256",
          "name": "epochId",
          "type": "uint256"
        }
      ],
      "name": "getClaimableRewards",
      "outputs": [
        {
          "internalType": "uint256",
          "name": "",
          "type": "uint256"
        }
      ],
      "stateMutability": "view",
      "type": "function"
    },
    {
      "inputs": [
        {
          "internalType": "bytes32",
          "name": "role",
          "type": "bytes32"
        }
      ],
      "name": "getRoleAdmin",
      "outputs": [
        {
          "internalType": "bytes32",
          "name": "",
          "type": "bytes32"
        }
      ],
      "stateMutability": "view",
      "type": "function"
    },
    {
      "inputs": [
        {
          "internalType": "address",
          "name": "user",
          "type": "address"
        }
      ],
      "name": "getTotalClaimableRewards",
      "outputs": [
        {
          "internalType": "uint256",
          "name": "",
          "type": "uint256"
        }
      ],
      "stateMutability": "view",
      "type": "function"
    },
    {
      "inputs": [
        {
          "internalType": "bytes32",
          "name": "role",
          "type": "bytes32"
        },
        {
          "internalType": "address",
          "name": "account",
          "type": "address"
        }
      ],
      "name": "grantRole",
      "outputs": [],
      "stateMutability": "nonpayable",
      "type": "function"
    },
    {
      "inputs": [
        {
          "internalType": "address",
          "name": "user",
          "type": "address"
        },
        {
          "internalType": "uint256",
          "name": "epochId",
          "type": "uint256"
        }
      ],
      "name": "hasClaimed",
      "outputs": [
        {
          "internalType": "bool",
          "name": "",
          "type": "bool"
        }
      ],
      "stateMutability": "view",
      "type": "function"
    },
    {
      "inputs": [
        {
          "internalType": "bytes32",
          "name": "role",
          "type": "bytes32"
        },
        {
          "internalType": "address",
          "name": "account",
          "type": "address"
        }
      ],
      "name": "hasRole",
      "outputs": [
        {
          "internalType": "bool",
          "name": "",
          "type": "bool"
        }
      ],
      "stateMutability": "view",
      "type": "function"
    },
    {
      "inputs": [
        {
          "internalType": "address",
          "name": "_veOrx",
          "type": "address"
        },
        {
          "internalType": "address",
          "name": "_rewardToken",
          "type": "address"
        },
        {
          "internalType": "address",
          "name": "defaultAdmin",
          "type": "address"
        }
      ],
      "name": "initialize",
      "outputs": [],
      "stateMutability": "nonpayable",
      "type": "function"
    },
    {
      "inputs": [
        {
          "internalType": "address",
          "name": "",
          "type": "address"
        }
      ],
      "name": "lastClaimedEpoch",
      "outputs": [
        {
          "internalType": "uint256",
          "name": "",
          "type": "uint256"
        }
      ],
      "stateMutability": "view",
      "type": "function"
    },
    {
      "inputs": [],
      "name": "proxiableUUID",
      "outputs": [
        {
          "internalType": "bytes32",
          "name": "",
          "type": "bytes32"
        }
      ],
      "stateMutability": "view",
      "type": "function"
    },
    {
      "inputs": [
        {
          "internalType": "bytes32",
          "name": "role",
          "type": "bytes32"
        },
        {
          "internalType": "address",
          "name": "callerConfirmation",
          "type": "address"
        }
      ],
      "name": "renounceRole",
      "outputs": [],
      "stateMutability": "nonpayable",
      "type": "function"
    },
    {
      "inputs": [
        {
          "internalType": "bytes32",
          "name": "role",
          "type": "bytes32"
        },
        {
          "internalType": "address",
          "name": "account",
          "type": "address"
        }
      ],
      "name": "revokeRole",
      "outputs": [],
      "stateMutability": "nonpayable",
      "type": "function"
    },
    {
      "inputs": [],
      "name": "rewardToken",
      "outputs": [
        {
          "internalType": "contract IERC20",
          "name": "",
          "type": "address"
        }
      ],
      "stateMutability": "view",
      "type": "function"
    },
    {
      "inputs": [
        {
          "internalType": "bytes4",
          "name": "interfaceId",
          "type": "bytes4"
        }
      ],
      "name": "supportsInterface",
      "outputs": [
        {
          "internalType": "bool",
          "name": "",
          "type": "bool"
        }
      ],
      "stateMutability": "view",
      "type": "function"
    },
    {
      "inputs": [],
      "name": "totalDistributed",
      "outputs": [
        {
          "internalType": "uint256",
          "name": "",
          "type": "uint256"
        }
      ],
      "stateMutability": "view",
      "type": "function"
    },
    {
      "inputs": [
        {
          "internalType": "address",
          "name": "newImplementation",
          "type": "address"
        },
        {
          "internalType": "bytes",
          "name": "data",
          "type": "bytes"
        }
      ],
      "name": "upgradeToAndCall",
      "outputs": [],
      "stateMutability": "payable",
      "type": "function"
    },
    {
      "inputs": [],
      "name": "veOrx",
      "outputs": [
        {
          "internalType": "contract IVeORX",
          "name": "",
          "type": "address"
        }
      ],
      "stateMutability": "view",
      "type": "function"
    }
  ],
  "bytecode": "0x60a060405230608052348015610013575f80fd5b5061001c610021565b6100d3565b7ff0c57e16840df040f15088dc2f81fe391c3923bec73e23a9662efc9c229c6a00805468010000000000000000900460ff16156100715760405163f92ee8a960e01b815260040160405180910390fd5b80546001600160401b03908116146100d05780546001600160401b0319166001600160401b0390811782556040519081527fc7f505b2f371ae2175ee4913f4499e1f2633a7b5936321eed1cdaeb6115181d29060200160405180910390a15b50565b608051611da06100f95f395f81816114bc015281816114e501526116480152611da05ff3fe60806040526004361061017b575f3560e01c806391d14854116100cd578063c0c53b8b11610087578063efca2eed11610062578063efca2eed146104aa578063f41c33e9146104bf578063f72c0d8b146104ea578063f7c618c11461051d575f80fd5b8063c0c53b8b1461040c578063c6b61e4c1461042b578063d547741f1461048b575f80fd5b806391d1485414610322578063a217fddf14610341578063a70b9f0c14610354578063ad3cb1cc1461036a578063b2931096146103a7578063beceed39146103ed575f80fd5b80634f1ef2861161013857806360d8fdd81161011357806360d8fdd8146102a457806376671808146102c35780637c1f9629146102d857806382ae9ef71461030e575f80fd5b80634f1ef2861461025e57806352d1902d14610271578063533f852e14610285575f80fd5b806301ffc9a71461017f5780630962ef79146101b3578063248a9ca3146101d457806328553148146102015780632f2ff15d1461022057806336568abe1461023f575b5f80fd5b34801561018a575f80fd5b5061019e61019936600461190c565b61053c565b60405190151581526020015b60405180910390f35b3480156101be575f80fd5b506101d26101cd366004611933565b610572565b005b3480156101df575f80fd5b506101f36101ee366004611933565b61089b565b6040519081526020016101aa565b34801561020c575f80fd5b506101d261021b36600461194a565b6108bb565b34801561022b575f80fd5b506101d261023a3660046119d4565b610b9c565b34801561024a575f80fd5b506101d26102593660046119d4565b610bbe565b6101d261026c366004611a12565b610bf6565b34801561027c575f80fd5b506101f3610c11565b348015610290575f80fd5b506101f361029f366004611ace565b610c2c565b3480156102af575f80fd5b506101f36102be366004611af6565b610d28565b3480156102ce575f80fd5b506101f360035481565b3480156102e3575f80fd5b505f546102f6906001600160a01b031681565b6040516001600160a01b0390911681526020016101aa565b348015610319575f80fd5b506101d2610e34565b34801561032d575f80fd5b5061019e61033c3660046119d4565b610fa2565b34801561034c575f80fd5b506101f35f81565b34801561035f575f80fd5b506101f362093a8081565b348015610375575f80fd5b5061039a604051806040016040528060058152602001640352e302e360dc1b81525081565b6040516101aa9190611b31565b3480156103b2575f80fd5b5061019e6103c1366004611ace565b5f9081526004602081815260408084206001600160a01b03959095168452939091019052205460ff1690565b3480156103f8575f80fd5b506101d2610407366004611933565b610fd8565b348015610417575f80fd5b506101d2610426366004611b63565b61114f565b348015610436575f80fd5b5061046b610445366004611933565b60046020525f908152604090208054600182015460028301546003909301549192909184565b6040805194855260208501939093529183015260608201526080016101aa565b348015610496575f80fd5b506101d26104a53660046119d4565b611327565b3480156104b5575f80fd5b506101f360025481565b3480156104ca575f80fd5b506101f36104d9366004611af6565b60056020525f908152604090205481565b3480156104f5575f80fd5b506101f37f189ab7a9244df0848122154315af71fe140f3db0fe014031783b0946b8c9d2e381565b348015610528575f80fd5b506001546102f6906001600160a01b031681565b5f6001600160e01b03198216637965db0b60e01b148061056c57506301ffc9a760e01b6001600160e01b03198316145b92915050565b61057a611343565b60035481106105a45760405162461bcd60e51b815260040161059b90611ba3565b60405180910390fd5b5f8181526004602081815260408084203385529283019091529091205460ff16156106115760405162461bcd60e51b815260206004820152601f60248201527f4665654469737472696275746f723a20616c726561647920636c61696d656400604482015260640161059b565b5f8160030154116106645760405162461bcd60e51b815260206004820152601f60248201527f4665654469737472696275746f723a206e6f2076654f525820737570706c7900604482015260640161059b565b5f80546040516370a0823160e01b81523360048201526001600160a01b03909116906370a0823190602401602060405180830381865afa1580156106aa573d5f803e3d5ffd5b505050506040513d601f19601f820116820180604052508101906106ce9190611be6565b90505f811161071f5760405162461bcd60e51b815260206004820181905260248201527f4665654469737472696275746f723a206e6f2076654f52582062616c616e6365604482015260640161059b565b5f82600301548284600201546107359190611c11565b61073f9190611c28565b90505f81116107905760405162461bcd60e51b815260206004820152601a60248201527f4665654469737472696275746f723a206e6f2072657761726473000000000000604482015260640161059b565b335f818152600485810160209081526040808420805460ff1916600190811790915560059092529283902088905554915163a9059cbb60e01b815290810192909252602482018390526001600160a01b03169063a9059cbb906044016020604051808303815f875af1158015610808573d5f803e3d5ffd5b505050506040513d601f19601f8201168201806040525081019061082c9190611c47565b6108485760405162461bcd60e51b815260040161059b90611c66565b604051818152849033907fdacbdde355ba930696a362ea6738feb9f8bd52dfb3d81947558fd3217e23e3259060200160405180910390a350505061089860015f80516020611d4b83398151915255565b50565b5f9081525f80516020611d2b833981519152602052604090206001015490565b6108c3611343565b5f805b82811015610a69575f8484838181106108e1576108e1611c9d565b905060200201359050600354811061090b5760405162461bcd60e51b815260040161059b90611ba3565b5f8181526004602081815260408084203385529283019091529091205460ff168061093857506003810154155b15610944575050610a61565b5f80546040516370a0823160e01b81523360048201526001600160a01b03909116906370a0823190602401602060405180830381865afa15801561098a573d5f803e3d5ffd5b505050506040513d601f19601f820116820180604052508101906109ae9190611be6565b9050805f036109bf57505050610a61565b5f82600301548284600201546109d59190611c11565b6109df9190611c28565b9050805f036109f15750505050610a61565b335f9081526004840160205260409020805460ff19166001179055610a168187611cb1565b955083336001600160a01b03167fdacbdde355ba930696a362ea6738feb9f8bd52dfb3d81947558fd3217e23e32583604051610a5491815260200190565b60405180910390a3505050505b6001016108c6565b505f8111610ab95760405162461bcd60e51b815260206004820152601a60248201527f4665654469737472696275746f723a206e6f2072657761726473000000000000604482015260640161059b565b8282610ac6600182611cc4565b818110610ad557610ad5611c9d565b335f8181526005602090815260409182902093029490940135909155600154925163a9059cbb60e01b81526004810191909152602481018490526001600160a01b039092169163a9059cbb91506044016020604051808303815f875af1158015610b41573d5f803e3d5ffd5b505050506040513d601f19601f82011682018060405250810190610b659190611c47565b610b815760405162461bcd60e51b815260040161059b90611c66565b50610b9860015f80516020611d4b83398151915255565b5050565b610ba58261089b565b610bae8161138d565b610bb88383611397565b50505050565b6001600160a01b0381163314610be75760405163334bd91960e11b815260040160405180910390fd5b610bf18282611438565b505050565b610bfe6114b1565b610c0782611557565b610b988282611581565b5f610c1a61163d565b505f80516020611d0b83398151915290565b5f6003548210610c3d57505f61056c565b5f8281526004602081815260408084206001600160a01b03881685529283019091529091205460ff1680610c7357506003810154155b15610c81575f91505061056c565b5f80546040516370a0823160e01b81526001600160a01b038781166004830152909116906370a0823190602401602060405180830381865afa158015610cc9573d5f803e3d5ffd5b505050506040513d601f19601f82011682018060405250810190610ced9190611be6565b9050805f03610d00575f9250505061056c565b8160030154818360020154610d159190611c11565b610d1f9190611c28565b95945050505050565b5f80805b600354811015610e2d575f8181526004602081815260408084206001600160a01b03891685529283019091529091205460ff1680610d6c57506003810154155b15610d775750610e25565b5f80546040516370a0823160e01b81526001600160a01b038881166004830152909116906370a0823190602401602060405180830381865afa158015610dbf573d5f803e3d5ffd5b505050506040513d601f19601f82011682018060405250810190610de39190611be6565b9050805f03610df3575050610e25565b5f8260030154828460020154610e099190611c11565b610e139190611c28565b9050610e1f8186611cb1565b94505050505b600101610d2c565b5092915050565b6003545f9081526004602052604090206001810154421015610e985760405162461bcd60e51b815260206004820152601f60248201527f4665654469737472696275746f723a2065706f6368206e6f7420656e64656400604482015260640161059b565b5f8054906101000a90046001600160a01b03166001600160a01b03166318160ddd6040518163ffffffff1660e01b8152600401602060405180830381865afa158015610ee6573d5f803e3d5ffd5b505050506040513d601f19601f82011682018060405250810190610f0a9190611be6565b600382810182905554600283015460408051918252602082019390935290917fb463d19ecf455be65365092cf8e1db6934a0334cf8cd532ddf9964d01f36b5b2910160405180910390a260038054905f610f6383611cd7565b90915550506003545f9081526004602052604090204290819055610f8b9062093a8090611cb1565b6003545f9081526004602052604090206001015550565b5f9182525f80516020611d2b833981519152602090815260408084206001600160a01b0393909316845291905290205460ff1690565b610fe0611343565b5f811161102f5760405162461bcd60e51b815260206004820152601b60248201527f4665654469737472696275746f723a207a65726f20616d6f756e740000000000604482015260640161059b565b6001546040516323b872dd60e01b8152336004820152306024820152604481018390526001600160a01b03909116906323b872dd906064016020604051808303815f875af1158015611083573d5f803e3d5ffd5b505050506040513d601f19601f820116820180604052508101906110a79190611c47565b6110c35760405162461bcd60e51b815260040161059b90611c66565b6003545f90815260046020526040812060020180548392906110e6908490611cb1565b925050819055508060025f8282546110fe9190611cb1565b90915550506003546040518281527f40df43107e8b4d467127964bd3c966687c0a6a39aaede970755397fd09535e989060200160405180910390a261089860015f80516020611d4b83398151915255565b5f611158611686565b805490915060ff600160401b820416159067ffffffffffffffff165f8115801561117f5750825b90505f8267ffffffffffffffff16600114801561119b5750303b155b9050811580156111a9575080155b156111c75760405163f92ee8a960e01b815260040160405180910390fd5b845467ffffffffffffffff1916600117855583156111f157845460ff60401b1916600160401b1785555b6111f96116ae565b6112016116b6565b6112096116ae565b5f80546001600160a01b03808b166001600160a01b031992831617835560018054918b1691909216179055600381905580526004602052427f17ef568e3e12ab5b9c7254a8d58478811de00f9e6eb34345acd53bf8fd09d3ec8190556112739062093a8090611cb1565b5f80805260046020527f17ef568e3e12ab5b9c7254a8d58478811de00f9e6eb34345acd53bf8fd09d3ed919091556112ab9087611397565b506112d67f189ab7a9244df0848122154315af71fe140f3db0fe014031783b0946b8c9d2e387611397565b50831561131d57845460ff60401b19168555604051600181527fc7f505b2f371ae2175ee4913f4499e1f2633a7b5936321eed1cdaeb6115181d29060200160405180910390a15b5050505050505050565b6113308261089b565b6113398161138d565b610bb88383611438565b5f80516020611d4b83398151915280546001190161137457604051633ee5aeb560e01b815260040160405180910390fd5b60029055565b60015f80516020611d4b83398151915255565b61089881336116c6565b5f5f80516020611d2b8339815191526113b08484610fa2565b61142f575f848152602082815260408083206001600160a01b03871684529091529020805460ff191660011790556113e53390565b6001600160a01b0316836001600160a01b0316857f2f8788117e7eff1d82e926ec794901d17c78024a50270940304540a733656f0d60405160405180910390a4600191505061056c565b5f91505061056c565b5f5f80516020611d2b8339815191526114518484610fa2565b1561142f575f848152602082815260408083206001600160a01b0387168085529252808320805460ff1916905551339287917ff6391f5c32d9c69d2a47ea670b442974b53935d1edc7fd64eb21e047a839171b9190a4600191505061056c565b306001600160a01b037f000000000000000000000000000000000000000000000000000000000000000016148061153757507f00000000000000000000000000000000000000000000000000000000000000006001600160a01b031661152b5f80516020611d0b833981519152546001600160a01b031690565b6001600160a01b031614155b156115555760405163703e46dd60e11b815260040160405180910390fd5b565b7f189ab7a9244df0848122154315af71fe140f3db0fe014031783b0946b8c9d2e3610b988161138d565b816001600160a01b03166352d1902d6040518163ffffffff1660e01b8152600401602060405180830381865afa9250505080156115db575060408051601f3d908101601f191682019092526115d891810190611be6565b60015b61160357604051634c9c8ce360e01b81526001600160a01b038316600482015260240161059b565b5f80516020611d0b833981519152811461163357604051632a87526960e21b81526004810182905260240161059b565b610bf183836116ff565b306001600160a01b037f000000000000000000000000000000000000000000000000000000000000000016146115555760405163703e46dd60e11b815260040160405180910390fd5b5f807ff0c57e16840df040f15088dc2f81fe391c3923bec73e23a9662efc9c229c6a0061056c565b611555611754565b6116be611754565b611555611779565b6116d08282610fa2565b610b985760405163e2517d3f60e01b81526001600160a01b03821660048201526024810183905260440161059b565b61170882611781565b6040516001600160a01b038316907fbc7cd75a20ee27fd9adebab32041f755214dbc6bffa90cc0225b39da2e5c2d3b905f90a280511561174c57610bf182826117e4565b610b9861184d565b61175c61186c565b61155557604051631afcd79f60e31b815260040160405180910390fd5b61137a611754565b806001600160a01b03163b5f036117b657604051634c9c8ce360e01b81526001600160a01b038216600482015260240161059b565b5f80516020611d0b83398151915280546001600160a01b0319166001600160a01b0392909216919091179055565b60605f80846001600160a01b0316846040516118009190611cef565b5f60405180830381855af49150503d805f8114611838576040519150601f19603f3d011682016040523d82523d5f602084013e61183d565b606091505b5091509150610d1f858383611885565b34156115555760405163b398979f60e01b815260040160405180910390fd5b5f611875611686565b54600160401b900460ff16919050565b60608261189a57611895826118e4565b6118dd565b81511580156118b157506001600160a01b0384163b155b156118da57604051639996b31560e01b81526001600160a01b038516600482015260240161059b565b50805b9392505050565b8051156118f357805160208201fd5b60405163d6bda27560e01b815260040160405180910390fd5b5f6020828403121561191c575f80fd5b81356001600160e01b0319811681146118dd575f80fd5b5f60208284031215611943575f80fd5b5035919050565b5f806020838503121561195b575f80fd5b823567ffffffffffffffff80821115611972575f80fd5b818501915085601f830112611985575f80fd5b813581811115611993575f80fd5b8660208260051b85010111156119a7575f80fd5b60209290920196919550909350505050565b80356001600160a01b03811681146119cf575f80fd5b919050565b5f80604083850312156119e5575f80fd5b823591506119f5602084016119b9565b90509250929050565b634e487b7160e01b5f52604160045260245ffd5b5f8060408385031215611a23575f80fd5b611a2c836119b9565b9150602083013567ffffffffffffffff80821115611a48575f80fd5b818501915085601f830112611a5b575f80fd5b813581811115611a6d57611a6d6119fe565b604051601f8201601f19908116603f01168101908382118183101715611a9557611a956119fe565b81604052828152886020848701011115611aad575f80fd5b826020860160208301375f6020848301015280955050505050509250929050565b5f8060408385031215611adf575f80fd5b611ae8836119b9565b946020939093013593505050565b5f60208284031215611b06575f80fd5b6118dd826119b9565b5f5b83811015611b29578181015183820152602001611b11565b50505f910152565b602081525f8251806020840152611b4f816040850160208701611b0f565b601f01601f19169190910160400192915050565b5f805f60608486031215611b75575f80fd5b611b7e846119b9565b9250611b8c602085016119b9565b9150611b9a604085016119b9565b90509250925092565b60208082526023908201527f4665654469737472696275746f723a2065706f6368206e6f742066696e616c696040820152621e995960ea1b606082015260800190565b5f60208284031215611bf6575f80fd5b5051919050565b634e487b7160e01b5f52601160045260245ffd5b808202811582820484141761056c5761056c611bfd565b5f82611c4257634e487b7160e01b5f52601260045260245ffd5b500490565b5f60208284031215611c57575f80fd5b815180151581146118dd575f80fd5b6020808252601f908201527f4665654469737472696275746f723a207472616e73666572206661696c656400604082015260600190565b634e487b7160e01b5f52603260045260245ffd5b8082018082111561056c5761056c611bfd565b8181038181111561056c5761056c611bfd565b5f60018201611ce857611ce8611bfd565b5060010190565b5f8251611d00818460208701611b0f565b919091019291505056fe360894a13ba1a3210667c828492db98dca3e2076cc3735a920a3ca505d382bbc02dd7bc7dec4dceedda775e58dd541e08a116c6c53815c0bd028192f7b6268009b779b17422d0df92223018b32b4d1fa46e071723d6817e2486d003becc55f00a2646970667358221220332f3a97e6437c7043571befa6cd1dc5737ec64060148117e43dbc9a020262b864736f6c63430008180033",
  "linkReferences": {},
  "deployedLinkReferences": {}
}