{
  "_format": "hh-sol-artifact-1",
  "contractName": "Treasury",
  "sourceName": "contracts-v2/Treasury.sol",
  "abi": [
    {
      "inputs": [],
      "stateMutability": "nonpayable",
      "type": "constructor"
    },
    {
      "inputs": [],
      "name": "AccessControlBadConfirmation",
      "type": "error"
    },
    {
      "inputs": [
        {
          "internalType": "address",
          "name": "account",
          "type": "address"
        },
        {
          "internalType": "bytes32",
          "name": "neededRole",
          "type": "bytes32"
        }
      ],
      "name": "AccessControlUnauthorizedAccount",
      "type": "error"
    },
    {
      "inputs": [
        {
          "internalType": "address",
          "name": "target",
          "type": "address"
        }
      ],
      "name": "AddressEmptyCode",
      "type": "error"
    },
    {
      "inputs": [
        {
          "internalType": "address",
          "name": "implementation",
          "type": "address"
        }
      ],
      "name": "ERC1967InvalidImplementation",
      "type": "error"
    },
    {
      "inputs": [],
      "name": "ERC1967NonPayable",
      "type": "error"
    },
    {
      "inputs": [],
      "name": "EnforcedPause",
      "type": "error"
    },
    {
      "inputs": [],
      "name": "ExpectedPause",
      "type": "error"
    },
    {
      "inputs": [],
      "name": "FailedCall",
      "type": "error"
    },
    {
      "inputs": [],
      "name": "InvalidInitialization",
      "type": "error"
    },
    {
      "inputs": [],
      "name": "NotInitializing",
      "type": "error"
    },
    {
      "inputs": [],
      "name": "ReentrancyGuardReentrantCall",
      "type": "error"
    },
    {
      "inputs": [],
      "name": "UUPSUnauthorizedCallContext",
      "type": "error"
    },
    {
      "inputs": [
        {
          "internalType": "bytes32",
          "name": "slot",
          "type": "bytes32"
        }
      ],
      "name": "UUPSUnsupportedProxiableUUID",
      "type": "error"
    },
    {
      "anonymous": false,
      "inputs": [
        {
          "indexed": true,
          "internalType": "address",
          "name": "token",
          "type": "address"
        },
        {
          "indexed": false,
          "internalType": "uint256",
          "name": "amount",
          "type": "uint256"
        },
        {
          "indexed": true,
          "internalType": "address",
          "name": "to",
          "type": "address"
        }
      ],
      "name": "EmergencyWithdraw",
      "type": "event"
    },
    {
      "anonymous": false,
      "inputs": [
        {
          "indexed": false,
          "internalType": "uint256",
          "name": "feeDistributorShare",
          "type": "uint256"
        },
        {
          "indexed": false,
          "internalType": "uint256",
          "name": "insuranceFundShare",
          "type": "uint256"
        }
      ],
      "name": "FeeSharesUpdated",
      "type": "event"
    },
    {
      "anonymous": false,
      "inputs": [
        {
          "indexed": true,
          "internalType": "address",
          "name": "token",
          "type": "address"
        },
        {
          "indexed": false,
          "internalType": "uint256",
          "name": "amount",
          "type": "uint256"
        },
        {
          "indexed": true,
          "internalType": "address",
          "name": "to",
          "type": "address"
        }
      ],
      "name": "FundsDistributed",
      "type": "event"
    },
    {
      "anonymous": false,
      "inputs": [
        {
          "indexed": true,
          "internalType": "address",
          "name": "token",
          "type": "address"
        },
        {
          "indexed": false,
          "internalType": "uint256",
          "name": "amount",
          "type": "uint256"
        },
        {
          "indexed": true,
          "internalType": "address",
          "name": "from",
          "type": "address"
        }
      ],
      "name": "FundsReceived",
      "type": "event"
    },
    {
      "anonymous": false,
      "inputs": [
        {
          "indexed": false,
          "internalType": "uint64",
          "name": "version",
          "type": "uint64"
        }
      ],
      "name": "Initialized",
      "type": "event"
    },
    {
      "anonymous": false,
      "inputs": [
        {
          "indexed": false,
          "internalType": "address",
          "name": "account",
          "type": "address"
        }
      ],
      "name": "Paused",
      "type": "event"
    },
    {
      "anonymous": false,
      "inputs": [
        {
          "indexed": true,
          "internalType": "bytes32",
          "name": "role",
          "type": "bytes32"
        },
        {
          "indexed": true,
          "internalType": "bytes32",
          "name": "previousAdminRole",
          "type": "bytes32"
        },
        {
          "indexed": true,
          "internalType": "bytes32",
          "name": "newAdminRole",
          "type": "bytes32"
        }
      ],
      "name": "RoleAdminChanged",
      "type": "event"
    },
    {
      "anonymous": false,
      "inputs": [
        {
          "indexed": true,
          "internalType": "bytes32",
          "name": "role",
          "type": "bytes32"
        },
        {
          "indexed": true,
          "internalType": "address",
          "name": "account",
          "type": "address"
        },
        {
          "indexed": true,
          "internalType": "address",
          "name": "sender",
          "type": "address"
        }
      ],
      "name": "RoleGranted",
      "type": "event"
    },
    {
      "anonymous": false,
      "inputs": [
        {
          "indexed": true,
          "internalType": "bytes32",
          "name": "role",
          "type": "bytes32"
        },
        {
          "indexed": true,
          "internalType": "address",
          "name": "account",
          "type": "address"
        },
        {
          "indexed": true,
          "internalType": "address",
          "name": "sender",
          "type": "address"
        }
      ],
      "name": "RoleRevoked",
      "type": "event"
    },
    {
      "anonymous": false,
      "inputs": [
        {
          "indexed": false,
          "internalType": "address",
          "name": "account",
          "type": "address"
        }
      ],
      "name": "Unpaused",
      "type": "event"
    },
    {
      "anonymous": false,
      "inputs": [
        {
          "indexed": true,
          "internalType": "address",
          "name": "implementation",
          "type": "address"
        }
      ],
      "name": "Upgraded",
      "type": "event"
    },
    {
      "inputs": [],
      "name": "DEFAULT_ADMIN_ROLE",
      "outputs": [
        {
          "internalType": "bytes32",
          "name": "",
          "type": "bytes32"
        }
      ],
      "stateMutability": "view",
      "type": "function"
    },
    {
      "inputs": [],
      "name": "FEE_DENOMINATOR",
      "outputs": [
        {
          "internalType": "uint256",
          "name": "",
          "type": "uint256"
        }
      ],
      "stateMutability": "view",
      "type": "function"
    },
    {
      "inputs": [],
      "name": "TREASURER_ROLE",
      "outputs": [
        {
          "internalType": "bytes32",
          "name": "",
          "type": "bytes32"
        }
      ],
      "stateMutability": "view",
      "type": "function"
    },
    {
      "inputs": [],
      "name": "UPGRADER_ROLE",
      "outputs": [
        {
          "internalType": "bytes32",
          "name": "",
          "type": "bytes32"
        }
      ],
      "stateMutability": "view",
      "type": "function"
    },
    {
      "inputs": [],
      "name": "UPGRADE_INTERFACE_VERSION",
      "outputs": [
        {
          "internalType": "string",
          "name": "",
          "type": "string"
        }
      ],
      "stateMutability": "view",
      "type": "function"
    },
    {
      "inputs": [
        {
          "internalType": "address",
          "name": "token",
          "type": "address"
        }
      ],
      "name": "distributeFees",
      "outputs": [],
      "stateMutability": "nonpayable",
      "type": "function"
    },
    {
      "inputs": [
        {
          "internalType": "address",
          "name": "token",
          "type": "address"
        },
        {
          "internalType": "uint256",
          "name": "amount",
          "type": "uint256"
        },
        {
          "internalType": "address",
          "name": "to",
          "type": "address"
        }
      ],
      "name": "emergencyWithdraw",
      "outputs": [],
      "stateMutability": "nonpayable",
      "type": "function"
    },
    {
      "inputs": [],
      "name": "feeDistributor",
      "outputs": [
        {
          "internalType": "address",
          "name": "",
          "type": "address"
        }
      ],
      "stateMutability": "view",
      "type": "function"
    },
    {
      "inputs": [],
      "name": "feeDistributorShare",
      "outputs": [
        {
          "internalType": "uint256",
          "name": "",
          "type": "uint256"
        }
      ],
      "stateMutability": "view",
      "type": "function"
    },
    {
      "inputs": [
        {
          "internalType": "address",
          "name": "token",
          "type": "address"
        }
      ],
      "name": "getBalance",
      "outputs": [
        {
          "internalType": "uint256",
          "name": "",
          "type": "uint256"
        }
      ],
      "stateMutability": "view",
      "type": "function"
    },
    {
      "inputs": [
        {
          "internalType": "bytes32",
          "name": "role",
          "type": "bytes32"
        }
      ],
      "name": "getRoleAdmin",
      "outputs": [
        {
          "internalType": "bytes32",
          "name": "",
          "type": "bytes32"
        }
      ],
      "stateMutability": "view",
      "type": "function"
    },
    {
      "inputs": [
        {
          "internalType": "bytes32",
          "name": "role",
          "type": "bytes32"
        },
        {
          "internalType": "address",
          "name": "account",
          "type": "address"
        }
      ],
      "name": "grantRole",
      "outputs": [],
      "stateMutability": "nonpayable",
      "type": "function"
    },
    {
      "inputs": [
        {
          "internalType": "bytes32",
          "name": "role",
          "type": "bytes32"
        },
        {
          "internalType": "address",
          "name": "account",
          "type": "address"
        }
      ],
      "name": "hasRole",
      "outputs": [
        {
          "internalType": "bool",
          "name": "",
          "type": "bool"
        }
      ],
      "stateMutability": "view",
      "type": "function"
    },
    {
      "inputs": [
        {
          "internalType": "address",
          "name": "_feeDistributor",
          "type": "address"
        },
        {
          "internalType": "address",
          "name": "_insuranceFund",
          "type": "address"
        },
        {
          "internalType": "address",
          "name": "defaultAdmin",
          "type": "address"
        }
      ],
      "name": "initialize",
      "outputs": [],
      "stateMutability": "nonpayable",
      "type": "function"
    },
    {
      "inputs": [],
      "name": "insuranceFund",
      "outputs": [
        {
          "internalType": "address",
          "name": "",
          "type": "address"
        }
      ],
      "stateMutability": "view",
      "type": "function"
    },
    {
      "inputs": [],
      "name": "insuranceFundShare",
      "outputs": [
        {
          "internalType": "uint256",
          "name": "",
          "type": "uint256"
        }
      ],
      "stateMutability": "view",
      "type": "function"
    },
    {
      "inputs": [],
      "name": "pause",
      "outputs": [],
      "stateMutability": "nonpayable",
      "type": "function"
    },
    {
      "inputs": [],
      "name": "paused",
      "outputs": [
        {
          "internalType": "bool",
          "name": "",
          "type": "bool"
        }
      ],
      "stateMutability": "view",
      "type": "function"
    },
    {
      "inputs": [],
      "name": "proxiableUUID",
      "outputs": [
        {
          "internalType": "bytes32",
          "name": "",
          "type": "bytes32"
        }
      ],
      "stateMutability": "view",
      "type": "function"
    },
    {
      "inputs": [
        {
          "internalType": "address",
          "name": "token",
          "type": "address"
        },
        {
          "internalType": "uint256",
          "name": "amount",
          "type": "uint256"
        }
      ],
      "name": "receiveFunds",
      "outputs": [],
      "stateMutability": "nonpayable",
      "type": "function"
    },
    {
      "inputs": [
        {
          "internalType": "bytes32",
          "name": "role",
          "type": "bytes32"
        },
        {
          "internalType": "address",
          "name": "callerConfirmation",
          "type": "address"
        }
      ],
      "name": "renounceRole",
      "outputs": [],
      "stateMutability": "nonpayable",
      "type": "function"
    },
    {
      "inputs": [
        {
          "internalType": "bytes32",
          "name": "role",
          "type": "bytes32"
        },
        {
          "internalType": "address",
          "name": "account",
          "type": "address"
        }
      ],
      "name": "revokeRole",
      "outputs": [],
      "stateMutability": "nonpayable",
      "type": "function"
    },
    {
      "inputs": [
        {
          "internalType": "address",
          "name": "_feeDistributor",
          "type": "address"
        }
      ],
      "name": "setFeeDistributor",
      "outputs": [],
      "stateMutability": "nonpayable",
      "type": "function"
    },
    {
      "inputs": [
        {
          "internalType": "uint256",
          "name": "_feeDistributorShare",
          "type": "uint256"
        },
        {
          "internalType": "uint256",
          "name": "_insuranceFundShare",
          "type": "uint256"
        }
      ],
      "name": "setFeeShares",
      "outputs": [],
      "stateMutability": "nonpayable",
      "type": "function"
    },
    {
      "inputs": [
        {
          "internalType": "address",
          "name": "_insuranceFund",
          "type": "address"
        }
      ],
      "name": "setInsuranceFund",
      "outputs": [],
      "stateMutability": "nonpayable",
      "type": "function"
    },
    {
      "inputs": [
        {
          "internalType": "bytes4",
          "name": "interfaceId",
          "type": "bytes4"
        }
      ],
      "name": "supportsInterface",
      "outputs": [
        {
          "internalType": "bool",
          "name": "",
          "type": "bool"
        }
      ],
      "stateMutability": "view",
      "type": "function"
    },
    {
      "inputs": [
        {
          "internalType": "address",
          "name": "",
          "type": "address"
        }
      ],
      "name": "tokenBalances",
      "outputs": [
        {
          "internalType": "uint256",
          "name": "",
          "type": "uint256"
        }
      ],
      "stateMutability": "view",
      "type": "function"
    },
    {
      "inputs": [],
      "name": "unpause",
      "outputs": [],
      "stateMutability": "nonpayable",
      "type": "function"
    },
    {
      "inputs": [
        {
          "internalType": "address",
          "name": "newImplementation",
          "type": "address"
        },
        {
          "internalType": "bytes",
          "name": "data",
          "type": "bytes"
        }
      ],
      "name": "upgradeToAndCall",
      "outputs": [],
      "stateMutability": "payable",
      "type": "function"
    }
  ],
  "bytecode": "0x60a060405230608052348015610013575f80fd5b5061001c610021565b6100d3565b7ff0c57e16840df040f15088dc2f81fe391c3923bec73e23a9662efc9c229c6a00805468010000000000000000900460ff16156100715760405163f92ee8a960e01b815260040160405180910390fd5b80546001600160401b03908116146100d05780546001600160401b0319166001600160401b0390811782556040519081527fc7f505b2f371ae2175ee4913f4499e1f2633a7b5936321eed1cdaeb6115181d29060200160405180910390a15b50565b608051611b8b6100f95f395f81816112220152818161124b01526113ae0152611b8b5ff3fe6080604052600436106101ba575f3560e01c806391d14854116100f2578063c3c0529311610092578063d91f068011610062578063d91f0680146104e2578063f0a3a97c146104f7578063f72c0d8b1461052a578063f8b2cb4f1461055d575f80fd5b8063c3c0529314610470578063ccfc2e8d1461048f578063d547741f146104ae578063d73792a9146104cd575f80fd5b8063ad3cb1cc116100cd578063ad3cb1cc146103e0578063b79023031461041d578063b962059b1461043c578063c0c53b8b14610451575f80fd5b806391d148541461038f5780639413f25c146103ae578063a217fddf146103cd575f80fd5b8063523fba7f1161015d5780635c975abb116101385780635c975abb1461031a57806366f13ae41461033d578063740227d11461035c5780638456cb591461037b575f80fd5b8063523fba7f146102bc57806352d1902d146102e7578063551512de146102fb575f80fd5b80632f2ff15d116101985780632f2ff15d1461025557806336568abe146102765780633f4ba83a146102955780634f1ef286146102a9575f80fd5b806301ffc9a7146101be5780630d43e8ad146101f2578063248a9ca314610228575b5f80fd5b3480156101c9575f80fd5b506101dd6101d836600461176c565b610591565b60405190151581526020015b60405180910390f35b3480156101fd575f80fd5b505f54610210906001600160a01b031681565b6040516001600160a01b0390911681526020016101e9565b348015610233575f80fd5b50610247610242366004611793565b6105c7565b6040519081526020016101e9565b348015610260575f80fd5b5061027461026f3660046117c5565b6105e7565b005b348015610281575f80fd5b506102746102903660046117c5565b610609565b3480156102a0575f80fd5b50610274610641565b6102746102b7366004611803565b610656565b3480156102c7575f80fd5b506102476102d63660046118bf565b60046020525f908152604090205481565b3480156102f2575f80fd5b50610247610675565b348015610306575f80fd5b506102746103153660046118d8565b610690565b348015610325575f80fd5b505f80516020611b168339815191525460ff166101dd565b348015610348575f80fd5b50610274610357366004611911565b61087f565b348015610367575f80fd5b50610274610376366004611931565b61092c565b348015610386575f80fd5b50610274610ab9565b34801561039a575f80fd5b506101dd6103a93660046117c5565b610acb565b3480156103b9575f80fd5b506102746103c83660046118bf565b610b01565b3480156103d8575f80fd5b506102475f81565b3480156103eb575f80fd5b50610410604051806040016040528060058152602001640352e302e360dc1b81525081565b6040516101e9919061197b565b348015610428575f80fd5b50600154610210906001600160a01b031681565b348015610447575f80fd5b5061024760035481565b34801561045c575f80fd5b5061027461046b3660046119ad565b610e29565b34801561047b575f80fd5b5061027461048a3660046118bf565b610fd3565b34801561049a575f80fd5b506102746104a93660046118bf565b611026565b3480156104b9575f80fd5b506102746104c83660046117c5565b611078565b3480156104d8575f80fd5b5061024761271081565b3480156104ed575f80fd5b5061024760025481565b348015610502575f80fd5b506102477f3496e2e73c4d42b75d702e60d9e48102720b8691234415963a5a857b86425d0781565b348015610535575f80fd5b506102477f189ab7a9244df0848122154315af71fe140f3db0fe014031783b0946b8c9d2e381565b348015610568575f80fd5b506102476105773660046118bf565b6001600160a01b03165f9081526004602052604090205490565b5f6001600160e01b03198216637965db0b60e01b14806105c157506301ffc9a760e01b6001600160e01b03198316145b92915050565b5f9081525f80516020611af6833981519152602052604090206001015490565b6105f0826105c7565b6105f981611094565b610603838361109e565b50505050565b6001600160a01b03811633146106325760405163334bd91960e11b815260040160405180910390fd5b61063c828261113f565b505050565b5f61064b81611094565b6106536111b8565b50565b61065e611217565b610667826112bd565b61067182826112e7565b5050565b5f61067e6113a3565b505f80516020611ad683398151915290565b5f61069a81611094565b6106a26113ec565b6001600160a01b0382166106d15760405162461bcd60e51b81526004016106c8906119e4565b60405180910390fd5b6001600160a01b0384165f908152600460205260409020548311156107385760405162461bcd60e51b815260206004820152601e60248201527f54726561737572793a20696e73756666696369656e742062616c616e6365000060448201526064016106c8565b6001600160a01b0384165f908152600460205260408120805485929061075f908490611a28565b909155505060405163a9059cbb60e01b81526001600160a01b0383811660048301526024820185905285169063a9059cbb906044016020604051808303815f875af11580156107b0573d5f803e3d5ffd5b505050506040513d601f19601f820116820180604052508101906107d49190611a3b565b61081c5760405162461bcd60e51b8152602060048201526019602482015278151c99585cdd5c9e4e881d1c985b9cd9995c8819985a5b1959603a1b60448201526064016106c8565b816001600160a01b0316846001600160a01b03167faaeda929aa102e867049528ec7cd2499e3a2f8846e736ae7935f234dfbf500d98560405161086191815260200190565b60405180910390a361060360015f80516020611b3683398151915255565b5f61088981611094565b6127106108968385611a5a565b11156108e45760405162461bcd60e51b815260206004820152601860248201527f54726561737572793a20696e76616c696420736861726573000000000000000060448201526064016106c8565b6002839055600382905560408051848152602081018490527fe27eff07c82fe40755857df4c86d1146ab1d125c63b256a87c7ff2fba40c224e910160405180910390a1505050565b6109346113ec565b5f811161097b5760405162461bcd60e51b8152602060048201526015602482015274151c99585cdd5c9e4e881e995c9bc8185b5bdd5b9d605a1b60448201526064016106c8565b6040516323b872dd60e01b8152336004820152306024820152604481018290526001600160a01b038316906323b872dd906064016020604051808303815f875af11580156109cb573d5f803e3d5ffd5b505050506040513d601f19601f820116820180604052508101906109ef9190611a3b565b610a375760405162461bcd60e51b8152602060048201526019602482015278151c99585cdd5c9e4e881d1c985b9cd9995c8819985a5b1959603a1b60448201526064016106c8565b6001600160a01b0382165f9081526004602052604081208054839290610a5e908490611a5a565b909155505060405181815233906001600160a01b038416907f6f8a4ef0af7c27d2b604338870c106d39d43e1d4b880d73c04eb6a602403ab909060200160405180910390a361067160015f80516020611b3683398151915255565b5f610ac381611094565b610653611436565b5f9182525f80516020611af6833981519152602090815260408084206001600160a01b0393909316845291905290205460ff1690565b610b096113ec565b610b1161147e565b6001600160a01b0381165f9081526004602052604090205480610b6d5760405162461bcd60e51b815260206004820152601460248201527354726561737572793a206e6f2062616c616e636560601b60448201526064016106c8565b5f61271060025483610b7f9190611a6d565b610b899190611a84565b90505f61271060035484610b9d9190611a6d565b610ba79190611a84565b90505f81610bb58486611a28565b610bbf9190611a28565b6001600160a01b0386165f90815260046020526040902081905590508215610cf7575f5460405163a9059cbb60e01b81526001600160a01b039182166004820152602481018590529086169063a9059cbb906044016020604051808303815f875af1158015610c30573d5f803e3d5ffd5b505050506040513d601f19601f82011682018060405250810190610c549190611a3b565b610cb25760405162461bcd60e51b815260206004820152602960248201527f54726561737572793a20666565206469737472696275746f72207472616e7366604482015268195c8819985a5b195960ba1b60648201526084016106c8565b5f546040518481526001600160a01b03918216918716907f349223a7cde56b552c0b9ded552bd585fca5ef4cb7dcad4aeb612c2ad4f9e3119060200160405180910390a35b8115610e0f5760015460405163a9059cbb60e01b81526001600160a01b039182166004820152602481018490529086169063a9059cbb906044016020604051808303815f875af1158015610d4d573d5f803e3d5ffd5b505050506040513d601f19601f82011682018060405250810190610d719190611a3b565b610dc95760405162461bcd60e51b815260206004820152602360248201527f54726561737572793a20696e737572616e6365207472616e73666572206661696044820152621b195960ea1b60648201526084016106c8565b6001546040518381526001600160a01b03918216918716907f349223a7cde56b552c0b9ded552bd585fca5ef4cb7dcad4aeb612c2ad4f9e3119060200160405180910390a35b5050505061065360015f80516020611b3683398151915255565b5f610e326114ae565b805490915060ff600160401b820416159067ffffffffffffffff165f81158015610e595750825b90505f8267ffffffffffffffff166001148015610e755750303b155b905081158015610e83575080155b15610ea15760405163f92ee8a960e01b815260040160405180910390fd5b845467ffffffffffffffff191660011785558315610ecb57845460ff60401b1916600160401b1785555b610ed36114d6565b610edb6114de565b610ee36114d6565b610eeb6114d6565b5f80546001600160a01b03808b166001600160a01b031992831617835560018054918b16919092161790556113886002556103e8600355610f2c908761109e565b50610f577f3496e2e73c4d42b75d702e60d9e48102720b8691234415963a5a857b86425d078761109e565b50610f827f189ab7a9244df0848122154315af71fe140f3db0fe014031783b0946b8c9d2e38761109e565b508315610fc957845460ff60401b19168555604051600181527fc7f505b2f371ae2175ee4913f4499e1f2633a7b5936321eed1cdaeb6115181d29060200160405180910390a15b5050505050505050565b5f610fdd81611094565b6001600160a01b0382166110035760405162461bcd60e51b81526004016106c8906119e4565b50600180546001600160a01b0319166001600160a01b0392909216919091179055565b5f61103081611094565b6001600160a01b0382166110565760405162461bcd60e51b81526004016106c8906119e4565b505f80546001600160a01b0319166001600160a01b0392909216919091179055565b611081826105c7565b61108a81611094565b610603838361113f565b61065381336114ee565b5f5f80516020611af68339815191526110b78484610acb565b611136575f848152602082815260408083206001600160a01b03871684529091529020805460ff191660011790556110ec3390565b6001600160a01b0316836001600160a01b0316857f2f8788117e7eff1d82e926ec794901d17c78024a50270940304540a733656f0d60405160405180910390a460019150506105c1565b5f9150506105c1565b5f5f80516020611af68339815191526111588484610acb565b15611136575f848152602082815260408083206001600160a01b0387168085529252808320805460ff1916905551339287917ff6391f5c32d9c69d2a47ea670b442974b53935d1edc7fd64eb21e047a839171b9190a460019150506105c1565b6111c0611527565b5f80516020611b16833981519152805460ff191681557f5db9ee0a495bf2e6ff9c91a7834c1ba4fdd244a5e8aa4e537bd38aeae4b073aa335b6040516001600160a01b03909116815260200160405180910390a150565b306001600160a01b037f000000000000000000000000000000000000000000000000000000000000000016148061129d57507f00000000000000000000000000000000000000000000000000000000000000006001600160a01b03166112915f80516020611ad6833981519152546001600160a01b031690565b6001600160a01b031614155b156112bb5760405163703e46dd60e11b815260040160405180910390fd5b565b7f189ab7a9244df0848122154315af71fe140f3db0fe014031783b0946b8c9d2e361067181611094565b816001600160a01b03166352d1902d6040518163ffffffff1660e01b8152600401602060405180830381865afa925050508015611341575060408051601f3d908101601f1916820190925261133e91810190611aa3565b60015b61136957604051634c9c8ce360e01b81526001600160a01b03831660048201526024016106c8565b5f80516020611ad6833981519152811461139957604051632a87526960e21b8152600481018290526024016106c8565b61063c8383611556565b306001600160a01b037f000000000000000000000000000000000000000000000000000000000000000016146112bb5760405163703e46dd60e11b815260040160405180910390fd5b5f80516020611b3683398151915280546001190161141d57604051633ee5aeb560e01b815260040160405180910390fd5b60029055565b60015f80516020611b3683398151915255565b61143e61147e565b5f80516020611b16833981519152805460ff191660011781557f62e78cea01bee320cd4e420270b5ea74000d11b0c9f74754ebdbfc544b05a258336111f9565b5f80516020611b168339815191525460ff16156112bb5760405163d93c066560e01b815260040160405180910390fd5b5f807ff0c57e16840df040f15088dc2f81fe391c3923bec73e23a9662efc9c229c6a006105c1565b6112bb6115ab565b6114e66115ab565b6112bb6115d0565b6114f88282610acb565b6106715760405163e2517d3f60e01b81526001600160a01b0382166004820152602481018390526044016106c8565b5f80516020611b168339815191525460ff166112bb57604051638dfc202b60e01b815260040160405180910390fd5b61155f826115d8565b6040516001600160a01b038316907fbc7cd75a20ee27fd9adebab32041f755214dbc6bffa90cc0225b39da2e5c2d3b905f90a28051156115a35761063c828261163b565b6106716116ad565b6115b36116cc565b6112bb57604051631afcd79f60e31b815260040160405180910390fd5b6114236115ab565b806001600160a01b03163b5f0361160d57604051634c9c8ce360e01b81526001600160a01b03821660048201526024016106c8565b5f80516020611ad683398151915280546001600160a01b0319166001600160a01b0392909216919091179055565b60605f80846001600160a01b0316846040516116579190611aba565b5f60405180830381855af49150503d805f811461168f576040519150601f19603f3d011682016040523d82523d5f602084013e611694565b606091505b50915091506116a48583836116e5565b95945050505050565b34156112bb5760405163b398979f60e01b815260040160405180910390fd5b5f6116d56114ae565b54600160401b900460ff16919050565b6060826116fa576116f582611744565b61173d565b815115801561171157506001600160a01b0384163b155b1561173a57604051639996b31560e01b81526001600160a01b03851660048201526024016106c8565b50805b9392505050565b80511561175357805160208201fd5b60405163d6bda27560e01b815260040160405180910390fd5b5f6020828403121561177c575f80fd5b81356001600160e01b03198116811461173d575f80fd5b5f602082840312156117a3575f80fd5b5035919050565b80356001600160a01b03811681146117c0575f80fd5b919050565b5f80604083850312156117d6575f80fd5b823591506117e6602084016117aa565b90509250929050565b634e487b7160e01b5f52604160045260245ffd5b5f8060408385031215611814575f80fd5b61181d836117aa565b9150602083013567ffffffffffffffff80821115611839575f80fd5b818501915085601f83011261184c575f80fd5b81358181111561185e5761185e6117ef565b604051601f8201601f19908116603f01168101908382118183101715611886576118866117ef565b8160405282815288602084870101111561189e575f80fd5b826020860160208301375f6020848301015280955050505050509250929050565b5f602082840312156118cf575f80fd5b61173d826117aa565b5f805f606084860312156118ea575f80fd5b6118f3846117aa565b925060208401359150611908604085016117aa565b90509250925092565b5f8060408385031215611922575f80fd5b50508035926020909101359150565b5f8060408385031215611942575f80fd5b61194b836117aa565b946020939093013593505050565b5f5b8381101561197357818101518382015260200161195b565b50505f910152565b602081525f8251806020840152611999816040850160208701611959565b601f01601f19169190910160400192915050565b5f805f606084860312156119bf575f80fd5b6119c8846117aa565b92506119d6602085016117aa565b9150611908604085016117aa565b60208082526016908201527554726561737572793a207a65726f206164647265737360501b604082015260600190565b634e487b7160e01b5f52601160045260245ffd5b818103818111156105c1576105c1611a14565b5f60208284031215611a4b575f80fd5b8151801515811461173d575f80fd5b808201808211156105c1576105c1611a14565b80820281158282048414176105c1576105c1611a14565b5f82611a9e57634e487b7160e01b5f52601260045260245ffd5b500490565b5f60208284031215611ab3575f80fd5b5051919050565b5f8251611acb818460208701611959565b919091019291505056fe360894a13ba1a3210667c828492db98dca3e2076cc3735a920a3ca505d382bbc02dd7bc7dec4dceedda775e58dd541e08a116c6c53815c0bd028192f7b626800cd5ed15c6e187e77e9aee88184c21f4f2182ab5827cb3b7e07fbedcd63f033009b779b17422d0df92223018b32b4d1fa46e071723d6817e2486d003becc55f00a264697066735822122047f5c94acd12d5aff5bb3862b14e2bb5a061b9922dfbfc67a1b356116014f10964736f6c63430008180033",
  "linkReferences": {},
  "deployedLinkReferences": {}
}