{
  "_format": "hh-sol-artifact-1",
  "contractName": "ORXToken",
  "sourceName": "contracts-v2/ORXToken.sol",
  "abi": [
    {
      "inputs": [],
      "stateMutability": "nonpayable",
      "type": "constructor"
    },
    {
      "inputs": [],
      "name": "AccessControlBadConfirmation",
      "type": "error"
    },
    {
      "inputs": [
        {
          "internalType": "address",
          "name": "account",
          "type": "address"
        },
        {
          "internalType": "bytes32",
          "name": "neededRole",
          "type": "bytes32"
        }
      ],
      "name": "AccessControlUnauthorizedAccount",
      "type": "error"
    },
    {
      "inputs": [
        {
          "internalType": "address",
          "name": "target",
          "type": "address"
        }
      ],
      "name": "AddressEmptyCode",
      "type": "error"
    },
    {
      "inputs": [],
      "name": "ECDSAInvalidSignature",
      "type": "error"
    },
    {
      "inputs": [
        {
          "internalType": "uint256",
          "name": "length",
          "type": "uint256"
        }
      ],
      "name": "ECDSAInvalidSignatureLength",
      "type": "error"
    },
    {
      "inputs": [
        {
          "internalType": "bytes32",
          "name": "s",
          "type": "bytes32"
        }
      ],
      "name": "ECDSAInvalidSignatureS",
      "type": "error"
    },
    {
      "inputs": [
        {
          "internalType": "address",
          "name": "implementation",
          "type": "address"
        }
      ],
      "name": "ERC1967InvalidImplementation",
      "type": "error"
    },
    {
      "inputs": [],
      "name": "ERC1967NonPayable",
      "type": "error"
    },
    {
      "inputs": [
        {
          "internalType": "address",
          "name": "spender",
          "type": "address"
        },
        {
          "internalType": "uint256",
          "name": "allowance",
          "type": "uint256"
        },
        {
          "internalType": "uint256",
          "name": "needed",
          "type": "uint256"
        }
      ],
      "name": "ERC20InsufficientAllowance",
      "type": "error"
    },
    {
      "inputs": [
        {
          "internalType": "address",
          "name": "sender",
          "type": "address"
        },
        {
          "internalType": "uint256",
          "name": "balance",
          "type": "uint256"
        },
        {
          "internalType": "uint256",
          "name": "needed",
          "type": "uint256"
        }
      ],
      "name": "ERC20InsufficientBalance",
      "type": "error"
    },
    {
      "inputs": [
        {
          "internalType": "address",
          "name": "approver",
          "type": "address"
        }
      ],
      "name": "ERC20InvalidApprover",
      "type": "error"
    },
    {
      "inputs": [
        {
          "internalType": "address",
          "name": "receiver",
          "type": "address"
        }
      ],
      "name": "ERC20InvalidReceiver",
      "type": "error"
    },
    {
      "inputs": [
        {
          "internalType": "address",
          "name": "sender",
          "type": "address"
        }
      ],
      "name": "ERC20InvalidSender",
      "type": "error"
    },
    {
      "inputs": [
        {
          "internalType": "address",
          "name": "spender",
          "type": "address"
        }
      ],
      "name": "ERC20InvalidSpender",
      "type": "error"
    },
    {
      "inputs": [
        {
          "internalType": "uint256",
          "name": "deadline",
          "type": "uint256"
        }
      ],
      "name": "ERC2612ExpiredSignature",
      "type": "error"
    },
    {
      "inputs": [
        {
          "internalType": "address",
          "name": "signer",
          "type": "address"
        },
        {
          "internalType": "address",
          "name": "owner",
          "type": "address"
        }
      ],
      "name": "ERC2612InvalidSigner",
      "type": "error"
    },
    {
      "inputs": [],
      "name": "EnforcedPause",
      "type": "error"
    },
    {
      "inputs": [],
      "name": "ExpectedPause",
      "type": "error"
    },
    {
      "inputs": [],
      "name": "FailedCall",
      "type": "error"
    },
    {
      "inputs": [
        {
          "internalType": "address",
          "name": "account",
          "type": "address"
        },
        {
          "internalType": "uint256",
          "name": "currentNonce",
          "type": "uint256"
        }
      ],
      "name": "InvalidAccountNonce",
      "type": "error"
    },
    {
      "inputs": [],
      "name": "InvalidInitialization",
      "type": "error"
    },
    {
      "inputs": [],
      "name": "NotInitializing",
      "type": "error"
    },
    {
      "inputs": [],
      "name": "UUPSUnauthorizedCallContext",
      "type": "error"
    },
    {
      "inputs": [
        {
          "internalType": "bytes32",
          "name": "slot",
          "type": "bytes32"
        }
      ],
      "name": "UUPSUnsupportedProxiableUUID",
      "type": "error"
    },
    {
      "anonymous": false,
      "inputs": [
        {
          "indexed": true,
          "internalType": "address",
          "name": "owner",
          "type": "address"
        },
        {
          "indexed": true,
          "internalType": "address",
          "name": "spender",
          "type": "address"
        },
        {
          "indexed": false,
          "internalType": "uint256",
          "name": "value",
          "type": "uint256"
        }
      ],
      "name": "Approval",
      "type": "event"
    },
    {
      "anonymous": false,
      "inputs": [],
      "name": "EIP712DomainChanged",
      "type": "event"
    },
    {
      "anonymous": false,
      "inputs": [
        {
          "indexed": false,
          "internalType": "uint64",
          "name": "version",
          "type": "uint64"
        }
      ],
      "name": "Initialized",
      "type": "event"
    },
    {
      "anonymous": false,
      "inputs": [
        {
          "indexed": false,
          "internalType": "address",
          "name": "account",
          "type": "address"
        }
      ],
      "name": "Paused",
      "type": "event"
    },
    {
      "anonymous": false,
      "inputs": [
        {
          "indexed": true,
          "internalType": "bytes32",
          "name": "role",
          "type": "bytes32"
        },
        {
          "indexed": true,
          "internalType": "bytes32",
          "name": "previousAdminRole",
          "type": "bytes32"
        },
        {
          "indexed": true,
          "internalType": "bytes32",
          "name": "newAdminRole",
          "type": "bytes32"
        }
      ],
      "name": "RoleAdminChanged",
      "type": "event"
    },
    {
      "anonymous": false,
      "inputs": [
        {
          "indexed": true,
          "internalType": "bytes32",
          "name": "role",
          "type": "bytes32"
        },
        {
          "indexed": true,
          "internalType": "address",
          "name": "account",
          "type": "address"
        },
        {
          "indexed": true,
          "internalType": "address",
          "name": "sender",
          "type": "address"
        }
      ],
      "name": "RoleGranted",
      "type": "event"
    },
    {
      "anonymous": false,
      "inputs": [
        {
          "indexed": true,
          "internalType": "bytes32",
          "name": "role",
          "type": "bytes32"
        },
        {
          "indexed": true,
          "internalType": "address",
          "name": "account",
          "type": "address"
        },
        {
          "indexed": true,
          "internalType": "address",
          "name": "sender",
          "type": "address"
        }
      ],
      "name": "RoleRevoked",
      "type": "event"
    },
    {
      "anonymous": false,
      "inputs": [
        {
          "indexed": true,
          "internalType": "address",
          "name": "from",
          "type": "address"
        },
        {
          "indexed": true,
          "internalType": "address",
          "name": "to",
          "type": "address"
        },
        {
          "indexed": false,
          "internalType": "uint256",
          "name": "value",
          "type": "uint256"
        }
      ],
      "name": "Transfer",
      "type": "event"
    },
    {
      "anonymous": false,
      "inputs": [
        {
          "indexed": false,
          "internalType": "address",
          "name": "account",
          "type": "address"
        }
      ],
      "name": "Unpaused",
      "type": "event"
    },
    {
      "anonymous": false,
      "inputs": [
        {
          "indexed": true,
          "internalType": "address",
          "name": "implementation",
          "type": "address"
        }
      ],
      "name": "Upgraded",
      "type": "event"
    },
    {
      "inputs": [],
      "name": "DEFAULT_ADMIN_ROLE",
      "outputs": [
        {
          "internalType": "bytes32",
          "name": "",
          "type": "bytes32"
        }
      ],
      "stateMutability": "view",
      "type": "function"
    },
    {
      "inputs": [],
      "name": "DOMAIN_SEPARATOR",
      "outputs": [
        {
          "internalType": "bytes32",
          "name": "",
          "type": "bytes32"
        }
      ],
      "stateMutability": "view",
      "type": "function"
    },
    {
      "inputs": [],
      "name": "MAX_SUPPLY",
      "outputs": [
        {
          "internalType": "uint256",
          "name": "",
          "type": "uint256"
        }
      ],
      "stateMutability": "view",
      "type": "function"
    },
    {
      "inputs": [],
      "name": "MINTER_ROLE",
      "outputs": [
        {
          "internalType": "bytes32",
          "name": "",
          "type": "bytes32"
        }
      ],
      "stateMutability": "view",
      "type": "function"
    },
    {
      "inputs": [],
      "name": "PAUSER_ROLE",
      "outputs": [
        {
          "internalType": "bytes32",
          "name": "",
          "type": "bytes32"
        }
      ],
      "stateMutability": "view",
      "type": "function"
    },
    {
      "inputs": [],
      "name": "UPGRADER_ROLE",
      "outputs": [
        {
          "internalType": "bytes32",
          "name": "",
          "type": "bytes32"
        }
      ],
      "stateMutability": "view",
      "type": "function"
    },
    {
      "inputs": [],
      "name": "UPGRADE_INTERFACE_VERSION",
      "outputs": [
        {
          "internalType": "string",
          "name": "",
          "type": "string"
        }
      ],
      "stateMutability": "view",
      "type": "function"
    },
    {
      "inputs": [
        {
          "internalType": "address",
          "name": "owner",
          "type": "address"
        },
        {
          "internalType": "address",
          "name": "spender",
          "type": "address"
        }
      ],
      "name": "allowance",
      "outputs": [
        {
          "internalType": "uint256",
          "name": "",
          "type": "uint256"
        }
      ],
      "stateMutability": "view",
      "type": "function"
    },
    {
      "inputs": [
        {
          "internalType": "address",
          "name": "spender",
          "type": "address"
        },
        {
          "internalType": "uint256",
          "name": "value",
          "type": "uint256"
        }
      ],
      "name": "approve",
      "outputs": [
        {
          "internalType": "bool",
          "name": "",
          "type": "bool"
        }
      ],
      "stateMutability": "nonpayable",
      "type": "function"
    },
    {
      "inputs": [
        {
          "internalType": "address",
          "name": "account",
          "type": "address"
        }
      ],
      "name": "balanceOf",
      "outputs": [
        {
          "internalType": "uint256",
          "name": "",
          "type": "uint256"
        }
      ],
      "stateMutability": "view",
      "type": "function"
    },
    {
      "inputs": [
        {
          "internalType": "uint256",
          "name": "value",
          "type": "uint256"
        }
      ],
      "name": "burn",
      "outputs": [],
      "stateMutability": "nonpayable",
      "type": "function"
    },
    {
      "inputs": [
        {
          "internalType": "address",
          "name": "account",
          "type": "address"
        },
        {
          "internalType": "uint256",
          "name": "value",
          "type": "uint256"
        }
      ],
      "name": "burnFrom",
      "outputs": [],
      "stateMutability": "nonpayable",
      "type": "function"
    },
    {
      "inputs": [],
      "name": "decimals",
      "outputs": [
        {
          "internalType": "uint8",
          "name": "",
          "type": "uint8"
        }
      ],
      "stateMutability": "view",
      "type": "function"
    },
    {
      "inputs": [],
      "name": "eip712Domain",
      "outputs": [
        {
          "internalType": "bytes1",
          "name": "fields",
          "type": "bytes1"
        },
        {
          "internalType": "string",
          "name": "name",
          "type": "string"
        },
        {
          "internalType": "string",
          "name": "version",
          "type": "string"
        },
        {
          "internalType": "uint256",
          "name": "chainId",
          "type": "uint256"
        },
        {
          "internalType": "address",
          "name": "verifyingContract",
          "type": "address"
        },
        {
          "internalType": "bytes32",
          "name": "salt",
          "type": "bytes32"
        },
        {
          "internalType": "uint256[]",
          "name": "extensions",
          "type": "uint256[]"
        }
      ],
      "stateMutability": "view",
      "type": "function"
    },
    {
      "inputs": [
        {
          "internalType": "bytes32",
          "name": "role",
          "type": "bytes32"
        }
      ],
      "name": "getRoleAdmin",
      "outputs": [
        {
          "internalType": "bytes32",
          "name": "",
          "type": "bytes32"
        }
      ],
      "stateMutability": "view",
      "type": "function"
    },
    {
      "inputs": [
        {
          "internalType": "bytes32",
          "name": "role",
          "type": "bytes32"
        },
        {
          "internalType": "address",
          "name": "account",
          "type": "address"
        }
      ],
      "name": "grantRole",
      "outputs": [],
      "stateMutability": "nonpayable",
      "type": "function"
    },
    {
      "inputs": [
        {
          "internalType": "bytes32",
          "name": "role",
          "type": "bytes32"
        },
        {
          "internalType": "address",
          "name": "account",
          "type": "address"
        }
      ],
      "name": "hasRole",
      "outputs": [
        {
          "internalType": "bool",
          "name": "",
          "type": "bool"
        }
      ],
      "stateMutability": "view",
      "type": "function"
    },
    {
      "inputs": [
        {
          "internalType": "address",
          "name": "defaultAdmin",
          "type": "address"
        }
      ],
      "name": "initialize",
      "outputs": [],
      "stateMutability": "nonpayable",
      "type": "function"
    },
    {
      "inputs": [
        {
          "internalType": "address",
          "name": "to",
          "type": "address"
        },
        {
          "internalType": "uint256",
          "name": "amount",
          "type": "uint256"
        }
      ],
      "name": "mint",
      "outputs": [],
      "stateMutability": "nonpayable",
      "type": "function"
    },
    {
      "inputs": [],
      "name": "name",
      "outputs": [
        {
          "internalType": "string",
          "name": "",
          "type": "string"
        }
      ],
      "stateMutability": "view",
      "type": "function"
    },
    {
      "inputs": [
        {
          "internalType": "address",
          "name": "owner",
          "type": "address"
        }
      ],
      "name": "nonces",
      "outputs": [
        {
          "internalType": "uint256",
          "name": "",
          "type": "uint256"
        }
      ],
      "stateMutability": "view",
      "type": "function"
    },
    {
      "inputs": [],
      "name": "pause",
      "outputs": [],
      "stateMutability": "nonpayable",
      "type": "function"
    },
    {
      "inputs": [],
      "name": "paused",
      "outputs": [
        {
          "internalType": "bool",
          "name": "",
          "type": "bool"
        }
      ],
      "stateMutability": "view",
      "type": "function"
    },
    {
      "inputs": [
        {
          "internalType": "address",
          "name": "owner",
          "type": "address"
        },
        {
          "internalType": "address",
          "name": "spender",
          "type": "address"
        },
        {
          "internalType": "uint256",
          "name": "value",
          "type": "uint256"
        },
        {
          "internalType": "uint256",
          "name": "deadline",
          "type": "uint256"
        },
        {
          "internalType": "uint8",
          "name": "v",
          "type": "uint8"
        },
        {
          "internalType": "bytes32",
          "name": "r",
          "type": "bytes32"
        },
        {
          "internalType": "bytes32",
          "name": "s",
          "type": "bytes32"
        }
      ],
      "name": "permit",
      "outputs": [],
      "stateMutability": "nonpayable",
      "type": "function"
    },
    {
      "inputs": [],
      "name": "proxiableUUID",
      "outputs": [
        {
          "internalType": "bytes32",
          "name": "",
          "type": "bytes32"
        }
      ],
      "stateMutability": "view",
      "type": "function"
    },
    {
      "inputs": [
        {
          "internalType": "bytes32",
          "name": "role",
          "type": "bytes32"
        },
        {
          "internalType": "address",
          "name": "callerConfirmation",
          "type": "address"
        }
      ],
      "name": "renounceRole",
      "outputs": [],
      "stateMutability": "nonpayable",
      "type": "function"
    },
    {
      "inputs": [
        {
          "internalType": "bytes32",
          "name": "role",
          "type": "bytes32"
        },
        {
          "internalType": "address",
          "name": "account",
          "type": "address"
        }
      ],
      "name": "revokeRole",
      "outputs": [],
      "stateMutability": "nonpayable",
      "type": "function"
    },
    {
      "inputs": [
        {
          "internalType": "bytes4",
          "name": "interfaceId",
          "type": "bytes4"
        }
      ],
      "name": "supportsInterface",
      "outputs": [
        {
          "internalType": "bool",
          "name": "",
          "type": "bool"
        }
      ],
      "stateMutability": "view",
      "type": "function"
    },
    {
      "inputs": [],
      "name": "symbol",
      "outputs": [
        {
          "internalType": "string",
          "name": "",
          "type": "string"
        }
      ],
      "stateMutability": "view",
      "type": "function"
    },
    {
      "inputs": [],
      "name": "totalSupply",
      "outputs": [
        {
          "internalType": "uint256",
          "name": "",
          "type": "uint256"
        }
      ],
      "stateMutability": "view",
      "type": "function"
    },
    {
      "inputs": [
        {
          "internalType": "address",
          "name": "to",
          "type": "address"
        },
        {
          "internalType": "uint256",
          "name": "value",
          "type": "uint256"
        }
      ],
      "name": "transfer",
      "outputs": [
        {
          "internalType": "bool",
          "name": "",
          "type": "bool"
        }
      ],
      "stateMutability": "nonpayable",
      "type": "function"
    },
    {
      "inputs": [
        {
          "internalType": "address",
          "name": "from",
          "type": "address"
        },
        {
          "internalType": "address",
          "name": "to",
          "type": "address"
        },
        {
          "internalType": "uint256",
          "name": "value",
          "type": "uint256"
        }
      ],
      "name": "transferFrom",
      "outputs": [
        {
          "internalType": "bool",
          "name": "",
          "type": "bool"
        }
      ],
      "stateMutability": "nonpayable",
      "type": "function"
    },
    {
      "inputs": [],
      "name": "unpause",
      "outputs": [],
      "stateMutability": "nonpayable",
      "type": "function"
    },
    {
      "inputs": [
        {
          "internalType": "address",
          "name": "newImplementation",
          "type": "address"
        },
        {
          "internalType": "bytes",
          "name": "data",
          "type": "bytes"
        }
      ],
      "name": "upgradeToAndCall",
      "outputs": [],
      "stateMutability": "payable",
      "type": "function"
    }
  ],
  "bytecode": "0x60a060405230608052348015610013575f80fd5b5061001c610021565b6100d3565b7ff0c57e16840df040f15088dc2f81fe391c3923bec73e23a9662efc9c229c6a00805468010000000000000000900460ff16156100715760405163f92ee8a960e01b815260040160405180910390fd5b80546001600160401b03908116146100d05780546001600160401b0319166001600160401b0390811782556040519081527fc7f505b2f371ae2175ee4913f4499e1f2633a7b5936321eed1cdaeb6115181d29060200160405180910390a15b50565b608051612280620000fa5f395f81816111230152818161114c01526112af01526122805ff3fe6080604052600436106101f1575f3560e01c806370a0823111610108578063a9059cbb1161009d578063d53913931161006d578063d539139314610579578063d547741f146105ac578063dd62ed3e146105cb578063e63ab1e9146105ea578063f72c0d8b1461060a575f80fd5b8063a9059cbb146104ec578063ad3cb1cc1461050b578063c4d66de81461053b578063d505accf1461055a575f80fd5b806384b0196e116100d857806384b0196e1461047f57806391d14854146104a657806395d89b41146104c5578063a217fddf146104d9575f80fd5b806370a082311461040e57806379cc67901461042d5780637ecebe001461044c5780638456cb591461046b575f80fd5b806332cb6b0c1161018957806340c10f191161015957806340c10f191461038657806342966c68146103a55780634f1ef286146103c457806352d1902d146103d75780635c975abb146103eb575f80fd5b806332cb6b0c146103205780633644e5151461033f57806336568abe146103535780633f4ba83a14610372575f80fd5b806323b872dd116101c457806323b872dd146102a6578063248a9ca3146102c55780632f2ff15d146102e4578063313ce56714610305575f80fd5b806301ffc9a7146101f557806306fdde0314610229578063095ea7b31461024a57806318160ddd14610269575b5f80fd5b348015610200575f80fd5b5061021461020f366004611c95565b61063d565b60405190151581526020015b60405180910390f35b348015610234575f80fd5b5061023d610673565b6040516102209190611d09565b348015610255575f80fd5b50610214610264366004611d36565b610718565b348015610274575f80fd5b507f52c63247e1f47db19d5ce0460030c497f067ca4cebf71ba98eeadabe20bace02545b604051908152602001610220565b3480156102b1575f80fd5b506102146102c0366004611d5e565b61072f565b3480156102d0575f80fd5b506102986102df366004611d97565b610754565b3480156102ef575f80fd5b506103036102fe366004611dae565b610774565b005b348015610310575f80fd5b5060405160128152602001610220565b34801561032b575f80fd5b506102986b033b2e3c9fd0803ce800000081565b34801561034a575f80fd5b50610298610796565b34801561035e575f80fd5b5061030361036d366004611dae565b6107a4565b34801561037d575f80fd5b506103036107dc565b348015610391575f80fd5b506103036103a0366004611d36565b6107fe565b3480156103b0575f80fd5b506103036103bf366004611d97565b6108c5565b6103036103d2366004611dec565b6108cf565b3480156103e2575f80fd5b506102986108ee565b3480156103f6575f80fd5b505f8051602061222b8339815191525460ff16610214565b348015610419575f80fd5b50610298610428366004611ea8565b610909565b348015610438575f80fd5b50610303610447366004611d36565b610939565b348015610457575f80fd5b50610298610466366004611ea8565b61094e565b348015610476575f80fd5b50610303610958565b34801561048a575f80fd5b50610493610977565b6040516102209796959493929190611ec1565b3480156104b1575f80fd5b506102146104c0366004611dae565b610a20565b3480156104d0575f80fd5b5061023d610a56565b3480156104e4575f80fd5b506102985f81565b3480156104f7575f80fd5b50610214610506366004611d36565b610a94565b348015610516575f80fd5b5061023d604051806040016040528060058152602001640352e302e360dc1b81525081565b348015610546575f80fd5b50610303610555366004611ea8565b610aa1565b348015610565575f80fd5b50610303610574366004611f58565b610ca2565b348015610584575f80fd5b506102987f9f2df0fed2c77648de5860a4cc508cd0818c85b8b8a1ab4ceeef8d981c8956a681565b3480156105b7575f80fd5b506103036105c6366004611dae565b610df7565b3480156105d6575f80fd5b506102986105e5366004611fc5565b610e13565b3480156105f5575f80fd5b506102985f805160206121eb83398151915281565b348015610615575f80fd5b506102987f189ab7a9244df0848122154315af71fe140f3db0fe014031783b0946b8c9d2e381565b5f6001600160e01b03198216637965db0b60e01b148061066d57506301ffc9a760e01b6001600160e01b03198316145b92915050565b60605f5f8051602061218b8339815191525b905080600301805461069690611fed565b80601f01602080910402602001604051908101604052809291908181526020018280546106c290611fed565b801561070d5780601f106106e45761010080835404028352916020019161070d565b820191905f5260205f20905b8154815290600101906020018083116106f057829003601f168201915b505050505091505090565b5f33610725818585610e5c565b5060019392505050565b5f3361073c858285610e69565b610747858585610ec7565b60019150505b9392505050565b5f9081525f8051602061220b833981519152602052604090206001015490565b61077d82610754565b61078681610f24565b6107908383610f2e565b50505050565b5f61079f610fcf565b905090565b6001600160a01b03811633146107cd5760405163334bd91960e11b815260040160405180910390fd5b6107d78282610fd8565b505050565b5f805160206121eb8339815191526107f381610f24565b6107fb611051565b50565b7f9f2df0fed2c77648de5860a4cc508cd0818c85b8b8a1ab4ceeef8d981c8956a661082881610f24565b6b033b2e3c9fd0803ce80000008261085e7f52c63247e1f47db19d5ce0460030c497f067ca4cebf71ba98eeadabe20bace025490565b6108689190612025565b11156108bb5760405162461bcd60e51b815260206004820152601860248201527f4f52583a206d617820737570706c79206578636565646564000000000000000060448201526064015b60405180910390fd5b6107d783836110b0565b6107fb33826110e4565b6108d7611118565b6108e0826111be565b6108ea82826111e8565b5050565b5f6108f76112a4565b505f805160206121cb83398151915290565b5f805f8051602061218b8339815191525b6001600160a01b039093165f9081526020939093525050604090205490565b610944823383610e69565b6108ea82826110e4565b5f61066d826112ed565b5f805160206121eb83398151915261096f81610f24565b6107fb611315565b5f60608082808083815f805160206121ab83398151915280549091501580156109a257506001810154155b6109e65760405162461bcd60e51b81526020600482015260156024820152741152540dcc4c8e88155b9a5b9a5d1a585b1a5e9959605a1b60448201526064016108b2565b6109ee61135d565b6109f661139b565b604080515f80825260208201909252600f60f81b9c939b5091995046985030975095509350915050565b5f9182525f8051602061220b833981519152602090815260408084206001600160a01b0393909316845291905290205460ff1690565b7f52c63247e1f47db19d5ce0460030c497f067ca4cebf71ba98eeadabe20bace0480546060915f8051602061218b8339815191529161069690611fed565b5f33610725818585610ec7565b5f610aaa6113b1565b805490915060ff600160401b820416159067ffffffffffffffff165f81158015610ad15750825b90505f8267ffffffffffffffff166001148015610aed5750303b155b905081158015610afb575080155b15610b195760405163f92ee8a960e01b815260040160405180910390fd5b845467ffffffffffffffff191660011785558315610b4357845460ff60401b1916600160401b1785555b610b8d6040518060400160405280600d81526020016c27b930b1b632ac102a37b5b2b760991b8152506040518060400160405280600381526020016209ea4b60eb1b8152506113d9565b610b956113eb565b610bc36040518060400160405280600d81526020016c27b930b1b632ac102a37b5b2b760991b8152506113f3565b610bcb6113eb565b610bd36113eb565b610bdb6113eb565b610be55f87610f2e565b50610c107f9f2df0fed2c77648de5860a4cc508cd0818c85b8b8a1ab4ceeef8d981c8956a687610f2e565b50610c285f805160206121eb83398151915287610f2e565b50610c537f189ab7a9244df0848122154315af71fe140f3db0fe014031783b0946b8c9d2e387610f2e565b508315610c9a57845460ff60401b19168555604051600181527fc7f505b2f371ae2175ee4913f4499e1f2633a7b5936321eed1cdaeb6115181d29060200160405180910390a15b505050505050565b83421115610cc65760405163313c898160e11b8152600481018590526024016108b2565b5f7f6e71edae12b1b97f4d1f60370fef10105fa2faae0126114a169c64845d6126c9888888610d308c6001600160a01b03165f9081527f5ab42ced628888259c08ac98db1eb0cf702fc1501344311d8b100cd1bfe4bb006020526040902080546001810190915590565b6040805160208101969096526001600160a01b0394851690860152929091166060840152608083015260a082015260c0810186905260e0016040516020818303038152906040528051906020012090505f610d8a8261141e565b90505f610d998287878761144a565b9050896001600160a01b0316816001600160a01b031614610de0576040516325c0072360e11b81526001600160a01b0380831660048301528b1660248201526044016108b2565b610deb8a8a8a610e5c565b50505050505050505050565b610e0082610754565b610e0981610f24565b6107908383610fd8565b6001600160a01b039182165f9081527f52c63247e1f47db19d5ce0460030c497f067ca4cebf71ba98eeadabe20bace016020908152604080832093909416825291909152205490565b6107d78383836001611476565b5f610e748484610e13565b90505f198110156107905781811015610eb957604051637dc7a0d960e11b81526001600160a01b038416600482015260248101829052604481018390526064016108b2565b61079084848484035f611476565b6001600160a01b038316610ef057604051634b637e8f60e11b81525f60048201526024016108b2565b6001600160a01b038216610f195760405163ec442f0560e01b81525f60048201526024016108b2565b6107d783838361155a565b6107fb813361156d565b5f5f8051602061220b833981519152610f478484610a20565b610fc6575f848152602082815260408083206001600160a01b03871684529091529020805460ff19166001179055610f7c3390565b6001600160a01b0316836001600160a01b0316857f2f8788117e7eff1d82e926ec794901d17c78024a50270940304540a733656f0d60405160405180910390a4600191505061066d565b5f91505061066d565b5f61079f6115a6565b5f5f8051602061220b833981519152610ff18484610a20565b15610fc6575f848152602082815260408083206001600160a01b0387168085529252808320805460ff1916905551339287917ff6391f5c32d9c69d2a47ea670b442974b53935d1edc7fd64eb21e047a839171b9190a4600191505061066d565b611059611619565b5f8051602061222b833981519152805460ff191681557f5db9ee0a495bf2e6ff9c91a7834c1ba4fdd244a5e8aa4e537bd38aeae4b073aa335b6040516001600160a01b03909116815260200160405180910390a150565b6001600160a01b0382166110d95760405163ec442f0560e01b81525f60048201526024016108b2565b6108ea5f838361155a565b6001600160a01b03821661110d57604051634b637e8f60e11b81525f60048201526024016108b2565b6108ea825f8361155a565b306001600160a01b037f000000000000000000000000000000000000000000000000000000000000000016148061119e57507f00000000000000000000000000000000000000000000000000000000000000006001600160a01b03166111925f805160206121cb833981519152546001600160a01b031690565b6001600160a01b031614155b156111bc5760405163703e46dd60e11b815260040160405180910390fd5b565b7f189ab7a9244df0848122154315af71fe140f3db0fe014031783b0946b8c9d2e36108ea81610f24565b816001600160a01b03166352d1902d6040518163ffffffff1660e01b8152600401602060405180830381865afa925050508015611242575060408051601f3d908101601f1916820190925261123f91810190612044565b60015b61126a57604051634c9c8ce360e01b81526001600160a01b03831660048201526024016108b2565b5f805160206121cb833981519152811461129a57604051632a87526960e21b8152600481018290526024016108b2565b6107d78383611648565b306001600160a01b037f000000000000000000000000000000000000000000000000000000000000000016146111bc5760405163703e46dd60e11b815260040160405180910390fd5b5f807f5ab42ced628888259c08ac98db1eb0cf702fc1501344311d8b100cd1bfe4bb0061091a565b61131d61169d565b5f8051602061222b833981519152805460ff191660011781557f62e78cea01bee320cd4e420270b5ea74000d11b0c9f74754ebdbfc544b05a25833611092565b7fa16a46d94261c7517cc8ff89f61c0ce93598e3c849801011dee649a6a557d10280546060915f805160206121ab8339815191529161069690611fed565b60605f5f805160206121ab833981519152610685565b5f807ff0c57e16840df040f15088dc2f81fe391c3923bec73e23a9662efc9c229c6a0061066d565b6113e16116cd565b6108ea82826116f2565b6111bc6116cd565b6113fb6116cd565b6107fb81604051806040016040528060018152602001603160f81b815250611742565b5f61066d61142a610fcf565b8360405161190160f01b8152600281019290925260228201526042902090565b5f805f8061145a888888886117a1565b92509250925061146a8282611869565b50909695505050505050565b5f8051602061218b8339815191526001600160a01b0385166114ad5760405163e602df0560e01b81525f60048201526024016108b2565b6001600160a01b0384166114d657604051634a1406b160e11b81525f60048201526024016108b2565b6001600160a01b038086165f9081526001830160209081526040808320938816835292905220839055811561155357836001600160a01b0316856001600160a01b03167f8c5be1e5ebec7d5bd14f71427d1e84f3dd0314c0f7b2291e5b200ac8c7c3b9258560405161154a91815260200190565b60405180910390a35b5050505050565b61156261169d565b6107d7838383611921565b6115778282610a20565b6108ea5760405163e2517d3f60e01b81526001600160a01b0382166004820152602481018390526044016108b2565b5f7f8b73c3c69bb8fe3d512ecc4cf759cc79239f7b179b0ffacaa9a75d522b39400f6115d0611a5a565b6115d8611ac2565b60408051602081019490945283019190915260608201524660808201523060a082015260c00160405160208183030381529060405280519060200120905090565b5f8051602061222b8339815191525460ff166111bc57604051638dfc202b60e01b815260040160405180910390fd5b61165182611b04565b6040516001600160a01b038316907fbc7cd75a20ee27fd9adebab32041f755214dbc6bffa90cc0225b39da2e5c2d3b905f90a2805115611695576107d78282611b67565b6108ea611bd9565b5f8051602061222b8339815191525460ff16156111bc5760405163d93c066560e01b815260040160405180910390fd5b6116d5611bf8565b6111bc57604051631afcd79f60e31b815260040160405180910390fd5b6116fa6116cd565b5f8051602061218b8339815191527f52c63247e1f47db19d5ce0460030c497f067ca4cebf71ba98eeadabe20bace03611733848261209f565b5060048101610790838261209f565b61174a6116cd565b5f805160206121ab8339815191527fa16a46d94261c7517cc8ff89f61c0ce93598e3c849801011dee649a6a557d102611783848261209f565b5060038101611792838261209f565b505f8082556001909101555050565b5f80807f7fffffffffffffffffffffffffffffff5d576e7357a4501ddfe92f46681b20a08411156117da57505f9150600390508261185f565b604080515f808252602082018084528a905260ff891692820192909252606081018790526080810186905260019060a0016020604051602081039080840390855afa15801561182b573d5f803e3d5ffd5b5050604051601f1901519150506001600160a01b03811661185657505f92506001915082905061185f565b92505f91508190505b9450945094915050565b5f82600381111561187c5761187c61215b565b03611885575050565b60018260038111156118995761189961215b565b036118b75760405163f645eedf60e01b815260040160405180910390fd5b60028260038111156118cb576118cb61215b565b036118ec5760405163fce698f760e01b8152600481018290526024016108b2565b60038260038111156119005761190061215b565b036108ea576040516335e2f38360e21b8152600481018290526024016108b2565b5f8051602061218b8339815191526001600160a01b03841661195b5781816002015f8282546119509190612025565b909155506119cb9050565b6001600160a01b0384165f90815260208290526040902054828110156119ad5760405163391434e360e21b81526001600160a01b038616600482015260248101829052604481018490526064016108b2565b6001600160a01b0385165f9081526020839052604090209083900390555b6001600160a01b0383166119e9576002810180548390039055611a07565b6001600160a01b0383165f9081526020829052604090208054830190555b826001600160a01b0316846001600160a01b03167fddf252ad1be2c89b69c2b068fc378daa952ba7f163c4a11628f55a4df523b3ef84604051611a4c91815260200190565b60405180910390a350505050565b5f5f805160206121ab83398151915281611a7261135d565b805190915015611a8a57805160209091012092915050565b81548015611a99579392505050565b7fc5d2460186f7233c927e7db2dcc703c0e500b653ca82273b7bfad8045d85a470935050505090565b5f5f805160206121ab83398151915281611ada61139b565b805190915015611af257805160209091012092915050565b60018201548015611a99579392505050565b806001600160a01b03163b5f03611b3957604051634c9c8ce360e01b81526001600160a01b03821660048201526024016108b2565b5f805160206121cb83398151915280546001600160a01b0319166001600160a01b0392909216919091179055565b60605f80846001600160a01b031684604051611b83919061216f565b5f60405180830381855af49150503d805f8114611bbb576040519150601f19603f3d011682016040523d82523d5f602084013e611bc0565b606091505b5091509150611bd0858383611c11565b95945050505050565b34156111bc5760405163b398979f60e01b815260040160405180910390fd5b5f611c016113b1565b54600160401b900460ff16919050565b606082611c2657611c2182611c6d565b61074d565b8151158015611c3d57506001600160a01b0384163b155b15611c6657604051639996b31560e01b81526001600160a01b03851660048201526024016108b2565b508061074d565b805115611c7c57805160208201fd5b60405163d6bda27560e01b815260040160405180910390fd5b5f60208284031215611ca5575f80fd5b81356001600160e01b03198116811461074d575f80fd5b5f5b83811015611cd6578181015183820152602001611cbe565b50505f910152565b5f8151808452611cf5816020860160208601611cbc565b601f01601f19169290920160200192915050565b602081525f61074d6020830184611cde565b80356001600160a01b0381168114611d31575f80fd5b919050565b5f8060408385031215611d47575f80fd5b611d5083611d1b565b946020939093013593505050565b5f805f60608486031215611d70575f80fd5b611d7984611d1b565b9250611d8760208501611d1b565b9150604084013590509250925092565b5f60208284031215611da7575f80fd5b5035919050565b5f8060408385031215611dbf575f80fd5b82359150611dcf60208401611d1b565b90509250929050565b634e487b7160e01b5f52604160045260245ffd5b5f8060408385031215611dfd575f80fd5b611e0683611d1b565b9150602083013567ffffffffffffffff80821115611e22575f80fd5b818501915085601f830112611e35575f80fd5b813581811115611e4757611e47611dd8565b604051601f8201601f19908116603f01168101908382118183101715611e6f57611e6f611dd8565b81604052828152886020848701011115611e87575f80fd5b826020860160208301375f6020848301015280955050505050509250929050565b5f60208284031215611eb8575f80fd5b61074d82611d1b565b60ff60f81b881681525f602060e06020840152611ee160e084018a611cde565b8381036040850152611ef3818a611cde565b606085018990526001600160a01b038816608086015260a0850187905284810360c0860152855180825260208088019350909101905f5b81811015611f4657835183529284019291840191600101611f2a565b50909c9b505050505050505050505050565b5f805f805f805f60e0888a031215611f6e575f80fd5b611f7788611d1b565b9650611f8560208901611d1b565b95506040880135945060608801359350608088013560ff81168114611fa8575f80fd5b9699959850939692959460a0840135945060c09093013592915050565b5f8060408385031215611fd6575f80fd5b611fdf83611d1b565b9150611dcf60208401611d1b565b600181811c9082168061200157607f821691505b60208210810361201f57634e487b7160e01b5f52602260045260245ffd5b50919050565b8082018082111561066d57634e487b7160e01b5f52601160045260245ffd5b5f60208284031215612054575f80fd5b5051919050565b601f8211156107d757805f5260205f20601f840160051c810160208510156120805750805b601f840160051c820191505b81811015611553575f815560010161208c565b815167ffffffffffffffff8111156120b9576120b9611dd8565b6120cd816120c78454611fed565b8461205b565b602080601f831160018114612100575f84156120e95750858301515b5f19600386901b1c1916600185901b178555610c9a565b5f85815260208120601f198616915b8281101561212e5788860151825594840194600190910190840161210f565b508582101561214b57878501515f19600388901b60f8161c191681555b5050505050600190811b01905550565b634e487b7160e01b5f52602160045260245ffd5b5f8251612180818460208701611cbc565b919091019291505056fe52c63247e1f47db19d5ce0460030c497f067ca4cebf71ba98eeadabe20bace00a16a46d94261c7517cc8ff89f61c0ce93598e3c849801011dee649a6a557d100360894a13ba1a3210667c828492db98dca3e2076cc3735a920a3ca505d382bbc65d7a28e3265b37a6474929f336521b332c1681b933f6cb9f3376673440d862a02dd7bc7dec4dceedda775e58dd541e08a116c6c53815c0bd028192f7b626800cd5ed15c6e187e77e9aee88184c21f4f2182ab5827cb3b7e07fbedcd63f03300a2646970667358221220d2ef7c07043d3e3109f9e4a64d41c857ffb3aabb48f7a3361c9c86627d54351f64736f6c63430008180033",
  "linkReferences": {},
  "deployedLinkReferences": {}
}