{
  "_format": "hh-sol-artifact-1",
  "contractName": "OracleXGovernance",
  "sourceName": "contracts-v2/Governance.sol",
  "abi": [
    {
      "inputs": [],
      "stateMutability": "nonpayable",
      "type": "constructor"
    },
    {
      "inputs": [],
      "name": "AccessControlBadConfirmation",
      "type": "error"
    },
    {
      "inputs": [
        {
          "internalType": "address",
          "name": "account",
          "type": "address"
        },
        {
          "internalType": "bytes32",
          "name": "neededRole",
          "type": "bytes32"
        }
      ],
      "name": "AccessControlUnauthorizedAccount",
      "type": "error"
    },
    {
      "inputs": [
        {
          "internalType": "address",
          "name": "target",
          "type": "address"
        }
      ],
      "name": "AddressEmptyCode",
      "type": "error"
    },
    {
      "inputs": [],
      "name": "CheckpointUnorderedInsertion",
      "type": "error"
    },
    {
      "inputs": [
        {
          "internalType": "address",
          "name": "implementation",
          "type": "address"
        }
      ],
      "name": "ERC1967InvalidImplementation",
      "type": "error"
    },
    {
      "inputs": [],
      "name": "ERC1967NonPayable",
      "type": "error"
    },
    {
      "inputs": [],
      "name": "FailedCall",
      "type": "error"
    },
    {
      "inputs": [
        {
          "internalType": "address",
          "name": "voter",
          "type": "address"
        }
      ],
      "name": "GovernorAlreadyCastVote",
      "type": "error"
    },
    {
      "inputs": [
        {
          "internalType": "uint256",
          "name": "proposalId",
          "type": "uint256"
        }
      ],
      "name": "GovernorAlreadyQueuedProposal",
      "type": "error"
    },
    {
      "inputs": [],
      "name": "GovernorDisabledDeposit",
      "type": "error"
    },
    {
      "inputs": [
        {
          "internalType": "address",
          "name": "proposer",
          "type": "address"
        },
        {
          "internalType": "uint256",
          "name": "votes",
          "type": "uint256"
        },
        {
          "internalType": "uint256",
          "name": "threshold",
          "type": "uint256"
        }
      ],
      "name": "GovernorInsufficientProposerVotes",
      "type": "error"
    },
    {
      "inputs": [
        {
          "internalType": "uint256",
          "name": "targets",
          "type": "uint256"
        },
        {
          "internalType": "uint256",
          "name": "calldatas",
          "type": "uint256"
        },
        {
          "internalType": "uint256",
          "name": "values",
          "type": "uint256"
        }
      ],
      "name": "GovernorInvalidProposalLength",
      "type": "error"
    },
    {
      "inputs": [
        {
          "internalType": "uint256",
          "name": "quorumNumerator",
          "type": "uint256"
        },
        {
          "internalType": "uint256",
          "name": "quorumDenominator",
          "type": "uint256"
        }
      ],
      "name": "GovernorInvalidQuorumFraction",
      "type": "error"
    },
    {
      "inputs": [
        {
          "internalType": "address",
          "name": "voter",
          "type": "address"
        }
      ],
      "name": "GovernorInvalidSignature",
      "type": "error"
    },
    {
      "inputs": [],
      "name": "GovernorInvalidVoteParams",
      "type": "error"
    },
    {
      "inputs": [],
      "name": "GovernorInvalidVoteType",
      "type": "error"
    },
    {
      "inputs": [
        {
          "internalType": "uint256",
          "name": "votingPeriod",
          "type": "uint256"
        }
      ],
      "name": "GovernorInvalidVotingPeriod",
      "type": "error"
    },
    {
      "inputs": [
        {
          "internalType": "uint256",
          "name": "proposalId",
          "type": "uint256"
        }
      ],
      "name": "GovernorNonexistentProposal",
      "type": "error"
    },
    {
      "inputs": [
        {
          "internalType": "uint256",
          "name": "proposalId",
          "type": "uint256"
        }
      ],
      "name": "GovernorNotQueuedProposal",
      "type": "error"
    },
    {
      "inputs": [
        {
          "internalType": "address",
          "name": "account",
          "type": "address"
        }
      ],
      "name": "GovernorOnlyExecutor",
      "type": "error"
    },
    {
      "inputs": [],
      "name": "GovernorQueueNotImplemented",
      "type": "error"
    },
    {
      "inputs": [
        {
          "internalType": "address",
          "name": "proposer",
          "type": "address"
        }
      ],
      "name": "GovernorRestrictedProposer",
      "type": "error"
    },
    {
      "inputs": [
        {
          "internalType": "uint256",
          "name": "proposalId",
          "type": "uint256"
        },
        {
          "internalType": "address",
          "name": "account",
          "type": "address"
        }
      ],
      "name": "GovernorUnableToCancel",
      "type": "error"
    },
    {
      "inputs": [
        {
          "internalType": "uint256",
          "name": "proposalId",
          "type": "uint256"
        },
        {
          "internalType": "enum IGovernor.ProposalState",
          "name": "current",
          "type": "uint8"
        },
        {
          "internalType": "bytes32",
          "name": "expectedStates",
          "type": "bytes32"
        }
      ],
      "name": "GovernorUnexpectedProposalState",
      "type": "error"
    },
    {
      "inputs": [
        {
          "internalType": "address",
          "name": "account",
          "type": "address"
        },
        {
          "internalType": "uint256",
          "name": "currentNonce",
          "type": "uint256"
        }
      ],
      "name": "InvalidAccountNonce",
      "type": "error"
    },
    {
      "inputs": [],
      "name": "InvalidInitialization",
      "type": "error"
    },
    {
      "inputs": [],
      "name": "NotInitializing",
      "type": "error"
    },
    {
      "inputs": [
        {
          "internalType": "uint8",
          "name": "bits",
          "type": "uint8"
        },
        {
          "internalType": "uint256",
          "name": "value",
          "type": "uint256"
        }
      ],
      "name": "SafeCastOverflowedUintDowncast",
      "type": "error"
    },
    {
      "inputs": [],
      "name": "UUPSUnauthorizedCallContext",
      "type": "error"
    },
    {
      "inputs": [
        {
          "internalType": "bytes32",
          "name": "slot",
          "type": "bytes32"
        }
      ],
      "name": "UUPSUnsupportedProxiableUUID",
      "type": "error"
    },
    {
      "anonymous": false,
      "inputs": [],
      "name": "EIP712DomainChanged",
      "type": "event"
    },
    {
      "anonymous": false,
      "inputs": [
        {
          "indexed": false,
          "internalType": "uint64",
          "name": "version",
          "type": "uint64"
        }
      ],
      "name": "Initialized",
      "type": "event"
    },
    {
      "anonymous": false,
      "inputs": [
        {
          "indexed": false,
          "internalType": "uint256",
          "name": "proposalId",
          "type": "uint256"
        }
      ],
      "name": "ProposalCanceled",
      "type": "event"
    },
    {
      "anonymous": false,
      "inputs": [
        {
          "indexed": false,
          "internalType": "uint256",
          "name": "proposalId",
          "type": "uint256"
        },
        {
          "indexed": false,
          "internalType": "address",
          "name": "proposer",
          "type": "address"
        },
        {
          "indexed": false,
          "internalType": "address[]",
          "name": "targets",
          "type": "address[]"
        },
        {
          "indexed": false,
          "internalType": "uint256[]",
          "name": "values",
          "type": "uint256[]"
        },
        {
          "indexed": false,
          "internalType": "string[]",
          "name": "signatures",
          "type": "string[]"
        },
        {
          "indexed": false,
          "internalType": "bytes[]",
          "name": "calldatas",
          "type": "bytes[]"
        },
        {
          "indexed": false,
          "internalType": "uint256",
          "name": "voteStart",
          "type": "uint256"
        },
        {
          "indexed": false,
          "internalType": "uint256",
          "name": "voteEnd",
          "type": "uint256"
        },
        {
          "indexed": false,
          "internalType": "string",
          "name": "description",
          "type": "string"
        }
      ],
      "name": "ProposalCreated",
      "type": "event"
    },
    {
      "anonymous": false,
      "inputs": [
        {
          "indexed": false,
          "internalType": "uint256",
          "name": "proposalId",
          "type": "uint256"
        }
      ],
      "name": "ProposalExecuted",
      "type": "event"
    },
    {
      "anonymous": false,
      "inputs": [
        {
          "indexed": false,
          "internalType": "uint256",
          "name": "proposalId",
          "type": "uint256"
        },
        {
          "indexed": false,
          "internalType": "uint256",
          "name": "etaSeconds",
          "type": "uint256"
        }
      ],
      "name": "ProposalQueued",
      "type": "event"
    },
    {
      "anonymous": false,
      "inputs": [
        {
          "indexed": false,
          "internalType": "uint256",
          "name": "oldProposalThreshold",
          "type": "uint256"
        },
        {
          "indexed": false,
          "internalType": "uint256",
          "name": "newProposalThreshold",
          "type": "uint256"
        }
      ],
      "name": "ProposalThresholdSet",
      "type": "event"
    },
    {
      "anonymous": false,
      "inputs": [
        {
          "indexed": false,
          "internalType": "uint256",
          "name": "oldQuorumNumerator",
          "type": "uint256"
        },
        {
          "indexed": false,
          "internalType": "uint256",
          "name": "newQuorumNumerator",
          "type": "uint256"
        }
      ],
      "name": "QuorumNumeratorUpdated",
      "type": "event"
    },
    {
      "anonymous": false,
      "inputs": [
        {
          "indexed": true,
          "internalType": "bytes32",
          "name": "role",
          "type": "bytes32"
        },
        {
          "indexed": true,
          "internalType": "bytes32",
          "name": "previousAdminRole",
          "type": "bytes32"
        },
        {
          "indexed": true,
          "internalType": "bytes32",
          "name": "newAdminRole",
          "type": "bytes32"
        }
      ],
      "name": "RoleAdminChanged",
      "type": "event"
    },
    {
      "anonymous": false,
      "inputs": [
        {
          "indexed": true,
          "internalType": "bytes32",
          "name": "role",
          "type": "bytes32"
        },
        {
          "indexed": true,
          "internalType": "address",
          "name": "account",
          "type": "address"
        },
        {
          "indexed": true,
          "internalType": "address",
          "name": "sender",
          "type": "address"
        }
      ],
      "name": "RoleGranted",
      "type": "event"
    },
    {
      "anonymous": false,
      "inputs": [
        {
          "indexed": true,
          "internalType": "bytes32",
          "name": "role",
          "type": "bytes32"
        },
        {
          "indexed": true,
          "internalType": "address",
          "name": "account",
          "type": "address"
        },
        {
          "indexed": true,
          "internalType": "address",
          "name": "sender",
          "type": "address"
        }
      ],
      "name": "RoleRevoked",
      "type": "event"
    },
    {
      "anonymous": false,
      "inputs": [
        {
          "indexed": false,
          "internalType": "address",
          "name": "oldTimelock",
          "type": "address"
        },
        {
          "indexed": false,
          "internalType": "address",
          "name": "newTimelock",
          "type": "address"
        }
      ],
      "name": "TimelockChange",
      "type": "event"
    },
    {
      "anonymous": false,
      "inputs": [
        {
          "indexed": true,
          "internalType": "address",
          "name": "implementation",
          "type": "address"
        }
      ],
      "name": "Upgraded",
      "type": "event"
    },
    {
      "anonymous": false,
      "inputs": [
        {
          "indexed": true,
          "internalType": "address",
          "name": "voter",
          "type": "address"
        },
        {
          "indexed": false,
          "internalType": "uint256",
          "name": "proposalId",
          "type": "uint256"
        },
        {
          "indexed": false,
          "internalType": "uint8",
          "name": "support",
          "type": "uint8"
        },
        {
          "indexed": false,
          "internalType": "uint256",
          "name": "weight",
          "type": "uint256"
        },
        {
          "indexed": false,
          "internalType": "string",
          "name": "reason",
          "type": "string"
        }
      ],
      "name": "VoteCast",
      "type": "event"
    },
    {
      "anonymous": false,
      "inputs": [
        {
          "indexed": true,
          "internalType": "address",
          "name": "voter",
          "type": "address"
        },
        {
          "indexed": false,
          "internalType": "uint256",
          "name": "proposalId",
          "type": "uint256"
        },
        {
          "indexed": false,
          "internalType": "uint8",
          "name": "support",
          "type": "uint8"
        },
        {
          "indexed": false,
          "internalType": "uint256",
          "name": "weight",
          "type": "uint256"
        },
        {
          "indexed": false,
          "internalType": "string",
          "name": "reason",
          "type": "string"
        },
        {
          "indexed": false,
          "internalType": "bytes",
          "name": "params",
          "type": "bytes"
        }
      ],
      "name": "VoteCastWithParams",
      "type": "event"
    },
    {
      "anonymous": false,
      "inputs": [
        {
          "indexed": false,
          "internalType": "uint256",
          "name": "oldVotingDelay",
          "type": "uint256"
        },
        {
          "indexed": false,
          "internalType": "uint256",
          "name": "newVotingDelay",
          "type": "uint256"
        }
      ],
      "name": "VotingDelaySet",
      "type": "event"
    },
    {
      "anonymous": false,
      "inputs": [
        {
          "indexed": false,
          "internalType": "uint256",
          "name": "oldVotingPeriod",
          "type": "uint256"
        },
        {
          "indexed": false,
          "internalType": "uint256",
          "name": "newVotingPeriod",
          "type": "uint256"
        }
      ],
      "name": "VotingPeriodSet",
      "type": "event"
    },
    {
      "inputs": [],
      "name": "BALLOT_TYPEHASH",
      "outputs": [
        {
          "internalType": "bytes32",
          "name": "",
          "type": "bytes32"
        }
      ],
      "stateMutability": "view",
      "type": "function"
    },
    {
      "inputs": [],
      "name": "CLOCK_MODE",
      "outputs": [
        {
          "internalType": "string",
          "name": "",
          "type": "string"
        }
      ],
      "stateMutability": "view",
      "type": "function"
    },
    {
      "inputs": [],
      "name": "COUNTING_MODE",
      "outputs": [
        {
          "internalType": "string",
          "name": "",
          "type": "string"
        }
      ],
      "stateMutability": "pure",
      "type": "function"
    },
    {
      "inputs": [],
      "name": "DEFAULT_ADMIN_ROLE",
      "outputs": [
        {
          "internalType": "bytes32",
          "name": "",
          "type": "bytes32"
        }
      ],
      "stateMutability": "view",
      "type": "function"
    },
    {
      "inputs": [],
      "name": "EXTENDED_BALLOT_TYPEHASH",
      "outputs": [
        {
          "internalType": "bytes32",
          "name": "",
          "type": "bytes32"
        }
      ],
      "stateMutability": "view",
      "type": "function"
    },
    {
      "inputs": [],
      "name": "UPGRADER_ROLE",
      "outputs": [
        {
          "internalType": "bytes32",
          "name": "",
          "type": "bytes32"
        }
      ],
      "stateMutability": "view",
      "type": "function"
    },
    {
      "inputs": [],
      "name": "UPGRADE_INTERFACE_VERSION",
      "outputs": [
        {
          "internalType": "string",
          "name": "",
          "type": "string"
        }
      ],
      "stateMutability": "view",
      "type": "function"
    },
    {
      "inputs": [
        {
          "internalType": "address[]",
          "name": "targets",
          "type": "address[]"
        },
        {
          "internalType": "uint256[]",
          "name": "values",
          "type": "uint256[]"
        },
        {
          "internalType": "bytes[]",
          "name": "calldatas",
          "type": "bytes[]"
        },
        {
          "internalType": "bytes32",
          "name": "descriptionHash",
          "type": "bytes32"
        }
      ],
      "name": "cancel",
      "outputs": [
        {
          "internalType": "uint256",
          "name": "",
          "type": "uint256"
        }
      ],
      "stateMutability": "nonpayable",
      "type": "function"
    },
    {
      "inputs": [
        {
          "internalType": "uint256",
          "name": "proposalId",
          "type": "uint256"
        },
        {
          "internalType": "uint8",
          "name": "support",
          "type": "uint8"
        }
      ],
      "name": "castVote",
      "outputs": [
        {
          "internalType": "uint256",
          "name": "",
          "type": "uint256"
        }
      ],
      "stateMutability": "nonpayable",
      "type": "function"
    },
    {
      "inputs": [
        {
          "internalType": "uint256",
          "name": "proposalId",
          "type": "uint256"
        },
        {
          "internalType": "uint8",
          "name": "support",
          "type": "uint8"
        },
        {
          "internalType": "address",
          "name": "voter",
          "type": "address"
        },
        {
          "internalType": "bytes",
          "name": "signature",
          "type": "bytes"
        }
      ],
      "name": "castVoteBySig",
      "outputs": [
        {
          "internalType": "uint256",
          "name": "",
          "type": "uint256"
        }
      ],
      "stateMutability": "nonpayable",
      "type": "function"
    },
    {
      "inputs": [
        {
          "internalType": "uint256",
          "name": "proposalId",
          "type": "uint256"
        },
        {
          "internalType": "uint8",
          "name": "support",
          "type": "uint8"
        },
        {
          "internalType": "string",
          "name": "reason",
          "type": "string"
        }
      ],
      "name": "castVoteWithReason",
      "outputs": [
        {
          "internalType": "uint256",
          "name": "",
          "type": "uint256"
        }
      ],
      "stateMutability": "nonpayable",
      "type": "function"
    },
    {
      "inputs": [
        {
          "internalType": "uint256",
          "name": "proposalId",
          "type": "uint256"
        },
        {
          "internalType": "uint8",
          "name": "support",
          "type": "uint8"
        },
        {
          "internalType": "string",
          "name": "reason",
          "type": "string"
        },
        {
          "internalType": "bytes",
          "name": "params",
          "type": "bytes"
        }
      ],
      "name": "castVoteWithReasonAndParams",
      "outputs": [
        {
          "internalType": "uint256",
          "name": "",
          "type": "uint256"
        }
      ],
      "stateMutability": "nonpayable",
      "type": "function"
    },
    {
      "inputs": [
        {
          "internalType": "uint256",
          "name": "proposalId",
          "type": "uint256"
        },
        {
          "internalType": "uint8",
          "name": "support",
          "type": "uint8"
        },
        {
          "internalType": "address",
          "name": "voter",
          "type": "address"
        },
        {
          "internalType": "string",
          "name": "reason",
          "type": "string"
        },
        {
          "internalType": "bytes",
          "name": "params",
          "type": "bytes"
        },
        {
          "internalType": "bytes",
          "name": "signature",
          "type": "bytes"
        }
      ],
      "name": "castVoteWithReasonAndParamsBySig",
      "outputs": [
        {
          "internalType": "uint256",
          "name": "",
          "type": "uint256"
        }
      ],
      "stateMutability": "nonpayable",
      "type": "function"
    },
    {
      "inputs": [],
      "name": "clock",
      "outputs": [
        {
          "internalType": "uint48",
          "name": "",
          "type": "uint48"
        }
      ],
      "stateMutability": "view",
      "type": "function"
    },
    {
      "inputs": [],
      "name": "eip712Domain",
      "outputs": [
        {
          "internalType": "bytes1",
          "name": "fields",
          "type": "bytes1"
        },
        {
          "internalType": "string",
          "name": "name",
          "type": "string"
        },
        {
          "internalType": "string",
          "name": "version",
          "type": "string"
        },
        {
          "internalType": "uint256",
          "name": "chainId",
          "type": "uint256"
        },
        {
          "internalType": "address",
          "name": "verifyingContract",
          "type": "address"
        },
        {
          "internalType": "bytes32",
          "name": "salt",
          "type": "bytes32"
        },
        {
          "internalType": "uint256[]",
          "name": "extensions",
          "type": "uint256[]"
        }
      ],
      "stateMutability": "view",
      "type": "function"
    },
    {
      "inputs": [
        {
          "internalType": "address[]",
          "name": "targets",
          "type": "address[]"
        },
        {
          "internalType": "uint256[]",
          "name": "values",
          "type": "uint256[]"
        },
        {
          "internalType": "bytes[]",
          "name": "calldatas",
          "type": "bytes[]"
        },
        {
          "internalType": "bytes32",
          "name": "descriptionHash",
          "type": "bytes32"
        }
      ],
      "name": "execute",
      "outputs": [
        {
          "internalType": "uint256",
          "name": "",
          "type": "uint256"
        }
      ],
      "stateMutability": "payable",
      "type": "function"
    },
    {
      "inputs": [
        {
          "internalType": "address[]",
          "name": "targets",
          "type": "address[]"
        },
        {
          "internalType": "uint256[]",
          "name": "values",
          "type": "uint256[]"
        },
        {
          "internalType": "bytes[]",
          "name": "calldatas",
          "type": "bytes[]"
        },
        {
          "internalType": "bytes32",
          "name": "descriptionHash",
          "type": "bytes32"
        }
      ],
      "name": "getProposalId",
      "outputs": [
        {
          "internalType": "uint256",
          "name": "",
          "type": "uint256"
        }
      ],
      "stateMutability": "view",
      "type": "function"
    },
    {
      "inputs": [
        {
          "internalType": "bytes32",
          "name": "role",
          "type": "bytes32"
        }
      ],
      "name": "getRoleAdmin",
      "outputs": [
        {
          "internalType": "bytes32",
          "name": "",
          "type": "bytes32"
        }
      ],
      "stateMutability": "view",
      "type": "function"
    },
    {
      "inputs": [
        {
          "internalType": "address",
          "name": "account",
          "type": "address"
        },
        {
          "internalType": "uint256",
          "name": "timepoint",
          "type": "uint256"
        }
      ],
      "name": "getVotes",
      "outputs": [
        {
          "internalType": "uint256",
          "name": "",
          "type": "uint256"
        }
      ],
      "stateMutability": "view",
      "type": "function"
    },
    {
      "inputs": [
        {
          "internalType": "address",
          "name": "account",
          "type": "address"
        },
        {
          "internalType": "uint256",
          "name": "timepoint",
          "type": "uint256"
        },
        {
          "internalType": "bytes",
          "name": "params",
          "type": "bytes"
        }
      ],
      "name": "getVotesWithParams",
      "outputs": [
        {
          "internalType": "uint256",
          "name": "",
          "type": "uint256"
        }
      ],
      "stateMutability": "view",
      "type": "function"
    },
    {
      "inputs": [
        {
          "internalType": "bytes32",
          "name": "role",
          "type": "bytes32"
        },
        {
          "internalType": "address",
          "name": "account",
          "type": "address"
        }
      ],
      "name": "grantRole",
      "outputs": [],
      "stateMutability": "nonpayable",
      "type": "function"
    },
    {
      "inputs": [
        {
          "internalType": "bytes32",
          "name": "role",
          "type": "bytes32"
        },
        {
          "internalType": "address",
          "name": "account",
          "type": "address"
        }
      ],
      "name": "hasRole",
      "outputs": [
        {
          "internalType": "bool",
          "name": "",
          "type": "bool"
        }
      ],
      "stateMutability": "view",
      "type": "function"
    },
    {
      "inputs": [
        {
          "internalType": "uint256",
          "name": "proposalId",
          "type": "uint256"
        },
        {
          "internalType": "address",
          "name": "account",
          "type": "address"
        }
      ],
      "name": "hasVoted",
      "outputs": [
        {
          "internalType": "bool",
          "name": "",
          "type": "bool"
        }
      ],
      "stateMutability": "view",
      "type": "function"
    },
    {
      "inputs": [
        {
          "internalType": "address[]",
          "name": "targets",
          "type": "address[]"
        },
        {
          "internalType": "uint256[]",
          "name": "values",
          "type": "uint256[]"
        },
        {
          "internalType": "bytes[]",
          "name": "calldatas",
          "type": "bytes[]"
        },
        {
          "internalType": "bytes32",
          "name": "descriptionHash",
          "type": "bytes32"
        }
      ],
      "name": "hashProposal",
      "outputs": [
        {
          "internalType": "uint256",
          "name": "",
          "type": "uint256"
        }
      ],
      "stateMutability": "pure",
      "type": "function"
    },
    {
      "inputs": [
        {
          "internalType": "contract IVotes",
          "name": "_token",
          "type": "address"
        },
        {
          "internalType": "contract TimelockControllerUpgradeable",
          "name": "_timelock",
          "type": "address"
        },
        {
          "internalType": "address",
          "name": "defaultAdmin",
          "type": "address"
        }
      ],
      "name": "initialize",
      "outputs": [],
      "stateMutability": "nonpayable",
      "type": "function"
    },
    {
      "inputs": [],
      "name": "name",
      "outputs": [
        {
          "internalType": "string",
          "name": "",
          "type": "string"
        }
      ],
      "stateMutability": "view",
      "type": "function"
    },
    {
      "inputs": [
        {
          "internalType": "address",
          "name": "owner",
          "type": "address"
        }
      ],
      "name": "nonces",
      "outputs": [
        {
          "internalType": "uint256",
          "name": "",
          "type": "uint256"
        }
      ],
      "stateMutability": "view",
      "type": "function"
    },
    {
      "inputs": [
        {
          "internalType": "address",
          "name": "",
          "type": "address"
        },
        {
          "internalType": "address",
          "name": "",
          "type": "address"
        },
        {
          "internalType": "uint256[]",
          "name": "",
          "type": "uint256[]"
        },
        {
          "internalType": "uint256[]",
          "name": "",
          "type": "uint256[]"
        },
        {
          "internalType": "bytes",
          "name": "",
          "type": "bytes"
        }
      ],
      "name": "onERC1155BatchReceived",
      "outputs": [
        {
          "internalType": "bytes4",
          "name": "",
          "type": "bytes4"
        }
      ],
      "stateMutability": "nonpayable",
      "type": "function"
    },
    {
      "inputs": [
        {
          "internalType": "address",
          "name": "",
          "type": "address"
        },
        {
          "internalType": "address",
          "name": "",
          "type": "address"
        },
        {
          "internalType": "uint256",
          "name": "",
          "type": "uint256"
        },
        {
          "internalType": "uint256",
          "name": "",
          "type": "uint256"
        },
        {
          "internalType": "bytes",
          "name": "",
          "type": "bytes"
        }
      ],
      "name": "onERC1155Received",
      "outputs": [
        {
          "internalType": "bytes4",
          "name": "",
          "type": "bytes4"
        }
      ],
      "stateMutability": "nonpayable",
      "type": "function"
    },
    {
      "inputs": [
        {
          "internalType": "address",
          "name": "",
          "type": "address"
        },
        {
          "internalType": "address",
          "name": "",
          "type": "address"
        },
        {
          "internalType": "uint256",
          "name": "",
          "type": "uint256"
        },
        {
          "internalType": "bytes",
          "name": "",
          "type": "bytes"
        }
      ],
      "name": "onERC721Received",
      "outputs": [
        {
          "internalType": "bytes4",
          "name": "",
          "type": "bytes4"
        }
      ],
      "stateMutability": "nonpayable",
      "type": "function"
    },
    {
      "inputs": [
        {
          "internalType": "uint256",
          "name": "proposalId",
          "type": "uint256"
        }
      ],
      "name": "proposalDeadline",
      "outputs": [
        {
          "internalType": "uint256",
          "name": "",
          "type": "uint256"
        }
      ],
      "stateMutability": "view",
      "type": "function"
    },
    {
      "inputs": [
        {
          "internalType": "uint256",
          "name": "proposalId",
          "type": "uint256"
        }
      ],
      "name": "proposalEta",
      "outputs": [
        {
          "internalType": "uint256",
          "name": "",
          "type": "uint256"
        }
      ],
      "stateMutability": "view",
      "type": "function"
    },
    {
      "inputs": [
        {
          "internalType": "uint256",
          "name": "proposalId",
          "type": "uint256"
        }
      ],
      "name": "proposalNeedsQueuing",
      "outputs": [
        {
          "internalType": "bool",
          "name": "",
          "type": "bool"
        }
      ],
      "stateMutability": "view",
      "type": "function"
    },
    {
      "inputs": [
        {
          "internalType": "uint256",
          "name": "proposalId",
          "type": "uint256"
        }
      ],
      "name": "proposalProposer",
      "outputs": [
        {
          "internalType": "address",
          "name": "",
          "type": "address"
        }
      ],
      "stateMutability": "view",
      "type": "function"
    },
    {
      "inputs": [
        {
          "internalType": "uint256",
          "name": "proposalId",
          "type": "uint256"
        }
      ],
      "name": "proposalSnapshot",
      "outputs": [
        {
          "internalType": "uint256",
          "name": "",
          "type": "uint256"
        }
      ],
      "stateMutability": "view",
      "type": "function"
    },
    {
      "inputs": [],
      "name": "proposalThreshold",
      "outputs": [
        {
          "internalType": "uint256",
          "name": "",
          "type": "uint256"
        }
      ],
      "stateMutability": "view",
      "type": "function"
    },
    {
      "inputs": [
        {
          "internalType": "uint256",
          "name": "proposalId",
          "type": "uint256"
        }
      ],
      "name": "proposalVotes",
      "outputs": [
        {
          "internalType": "uint256",
          "name": "againstVotes",
          "type": "uint256"
        },
        {
          "internalType": "uint256",
          "name": "forVotes",
          "type": "uint256"
        },
        {
          "internalType": "uint256",
          "name": "abstainVotes",
          "type": "uint256"
        }
      ],
      "stateMutability": "view",
      "type": "function"
    },
    {
      "inputs": [
        {
          "internalType": "address[]",
          "name": "targets",
          "type": "address[]"
        },
        {
          "internalType": "uint256[]",
          "name": "values",
          "type": "uint256[]"
        },
        {
          "internalType": "bytes[]",
          "name": "calldatas",
          "type": "bytes[]"
        },
        {
          "internalType": "string",
          "name": "description",
          "type": "string"
        }
      ],
      "name": "propose",
      "outputs": [
        {
          "internalType": "uint256",
          "name": "",
          "type": "uint256"
        }
      ],
      "stateMutability": "nonpayable",
      "type": "function"
    },
    {
      "inputs": [],
      "name": "proxiableUUID",
      "outputs": [
        {
          "internalType": "bytes32",
          "name": "",
          "type": "bytes32"
        }
      ],
      "stateMutability": "view",
      "type": "function"
    },
    {
      "inputs": [
        {
          "internalType": "address[]",
          "name": "targets",
          "type": "address[]"
        },
        {
          "internalType": "uint256[]",
          "name": "values",
          "type": "uint256[]"
        },
        {
          "internalType": "bytes[]",
          "name": "calldatas",
          "type": "bytes[]"
        },
        {
          "internalType": "bytes32",
          "name": "descriptionHash",
          "type": "bytes32"
        }
      ],
      "name": "queue",
      "outputs": [
        {
          "internalType": "uint256",
          "name": "",
          "type": "uint256"
        }
      ],
      "stateMutability": "nonpayable",
      "type": "function"
    },
    {
      "inputs": [
        {
          "internalType": "uint256",
          "name": "blockNumber",
          "type": "uint256"
        }
      ],
      "name": "quorum",
      "outputs": [
        {
          "internalType": "uint256",
          "name": "",
          "type": "uint256"
        }
      ],
      "stateMutability": "view",
      "type": "function"
    },
    {
      "inputs": [],
      "name": "quorumDenominator",
      "outputs": [
        {
          "internalType": "uint256",
          "name": "",
          "type": "uint256"
        }
      ],
      "stateMutability": "view",
      "type": "function"
    },
    {
      "inputs": [
        {
          "internalType": "uint256",
          "name": "timepoint",
          "type": "uint256"
        }
      ],
      "name": "quorumNumerator",
      "outputs": [
        {
          "internalType": "uint256",
          "name": "",
          "type": "uint256"
        }
      ],
      "stateMutability": "view",
      "type": "function"
    },
    {
      "inputs": [],
      "name": "quorumNumerator",
      "outputs": [
        {
          "internalType": "uint256",
          "name": "",
          "type": "uint256"
        }
      ],
      "stateMutability": "view",
      "type": "function"
    },
    {
      "inputs": [
        {
          "internalType": "address",
          "name": "target",
          "type": "address"
        },
        {
          "internalType": "uint256",
          "name": "value",
          "type": "uint256"
        },
        {
          "internalType": "bytes",
          "name": "data",
          "type": "bytes"
        }
      ],
      "name": "relay",
      "outputs": [],
      "stateMutability": "payable",
      "type": "function"
    },
    {
      "inputs": [
        {
          "internalType": "bytes32",
          "name": "role",
          "type": "bytes32"
        },
        {
          "internalType": "address",
          "name": "callerConfirmation",
          "type": "address"
        }
      ],
      "name": "renounceRole",
      "outputs": [],
      "stateMutability": "nonpayable",
      "type": "function"
    },
    {
      "inputs": [
        {
          "internalType": "bytes32",
          "name": "role",
          "type": "bytes32"
        },
        {
          "internalType": "address",
          "name": "account",
          "type": "address"
        }
      ],
      "name": "revokeRole",
      "outputs": [],
      "stateMutability": "nonpayable",
      "type": "function"
    },
    {
      "inputs": [
        {
          "internalType": "uint256",
          "name": "newProposalThreshold",
          "type": "uint256"
        }
      ],
      "name": "setProposalThreshold",
      "outputs": [],
      "stateMutability": "nonpayable",
      "type": "function"
    },
    {
      "inputs": [
        {
          "internalType": "uint48",
          "name": "newVotingDelay",
          "type": "uint48"
        }
      ],
      "name": "setVotingDelay",
      "outputs": [],
      "stateMutability": "nonpayable",
      "type": "function"
    },
    {
      "inputs": [
        {
          "internalType": "uint32",
          "name": "newVotingPeriod",
          "type": "uint32"
        }
      ],
      "name": "setVotingPeriod",
      "outputs": [],
      "stateMutability": "nonpayable",
      "type": "function"
    },
    {
      "inputs": [
        {
          "internalType": "uint256",
          "name": "proposalId",
          "type": "uint256"
        }
      ],
      "name": "state",
      "outputs": [
        {
          "internalType": "enum IGovernor.ProposalState",
          "name": "",
          "type": "uint8"
        }
      ],
      "stateMutability": "view",
      "type": "function"
    },
    {
      "inputs": [
        {
          "internalType": "bytes4",
          "name": "interfaceId",
          "type": "bytes4"
        }
      ],
      "name": "supportsInterface",
      "outputs": [
        {
          "internalType": "bool",
          "name": "",
          "type": "bool"
        }
      ],
      "stateMutability": "view",
      "type": "function"
    },
    {
      "inputs": [],
      "name": "timelock",
      "outputs": [
        {
          "internalType": "address",
          "name": "",
          "type": "address"
        }
      ],
      "stateMutability": "view",
      "type": "function"
    },
    {
      "inputs": [],
      "name": "token",
      "outputs": [
        {
          "internalType": "contract IERC5805",
          "name": "",
          "type": "address"
        }
      ],
      "stateMutability": "view",
      "type": "function"
    },
    {
      "inputs": [
        {
          "internalType": "uint256",
          "name": "newQuorumNumerator",
          "type": "uint256"
        }
      ],
      "name": "updateQuorumNumerator",
      "outputs": [],
      "stateMutability": "nonpayable",
      "type": "function"
    },
    {
      "inputs": [
        {
          "internalType": "contract TimelockControllerUpgradeable",
          "name": "newTimelock",
          "type": "address"
        }
      ],
      "name": "updateTimelock",
      "outputs": [],
      "stateMutability": "nonpayable",
      "type": "function"
    },
    {
      "inputs": [
        {
          "internalType": "address",
          "name": "newImplementation",
          "type": "address"
        },
        {
          "internalType": "bytes",
          "name": "data",
          "type": "bytes"
        }
      ],
      "name": "upgradeToAndCall",
      "outputs": [],
      "stateMutability": "payable",
      "type": "function"
    },
    {
      "inputs": [],
      "name": "version",
      "outputs": [
        {
          "internalType": "string",
          "name": "",
          "type": "string"
        }
      ],
      "stateMutability": "view",
      "type": "function"
    },
    {
      "inputs": [],
      "name": "votingDelay",
      "outputs": [
        {
          "internalType": "uint256",
          "name": "",
          "type": "uint256"
        }
      ],
      "stateMutability": "view",
      "type": "function"
    },
    {
      "inputs": [],
      "name": "votingPeriod",
      "outputs": [
        {
          "internalType": "uint256",
          "name": "",
          "type": "uint256"
        }
      ],
      "stateMutability": "view",
      "type": "function"
    },
    {
      "stateMutability": "payable",
      "type": "receive"
    }
  ],
  "bytecode": "0x60a06040523060805234801562000014575f80fd5b506200001f62000025565b620000d9565b7ff0c57e16840df040f15088dc2f81fe391c3923bec73e23a9662efc9c229c6a00805468010000000000000000900460ff1615620000765760405163f92ee8a960e01b815260040160405180910390fd5b80546001600160401b0390811614620000d65780546001600160401b0319166001600160401b0390811782556040519081527fc7f505b2f371ae2175ee4913f4499e1f2633a7b5936321eed1cdaeb6115181d29060200160405180910390a15b50565b6080516153d1620001005f395f8181611ef901528181611f22015261208501526153d15ff3fe60806040526004361061038a575f3560e01c806384b0196e116101d3578063c01f9e37116100fd578063deaaa7cc1161009d578063f23a6e611161006d578063f23a6e6114610ba0578063f72c0d8b14610bbf578063f8ce560a14610bf2578063fc0c546a14610c11575f80fd5b8063deaaa7cc14610b10578063e540d01d14610b43578063eb9019d414610b62578063ece40cc114610b81575f80fd5b8063c59057e4116100d8578063c59057e414610a79578063d33219b414610a98578063d547741f14610aac578063dd4e2ba514610acb575f80fd5b8063c01f9e3714610a28578063c0c53b8b14610a47578063c28bc2fa14610a66575f80fd5b8063a7713a7011610173578063ab58fb8e11610143578063ab58fb8e14610983578063ad3cb1cc146109c5578063b58131b0146109f5578063bc197c8114610a09575f80fd5b8063a7713a7014610912578063a890c91014610926578063a8f8a66814610945578063a9a9529414610964575f80fd5b806391ddadf4116101ae57806391ddadf4146108a257806397c3d334146108cd5780639a802a6d146108e0578063a217fddf146108ff575f80fd5b806384b0196e1461083d5780638ff262e31461086457806391d1485414610883575f80fd5b806343859632116102b457806356781388116102545780637905188711610224578063790518871461078d5780637b3c71d3146107ac5780637d5e81e2146107cb5780637ecebe00146107ea575f80fd5b806356781388146107115780635b8d0e0d146107305780635f398a141461074f57806360c4247f1461076e575f80fd5b80634f1ef2861161028f5780634f1ef2861461068757806352d1902d1461069a578063544ffc9c146106ae57806354fd4d50146106e8575f80fd5b80634385963214610600578063452115d6146106545780634bf5d7e914610673575f80fd5b8063248a9ca31161032a5780632fe3e261116102fa5780632fe3e2611461056e57806336568abe146105a15780633932abb1146105c05780633e4f49e6146105d4575f80fd5b8063248a9ca3146104fe5780632656227d1461051d5780632d63f693146105305780632f2ff15d1461054f575f80fd5b806306fdde031161036557806306fdde031461044f578063143489d014610470578063150b7a02146104a7578063160cbed7146104df575f80fd5b806301ffc9a7146103c557806302a251a3146103f957806306f3f9e614610430575f80fd5b366103c15730610398610c25565b6001600160a01b0316146103bf57604051637485328f60e11b815260040160405180910390fd5b005b5f80fd5b3480156103d0575f80fd5b506103e46103df366004614112565b610c33565b60405190151581526020015b60405180910390f35b348015610404575f80fd5b505f8051602061529c83398151915254600160301b900463ffffffff165b6040519081526020016103f0565b34801561043b575f80fd5b506103bf61044a366004614139565b610c43565b34801561045a575f80fd5b50610463610c57565b6040516103f0919061419d565b34801561047b575f80fd5b5061048f61048a366004614139565b610cf8565b6040516001600160a01b0390911681526020016103f0565b3480156104b2575f80fd5b506104c66104c1366004614286565b610d1e565b6040516001600160e01b031990911681526020016103f0565b3480156104ea575f80fd5b506104226104f936600461444a565b610d60565b348015610509575f80fd5b50610422610518366004614139565b610e3e565b61042261052b36600461444a565b610e5e565b34801561053b575f80fd5b5061042261054a366004614139565b610fdd565b34801561055a575f80fd5b506103bf6105693660046144d3565b611009565b348015610579575f80fd5b506104227f3e83946653575f9a39005e1545185629e92736b7528ab20ca3816f315424a81181565b3480156105ac575f80fd5b506103bf6105bb3660046144d3565b61102b565b3480156105cb575f80fd5b50610422611063565b3480156105df575f80fd5b506105f36105ee366004614139565b611081565b6040516103f09190614535565b34801561060b575f80fd5b506103e461061a3660046144d3565b5f9182525f8051602061531c833981519152602090815260408084206001600160a01b039390931684526003909201905290205460ff1690565b34801561065f575f80fd5b5061042261066e36600461444a565b61108b565b34801561067e575f80fd5b506104636110f1565b6103bf610695366004614543565b611198565b3480156106a5575f80fd5b506104226111b7565b3480156106b9575f80fd5b506106cd6106c8366004614139565b6111d2565b604080519384526020840192909252908201526060016103f0565b3480156106f3575f80fd5b506040805180820190915260018152603160f81b6020820152610463565b34801561071c575f80fd5b5061042261072b36600461459f565b611203565b34801561073b575f80fd5b5061042261074a36600461460d565b61122a565b34801561075a575f80fd5b506104226107693660046146bf565b6112e7565b348015610779575f80fd5b50610422610788366004614139565b61132f565b348015610798575f80fd5b506103bf6107a736600461474f565b611362565b3480156107b7575f80fd5b506104226107c636600461476a565b611373565b3480156107d6575f80fd5b506104226107e53660046147bf565b6113c3565b3480156107f5575f80fd5b5061042261080436600461486b565b6001600160a01b03165f9081527f5ab42ced628888259c08ac98db1eb0cf702fc1501344311d8b100cd1bfe4bb00602052604090205490565b348015610848575f80fd5b506108516113d9565b6040516103f097969594939291906148c0565b34801561086f575f80fd5b5061042261087e36600461492f565b611482565b34801561088e575f80fd5b506103e461089d3660046144d3565b6114d1565b3480156108ad575f80fd5b506108b6611507565b60405165ffffffffffff90911681526020016103f0565b3480156108d8575f80fd5b506064610422565b3480156108eb575f80fd5b506104226108fa36600461497c565b611575565b34801561090a575f80fd5b506104225f81565b34801561091d575f80fd5b50610422611581565b348015610931575f80fd5b506103bf61094036600461486b565b6115bb565b348015610950575f80fd5b5061042261095f36600461444a565b6115cc565b34801561096f575f80fd5b506103e461097e366004614139565b6115d9565b34801561098e575f80fd5b5061042261099d366004614139565b5f9081525f8051602061527c833981519152602052604090206001015465ffffffffffff1690565b3480156109d0575f80fd5b50610463604051806040016040528060058152602001640352e302e360dc1b81525081565b348015610a00575f80fd5b506104226115e1565b348015610a14575f80fd5b506104c6610a233660046149d0565b6115f7565b348015610a33575f80fd5b50610422610a42366004614139565b61163a565b348015610a52575f80fd5b506103bf610a61366004614a5c565b611698565b6103bf610a74366004614aa4565b611835565b348015610a84575f80fd5b50610422610a9336600461444a565b6118b1565b348015610aa3575f80fd5b5061048f6118ea565b348015610ab7575f80fd5b506103bf610ac63660046144d3565b61190b565b348015610ad6575f80fd5b506040805180820190915260208082527f737570706f72743d627261766f2671756f72756d3d666f722c6162737461696e90820152610463565b348015610b1b575f80fd5b506104227ff2aad550cf55f045cb27e9c559f9889fdfb6e6cdaa032301d6ea397784ae51d781565b348015610b4e575f80fd5b506103bf610b5d366004614ae3565b611927565b348015610b6d575f80fd5b50610422610b7c366004614b06565b611938565b348015610b8c575f80fd5b506103bf610b9b366004614139565b611957565b348015610bab575f80fd5b506104c6610bba366004614b30565b611968565b348015610bca575f80fd5b506104227f189ab7a9244df0848122154315af71fe140f3db0fe014031783b0946b8c9d2e381565b348015610bfd575f80fd5b50610422610c0c366004614139565b6119ab565b348015610c1c575f80fd5b5061048f6119b5565b5f610c2e6118ea565b905090565b5f610c3d826119dd565b92915050565b610c4b611a01565b610c5481611a8a565b50565b5f8051602061537c8339815191528054606091908190610c7690614b93565b80601f0160208091040260200160405190810160405280929190818152602001828054610ca290614b93565b8015610ced5780601f10610cc457610100808354040283529160200191610ced565b820191905f5260205f20905b815481529060010190602001808311610cd057829003601f168201915b505050505091505090565b5f9081525f8051602061527c83398151915260205260409020546001600160a01b031690565b5f30610d28610c25565b6001600160a01b031614610d4f57604051637485328f60e11b815260040160405180910390fd5b50630a85bd0160e11b949350505050565b5f5f8051602061537c83398151915281610d7c878787876115cc565b9050610d9181610d8c6004611b40565b611b62565b505f610da08289898989611b9f565b905065ffffffffffff811615610e1a575f82815260018481016020908152604092839020909101805465ffffffffffff191665ffffffffffff85169081179091558251858152918201527f9a2e42fd6722813d69113e7d0079d3d940171428df7373df9c7f7617cfda2892910160405180910390a1610e33565b604051634844252360e11b815260040160405180910390fd5b509695505050505050565b5f9081525f8051602061533c833981519152602052604090206001015490565b5f5f8051602061537c83398151915281610e7a878787876115cc565b9050610e9a81610e8a6005611b40565b610e946004611b40565b17611b62565b505f8181526001830160205260409020805460ff60f01b1916600160f01b17905530610ec4610c25565b6001600160a01b031614610f4f575f5b8751811015610f4d57306001600160a01b0316888281518110610ef957610ef9614bcb565b60200260200101516001600160a01b031603610f4557610f45868281518110610f2457610f24614bcb565b60200260200101518051906020012084600201611bad90919063ffffffff16565b600101610ed4565b505b610f5c8188888888611c0e565b30610f65610c25565b6001600160a01b031614158015610f93575060028201546001600160801b03808216600160801b9092041614155b15610f9f575f60028301555b6040518181527f712ae1383f79ac853f8d882153778e0260ef8f03b504e2866e0593e04d2b291f906020015b60405180910390a19695505050505050565b5f9081525f8051602061527c8339815191526020526040902054600160a01b900465ffffffffffff1690565b61101282610e3e565b61101b81611c22565b6110258383611c2c565b50505050565b6001600160a01b03811633146110545760405163334bd91960e11b815260040160405180910390fd5b61105e8282611cd4565b505050565b5f610c2e5f8051602061529c8339815191525465ffffffffffff1690565b5f610c3d82611d4d565b5f80611099868686866115cc565b9050336110a68282611e98565b6110da57604051638fe5d8a960e01b8152600481018390526001600160a01b03821660248201526044015b60405180910390fd5b6110e687878787611ee1565b979650505050505050565b60606110fb6119b5565b6001600160a01b0316634bf5d7e96040518163ffffffff1660e01b81526004015f60405180830381865afa92505050801561115757506040513d5f823e601f3d908101601f191682016040526111549190810190614bdf565b60015b611193575060408051808201909152601d81527f6d6f64653d626c6f636b6e756d6265722666726f6d3d64656661756c74000000602082015290565b919050565b6111a0611eee565b6111a982611f94565b6111b38282611fbe565b5050565b5f6111c061207a565b505f805160206152fc83398151915290565b5f8181525f8051602061531c83398151915260205260409020805460018201546002909201549091905b9193909250565b5f8033905061122284828560405180602001604052805f8152506120c3565b949350505050565b5f61127088888888888080601f0160208091040260200160405190810160405280939291908181526020018383808284375f920191909152508a92508991506120e49050565b611298576040516394ab6c0760e01b81526001600160a01b03871660048201526024016110d1565b6112db88878988888080601f0160208091040260200160405190810160405280939291908181526020018383808284375f920191909152508a9250612194915050565b98975050505050505050565b5f803390506110e687828888888080601f0160208091040260200160405190810160405280939291908181526020018383808284375f920191909152508a9250612194915050565b5f7fe770710421fd2cad75ad828c61aa98f2d77d423a440b67872d0f65554148e00061135b8184612272565b9392505050565b61136a611a01565b610c54816122bf565b5f803390506113b986828787878080601f0160208091040260200160405190810160405280939291908181526020018383808284375f920191909152506120c392505050565b9695505050505050565b5f6113d085858585612341565b95945050505050565b5f60608082808083815f805160206152bc833981519152805490915015801561140457506001810154155b6114485760405162461bcd60e51b81526020600482015260156024820152741152540dcc4c8e88155b9a5b9a5d1a585b1a5e9959605a1b60448201526064016110d1565b6114506123f7565b611458612435565b604080515f80825260208201909252600f60f81b9c939b5091995046985030975095509350915050565b5f61148f85858585612473565b6114b7576040516394ab6c0760e01b81526001600160a01b03841660048201526024016110d1565b6113d085848660405180602001604052805f8152506120c3565b5f9182525f8051602061533c833981519152602090815260408084206001600160a01b0393909316845291905290205460ff1690565b5f6115106119b5565b6001600160a01b03166391ddadf46040518163ffffffff1660e01b8152600401602060405180830381865afa925050508015611569575060408051601f3d908101601f1916820190925261156691810190614c47565b60015b61119357610c2e6124df565b5f6112228484846124e9565b5f7fe770710421fd2cad75ad828c61aa98f2d77d423a440b67872d0f65554148e0006115ac81612563565b6001600160d01b031691505090565b6115c3611a01565b610c54816125a7565b5f6113d0858585856118b1565b5f6001610c3d565b5f610c2e5f805160206152dc8339815191525490565b5f30611601610c25565b6001600160a01b03161461162857604051637485328f60e11b815260040160405180910390fd5b5063bc197c8160e01b95945050505050565b5f8181525f8051602061527c83398151915260205260408120545f8051602061537c8339815191529061168990600160d01b810463ffffffff1690600160a01b900465ffffffffffff16614c76565b65ffffffffffff169392505050565b5f6116a161261c565b805490915060ff600160401b82041615906001600160401b03165f811580156116c75750825b90505f826001600160401b031660011480156116e25750303b155b9050811580156116f0575080155b1561170e5760405163f92ee8a960e01b815260040160405180910390fd5b845467ffffffffffffffff19166001178555831561173857845460ff60401b1916600160401b1785555b6117646040518060400160405280600b81526020016a4f7261636c65582044414f60a81b815250612644565b61177b600161c4e068056bc75e2d6310000061267c565b61178361268f565b61178c88612697565b61179660046126a8565b61179f876126b9565b6117a761268f565b6117af61268f565b6117b95f87611c2c565b506117e47f189ab7a9244df0848122154315af71fe140f3db0fe014031783b0946b8c9d2e387611c2c565b50831561182b57845460ff60401b19168555604051600181527fc7f505b2f371ae2175ee4913f4499e1f2633a7b5936321eed1cdaeb6115181d29060200160405180910390a15b5050505050505050565b61183d611a01565b5f80856001600160a01b031685858560405161185a929190614c95565b5f6040518083038185875af1925050503d805f8114611894576040519150601f19603f3d011682016040523d82523d5f602084013e611899565b606091505b50915091506118a882826126ca565b50505050505050565b5f848484846040516020016118c99493929190614d34565b60408051601f19818403018152919052805160209091012095945050505050565b5f805f8051602061535c8339815191525b546001600160a01b031692915050565b61191482610e3e565b61191d81611c22565b6110258383611cd4565b61192f611a01565b610c54816126e6565b5f61135b838361195260408051602081019091525f815290565b6124e9565b61195f611a01565b610c5481612793565b5f30611972610c25565b6001600160a01b03161461199957604051637485328f60e11b815260040160405180910390fd5b5063f23a6e6160e01b95945050505050565b5f610c3d826127e0565b5f807f3ba4977254e415696610a40ebf2258dbfa0ec6a2ff64e84bfe715ff16977cc006118fb565b5f6001600160e01b03198216637965db0b60e01b1480610c3d5750610c3d82612868565b5f8051602061537c83398151915233611a18610c25565b6001600160a01b031614611a41576040516347096e4760e01b81523360048201526024016110d1565b30611a4a610c25565b6001600160a01b031614610c54575f8036604051611a69929190614c95565b604051809103902090505b80611a81836002016128d2565b03611a74575050565b7fe770710421fd2cad75ad828c61aa98f2d77d423a440b67872d0f65554148e000606480831115611ad85760405163243e544560e01b815260048101849052602481018290526044016110d1565b5f611ae1611581565b9050611aff611aee611507565b611af78661293f565b859190612976565b505060408051828152602081018690527f0553476bf02ef2726e8ce5ced78d63e26e602e4a2257b1f559418e24b4633997910160405180910390a150505050565b5f816007811115611b5357611b53614501565b600160ff919091161b92915050565b5f80611b6d84611081565b90505f83611b7a83611b40565b160361135b578381846040516331b75e4d60e01b81526004016110d193929190614d7e565b5f6113b98686868686612990565b81546001600160801b03600160801b820481169181166001830190911603611bd957611bd96041612b36565b6001600160801b038082165f90815260018086016020526040909120939093558354919092018216600160801b029116179055565b611c1b8585858585612b47565b5050505050565b610c548133612be8565b5f5f8051602061533c833981519152611c4584846114d1565b611cc4575f848152602082815260408083206001600160a01b03871684529091529020805460ff19166001179055611c7a3390565b6001600160a01b0316836001600160a01b0316857f2f8788117e7eff1d82e926ec794901d17c78024a50270940304540a733656f0d60405160405180910390a46001915050610c3d565b5f915050610c3d565b5092915050565b5f5f8051602061533c833981519152611ced84846114d1565b15611cc4575f848152602082815260408083206001600160a01b0387168085529252808320805460ff1916905551339287917ff6391f5c32d9c69d2a47ea670b442974b53935d1edc7fd64eb21e047a839171b9190a46001915050610c3d565b5f5f8051602061535c83398151915281611d6684612c21565b90506005816007811115611d7c57611d7c614501565b14611d88579392505050565b5f848152600183016020526040908190205483549151632c258a9f60e11b81526004810182905290916001600160a01b03169063584b153e90602401602060405180830381865afa158015611ddf573d5f803e3d5ffd5b505050506040513d601f19601f82011682018060405250810190611e039190614da0565b15611e1357506005949350505050565b8254604051632ab0f52960e01b8152600481018390526001600160a01b0390911690632ab0f52990602401602060405180830381865afa158015611e59573d5f803e3d5ffd5b505050506040513d601f19601f82011682018060405250810190611e7d9190614da0565b15611e8d57506007949350505050565b506002949350505050565b5f80611ea384611081565b6007811115611eb457611eb4614501565b14801561135b5750611ec583610cf8565b6001600160a01b0316826001600160a01b031614905092915050565b5f6113d085858585612d8d565b306001600160a01b037f0000000000000000000000000000000000000000000000000000000000000000161480611f7457507f00000000000000000000000000000000000000000000000000000000000000006001600160a01b0316611f685f805160206152fc833981519152546001600160a01b031690565b6001600160a01b031614155b15611f925760405163703e46dd60e11b815260040160405180910390fd5b565b7f189ab7a9244df0848122154315af71fe140f3db0fe014031783b0946b8c9d2e36111b381611c22565b816001600160a01b03166352d1902d6040518163ffffffff1660e01b8152600401602060405180830381865afa925050508015612018575060408051601f3d908101601f1916820190925261201591810190614dbf565b60015b61204057604051634c9c8ce360e01b81526001600160a01b03831660048201526024016110d1565b5f805160206152fc833981519152811461207057604051632a87526960e21b8152600481018290526024016110d1565b61105e8383612e36565b306001600160a01b037f00000000000000000000000000000000000000000000000000000000000000001614611f925760405163703e46dd60e11b815260040160405180910390fd5b5f6113d0858585856120df60408051602081019091525f815290565b612194565b5f6110e68561218e7f3e83946653575f9a39005e1545185629e92736b7528ab20ca3816f315424a8118a8a8a6121198c612e8b565b8b516020808e01919091208c518d83012060405161217398979695949301968752602087019590955260ff9390931660408601526001600160a01b03919091166060850152608084015260a083015260c082015260e00190565b60405160208183030381529060405280519060200120612ecc565b84612ef8565b5f6121a386610d8c6001611b40565b505f6121b8866121b289610fdd565b856124e9565b90505f6121c88888888588612f68565b905083515f0361221e57866001600160a01b03167fb8e138887d0aa13bab447e82de9d5c1777041ecd21ca36ba824ff1e6c07ddda4898884896040516122119493929190614dd6565b60405180910390a26110e6565b866001600160a01b03167fe2babfbac5889a709b63bb7f598b324e08bc5a4fb9ec647fb3cbc9ec07eb8712898884898960405161225f959493929190614dfd565b60405180910390a2979650505050505050565b5f805f61227e85613071565b9250925050838265ffffffffffff1611156122ab576122a661229f856130c9565b86906130fb565b6122ad565b805b6001600160d01b031695945050505050565b5f8051602061529c833981519152546040805165ffffffffffff9283168152918316602083015280515f805160206152dc833981519152927fc565b045403dc03c2eea82b81a0465edad9e2e7fc4d97e11421c209da93d7a9392908290030190a1600101805465ffffffffffff191665ffffffffffff92909216919091179055565b5f3361234d818461319d565b6123755760405163d9b3955760e01b81526001600160a01b03821660048201526024016110d1565b5f61237e6115e1565b905080156123ea575f6123ac836001612395611507565b61239f9190614e36565b65ffffffffffff16611938565b9050818110156123e857604051636121770b60e11b81526001600160a01b038416600482015260248101829052604481018390526064016110d1565b505b6110e68787878786613222565b7fa16a46d94261c7517cc8ff89f61c0ce93598e3c849801011dee649a6a557d10280546060915f805160206152bc83398151915291610c7690614b93565b7fa16a46d94261c7517cc8ff89f61c0ce93598e3c849801011dee649a6a557d10380546060915f805160206152bc83398151915291610c7690614b93565b5f6113d08361218e7ff2aad550cf55f045cb27e9c559f9889fdfb6e6cdaa032301d6ea397784ae51d78888886124a88a612e8b565b60408051602081019690965285019390935260ff90911660608401526001600160a01b0316608083015260a082015260c001612173565b5f610c2e436130c9565b5f6124f26119b5565b604051630748d63560e31b81526001600160a01b038681166004830152602482018690529190911690633a46b1a890604401602060405180830381865afa15801561253f573d5f803e3d5ffd5b505050506040513d601f19601f820116820180604052508101906112229190614dbf565b80545f90801561259f576125898361257c600184614e55565b5f91825260209091200190565b54600160301b90046001600160d01b031661135b565b5f9392505050565b5f8051602061535c8339815191528054604080516001600160a01b039283168152918416602083015280517f08f74ea46ef7894f65eabfb5e6e695de773a000b47c529ab559178069b2264019281900390910190a180546001600160a01b0319166001600160a01b0392909216919091179055565b5f807ff0c57e16840df040f15088dc2f81fe391c3923bec73e23a9662efc9c229c6a00610c3d565b61264c61345e565b6126738161266e6040805180820190915260018152603160f81b602082015290565b613483565b610c54816134e2565b61268461345e565b61105e838383613503565b611f9261345e565b61269f61345e565b610c5481613526565b6126b061345e565b610c548161356f565b6126c161345e565b610c5481613577565b6060826126df576126da8261357f565b610c3d565b5080610c3d565b5f805160206152dc83398151915263ffffffff82165f0361271c5760405163f1cfbf0560e01b81525f60048201526024016110d1565b60018101546040805163ffffffff600160301b9093048316815291841660208301527f7e3f7f0708a84de9203036abaa450dccc85ad5ff52f78c170f3edb55cf5e8828910160405180910390a1600101805463ffffffff909216600160301b0269ffffffff00000000000019909216919091179055565b5f805160206152dc8339815191528054604080519182526020820184905280517fccb45da8d5717e6c4544694297c4ba5cf151d455c9bb0ed4fc7a38411bc054619281900390910190a155565b5f610c3d6127ec6119b5565b6001600160a01b0316638e539e8c846040518263ffffffff1660e01b815260040161281991815260200190565b602060405180830381865afa158015612834573d5f803e3d5ffd5b505050506040513d601f19601f820116820180604052508101906128589190614dbf565b6128618461132f565b60646135a7565b5f6001600160e01b031982166366defe7760e11b148061289857506001600160e01b031982166332a2ad4360e11b145b806128b357506001600160e01b03198216630271189760e51b145b80610c3d57506301ffc9a760e01b6001600160e01b0319831614610c3d565b80545f906001600160801b0380821691600160801b90041681036128fa576128fa6031612b36565b6001600160801b038181165f908152600185810160205260408220805492905585546fffffffffffffffffffffffffffffffff19169301909116919091179092555090565b5f6001600160d01b03821115612972576040516306dfcc6560e41b815260d06004820152602481018390526044016110d1565b5090565b5f80612983858585613657565b915091505b935093915050565b5f8051602061535c83398151915280546040805163793d064960e11b815290515f939284926001600160a01b039091169163f27a0c92916004808201926020929091908290030181865afa1580156129ea573d5f803e3d5ffd5b505050506040513d601f19601f82011682018060405250810190612a0e9190614dbf565b90505f3060601b6bffffffffffffffffffffffff19168518835460405163b1c5f42760e01b81529192506001600160a01b03169063b1c5f42790612a5e908b908b908b905f908890600401614e68565b602060405180830381865afa158015612a79573d5f803e3d5ffd5b505050506040513d601f19601f82011682018060405250810190612a9d9190614dbf565b5f8a815260018501602052604080822092909255845491516308f2a0bb60e41b81526001600160a01b0390921691638f2a0bb091612ae8918c918c918c919088908a90600401614eb5565b5f604051808303815f87803b158015612aff575f80fd5b505af1158015612b11573d5f803e3d5ffd5b50505050612b298242612b249190614f0c565b6130c9565b9998505050505050505050565b634e487b715f52806020526024601cfd5b5f8051602061535c833981519152805460405163e38335e560e01b81526001600160a01b039091169063e38335e5903490612ba2908990899089905f906bffffffffffffffffffffffff193060601b168b1890600401614e68565b5f604051808303818588803b158015612bb9575f80fd5b505af1158015612bcb573d5f803e3d5ffd5b5050505f9788525050600101602052505060408320929092555050565b612bf282826114d1565b6111b35760405163e2517d3f60e01b81526001600160a01b0382166004820152602481018390526044016110d1565b5f8181525f8051602061527c8339815191526020526040812080545f8051602061537c833981519152919060ff600160f01b8204811691600160f81b9004168115612c725750600795945050505050565b8015612c845750600295945050505050565b5f612c8e87610fdd565b9050805f03612cb357604051636ad0607560e01b8152600481018890526024016110d1565b5f612cbc611507565b65ffffffffffff169050808210612cda57505f979650505050505050565b5f612ce48961163a565b9050818110612cfc5750600198975050505050505050565b612d05896137a7565b1580612d3057505f8981525f8051602061531c83398151915260205260409020805460019091015411155b15612d445750600398975050505050505050565b5f8981525f8051602061527c833981519152602052604090206001015465ffffffffffff165f03612d7e5750600498975050505050505050565b50600598975050505050505050565b5f5f8051602061535c83398151915281612da9878787876137ec565b5f8181526001840160205260409020549091508015610e3357825460405163c4d252f560e01b8152600481018390526001600160a01b039091169063c4d252f5906024015f604051808303815f87803b158015612e04575f80fd5b505af1158015612e16573d5f803e3d5ffd5b5050505f8381526001850160205260408120555050915050949350505050565b612e3f826138ab565b6040516001600160a01b038316907fbc7cd75a20ee27fd9adebab32041f755214dbc6bffa90cc0225b39da2e5c2d3b905f90a2805115612e835761105e828261390e565b6111b3613977565b6001600160a01b03165f9081527f5ab42ced628888259c08ac98db1eb0cf702fc1501344311d8b100cd1bfe4bb006020526040902080546001810190915590565b5f610c3d612ed8613996565b8360405161190160f01b8152600281019290925260228201526042902090565b5f836001600160a01b03163b5f03612f56575f80612f16858561399f565b5090925090505f816003811115612f2f57612f2f614501565b148015612f4d5750856001600160a01b0316826001600160a01b0316145b9250505061135b565b612f618484846139e8565b905061135b565b5f8581525f8051602061531c833981519152602081815260408084206001600160a01b03891685526003810190925283205460ff1615612fc6576040516371c6af4960e01b81526001600160a01b03881660048201526024016110d1565b6001600160a01b0387165f9081526003820160205260409020805460ff1916600117905560ff861661300f5784815f015f8282546130049190614f0c565b909155506130659050565b5f1960ff87160161302d5784816001015f8282546130049190614f0c565b60011960ff87160161304c5784816002015f8282546130049190614f0c565b6040516303599be160e11b815260040160405180910390fd5b50929695505050505050565b80545f908190819080820361308f575f805f935093509350506111fc565b5f61309f8661257c600185614e55565b546001955065ffffffffffff81169450600160301b90046001600160d01b031692506111fc915050565b5f65ffffffffffff821115612972576040516306dfcc6560e41b815260306004820152602481018390526044016110d1565b81545f9081816005811115613157575f61311484613abe565b61311e9085614e55565b5f8881526020902090915081015465ffffffffffff908116908716101561314757809150613155565b613152816001614f0c565b92505b505b5f61316487878585613c11565b905080156131915761317b8761257c600184614e55565b54600160301b90046001600160d01b03166110e6565b5f979650505050505050565b80515f9060348110156131b4576001915050610c3d565b60131981840101516001600160b01b03198116692370726f706f7365723d60b01b146131e557600192505050610c3d565b5f806131f586602a860386613c70565b915091508115806110e65750866001600160a01b0316816001600160a01b03161494505050505092915050565b5f805f8051602061537c833981519152905061324787878787805190602001206115cc565b91508551875114158061325c57508451875114155b8061326657508651155b1561329b57865185518751604051630447b05d60e41b81526004810193909352602483019190915260448201526064016110d1565b5f828152600182016020526040902054600160a01b900465ffffffffffff16156132e657816132c983611081565b6040516331b75e4d60e01b81526110d19291905f90600401614d7e565b5f6132ef611063565b6132f7611507565b65ffffffffffff166133099190614f0c565b90505f61332f5f8051602061529c8339815191525463ffffffff600160301b9091041690565b5f858152600185016020526040902080546001600160a01b0319166001600160a01b038816178155909150613363836130c9565b815465ffffffffffff91909116600160a01b0265ffffffffffff60a01b1990911617815561339082613d19565b815463ffffffff91909116600160d01b0263ffffffff60d01b1990911617815589517f7d84a6263ae0d98d3329bd7b46bb4e8d6f98cd35a7adb45c274c8b7fd5ebd5e090869088908d908d906001600160401b038111156133f3576133f36141c3565b60405190808252806020026020018201604052801561342657816020015b60608152602001906001900390816134115790505b508d896134338a82614f0c565b8f60405161344999989796959493929190614f1f565b60405180910390a15050505095945050505050565b613466613d49565b611f9257604051631afcd79f60e31b815260040160405180910390fd5b61348b61345e565b5f805160206152bc8339815191527fa16a46d94261c7517cc8ff89f61c0ce93598e3c849801011dee649a6a557d1026134c48482615038565b50600381016134d38382615038565b505f8082556001909101555050565b6134ea61345e565b5f8051602061537c8339815191528061105e8382615038565b61350b61345e565b613514836122bf565b61351d826126e6565b61105e81612793565b61352e61345e565b7f3ba4977254e415696610a40ebf2258dbfa0ec6a2ff64e84bfe715ff16977cc0080546001600160a01b0319166001600160a01b0392909216919091179055565b610c4b61345e565b6115c361345e565b80511561358e57805160208201fd5b60405163d6bda27560e01b815260040160405180910390fd5b5f805f6135b48686613d62565b91509150815f036135d8578381816135ce576135ce6150f7565b049250505061135b565b8184116135ef576135ef6003851502601118612b36565b5f848688095f868103871696879004966002600389028118808a02820302808a02820302808a02820302808a02820302808a02820302808a02909103029181900381900460010185841190960395909502919093039390930492909217029150509392505050565b82545f908190801561374d575f6136738761257c600185614e55565b805490915065ffffffffffff80821691600160301b90046001600160d01b03169088168211156136b657604051632520601d60e01b815260040160405180910390fd5b8765ffffffffffff168265ffffffffffff16036136ef57825465ffffffffffff16600160301b6001600160d01b0389160217835561373f565b6040805180820190915265ffffffffffff808a1682526001600160d01b03808a1660208085019182528d54600181018f555f8f81529190912094519151909216600160301b029216919091179101555b945085935061298892505050565b50506040805180820190915265ffffffffffff80851682526001600160d01b0380851660208085019182528854600181018a555f8a815291822095519251909316600160301b029190931617920191909155905081612988565b5f8181525f8051602061531c833981519152602081905260408220600281015460018201546137d69190614f0c565b6137e2610c0c86610fdd565b1115949350505050565b5f5f8051602061537c83398151915281613808878787876115cc565b9050613856816138186007611b40565b6138226006611b40565b61382c6002611b40565b600161383960078261510b565b613844906002615204565b61384e9190614e55565b181818611b62565b505f8181526001830160205260409081902080546001600160f81b0316600160f81b179055517f789cf55be980739dad1d0699b93b58e806b51c9d96619bfa8fe0a28abaa7b30c90610fcb9083815260200190565b806001600160a01b03163b5f036138e057604051634c9c8ce360e01b81526001600160a01b03821660048201526024016110d1565b5f805160206152fc83398151915280546001600160a01b0319166001600160a01b0392909216919091179055565b60605f80846001600160a01b03168460405161392a9190615212565b5f60405180830381855af49150503d805f8114613962576040519150601f19603f3d011682016040523d82523d5f602084013e613967565b606091505b50915091506113d0858383613d7e565b3415611f925760405163b398979f60e01b815260040160405180910390fd5b5f610c2e613dda565b5f805f83516041036139d6576020840151604085015160608601515f1a6139c888828585613e4d565b9550955095505050506139e1565b505081515f91506002905b9250925092565b5f805f856001600160a01b03168585604051602401613a0892919061522d565b60408051601f198184030181529181526020820180516001600160e01b0316630b135d3f60e11b17905251613a3d9190615212565b5f60405180830381855afa9150503d805f8114613a75576040519150601f19603f3d011682016040523d82523d5f602084013e613a7a565b606091505b5091509150818015613a8e57506020815110155b80156113b957508051630b135d3f60e11b90613ab39083016020908101908401614dbf565b149695505050505050565b5f60018211613acb575090565b816001600160801b8210613ae45760809190911c9060401b5b600160401b8210613afa5760409190911c9060201b5b6401000000008210613b115760209190911c9060101b5b620100008210613b265760109190911c9060081b5b6101008210613b3a5760089190911c9060041b5b60108210613b4d5760049190911c9060021b5b60048210613b595760011b5b600302600190811c90818581613b7157613b716150f7565b048201901c90506001818581613b8957613b896150f7565b048201901c90506001818581613ba157613ba16150f7565b048201901c90506001818581613bb957613bb96150f7565b048201901c90506001818581613bd157613bd16150f7565b048201901c90506001818581613be957613be96150f7565b048201901c9050613c08818581613c0257613c026150f7565b04821190565b90039392505050565b5f5b81831015613c68575f613c268484613f15565b5f8781526020902090915065ffffffffffff86169082015465ffffffffffff161115613c5457809250613c62565b613c5f816001614f0c565b93505b50613c13565b509392505050565b5f808451831180613c8057508284115b15613c8f57505f905080612988565b5f613c9b856001614f0c565b84118015613cc3575061060f60f31b613cb78787016020015190565b6001600160f01b031916145b90505f613cd38215156002615245565b613cde906028614f0c565b905080613ceb8787614e55565b03613d0c575f80613cfd898989613f2f565b90965094506129889350505050565b5f80935093505050612988565b5f63ffffffff821115612972576040516306dfcc6560e41b815260206004820152602481018390526044016110d1565b5f613d5261261c565b54600160401b900460ff16919050565b5f805f1983850993909202808410938190039390930393915050565b606082613d9357613d8e8261357f565b61135b565b8151158015613daa57506001600160a01b0384163b155b15613dd357604051639996b31560e01b81526001600160a01b03851660048201526024016110d1565b508061135b565b5f7f8b73c3c69bb8fe3d512ecc4cf759cc79239f7b179b0ffacaa9a75d522b39400f613e04613ff0565b613e0c614058565b60408051602081019490945283019190915260608201524660808201523060a082015260c00160405160208183030381529060405280519060200120905090565b5f80807f7fffffffffffffffffffffffffffffff5d576e7357a4501ddfe92f46681b20a0841115613e8657505f91506003905082613f0b565b604080515f808252602082018084528a905260ff891692820192909252606081018790526080810186905260019060a0016020604051602081039080840390855afa158015613ed7573d5f803e3d5ffd5b5050604051601f1901519150506001600160a01b038116613f0257505f925060019150829050613f0b565b92505f91508190505b9450945094915050565b5f613f23600284841861525c565b61135b90848416614f0c565b5f808481613f3e866001614f0c565b85118015613f66575061060f60f31b613f5a8388016020015190565b6001600160f01b031916145b90505f613f768215156002615245565b90505f80613f84838a614f0c565b90505b87811015613fdf575f613fa5613fa08784016020015190565b61409a565b9050600f8160ff161115613fc4575f8097509750505050505050612988565b613fcf601084615245565b60ff909116019150600101613f87565b506001999098509650505050505050565b5f5f805160206152bc833981519152816140086123f7565b80519091501561402057805160209091012092915050565b8154801561402f579392505050565b7fc5d2460186f7233c927e7db2dcc703c0e500b653ca82273b7bfad8045d85a470935050505090565b5f5f805160206152bc83398151915281614070612435565b80519091501561408857805160209091012092915050565b6001820154801561402f579392505050565b5f60f882901c602f811180156140b35750603a8160ff16105b156140c157602f1901610c3d565b60608160ff161180156140d7575060678160ff16105b156140e55760561901610c3d565b60408160ff161180156140fb575060478160ff16105b156141095760361901610c3d565b5060ff92915050565b5f60208284031215614122575f80fd5b81356001600160e01b03198116811461135b575f80fd5b5f60208284031215614149575f80fd5b5035919050565b5f5b8381101561416a578181015183820152602001614152565b50505f910152565b5f8151808452614189816020860160208601614150565b601f01601f19169290920160200192915050565b602081525f61135b6020830184614172565b6001600160a01b0381168114610c54575f80fd5b634e487b7160e01b5f52604160045260245ffd5b604051601f8201601f191681016001600160401b03811182821017156141ff576141ff6141c3565b604052919050565b5f6001600160401b0382111561421f5761421f6141c3565b50601f01601f191660200190565b5f61423f61423a84614207565b6141d7565b9050828152838383011115614252575f80fd5b828260208301375f602084830101529392505050565b5f82601f830112614277575f80fd5b61135b8383356020850161422d565b5f805f8060808587031215614299575f80fd5b84356142a4816141af565b935060208501356142b4816141af565b92506040850135915060608501356001600160401b038111156142d5575f80fd5b6142e187828801614268565b91505092959194509250565b5f6001600160401b03821115614305576143056141c3565b5060051b60200190565b5f82601f83011261431e575f80fd5b8135602061432e61423a836142ed565b8083825260208201915060208460051b87010193508684111561434f575f80fd5b602086015b84811015610e33578035614367816141af565b8352918301918301614354565b5f82601f830112614383575f80fd5b8135602061439361423a836142ed565b8083825260208201915060208460051b8701019350868411156143b4575f80fd5b602086015b84811015610e3357803583529183019183016143b9565b5f82601f8301126143df575f80fd5b813560206143ef61423a836142ed565b82815260059290921b8401810191818101908684111561440d575f80fd5b8286015b84811015610e335780356001600160401b0381111561442e575f80fd5b61443c8986838b0101614268565b845250918301918301614411565b5f805f806080858703121561445d575f80fd5b84356001600160401b0380821115614473575f80fd5b61447f8883890161430f565b95506020870135915080821115614494575f80fd5b6144a088838901614374565b945060408701359150808211156144b5575f80fd5b506144c2878288016143d0565b949793965093946060013593505050565b5f80604083850312156144e4575f80fd5b8235915060208301356144f6816141af565b809150509250929050565b634e487b7160e01b5f52602160045260245ffd5b6008811061453157634e487b7160e01b5f52602160045260245ffd5b9052565b60208101610c3d8284614515565b5f8060408385031215614554575f80fd5b823561455f816141af565b915060208301356001600160401b03811115614579575f80fd5b61458585828601614268565b9150509250929050565b803560ff81168114611193575f80fd5b5f80604083850312156145b0575f80fd5b823591506145c06020840161458f565b90509250929050565b5f8083601f8401126145d9575f80fd5b5081356001600160401b038111156145ef575f80fd5b602083019150836020828501011115614606575f80fd5b9250929050565b5f805f805f805f60c0888a031215614623575f80fd5b873596506146336020890161458f565b95506040880135614643816141af565b945060608801356001600160401b038082111561465e575f80fd5b61466a8b838c016145c9565b909650945060808a0135915080821115614682575f80fd5b61468e8b838c01614268565b935060a08a01359150808211156146a3575f80fd5b506146b08a828b01614268565b91505092959891949750929550565b5f805f805f608086880312156146d3575f80fd5b853594506146e36020870161458f565b935060408601356001600160401b03808211156146fe575f80fd5b61470a89838a016145c9565b90955093506060880135915080821115614722575f80fd5b5061472f88828901614268565b9150509295509295909350565b65ffffffffffff81168114610c54575f80fd5b5f6020828403121561475f575f80fd5b813561135b8161473c565b5f805f806060858703121561477d575f80fd5b8435935061478d6020860161458f565b925060408501356001600160401b038111156147a7575f80fd5b6147b3878288016145c9565b95989497509550505050565b5f805f80608085870312156147d2575f80fd5b84356001600160401b03808211156147e8575f80fd5b6147f48883890161430f565b95506020870135915080821115614809575f80fd5b61481588838901614374565b9450604087013591508082111561482a575f80fd5b614836888389016143d0565b9350606087013591508082111561484b575f80fd5b508501601f8101871361485c575f80fd5b6142e18782356020840161422d565b5f6020828403121561487b575f80fd5b813561135b816141af565b5f815180845260208085019450602084015f5b838110156148b557815187529582019590820190600101614899565b509495945050505050565b60ff60f81b8816815260e060208201525f6148de60e0830189614172565b82810360408401526148f08189614172565b606084018890526001600160a01b038716608085015260a0840186905283810360c085015290506149218185614886565b9a9950505050505050505050565b5f805f8060808587031215614942575f80fd5b843593506149526020860161458f565b92506040850135614962816141af565b915060608501356001600160401b038111156142d5575f80fd5b5f805f6060848603121561498e575f80fd5b8335614999816141af565b92506020840135915060408401356001600160401b038111156149ba575f80fd5b6149c686828701614268565b9150509250925092565b5f805f805f60a086880312156149e4575f80fd5b85356149ef816141af565b945060208601356149ff816141af565b935060408601356001600160401b0380821115614a1a575f80fd5b614a2689838a01614374565b94506060880135915080821115614a3b575f80fd5b614a4789838a01614374565b93506080880135915080821115614722575f80fd5b5f805f60608486031215614a6e575f80fd5b8335614a79816141af565b92506020840135614a89816141af565b91506040840135614a99816141af565b809150509250925092565b5f805f8060608587031215614ab7575f80fd5b8435614ac2816141af565b93506020850135925060408501356001600160401b038111156147a7575f80fd5b5f60208284031215614af3575f80fd5b813563ffffffff8116811461135b575f80fd5b5f8060408385031215614b17575f80fd5b8235614b22816141af565b946020939093013593505050565b5f805f805f60a08688031215614b44575f80fd5b8535614b4f816141af565b94506020860135614b5f816141af565b9350604086013592506060860135915060808601356001600160401b03811115614b87575f80fd5b61472f88828901614268565b600181811c90821680614ba757607f821691505b602082108103614bc557634e487b7160e01b5f52602260045260245ffd5b50919050565b634e487b7160e01b5f52603260045260245ffd5b5f60208284031215614bef575f80fd5b81516001600160401b03811115614c04575f80fd5b8201601f81018413614c14575f80fd5b8051614c2261423a82614207565b818152856020838501011115614c36575f80fd5b6113d0826020830160208601614150565b5f60208284031215614c57575f80fd5b815161135b8161473c565b634e487b7160e01b5f52601160045260245ffd5b65ffffffffffff818116838216019080821115611ccd57611ccd614c62565b818382375f9101908152919050565b5f815180845260208085019450602084015f5b838110156148b55781516001600160a01b031687529582019590820190600101614cb7565b5f8282518085526020808601955060208260051b840101602086015f5b84811015614d2757601f19868403018952614d15838351614172565b98840198925090830190600101614cf9565b5090979650505050505050565b608081525f614d466080830187614ca4565b8281036020840152614d588187614886565b90508281036040840152614d6c8186614cdc565b91505082606083015295945050505050565b83815260608101614d926020830185614515565b826040830152949350505050565b5f60208284031215614db0575f80fd5b8151801515811461135b575f80fd5b5f60208284031215614dcf575f80fd5b5051919050565b84815260ff84166020820152826040820152608060608201525f6113b96080830184614172565b85815260ff8516602082015283604082015260a060608201525f614e2460a0830185614172565b82810360808401526112db8185614172565b65ffffffffffff828116828216039080821115611ccd57611ccd614c62565b81810381811115610c3d57610c3d614c62565b60a081525f614e7a60a0830188614ca4565b8281036020840152614e8c8188614886565b90508281036040840152614ea08187614cdc565b60608401959095525050608001529392505050565b60c081525f614ec760c0830189614ca4565b8281036020840152614ed98189614886565b90508281036040840152614eed8188614cdc565b60608401969096525050608081019290925260a0909101529392505050565b80820180821115610c3d57610c3d614c62565b5f6101208b8352602060018060a01b038c1681850152816040850152614f478285018c614ca4565b91508382036060850152614f5b828b614886565b915083820360808501528189518084528284019150828160051b850101838c015f5b83811015614fab57601f19878403018552614f99838351614172565b94860194925090850190600101614f7d565b505086810360a0880152614fbf818c614cdc565b9450505050508560c08401528460e0840152828103610100840152614fe48185614172565b9c9b505050505050505050505050565b601f82111561105e57805f5260205f20601f840160051c810160208510156150195750805b601f840160051c820191505b81811015611c1b575f8155600101615025565b81516001600160401b03811115615051576150516141c3565b6150658161505f8454614b93565b84614ff4565b602080601f831160018114615098575f84156150815750858301515b5f19600386901b1c1916600185901b1785556150ef565b5f85815260208120601f198616915b828110156150c6578886015182559484019460019091019084016150a7565b50858210156150e357878501515f19600388901b60f8161c191681555b505060018460011b0185555b505050505050565b634e487b7160e01b5f52601260045260245ffd5b60ff8181168382160190811115610c3d57610c3d614c62565b600181815b8085111561515e57815f190482111561514457615144614c62565b8085161561515157918102915b93841c9390800290615129565b509250929050565b5f8261517457506001610c3d565b8161518057505f610c3d565b816001811461519657600281146151a0576151bc565b6001915050610c3d565b60ff8411156151b1576151b1614c62565b50506001821b610c3d565b5060208310610133831016604e8410600b84101617156151df575081810a610c3d565b6151e98383615124565b805f19048211156151fc576151fc614c62565b029392505050565b5f61135b60ff841683615166565b5f8251615223818460208701614150565b9190910192915050565b828152604060208201525f6112226040830184614172565b8082028115828204841417610c3d57610c3d614c62565b5f8261527657634e487b7160e01b5f52601260045260245ffd5b50049056fe7c712897014dbe49c045ef1299aa2d5f9e67e48eea4403efa21f1e0f3ac0cb0100d7616c8fe29c6c2fbe1d0c5bc8f2faa4c35b43746e70b24b4d532752affd01a16a46d94261c7517cc8ff89f61c0ce93598e3c849801011dee649a6a557d10000d7616c8fe29c6c2fbe1d0c5bc8f2faa4c35b43746e70b24b4d532752affd00360894a13ba1a3210667c828492db98dca3e2076cc3735a920a3ca505d382bbca1cefa0f43667ef127a258e673c94202a79b656e62899531c4376d87a7f3980002dd7bc7dec4dceedda775e58dd541e08a116c6c53815c0bd028192f7b6268000d5829787b8befdbc6044ef7457d8a95c2a04bc99235349f1a212c063e59d4007c712897014dbe49c045ef1299aa2d5f9e67e48eea4403efa21f1e0f3ac0cb00a2646970667358221220ce0f331271a3534e7c0a303139c1cd4a1dc022856040bbc6a71553852304f31e64736f6c63430008180033",
  "linkReferences": {},
  "deployedLinkReferences": {}
}