{
  "_format": "hh-sol-artifact-1",
  "contractName": "MockChainlinkOracle",
  "sourceName": "contracts/mocks/MockChainlinkOracle.sol",
  "abi": [
    {
      "inputs": [
        {
          "internalType": "address",
          "name": "_adapter",
          "type": "address"
        }
      ],
      "stateMutability": "nonpayable",
      "type": "constructor"
    },
    {
      "anonymous": false,
      "inputs": [
        {
          "indexed": true,
          "internalType": "address",
          "name": "adapter",
          "type": "address"
        }
      ],
      "name": "AdapterUpdated",
      "type": "event"
    },
    {
      "anonymous": false,
      "inputs": [
        {
          "indexed": true,
          "internalType": "bytes32",
          "name": "marketId",
          "type": "bytes32"
        },
        {
          "indexed": true,
          "internalType": "uint8",
          "name": "winningSide",
          "type": "uint8"
        }
      ],
      "name": "OutcomePosted",
      "type": "event"
    },
    {
      "inputs": [],
      "name": "adapter",
      "outputs": [
        {
          "internalType": "address",
          "name": "",
          "type": "address"
        }
      ],
      "stateMutability": "view",
      "type": "function"
    },
    {
      "inputs": [],
      "name": "owner",
      "outputs": [
        {
          "internalType": "address",
          "name": "",
          "type": "address"
        }
      ],
      "stateMutability": "view",
      "type": "function"
    },
    {
      "inputs": [
        {
          "internalType": "bytes32",
          "name": "marketId",
          "type": "bytes32"
        },
        {
          "internalType": "uint8",
          "name": "winningSide",
          "type": "uint8"
        }
      ],
      "name": "postOutcome",
      "outputs": [],
      "stateMutability": "nonpayable",
      "type": "function"
    },
    {
      "inputs": [
        {
          "internalType": "address",
          "name": "_adapter",
          "type": "address"
        }
      ],
      "name": "setAdapter",
      "outputs": [],
      "stateMutability": "nonpayable",
      "type": "function"
    }
  ],
  "bytecode": "0x608060405234801561001057600080fd5b5060405161034a38038061034a83398101604081905261002f91610087565b600080546001600160a01b0383166001600160a01b03199182168117835560018054909216331790915560405190917fe0f844393110e68237572819538a8c2bc270b13eac280c04079392bfb615b30b91a2506100b7565b60006020828403121561009957600080fd5b81516001600160a01b03811681146100b057600080fd5b9392505050565b610284806100c66000396000f3fe608060405234801561001057600080fd5b506004361061004c5760003560e01c806303eadcfc14610051578063740dc1b0146100805780638da5cb5b14610095578063ab1da79c146100a8575b600080fd5b600054610064906001600160a01b031681565b6040516001600160a01b03909116815260200160405180910390f35b61009361008e3660046101e8565b6100bb565b005b600154610064906001600160a01b031681565b6100936100b636600461021e565b610156565b60405160ff82169083907f728207d28ba428fc0791fe890d38a8c4ce79955c45d247f52b4c01431ba566d490600090a3600054604051632894423560e11b81526004810184905260ff831660248201526001600160a01b0390911690635128846a90604401600060405180830381600087803b15801561013a57600080fd5b505af115801561014e573d6000803e3d6000fd5b505050505050565b6001546001600160a01b031633146101a05760405162461bcd60e51b81526020600482015260096024820152683737ba1037bbb732b960b91b604482015260640160405180910390fd5b600080546001600160a01b0319166001600160a01b038316908117825560405190917fe0f844393110e68237572819538a8c2bc270b13eac280c04079392bfb615b30b91a250565b600080604083850312156101fb57600080fd5b82359150602083013560ff8116811461021357600080fd5b809150509250929050565b60006020828403121561023057600080fd5b81356001600160a01b038116811461024757600080fd5b939250505056fea2646970667358221220cd315028ef45e3b22e8771b48465cc006d8ab3ad55c0a5d047b36c91182d421b64736f6c63430008140033",
  "linkReferences": {},
  "deployedLinkReferences": {}
}