{
  "_format": "hh-sol-artifact-1",
  "contractName": "MarketPositions",
  "sourceName": "contracts-v2/MarketPositions.sol",
  "abi": [
    {
      "inputs": [],
      "stateMutability": "nonpayable",
      "type": "constructor"
    },
    {
      "inputs": [],
      "name": "AccessControlBadConfirmation",
      "type": "error"
    },
    {
      "inputs": [
        {
          "internalType": "address",
          "name": "account",
          "type": "address"
        },
        {
          "internalType": "bytes32",
          "name": "neededRole",
          "type": "bytes32"
        }
      ],
      "name": "AccessControlUnauthorizedAccount",
      "type": "error"
    },
    {
      "inputs": [
        {
          "internalType": "address",
          "name": "target",
          "type": "address"
        }
      ],
      "name": "AddressEmptyCode",
      "type": "error"
    },
    {
      "inputs": [
        {
          "internalType": "address",
          "name": "sender",
          "type": "address"
        },
        {
          "internalType": "uint256",
          "name": "balance",
          "type": "uint256"
        },
        {
          "internalType": "uint256",
          "name": "needed",
          "type": "uint256"
        },
        {
          "internalType": "uint256",
          "name": "tokenId",
          "type": "uint256"
        }
      ],
      "name": "ERC1155InsufficientBalance",
      "type": "error"
    },
    {
      "inputs": [
        {
          "internalType": "address",
          "name": "approver",
          "type": "address"
        }
      ],
      "name": "ERC1155InvalidApprover",
      "type": "error"
    },
    {
      "inputs": [
        {
          "internalType": "uint256",
          "name": "idsLength",
          "type": "uint256"
        },
        {
          "internalType": "uint256",
          "name": "valuesLength",
          "type": "uint256"
        }
      ],
      "name": "ERC1155InvalidArrayLength",
      "type": "error"
    },
    {
      "inputs": [
        {
          "internalType": "address",
          "name": "operator",
          "type": "address"
        }
      ],
      "name": "ERC1155InvalidOperator",
      "type": "error"
    },
    {
      "inputs": [
        {
          "internalType": "address",
          "name": "receiver",
          "type": "address"
        }
      ],
      "name": "ERC1155InvalidReceiver",
      "type": "error"
    },
    {
      "inputs": [
        {
          "internalType": "address",
          "name": "sender",
          "type": "address"
        }
      ],
      "name": "ERC1155InvalidSender",
      "type": "error"
    },
    {
      "inputs": [
        {
          "internalType": "address",
          "name": "operator",
          "type": "address"
        },
        {
          "internalType": "address",
          "name": "owner",
          "type": "address"
        }
      ],
      "name": "ERC1155MissingApprovalForAll",
      "type": "error"
    },
    {
      "inputs": [
        {
          "internalType": "address",
          "name": "implementation",
          "type": "address"
        }
      ],
      "name": "ERC1967InvalidImplementation",
      "type": "error"
    },
    {
      "inputs": [],
      "name": "ERC1967NonPayable",
      "type": "error"
    },
    {
      "inputs": [],
      "name": "EnforcedPause",
      "type": "error"
    },
    {
      "inputs": [],
      "name": "ExpectedPause",
      "type": "error"
    },
    {
      "inputs": [],
      "name": "FailedCall",
      "type": "error"
    },
    {
      "inputs": [],
      "name": "InvalidInitialization",
      "type": "error"
    },
    {
      "inputs": [],
      "name": "NotInitializing",
      "type": "error"
    },
    {
      "inputs": [],
      "name": "UUPSUnauthorizedCallContext",
      "type": "error"
    },
    {
      "inputs": [
        {
          "internalType": "bytes32",
          "name": "slot",
          "type": "bytes32"
        }
      ],
      "name": "UUPSUnsupportedProxiableUUID",
      "type": "error"
    },
    {
      "anonymous": false,
      "inputs": [
        {
          "indexed": true,
          "internalType": "address",
          "name": "account",
          "type": "address"
        },
        {
          "indexed": true,
          "internalType": "address",
          "name": "operator",
          "type": "address"
        },
        {
          "indexed": false,
          "internalType": "bool",
          "name": "approved",
          "type": "bool"
        }
      ],
      "name": "ApprovalForAll",
      "type": "event"
    },
    {
      "anonymous": false,
      "inputs": [
        {
          "indexed": false,
          "internalType": "uint64",
          "name": "version",
          "type": "uint64"
        }
      ],
      "name": "Initialized",
      "type": "event"
    },
    {
      "anonymous": false,
      "inputs": [
        {
          "indexed": false,
          "internalType": "address",
          "name": "account",
          "type": "address"
        }
      ],
      "name": "Paused",
      "type": "event"
    },
    {
      "anonymous": false,
      "inputs": [
        {
          "indexed": true,
          "internalType": "address",
          "name": "user",
          "type": "address"
        },
        {
          "indexed": true,
          "internalType": "uint256",
          "name": "tokenId",
          "type": "uint256"
        },
        {
          "indexed": false,
          "internalType": "uint256",
          "name": "amount",
          "type": "uint256"
        }
      ],
      "name": "PositionBurned",
      "type": "event"
    },
    {
      "anonymous": false,
      "inputs": [
        {
          "indexed": true,
          "internalType": "address",
          "name": "user",
          "type": "address"
        },
        {
          "indexed": true,
          "internalType": "uint256",
          "name": "tokenId",
          "type": "uint256"
        },
        {
          "indexed": false,
          "internalType": "uint256",
          "name": "amount",
          "type": "uint256"
        }
      ],
      "name": "PositionMinted",
      "type": "event"
    },
    {
      "anonymous": false,
      "inputs": [
        {
          "indexed": true,
          "internalType": "bytes32",
          "name": "role",
          "type": "bytes32"
        },
        {
          "indexed": true,
          "internalType": "bytes32",
          "name": "previousAdminRole",
          "type": "bytes32"
        },
        {
          "indexed": true,
          "internalType": "bytes32",
          "name": "newAdminRole",
          "type": "bytes32"
        }
      ],
      "name": "RoleAdminChanged",
      "type": "event"
    },
    {
      "anonymous": false,
      "inputs": [
        {
          "indexed": true,
          "internalType": "bytes32",
          "name": "role",
          "type": "bytes32"
        },
        {
          "indexed": true,
          "internalType": "address",
          "name": "account",
          "type": "address"
        },
        {
          "indexed": true,
          "internalType": "address",
          "name": "sender",
          "type": "address"
        }
      ],
      "name": "RoleGranted",
      "type": "event"
    },
    {
      "anonymous": false,
      "inputs": [
        {
          "indexed": true,
          "internalType": "bytes32",
          "name": "role",
          "type": "bytes32"
        },
        {
          "indexed": true,
          "internalType": "address",
          "name": "account",
          "type": "address"
        },
        {
          "indexed": true,
          "internalType": "address",
          "name": "sender",
          "type": "address"
        }
      ],
      "name": "RoleRevoked",
      "type": "event"
    },
    {
      "anonymous": false,
      "inputs": [
        {
          "indexed": true,
          "internalType": "address",
          "name": "operator",
          "type": "address"
        },
        {
          "indexed": true,
          "internalType": "address",
          "name": "from",
          "type": "address"
        },
        {
          "indexed": true,
          "internalType": "address",
          "name": "to",
          "type": "address"
        },
        {
          "indexed": false,
          "internalType": "uint256[]",
          "name": "ids",
          "type": "uint256[]"
        },
        {
          "indexed": false,
          "internalType": "uint256[]",
          "name": "values",
          "type": "uint256[]"
        }
      ],
      "name": "TransferBatch",
      "type": "event"
    },
    {
      "anonymous": false,
      "inputs": [
        {
          "indexed": true,
          "internalType": "address",
          "name": "operator",
          "type": "address"
        },
        {
          "indexed": true,
          "internalType": "address",
          "name": "from",
          "type": "address"
        },
        {
          "indexed": true,
          "internalType": "address",
          "name": "to",
          "type": "address"
        },
        {
          "indexed": false,
          "internalType": "uint256",
          "name": "id",
          "type": "uint256"
        },
        {
          "indexed": false,
          "internalType": "uint256",
          "name": "value",
          "type": "uint256"
        }
      ],
      "name": "TransferSingle",
      "type": "event"
    },
    {
      "anonymous": false,
      "inputs": [
        {
          "indexed": false,
          "internalType": "string",
          "name": "value",
          "type": "string"
        },
        {
          "indexed": true,
          "internalType": "uint256",
          "name": "id",
          "type": "uint256"
        }
      ],
      "name": "URI",
      "type": "event"
    },
    {
      "anonymous": false,
      "inputs": [
        {
          "indexed": false,
          "internalType": "address",
          "name": "account",
          "type": "address"
        }
      ],
      "name": "Unpaused",
      "type": "event"
    },
    {
      "anonymous": false,
      "inputs": [
        {
          "indexed": true,
          "internalType": "address",
          "name": "implementation",
          "type": "address"
        }
      ],
      "name": "Upgraded",
      "type": "event"
    },
    {
      "inputs": [],
      "name": "DEFAULT_ADMIN_ROLE",
      "outputs": [
        {
          "internalType": "bytes32",
          "name": "",
          "type": "bytes32"
        }
      ],
      "stateMutability": "view",
      "type": "function"
    },
    {
      "inputs": [],
      "name": "MINTER_ROLE",
      "outputs": [
        {
          "internalType": "bytes32",
          "name": "",
          "type": "bytes32"
        }
      ],
      "stateMutability": "view",
      "type": "function"
    },
    {
      "inputs": [],
      "name": "PAUSER_ROLE",
      "outputs": [
        {
          "internalType": "bytes32",
          "name": "",
          "type": "bytes32"
        }
      ],
      "stateMutability": "view",
      "type": "function"
    },
    {
      "inputs": [],
      "name": "UPGRADER_ROLE",
      "outputs": [
        {
          "internalType": "bytes32",
          "name": "",
          "type": "bytes32"
        }
      ],
      "stateMutability": "view",
      "type": "function"
    },
    {
      "inputs": [],
      "name": "UPGRADE_INTERFACE_VERSION",
      "outputs": [
        {
          "internalType": "string",
          "name": "",
          "type": "string"
        }
      ],
      "stateMutability": "view",
      "type": "function"
    },
    {
      "inputs": [
        {
          "internalType": "address",
          "name": "account",
          "type": "address"
        },
        {
          "internalType": "uint256",
          "name": "id",
          "type": "uint256"
        }
      ],
      "name": "balanceOf",
      "outputs": [
        {
          "internalType": "uint256",
          "name": "",
          "type": "uint256"
        }
      ],
      "stateMutability": "view",
      "type": "function"
    },
    {
      "inputs": [
        {
          "internalType": "address[]",
          "name": "accounts",
          "type": "address[]"
        },
        {
          "internalType": "uint256[]",
          "name": "ids",
          "type": "uint256[]"
        }
      ],
      "name": "balanceOfBatch",
      "outputs": [
        {
          "internalType": "uint256[]",
          "name": "",
          "type": "uint256[]"
        }
      ],
      "stateMutability": "view",
      "type": "function"
    },
    {
      "inputs": [
        {
          "internalType": "address",
          "name": "from",
          "type": "address"
        },
        {
          "internalType": "uint256",
          "name": "tokenId",
          "type": "uint256"
        },
        {
          "internalType": "uint256",
          "name": "amount",
          "type": "uint256"
        }
      ],
      "name": "burn",
      "outputs": [],
      "stateMutability": "nonpayable",
      "type": "function"
    },
    {
      "inputs": [
        {
          "internalType": "bytes32",
          "name": "role",
          "type": "bytes32"
        }
      ],
      "name": "getRoleAdmin",
      "outputs": [
        {
          "internalType": "bytes32",
          "name": "",
          "type": "bytes32"
        }
      ],
      "stateMutability": "view",
      "type": "function"
    },
    {
      "inputs": [
        {
          "internalType": "bytes32",
          "name": "role",
          "type": "bytes32"
        },
        {
          "internalType": "address",
          "name": "account",
          "type": "address"
        }
      ],
      "name": "grantRole",
      "outputs": [],
      "stateMutability": "nonpayable",
      "type": "function"
    },
    {
      "inputs": [
        {
          "internalType": "bytes32",
          "name": "role",
          "type": "bytes32"
        },
        {
          "internalType": "address",
          "name": "account",
          "type": "address"
        }
      ],
      "name": "hasRole",
      "outputs": [
        {
          "internalType": "bool",
          "name": "",
          "type": "bool"
        }
      ],
      "stateMutability": "view",
      "type": "function"
    },
    {
      "inputs": [
        {
          "internalType": "string",
          "name": "_uri",
          "type": "string"
        },
        {
          "internalType": "address",
          "name": "defaultAdmin",
          "type": "address"
        }
      ],
      "name": "initialize",
      "outputs": [],
      "stateMutability": "nonpayable",
      "type": "function"
    },
    {
      "inputs": [
        {
          "internalType": "address",
          "name": "account",
          "type": "address"
        },
        {
          "internalType": "address",
          "name": "operator",
          "type": "address"
        }
      ],
      "name": "isApprovedForAll",
      "outputs": [
        {
          "internalType": "bool",
          "name": "",
          "type": "bool"
        }
      ],
      "stateMutability": "view",
      "type": "function"
    },
    {
      "inputs": [
        {
          "internalType": "address",
          "name": "to",
          "type": "address"
        },
        {
          "internalType": "uint256",
          "name": "tokenId",
          "type": "uint256"
        },
        {
          "internalType": "uint256",
          "name": "amount",
          "type": "uint256"
        }
      ],
      "name": "mint",
      "outputs": [],
      "stateMutability": "nonpayable",
      "type": "function"
    },
    {
      "inputs": [],
      "name": "name",
      "outputs": [
        {
          "internalType": "string",
          "name": "",
          "type": "string"
        }
      ],
      "stateMutability": "view",
      "type": "function"
    },
    {
      "inputs": [],
      "name": "pause",
      "outputs": [],
      "stateMutability": "nonpayable",
      "type": "function"
    },
    {
      "inputs": [],
      "name": "paused",
      "outputs": [
        {
          "internalType": "bool",
          "name": "",
          "type": "bool"
        }
      ],
      "stateMutability": "view",
      "type": "function"
    },
    {
      "inputs": [],
      "name": "proxiableUUID",
      "outputs": [
        {
          "internalType": "bytes32",
          "name": "",
          "type": "bytes32"
        }
      ],
      "stateMutability": "view",
      "type": "function"
    },
    {
      "inputs": [
        {
          "internalType": "bytes32",
          "name": "role",
          "type": "bytes32"
        },
        {
          "internalType": "address",
          "name": "callerConfirmation",
          "type": "address"
        }
      ],
      "name": "renounceRole",
      "outputs": [],
      "stateMutability": "nonpayable",
      "type": "function"
    },
    {
      "inputs": [
        {
          "internalType": "bytes32",
          "name": "role",
          "type": "bytes32"
        },
        {
          "internalType": "address",
          "name": "account",
          "type": "address"
        }
      ],
      "name": "revokeRole",
      "outputs": [],
      "stateMutability": "nonpayable",
      "type": "function"
    },
    {
      "inputs": [
        {
          "internalType": "address",
          "name": "from",
          "type": "address"
        },
        {
          "internalType": "address",
          "name": "to",
          "type": "address"
        },
        {
          "internalType": "uint256[]",
          "name": "ids",
          "type": "uint256[]"
        },
        {
          "internalType": "uint256[]",
          "name": "values",
          "type": "uint256[]"
        },
        {
          "internalType": "bytes",
          "name": "data",
          "type": "bytes"
        }
      ],
      "name": "safeBatchTransferFrom",
      "outputs": [],
      "stateMutability": "nonpayable",
      "type": "function"
    },
    {
      "inputs": [
        {
          "internalType": "address",
          "name": "from",
          "type": "address"
        },
        {
          "internalType": "address",
          "name": "to",
          "type": "address"
        },
        {
          "internalType": "uint256",
          "name": "id",
          "type": "uint256"
        },
        {
          "internalType": "uint256",
          "name": "value",
          "type": "uint256"
        },
        {
          "internalType": "bytes",
          "name": "data",
          "type": "bytes"
        }
      ],
      "name": "safeTransferFrom",
      "outputs": [],
      "stateMutability": "nonpayable",
      "type": "function"
    },
    {
      "inputs": [
        {
          "internalType": "address",
          "name": "operator",
          "type": "address"
        },
        {
          "internalType": "bool",
          "name": "approved",
          "type": "bool"
        }
      ],
      "name": "setApprovalForAll",
      "outputs": [],
      "stateMutability": "nonpayable",
      "type": "function"
    },
    {
      "inputs": [
        {
          "internalType": "uint256",
          "name": "tokenId",
          "type": "uint256"
        },
        {
          "internalType": "string",
          "name": "tokenURI",
          "type": "string"
        }
      ],
      "name": "setTokenURI",
      "outputs": [],
      "stateMutability": "nonpayable",
      "type": "function"
    },
    {
      "inputs": [
        {
          "internalType": "bytes4",
          "name": "interfaceId",
          "type": "bytes4"
        }
      ],
      "name": "supportsInterface",
      "outputs": [
        {
          "internalType": "bool",
          "name": "",
          "type": "bool"
        }
      ],
      "stateMutability": "view",
      "type": "function"
    },
    {
      "inputs": [],
      "name": "symbol",
      "outputs": [
        {
          "internalType": "string",
          "name": "",
          "type": "string"
        }
      ],
      "stateMutability": "view",
      "type": "function"
    },
    {
      "inputs": [],
      "name": "unpause",
      "outputs": [],
      "stateMutability": "nonpayable",
      "type": "function"
    },
    {
      "inputs": [
        {
          "internalType": "address",
          "name": "newImplementation",
          "type": "address"
        },
        {
          "internalType": "bytes",
          "name": "data",
          "type": "bytes"
        }
      ],
      "name": "upgradeToAndCall",
      "outputs": [],
      "stateMutability": "payable",
      "type": "function"
    },
    {
      "inputs": [
        {
          "internalType": "uint256",
          "name": "tokenId",
          "type": "uint256"
        }
      ],
      "name": "uri",
      "outputs": [
        {
          "internalType": "string",
          "name": "",
          "type": "string"
        }
      ],
      "stateMutability": "view",
      "type": "function"
    }
  ],
  "bytecode": "0x60a060405230608052348015610013575f80fd5b5061001c610021565b6100d3565b7ff0c57e16840df040f15088dc2f81fe391c3923bec73e23a9662efc9c229c6a00805468010000000000000000900460ff16156100715760405163f92ee8a960e01b815260040160405180910390fd5b80546001600160401b03908116146100d05780546001600160401b0319166001600160401b0390811782556040519081527fc7f505b2f371ae2175ee4913f4499e1f2633a7b5936321eed1cdaeb6115181d29060200160405180910390a15b50565b6080516124d4620000fa5f395f81816110300152818161105901526111bc01526124d45ff3fe6080604052600436106101b9575f3560e01c80635c975abb116100f2578063ad3cb1cc11610092578063e985e9c511610062578063e985e9c5146104cb578063f242432a146104ea578063f5298aca14610509578063f72c0d8b14610528575f80fd5b8063ad3cb1cc1461043c578063d53913931461046c578063d547741f1461048c578063e63ab1e9146104ab575f80fd5b806391d14854116100cd57806391d14854146103d757806395d89b41146103f6578063a217fddf1461040a578063a22cb4651461041d575f80fd5b80635c975abb146103815780637ab4339d146103a45780638456cb59146103c3575f80fd5b80632eb2c2d61161015d5780633f4ba83a116101385780633f4ba83a1461031a5780634e1273f41461032e5780634f1ef2861461035a57806352d1902d1461036d575f80fd5b80632eb2c2d6146102bd5780632f2ff15d146102dc57806336568abe146102fb575f80fd5b80630e89341c116101985780630e89341c1461023f578063156e29f61461025e578063162094c41461027f578063248a9ca31461029e575f80fd5b8062fdd58e146101bd57806301ffc9a7146101ef57806306fdde031461021e575b5f80fd5b3480156101c8575f80fd5b506101dc6101d7366004611be8565b61055b565b6040519081526020015b60405180910390f35b3480156101fa575f80fd5b5061020e610209366004611c25565b610590565b60405190151581526020016101e6565b348015610229575f80fd5b5061023261059a565b6040516101e69190611c8d565b34801561024a575f80fd5b50610232610259366004611c9f565b610625565b348015610269575f80fd5b5061027d610278366004611cb6565b6106df565b005b34801561028a575f80fd5b5061027d610299366004611d95565b61075a565b3480156102a9575f80fd5b506101dc6102b8366004611c9f565b610781565b3480156102c8575f80fd5b5061027d6102d7366004611e66565b6107a1565b3480156102e7575f80fd5b5061027d6102f6366004611f08565b61080d565b348015610306575f80fd5b5061027d610315366004611f08565b610829565b348015610325575f80fd5b5061027d610861565b348015610339575f80fd5b5061034d610348366004611f32565b610883565b6040516101e6919061201b565b61027d61036836600461202d565b61094d565b348015610378575f80fd5b506101dc61096c565b34801561038c575f80fd5b505f8051602061247f8339815191525460ff1661020e565b3480156103af575f80fd5b5061027d6103be366004612061565b610987565b3480156103ce575f80fd5b5061027d610b6a565b3480156103e2575f80fd5b5061020e6103f1366004611f08565b610b89565b348015610401575f80fd5b50610232610bbf565b348015610415575f80fd5b506101dc5f81565b348015610428575f80fd5b5061027d6104373660046120a2565b610bcc565b348015610447575f80fd5b50610232604051806040016040528060058152602001640352e302e360dc1b81525081565b348015610477575f80fd5b506101dc5f8051602061243f83398151915281565b348015610497575f80fd5b5061027d6104a6366004611f08565b610bd7565b3480156104b6575f80fd5b506101dc5f805160206123ff83398151915281565b3480156104d6575f80fd5b5061020e6104e53660046120db565b610bf3565b3480156104f5575f80fd5b5061027d610504366004612103565b610c3f565b348015610514575f80fd5b5061027d610523366004611cb6565b610c9e565b348015610533575f80fd5b506101dc7f189ab7a9244df0848122154315af71fe140f3db0fe014031783b0946b8c9d2e381565b5f8181525f8051602061241f833981519152602090815260408083206001600160a01b03861684529091529020545b92915050565b5f61058a82610cfc565b5f80546105a690612162565b80601f01602080910402602001604051908101604052809291908181526020018280546105d290612162565b801561061d5780601f106105f45761010080835404028352916020019161061d565b820191905f5260205f20905b81548152906001019060200180831161060057829003601f168201915b505050505081565b5f8181526002602052604081208054606092919061064290612162565b80601f016020809104026020016040519081016040528092919081815260200182805461066e90612162565b80156106b95780601f10610690576101008083540402835291602001916106b9565b820191905f5260205f20905b81548152906001019060200180831161069c57829003601f168201915b505050505090505f8151116106d6576106d183610d20565b6106d8565b805b9392505050565b5f8051602061243f8339815191526106f681610de2565b61071084848460405180602001604052805f815250610dec565b82846001600160a01b03167fe4ab9d5487b533d311142282367b27bafc24298a08d3f45170ca3e3e6456b0518460405161074c91815260200190565b60405180910390a350505050565b5f61076481610de2565b5f83815260026020526040902061077b83826121de565b50505050565b5f9081525f8051602061245f833981519152602052604090206001015490565b336001600160a01b03861681148015906107c257506107c08682610bf3565b155b156107f85760405163711bec9160e11b81526001600160a01b038083166004830152871660248201526044015b60405180910390fd5b6108058686868686610e47565b505050505050565b61081682610781565b61081f81610de2565b61077b8383610eac565b6001600160a01b03811633146108525760405163334bd91960e11b815260040160405180910390fd5b61085c8282610f4d565b505050565b5f805160206123ff83398151915261087881610de2565b610880610fc6565b50565b606081518351146108b45781518351604051635b05999160e01b8152600481019290925260248201526044016107ef565b5f83516001600160401b038111156108ce576108ce611ce6565b6040519080825280602002602001820160405280156108f7578160200160208202803683370190505b5090505f5b8451811015610945576020808202860101516109209060208084028701015161055b565b82828151811061093257610932612299565b60209081029190910101526001016108fc565b509392505050565b610955611025565b61095e826110cb565b61096882826110f5565b5050565b5f6109756111b1565b505f805160206123df83398151915290565b5f6109906111fa565b805490915060ff600160401b82041615906001600160401b03165f811580156109b65750825b90505f826001600160401b031660011480156109d15750303b155b9050811580156109df575080155b156109fd5760405163f92ee8a960e01b815260040160405180910390fd5b845467ffffffffffffffff191660011785558315610a2757845460ff60401b1916600160401b1785555b610a3087611222565b610a38611233565b610a40611233565b610a48611233565b60408051808201909152601881527f4f7261636c6558204d61726b657420506f736974696f6e73000000000000000060208201525f90610a8890826121de565b506040805180820190915260078152664f52582d504f5360c81b6020820152600190610ab490826121de565b50610abf5f87610eac565b50610ad75f8051602061243f83398151915287610eac565b50610aef5f805160206123ff83398151915287610eac565b50610b1a7f189ab7a9244df0848122154315af71fe140f3db0fe014031783b0946b8c9d2e387610eac565b508315610b6157845460ff60401b19168555604051600181527fc7f505b2f371ae2175ee4913f4499e1f2633a7b5936321eed1cdaeb6115181d29060200160405180910390a15b50505050505050565b5f805160206123ff833981519152610b8181610de2565b61088061123b565b5f9182525f8051602061245f833981519152602090815260408084206001600160a01b0393909316845291905290205460ff1690565b600180546105a690612162565b610968338383611283565b610be082610781565b610be981610de2565b61077b8383610f4d565b6001600160a01b039182165f9081527f88be536d5240c274a3b1d3a1be54482fd9caa294f08c62a7cde569f49a3c45016020908152604080832093909416825291909152205460ff1690565b336001600160a01b0386168114801590610c605750610c5e8682610bf3565b155b15610c915760405163711bec9160e11b81526001600160a01b038083166004830152871660248201526044016107ef565b610805868686868661131f565b5f8051602061243f833981519152610cb581610de2565b610cc08484846113a2565b82846001600160a01b03167fab62565eaf69d98e9ddacb5dbf31c76eee7f8121e2183dbcf1d0a1373c04d87f8460405161074c91815260200190565b5f6001600160e01b03198216637965db0b60e01b148061058a575061058a82611408565b7f88be536d5240c274a3b1d3a1be54482fd9caa294f08c62a7cde569f49a3c450280546060915f8051602061241f83398151915291610d5e90612162565b80601f0160208091040260200160405190810160405280929190818152602001828054610d8a90612162565b8015610dd55780601f10610dac57610100808354040283529160200191610dd5565b820191905f5260205f20905b815481529060010190602001808311610db857829003601f168201915b5050505050915050919050565b6108808133611457565b6001600160a01b038416610e1557604051632bfa23e760e11b81525f60048201526024016107ef565b604080516001808252602082018690528183019081526060820185905260808201909252906108055f87848487611490565b6001600160a01b038416610e7057604051632bfa23e760e11b81525f60048201526024016107ef565b6001600160a01b038516610e9857604051626a0d4560e21b81525f60048201526024016107ef565b610ea58585858585611490565b5050505050565b5f5f8051602061245f833981519152610ec58484610b89565b610f44575f848152602082815260408083206001600160a01b03871684529091529020805460ff19166001179055610efa3390565b6001600160a01b0316836001600160a01b0316857f2f8788117e7eff1d82e926ec794901d17c78024a50270940304540a733656f0d60405160405180910390a4600191505061058a565b5f91505061058a565b5f5f8051602061245f833981519152610f668484610b89565b15610f44575f848152602082815260408083206001600160a01b0387168085529252808320805460ff1916905551339287917ff6391f5c32d9c69d2a47ea670b442974b53935d1edc7fd64eb21e047a839171b9190a4600191505061058a565b610fce6114e3565b5f8051602061247f833981519152805460ff191681557f5db9ee0a495bf2e6ff9c91a7834c1ba4fdd244a5e8aa4e537bd38aeae4b073aa335b6040516001600160a01b03909116815260200160405180910390a150565b306001600160a01b037f00000000000000000000000000000000000000000000000000000000000000001614806110ab57507f00000000000000000000000000000000000000000000000000000000000000006001600160a01b031661109f5f805160206123df833981519152546001600160a01b031690565b6001600160a01b031614155b156110c95760405163703e46dd60e11b815260040160405180910390fd5b565b7f189ab7a9244df0848122154315af71fe140f3db0fe014031783b0946b8c9d2e361096881610de2565b816001600160a01b03166352d1902d6040518163ffffffff1660e01b8152600401602060405180830381865afa92505050801561114f575060408051601f3d908101601f1916820190925261114c918101906122ad565b60015b61117757604051634c9c8ce360e01b81526001600160a01b03831660048201526024016107ef565b5f805160206123df83398151915281146111a757604051632a87526960e21b8152600481018290526024016107ef565b61085c8383611512565b306001600160a01b037f000000000000000000000000000000000000000000000000000000000000000016146110c95760405163703e46dd60e11b815260040160405180910390fd5b5f807ff0c57e16840df040f15088dc2f81fe391c3923bec73e23a9662efc9c229c6a0061058a565b61122a611567565b6108808161158c565b6110c9611567565b61124361159d565b5f8051602061247f833981519152805460ff191660011781557f62e78cea01bee320cd4e420270b5ea74000d11b0c9f74754ebdbfc544b05a25833611007565b5f8051602061241f8339815191526001600160a01b0383166112b95760405162ced3e160e81b81525f60048201526024016107ef565b6001600160a01b038481165f818152600184016020908152604080832094881680845294825291829020805460ff191687151590811790915591519182527f17307eab39ab6107e8899845ad3d59bd9653f200f220920489ca2b5937696c31910161074c565b6001600160a01b03841661134857604051632bfa23e760e11b81525f60048201526024016107ef565b6001600160a01b03851661137057604051626a0d4560e21b81525f60048201526024016107ef565b60408051600180825260208201869052818301908152606082018590526080820190925290610b618787848487611490565b6001600160a01b0383166113ca57604051626a0d4560e21b81525f60048201526024016107ef565b604080516001808252602082018590528183019081526060820184905260a082019092525f60808201818152919291610ea591879185908590611490565b5f6001600160e01b03198216636cdb3d1360e11b148061143857506001600160e01b031982166303a24d0760e21b145b8061058a57506301ffc9a760e01b6001600160e01b031983161461058a565b6114618282610b89565b6109685760405163e2517d3f60e01b81526001600160a01b0382166004820152602481018390526044016107ef565b61149c858585856115cd565b6001600160a01b03841615610ea557825133906001036114d557602084810151908401516114ce8389898585896115e1565b5050610805565b610805818787878787611702565b5f8051602061247f8339815191525460ff166110c957604051638dfc202b60e01b815260040160405180910390fd5b61151b826117e9565b6040516001600160a01b038316907fbc7cd75a20ee27fd9adebab32041f755214dbc6bffa90cc0225b39da2e5c2d3b905f90a280511561155f5761085c828261184c565b6109686118be565b61156f6118dd565b6110c957604051631afcd79f60e31b815260040160405180910390fd5b611594611567565b610880816118f6565b5f8051602061247f8339815191525460ff16156110c95760405163d93c066560e01b815260040160405180910390fd5b6115d561159d565b61077b8484848461192f565b6001600160a01b0384163b156108055760405163f23a6e6160e01b81526001600160a01b0385169063f23a6e619061162590899089908890889088906004016122c4565b6020604051808303815f875af192505050801561165f575060408051601f3d908101601f1916820190925261165c91810190612308565b60015b6116c6573d80801561168c576040519150601f19603f3d011682016040523d82523d5f602084013e611691565b606091505b5080515f036116be57604051632bfa23e760e11b81526001600160a01b03861660048201526024016107ef565b805160208201fd5b6001600160e01b0319811663f23a6e6160e01b14610b6157604051632bfa23e760e11b81526001600160a01b03861660048201526024016107ef565b6001600160a01b0384163b156108055760405163bc197c8160e01b81526001600160a01b0385169063bc197c81906117469089908990889088908890600401612323565b6020604051808303815f875af1925050508015611780575060408051601f3d908101601f1916820190925261177d91810190612308565b60015b6117ad573d80801561168c576040519150601f19603f3d011682016040523d82523d5f602084013e611691565b6001600160e01b0319811663bc197c8160e01b14610b6157604051632bfa23e760e11b81526001600160a01b03861660048201526024016107ef565b806001600160a01b03163b5f0361181e57604051634c9c8ce360e01b81526001600160a01b03821660048201526024016107ef565b5f805160206123df83398151915280546001600160a01b0319166001600160a01b0392909216919091179055565b60605f80846001600160a01b0316846040516118689190612380565b5f60405180830381855af49150503d805f81146118a0576040519150601f19603f3d011682016040523d82523d5f602084013e6118a5565b606091505b50915091506118b5858383611b4e565b95945050505050565b34156110c95760405163b398979f60e01b815260040160405180910390fd5b5f6118e66111fa565b54600160401b900460ff16919050565b5f8051602061241f8339815191527f88be536d5240c274a3b1d3a1be54482fd9caa294f08c62a7cde569f49a3c450261085c83826121de565b805182515f8051602061241f833981519152911461196d5782518251604051635b05999160e01b8152600481019290925260248201526044016107ef565b335f5b8451811015611a6f576020818102868101820151908601909101516001600160a01b03891615611a21575f828152602086815260408083206001600160a01b038d168452909152902054818110156119fb576040516303dee4c560e01b81526001600160a01b038b1660048201526024810182905260448101839052606481018490526084016107ef565b5f838152602087815260408083206001600160a01b038e16845290915290209082900390555b6001600160a01b03881615611a65575f828152602086815260408083206001600160a01b038c16845290915281208054839290611a5f90849061239b565b90915550505b5050600101611970565b508351600103611aef5760208401515f906020850151909150866001600160a01b0316886001600160a01b0316846001600160a01b03167fc3d58168c5ae7397731d063d5bbf3d657854427343f4c083240f7aacaa2d0f628585604051611ae0929190918252602082015260400190565b60405180910390a45050610805565b846001600160a01b0316866001600160a01b0316826001600160a01b03167f4a39dc06d4c0dbc64b70af90fd698a233a518aa5d07e595d983b8c0526c8f7fb8787604051611b3e9291906123ba565b60405180910390a4505050505050565b606082611b5e576106d182611ba5565b8151158015611b7557506001600160a01b0384163b155b15611b9e57604051639996b31560e01b81526001600160a01b03851660048201526024016107ef565b5092915050565b805115611bb457805160208201fd5b60405163d6bda27560e01b815260040160405180910390fd5b80356001600160a01b0381168114611be3575f80fd5b919050565b5f8060408385031215611bf9575f80fd5b611c0283611bcd565b946020939093013593505050565b6001600160e01b031981168114610880575f80fd5b5f60208284031215611c35575f80fd5b81356106d881611c10565b5f5b83811015611c5a578181015183820152602001611c42565b50505f910152565b5f8151808452611c79816020860160208601611c40565b601f01601f19169290920160200192915050565b602081525f6106d86020830184611c62565b5f60208284031215611caf575f80fd5b5035919050565b5f805f60608486031215611cc8575f80fd5b611cd184611bcd565b95602085013595506040909401359392505050565b634e487b7160e01b5f52604160045260245ffd5b604051601f8201601f191681016001600160401b0381118282101715611d2257611d22611ce6565b604052919050565b5f82601f830112611d39575f80fd5b81356001600160401b03811115611d5257611d52611ce6565b611d65601f8201601f1916602001611cfa565b818152846020838601011115611d79575f80fd5b816020850160208301375f918101602001919091529392505050565b5f8060408385031215611da6575f80fd5b8235915060208301356001600160401b03811115611dc2575f80fd5b611dce85828601611d2a565b9150509250929050565b5f6001600160401b03821115611df057611df0611ce6565b5060051b60200190565b5f82601f830112611e09575f80fd5b81356020611e1e611e1983611dd8565b611cfa565b8083825260208201915060208460051b870101935086841115611e3f575f80fd5b602086015b84811015611e5b5780358352918301918301611e44565b509695505050505050565b5f805f805f60a08688031215611e7a575f80fd5b611e8386611bcd565b9450611e9160208701611bcd565b935060408601356001600160401b0380821115611eac575f80fd5b611eb889838a01611dfa565b94506060880135915080821115611ecd575f80fd5b611ed989838a01611dfa565b93506080880135915080821115611eee575f80fd5b50611efb88828901611d2a565b9150509295509295909350565b5f8060408385031215611f19575f80fd5b82359150611f2960208401611bcd565b90509250929050565b5f8060408385031215611f43575f80fd5b82356001600160401b0380821115611f59575f80fd5b818501915085601f830112611f6c575f80fd5b81356020611f7c611e1983611dd8565b82815260059290921b84018101918181019089841115611f9a575f80fd5b948201945b83861015611fbf57611fb086611bcd565b82529482019490820190611f9f565b96505086013592505080821115611fd4575f80fd5b50611dce85828601611dfa565b5f815180845260208085019450602084015f5b8381101561201057815187529582019590820190600101611ff4565b509495945050505050565b602081525f6106d86020830184611fe1565b5f806040838503121561203e575f80fd5b61204783611bcd565b915060208301356001600160401b03811115611dc2575f80fd5b5f8060408385031215612072575f80fd5b82356001600160401b03811115612087575f80fd5b61209385828601611d2a565b925050611f2960208401611bcd565b5f80604083850312156120b3575f80fd5b6120bc83611bcd565b9150602083013580151581146120d0575f80fd5b809150509250929050565b5f80604083850312156120ec575f80fd5b6120f583611bcd565b9150611f2960208401611bcd565b5f805f805f60a08688031215612117575f80fd5b61212086611bcd565b945061212e60208701611bcd565b9350604086013592506060860135915060808601356001600160401b03811115612156575f80fd5b611efb88828901611d2a565b600181811c9082168061217657607f821691505b60208210810361219457634e487b7160e01b5f52602260045260245ffd5b50919050565b601f82111561085c57805f5260205f20601f840160051c810160208510156121bf5750805b601f840160051c820191505b81811015610ea5575f81556001016121cb565b81516001600160401b038111156121f7576121f7611ce6565b61220b816122058454612162565b8461219a565b602080601f83116001811461223e575f84156122275750858301515b5f19600386901b1c1916600185901b178555610805565b5f85815260208120601f198616915b8281101561226c5788860151825594840194600190910190840161224d565b508582101561228957878501515f19600388901b60f8161c191681555b5050505050600190811b01905550565b634e487b7160e01b5f52603260045260245ffd5b5f602082840312156122bd575f80fd5b5051919050565b6001600160a01b03868116825285166020820152604081018490526060810183905260a0608082018190525f906122fd90830184611c62565b979650505050505050565b5f60208284031215612318575f80fd5b81516106d881611c10565b6001600160a01b0386811682528516602082015260a0604082018190525f9061234e90830186611fe1565b82810360608401526123608186611fe1565b905082810360808401526123748185611c62565b98975050505050505050565b5f8251612391818460208701611c40565b9190910192915050565b8082018082111561058a57634e487b7160e01b5f52601160045260245ffd5b604081525f6123cc6040830185611fe1565b82810360208401526118b58185611fe156fe360894a13ba1a3210667c828492db98dca3e2076cc3735a920a3ca505d382bbc65d7a28e3265b37a6474929f336521b332c1681b933f6cb9f3376673440d862a88be536d5240c274a3b1d3a1be54482fd9caa294f08c62a7cde569f49a3c45009f2df0fed2c77648de5860a4cc508cd0818c85b8b8a1ab4ceeef8d981c8956a602dd7bc7dec4dceedda775e58dd541e08a116c6c53815c0bd028192f7b626800cd5ed15c6e187e77e9aee88184c21f4f2182ab5827cb3b7e07fbedcd63f03300a2646970667358221220a34bae58761a8e2f911b2462964fefa09e72224a831d3c9d335bb43ebe2ddc7764736f6c63430008180033",
  "linkReferences": {},
  "deployedLinkReferences": {}
}