{
  "_format": "hh-sol-artifact-1",
  "contractName": "OracleXVerifier",
  "sourceName": "contracts/OracleXVerifier.sol",
  "abi": [
    {
      "anonymous": false,
      "inputs": [
        {
          "indexed": true,
          "internalType": "bytes32",
          "name": "marketId",
          "type": "bytes32"
        },
        {
          "indexed": true,
          "internalType": "bytes32",
          "name": "aiHash",
          "type": "bytes32"
        },
        {
          "indexed": false,
          "internalType": "string",
          "name": "ipfsCidOptional",
          "type": "string"
        }
      ],
      "name": "AICommitted",
      "type": "event"
    },
    {
      "inputs": [
        {
          "internalType": "bytes32",
          "name": "marketId",
          "type": "bytes32"
        },
        {
          "internalType": "bytes32",
          "name": "aiHash",
          "type": "bytes32"
        },
        {
          "internalType": "string",
          "name": "ipfsCidOptional",
          "type": "string"
        }
      ],
      "name": "commitAI",
      "outputs": [],
      "stateMutability": "nonpayable",
      "type": "function"
    },
    {
      "inputs": [
        {
          "internalType": "bytes32",
          "name": "marketId",
          "type": "bytes32"
        }
      ],
      "name": "getCid",
      "outputs": [
        {
          "internalType": "string",
          "name": "",
          "type": "string"
        }
      ],
      "stateMutability": "view",
      "type": "function"
    },
    {
      "inputs": [
        {
          "internalType": "bytes32",
          "name": "marketId",
          "type": "bytes32"
        }
      ],
      "name": "getCommitment",
      "outputs": [
        {
          "internalType": "bytes32",
          "name": "",
          "type": "bytes32"
        }
      ],
      "stateMutability": "view",
      "type": "function"
    }
  ],
  "bytecode": "0x608060405234801561001057600080fd5b5061046f806100206000396000f3fe608060405234801561001057600080fd5b50600436106100415760003560e01c80637795820c14610046578063a71baf9014610079578063aa5de4bd1461008e575b600080fd5b6100666100543660046101c3565b60009081526020819052604090205490565b6040519081526020015b60405180910390f35b61008c6100873660046101dc565b6100ae565b005b6100a161009c3660046101c3565b610121565b604051610070919061025c565b600084815260208190526040902083905580156100e05760008481526001602052604090206100de828483610349565b505b82847f19422b603d2100acdc94f460262d14bc38be7781ef9928950f6832898697045f848460405161011392919061040a565b60405180910390a350505050565b600081815260016020526040902080546060919061013e906102c0565b80601f016020809104026020016040519081016040528092919081815260200182805461016a906102c0565b80156101b75780601f1061018c576101008083540402835291602001916101b7565b820191906000526020600020905b81548152906001019060200180831161019a57829003601f168201915b50505050509050919050565b6000602082840312156101d557600080fd5b5035919050565b600080600080606085870312156101f257600080fd5b8435935060208501359250604085013567ffffffffffffffff8082111561021857600080fd5b818701915087601f83011261022c57600080fd5b81358181111561023b57600080fd5b88602082850101111561024d57600080fd5b95989497505060200194505050565b600060208083528351808285015260005b818110156102895785810183015185820160400152820161026d565b506000604082860101526040601f19601f8301168501019250505092915050565b634e487b7160e01b600052604160045260246000fd5b600181811c908216806102d457607f821691505b6020821081036102f457634e487b7160e01b600052602260045260246000fd5b50919050565b601f82111561034457600081815260208120601f850160051c810160208610156103215750805b601f850160051c820191505b818110156103405782815560010161032d565b5050505b505050565b67ffffffffffffffff831115610361576103616102aa565b6103758361036f83546102c0565b836102fa565b6000601f8411600181146103a957600085156103915750838201355b600019600387901b1c1916600186901b178355610403565b600083815260209020601f19861690835b828110156103da57868501358255602094850194600190920191016103ba565b50868210156103f75760001960f88860031b161c19848701351681555b505060018560011b0183555b5050505050565b60208152816020820152818360408301376000818301604090810191909152601f909201601f1916010191905056fea2646970667358221220209c2a0d3226c851bdd60c4764da200efbe7753cc59b5b3ee0413e51d8c1c86d64736f6c63430008140033",
  "linkReferences": {},
  "deployedLinkReferences": {}
}