{
  "_format": "hh-sol-artifact-1",
  "contractName": "OracleAdapterV2",
  "sourceName": "contracts-v2/OracleAdapterV2.sol",
  "abi": [
    {
      "inputs": [],
      "stateMutability": "nonpayable",
      "type": "constructor"
    },
    {
      "inputs": [],
      "name": "AccessControlBadConfirmation",
      "type": "error"
    },
    {
      "inputs": [
        {
          "internalType": "address",
          "name": "account",
          "type": "address"
        },
        {
          "internalType": "bytes32",
          "name": "neededRole",
          "type": "bytes32"
        }
      ],
      "name": "AccessControlUnauthorizedAccount",
      "type": "error"
    },
    {
      "inputs": [
        {
          "internalType": "address",
          "name": "target",
          "type": "address"
        }
      ],
      "name": "AddressEmptyCode",
      "type": "error"
    },
    {
      "inputs": [
        {
          "internalType": "address",
          "name": "implementation",
          "type": "address"
        }
      ],
      "name": "ERC1967InvalidImplementation",
      "type": "error"
    },
    {
      "inputs": [],
      "name": "ERC1967NonPayable",
      "type": "error"
    },
    {
      "inputs": [],
      "name": "EnforcedPause",
      "type": "error"
    },
    {
      "inputs": [],
      "name": "ExpectedPause",
      "type": "error"
    },
    {
      "inputs": [],
      "name": "FailedCall",
      "type": "error"
    },
    {
      "inputs": [],
      "name": "InvalidInitialization",
      "type": "error"
    },
    {
      "inputs": [],
      "name": "NotInitializing",
      "type": "error"
    },
    {
      "inputs": [],
      "name": "ReentrancyGuardReentrantCall",
      "type": "error"
    },
    {
      "inputs": [],
      "name": "UUPSUnauthorizedCallContext",
      "type": "error"
    },
    {
      "inputs": [
        {
          "internalType": "bytes32",
          "name": "slot",
          "type": "bytes32"
        }
      ],
      "name": "UUPSUnsupportedProxiableUUID",
      "type": "error"
    },
    {
      "anonymous": false,
      "inputs": [
        {
          "indexed": true,
          "internalType": "bytes32",
          "name": "marketId",
          "type": "bytes32"
        },
        {
          "indexed": false,
          "internalType": "bool",
          "name": "disputeValid",
          "type": "bool"
        },
        {
          "indexed": false,
          "internalType": "uint8",
          "name": "finalResult",
          "type": "uint8"
        }
      ],
      "name": "DisputeResolved",
      "type": "event"
    },
    {
      "anonymous": false,
      "inputs": [
        {
          "indexed": false,
          "internalType": "uint64",
          "name": "version",
          "type": "uint64"
        }
      ],
      "name": "Initialized",
      "type": "event"
    },
    {
      "anonymous": false,
      "inputs": [
        {
          "indexed": true,
          "internalType": "bytes32",
          "name": "marketId",
          "type": "bytes32"
        },
        {
          "indexed": false,
          "internalType": "uint8",
          "name": "result",
          "type": "uint8"
        }
      ],
      "name": "MarketFinalized",
      "type": "event"
    },
    {
      "anonymous": false,
      "inputs": [
        {
          "indexed": true,
          "internalType": "address",
          "name": "oracle",
          "type": "address"
        },
        {
          "indexed": false,
          "internalType": "uint256",
          "name": "newReputation",
          "type": "uint256"
        }
      ],
      "name": "OracleReputationUpdated",
      "type": "event"
    },
    {
      "anonymous": false,
      "inputs": [
        {
          "indexed": true,
          "internalType": "bytes32",
          "name": "marketId",
          "type": "bytes32"
        },
        {
          "indexed": true,
          "internalType": "address",
          "name": "disputer",
          "type": "address"
        },
        {
          "indexed": false,
          "internalType": "uint8",
          "name": "proposedResult",
          "type": "uint8"
        }
      ],
      "name": "OutcomeChallenged",
      "type": "event"
    },
    {
      "anonymous": false,
      "inputs": [
        {
          "indexed": true,
          "internalType": "bytes32",
          "name": "marketId",
          "type": "bytes32"
        },
        {
          "indexed": false,
          "internalType": "uint8",
          "name": "result",
          "type": "uint8"
        },
        {
          "indexed": true,
          "internalType": "address",
          "name": "oracle",
          "type": "address"
        },
        {
          "indexed": false,
          "internalType": "uint256",
          "name": "challengeDeadline",
          "type": "uint256"
        }
      ],
      "name": "OutcomeProposed",
      "type": "event"
    },
    {
      "anonymous": false,
      "inputs": [
        {
          "indexed": false,
          "internalType": "address",
          "name": "account",
          "type": "address"
        }
      ],
      "name": "Paused",
      "type": "event"
    },
    {
      "anonymous": false,
      "inputs": [
        {
          "indexed": true,
          "internalType": "bytes32",
          "name": "role",
          "type": "bytes32"
        },
        {
          "indexed": true,
          "internalType": "bytes32",
          "name": "previousAdminRole",
          "type": "bytes32"
        },
        {
          "indexed": true,
          "internalType": "bytes32",
          "name": "newAdminRole",
          "type": "bytes32"
        }
      ],
      "name": "RoleAdminChanged",
      "type": "event"
    },
    {
      "anonymous": false,
      "inputs": [
        {
          "indexed": true,
          "internalType": "bytes32",
          "name": "role",
          "type": "bytes32"
        },
        {
          "indexed": true,
          "internalType": "address",
          "name": "account",
          "type": "address"
        },
        {
          "indexed": true,
          "internalType": "address",
          "name": "sender",
          "type": "address"
        }
      ],
      "name": "RoleGranted",
      "type": "event"
    },
    {
      "anonymous": false,
      "inputs": [
        {
          "indexed": true,
          "internalType": "bytes32",
          "name": "role",
          "type": "bytes32"
        },
        {
          "indexed": true,
          "internalType": "address",
          "name": "account",
          "type": "address"
        },
        {
          "indexed": true,
          "internalType": "address",
          "name": "sender",
          "type": "address"
        }
      ],
      "name": "RoleRevoked",
      "type": "event"
    },
    {
      "anonymous": false,
      "inputs": [
        {
          "indexed": false,
          "internalType": "address",
          "name": "account",
          "type": "address"
        }
      ],
      "name": "Unpaused",
      "type": "event"
    },
    {
      "anonymous": false,
      "inputs": [
        {
          "indexed": true,
          "internalType": "address",
          "name": "implementation",
          "type": "address"
        }
      ],
      "name": "Upgraded",
      "type": "event"
    },
    {
      "inputs": [],
      "name": "CHALLENGE_PERIOD",
      "outputs": [
        {
          "internalType": "uint256",
          "name": "",
          "type": "uint256"
        }
      ],
      "stateMutability": "view",
      "type": "function"
    },
    {
      "inputs": [],
      "name": "DEFAULT_ADMIN_ROLE",
      "outputs": [
        {
          "internalType": "bytes32",
          "name": "",
          "type": "bytes32"
        }
      ],
      "stateMutability": "view",
      "type": "function"
    },
    {
      "inputs": [],
      "name": "DISPUTE_PERIOD",
      "outputs": [
        {
          "internalType": "uint256",
          "name": "",
          "type": "uint256"
        }
      ],
      "stateMutability": "view",
      "type": "function"
    },
    {
      "inputs": [],
      "name": "DISPUTE_RESOLVER_ROLE",
      "outputs": [
        {
          "internalType": "bytes32",
          "name": "",
          "type": "bytes32"
        }
      ],
      "stateMutability": "view",
      "type": "function"
    },
    {
      "inputs": [],
      "name": "ORACLE_ROLE",
      "outputs": [
        {
          "internalType": "bytes32",
          "name": "",
          "type": "bytes32"
        }
      ],
      "stateMutability": "view",
      "type": "function"
    },
    {
      "inputs": [],
      "name": "PAUSER_ROLE",
      "outputs": [
        {
          "internalType": "bytes32",
          "name": "",
          "type": "bytes32"
        }
      ],
      "stateMutability": "view",
      "type": "function"
    },
    {
      "inputs": [],
      "name": "UPGRADER_ROLE",
      "outputs": [
        {
          "internalType": "bytes32",
          "name": "",
          "type": "bytes32"
        }
      ],
      "stateMutability": "view",
      "type": "function"
    },
    {
      "inputs": [],
      "name": "UPGRADE_INTERFACE_VERSION",
      "outputs": [
        {
          "internalType": "string",
          "name": "",
          "type": "string"
        }
      ],
      "stateMutability": "view",
      "type": "function"
    },
    {
      "inputs": [],
      "name": "amm",
      "outputs": [
        {
          "internalType": "contract IPredictionAMM",
          "name": "",
          "type": "address"
        }
      ],
      "stateMutability": "view",
      "type": "function"
    },
    {
      "inputs": [
        {
          "internalType": "bytes32",
          "name": "marketId",
          "type": "bytes32"
        },
        {
          "internalType": "uint8",
          "name": "proposedResult",
          "type": "uint8"
        }
      ],
      "name": "challengeOutcome",
      "outputs": [],
      "stateMutability": "nonpayable",
      "type": "function"
    },
    {
      "inputs": [],
      "name": "disputeStake",
      "outputs": [
        {
          "internalType": "uint256",
          "name": "",
          "type": "uint256"
        }
      ],
      "stateMutability": "view",
      "type": "function"
    },
    {
      "inputs": [
        {
          "internalType": "bytes32",
          "name": "",
          "type": "bytes32"
        }
      ],
      "name": "disputes",
      "outputs": [
        {
          "internalType": "address",
          "name": "disputer",
          "type": "address"
        },
        {
          "internalType": "uint8",
          "name": "proposedResult",
          "type": "uint8"
        },
        {
          "internalType": "uint256",
          "name": "stake",
          "type": "uint256"
        },
        {
          "internalType": "uint256",
          "name": "timestamp",
          "type": "uint256"
        },
        {
          "internalType": "bool",
          "name": "resolved",
          "type": "bool"
        },
        {
          "internalType": "bool",
          "name": "valid",
          "type": "bool"
        }
      ],
      "stateMutability": "view",
      "type": "function"
    },
    {
      "inputs": [
        {
          "internalType": "bytes32",
          "name": "marketId",
          "type": "bytes32"
        }
      ],
      "name": "finalizeOutcome",
      "outputs": [],
      "stateMutability": "nonpayable",
      "type": "function"
    },
    {
      "inputs": [
        {
          "internalType": "bytes32",
          "name": "marketId",
          "type": "bytes32"
        }
      ],
      "name": "getOutcome",
      "outputs": [
        {
          "internalType": "uint8",
          "name": "result",
          "type": "uint8"
        },
        {
          "internalType": "address",
          "name": "oracle",
          "type": "address"
        },
        {
          "internalType": "uint256",
          "name": "timestamp",
          "type": "uint256"
        },
        {
          "internalType": "enum OracleAdapterV2.OutcomeStatus",
          "name": "status",
          "type": "uint8"
        }
      ],
      "stateMutability": "view",
      "type": "function"
    },
    {
      "inputs": [
        {
          "internalType": "bytes32",
          "name": "role",
          "type": "bytes32"
        }
      ],
      "name": "getRoleAdmin",
      "outputs": [
        {
          "internalType": "bytes32",
          "name": "",
          "type": "bytes32"
        }
      ],
      "stateMutability": "view",
      "type": "function"
    },
    {
      "inputs": [
        {
          "internalType": "bytes32",
          "name": "role",
          "type": "bytes32"
        },
        {
          "internalType": "address",
          "name": "account",
          "type": "address"
        }
      ],
      "name": "grantRole",
      "outputs": [],
      "stateMutability": "nonpayable",
      "type": "function"
    },
    {
      "inputs": [
        {
          "internalType": "bytes32",
          "name": "role",
          "type": "bytes32"
        },
        {
          "internalType": "address",
          "name": "account",
          "type": "address"
        }
      ],
      "name": "hasRole",
      "outputs": [
        {
          "internalType": "bool",
          "name": "",
          "type": "bool"
        }
      ],
      "stateMutability": "view",
      "type": "function"
    },
    {
      "inputs": [
        {
          "internalType": "address",
          "name": "_amm",
          "type": "address"
        },
        {
          "internalType": "address",
          "name": "_verifier",
          "type": "address"
        },
        {
          "internalType": "uint256",
          "name": "_disputeStake",
          "type": "uint256"
        },
        {
          "internalType": "address",
          "name": "defaultAdmin",
          "type": "address"
        }
      ],
      "name": "initialize",
      "outputs": [],
      "stateMutability": "nonpayable",
      "type": "function"
    },
    {
      "inputs": [
        {
          "internalType": "address",
          "name": "",
          "type": "address"
        }
      ],
      "name": "oracleReputation",
      "outputs": [
        {
          "internalType": "uint256",
          "name": "",
          "type": "uint256"
        }
      ],
      "stateMutability": "view",
      "type": "function"
    },
    {
      "inputs": [
        {
          "internalType": "bytes32",
          "name": "",
          "type": "bytes32"
        }
      ],
      "name": "outcomes",
      "outputs": [
        {
          "internalType": "uint8",
          "name": "result",
          "type": "uint8"
        },
        {
          "internalType": "address",
          "name": "oracle",
          "type": "address"
        },
        {
          "internalType": "uint256",
          "name": "timestamp",
          "type": "uint256"
        },
        {
          "internalType": "enum OracleAdapterV2.OutcomeStatus",
          "name": "status",
          "type": "uint8"
        },
        {
          "internalType": "bytes",
          "name": "proof",
          "type": "bytes"
        }
      ],
      "stateMutability": "view",
      "type": "function"
    },
    {
      "inputs": [],
      "name": "pause",
      "outputs": [],
      "stateMutability": "nonpayable",
      "type": "function"
    },
    {
      "inputs": [],
      "name": "paused",
      "outputs": [
        {
          "internalType": "bool",
          "name": "",
          "type": "bool"
        }
      ],
      "stateMutability": "view",
      "type": "function"
    },
    {
      "inputs": [
        {
          "internalType": "bytes32",
          "name": "marketId",
          "type": "bytes32"
        },
        {
          "internalType": "uint8",
          "name": "result",
          "type": "uint8"
        },
        {
          "internalType": "bytes",
          "name": "proof",
          "type": "bytes"
        }
      ],
      "name": "proposeOutcome",
      "outputs": [],
      "stateMutability": "nonpayable",
      "type": "function"
    },
    {
      "inputs": [],
      "name": "proxiableUUID",
      "outputs": [
        {
          "internalType": "bytes32",
          "name": "",
          "type": "bytes32"
        }
      ],
      "stateMutability": "view",
      "type": "function"
    },
    {
      "inputs": [
        {
          "internalType": "bytes32",
          "name": "role",
          "type": "bytes32"
        },
        {
          "internalType": "address",
          "name": "callerConfirmation",
          "type": "address"
        }
      ],
      "name": "renounceRole",
      "outputs": [],
      "stateMutability": "nonpayable",
      "type": "function"
    },
    {
      "inputs": [
        {
          "internalType": "bytes32",
          "name": "marketId",
          "type": "bytes32"
        },
        {
          "internalType": "bool",
          "name": "disputeValid",
          "type": "bool"
        },
        {
          "internalType": "uint8",
          "name": "finalResult",
          "type": "uint8"
        }
      ],
      "name": "resolveDispute",
      "outputs": [],
      "stateMutability": "nonpayable",
      "type": "function"
    },
    {
      "inputs": [
        {
          "internalType": "bytes32",
          "name": "role",
          "type": "bytes32"
        },
        {
          "internalType": "address",
          "name": "account",
          "type": "address"
        }
      ],
      "name": "revokeRole",
      "outputs": [],
      "stateMutability": "nonpayable",
      "type": "function"
    },
    {
      "inputs": [
        {
          "internalType": "address",
          "name": "_amm",
          "type": "address"
        }
      ],
      "name": "setAMM",
      "outputs": [],
      "stateMutability": "nonpayable",
      "type": "function"
    },
    {
      "inputs": [
        {
          "internalType": "uint256",
          "name": "_disputeStake",
          "type": "uint256"
        }
      ],
      "name": "setDisputeStake",
      "outputs": [],
      "stateMutability": "nonpayable",
      "type": "function"
    },
    {
      "inputs": [
        {
          "internalType": "address",
          "name": "_verifier",
          "type": "address"
        }
      ],
      "name": "setVerifier",
      "outputs": [],
      "stateMutability": "nonpayable",
      "type": "function"
    },
    {
      "inputs": [
        {
          "internalType": "bytes4",
          "name": "interfaceId",
          "type": "bytes4"
        }
      ],
      "name": "supportsInterface",
      "outputs": [
        {
          "internalType": "bool",
          "name": "",
          "type": "bool"
        }
      ],
      "stateMutability": "view",
      "type": "function"
    },
    {
      "inputs": [],
      "name": "unpause",
      "outputs": [],
      "stateMutability": "nonpayable",
      "type": "function"
    },
    {
      "inputs": [
        {
          "internalType": "address",
          "name": "newImplementation",
          "type": "address"
        },
        {
          "internalType": "bytes",
          "name": "data",
          "type": "bytes"
        }
      ],
      "name": "upgradeToAndCall",
      "outputs": [],
      "stateMutability": "payable",
      "type": "function"
    },
    {
      "inputs": [],
      "name": "verifier",
      "outputs": [
        {
          "internalType": "contract IVerifierV2",
          "name": "",
          "type": "address"
        }
      ],
      "stateMutability": "view",
      "type": "function"
    }
  ],
  "bytecode": "0x60a060405230608052348015610013575f80fd5b5061001c610021565b6100d3565b7ff0c57e16840df040f15088dc2f81fe391c3923bec73e23a9662efc9c229c6a00805468010000000000000000900460ff16156100715760405163f92ee8a960e01b815260040160405180910390fd5b80546001600160401b03908116146100d05780546001600160401b0319166001600160401b0390811782556040519081527fc7f505b2f371ae2175ee4913f4499e1f2633a7b5936321eed1cdaeb6115181d29060200160405180910390a15b50565b608051612479620000fa5f395f81816118d1015281816118fa0152611a5b01526124795ff3fe6080604052600436106101f1575f3560e01c806361d36d0811610108578063aa8ea3a01161009d578063c3a079ed1161006d578063c3a079ed1461067e578063d4356e7214610694578063d547741f146106c4578063e63ab1e9146106e3578063f72c0d8b14610703575f80fd5b8063aa8ea3a0146105d0578063ad3cb1cc146105ef578063be2030941461062c578063bfe42a371461064b575f80fd5b806391d14854116100d857806391d1485414610569578063a217fddf14610588578063a5bbe22b1461059b578063a9c157d1146105b1575f80fd5b806361d36d08146104ec57806374bfa42f1461050b5780638456cb59146105365780638cabc8b31461054a575f80fd5b80632f2ff15d116101895780634f1ef286116101595780634f1ef2861461042357806352d1902d146104365780635437988d1461044a5780635c975abb146104695780635d1a3b821461048c575f80fd5b80632f2ff15d146103bc578063300a0a71146103db57806336568abe146103f05780633f4ba83a1461040f575f80fd5b8063248a9ca3116101c4578063248a9ca3146103295780632a943945146103485780632b7ac3f31461037e5780632c4ee4dd1461039d575f80fd5b806301ffc9a7146101f557806307e2cea5146102295780630ced64b41461026a57806311be19971461028b575b5f80fd5b348015610200575f80fd5b5061021461020f366004611d9f565b610736565b60405190151581526020015b60405180910390f35b348015610234575f80fd5b5061025c7f68e79a7bf1e0bc45d0a330c573bc367f9cf464fd326078812f301165fbda4ef181565b604051908152602001610220565b348015610275575f80fd5b50610289610284366004611ddb565b61076c565b005b348015610296575f80fd5b506102ec6102a5366004611e05565b60046020525f908152604090208054600182015460028301546003909301546001600160a01b0383169360ff600160a01b9094048416939091808216916101009091041686565b604080516001600160a01b03909716875260ff909516602087015293850192909252606084015215156080830152151560a082015260c001610220565b348015610334575f80fd5b5061025c610343366004611e05565b610a3d565b348015610353575f80fd5b505f54610366906001600160a01b031681565b6040516001600160a01b039091168152602001610220565b348015610389575f80fd5b50600154610366906001600160a01b031681565b3480156103a8575f80fd5b506102896103b7366004611e29565b610a5d565b3480156103c7575f80fd5b506102896103d6366004611e7a565b610d6d565b3480156103e6575f80fd5b5061025c60025481565b3480156103fb575f80fd5b5061028961040a366004611e7a565b610d89565b34801561041a575f80fd5b50610289610dc1565b610289610431366004611eaf565b610de3565b348015610441575f80fd5b5061025c610dfe565b348015610455575f80fd5b50610289610464366004611f6b565b610e19565b348015610474575f80fd5b505f805160206124048339815191525460ff16610214565b348015610497575f80fd5b506104dc6104a6366004611e05565b5f9081526003602052604090208054600182015460029092015460ff808316946101009093046001600160a01b03169392911690565b6040516102209493929190611fb8565b3480156104f7575f80fd5b50610289610506366004611e05565b610e46565b348015610516575f80fd5b5061025c610525366004611f6b565b60056020525f908152604090205481565b348015610541575f80fd5b50610289610e56565b348015610555575f80fd5b50610289610564366004611fe5565b610e75565b348015610574575f80fd5b50610214610583366004611e7a565b61117f565b348015610593575f80fd5b5061025c5f81565b3480156105a6575f80fd5b5061025c6202a30081565b3480156105bc575f80fd5b506102896105cb366004611e05565b6111b5565b3480156105db575f80fd5b506102896105ea366004611f6b565b6113d1565b3480156105fa575f80fd5b5061061f604051806040016040528060058152602001640352e302e360dc1b81525081565b60405161022091906120b2565b348015610637575f80fd5b506102896106463660046120c4565b6113fd565b348015610656575f80fd5b5061025c7f7b8bb8356a3f32f5c111ff23f050d97f08988e0883529ea7bff3b918887a6e0e81565b348015610689575f80fd5b5061025c6201518081565b34801561069f575f80fd5b506106b36106ae366004611e05565b6115e4565b60405161022095949392919061210e565b3480156106cf575f80fd5b506102896106de366004611e7a565b6116ab565b3480156106ee575f80fd5b5061025c5f805160206123c483398151915281565b34801561070e575f80fd5b5061025c7f189ab7a9244df0848122154315af71fe140f3db0fe014031783b0946b8c9d2e381565b5f6001600160e01b03198216637965db0b60e01b148061076657506301ffc9a760e01b6001600160e01b03198316145b92915050565b6107746116c7565b61077c6116fe565b5f8281526003602052604090206001600282015460ff1660038111156107a4576107a4611f84565b146107ed5760405162461bcd60e51b815260206004820152601460248201527313dc9858db194e881b9bdd081c1c9bdc1bdcd95960621b60448201526064015b60405180910390fd5b620151808160010154610800919061216b565b421061084e5760405162461bcd60e51b815260206004820152601e60248201527f4f7261636c653a206368616c6c656e676520706572696f6420656e646564000060448201526064016107e4565b60ff8216158061086157508160ff166001145b61087d5760405162461bcd60e51b81526004016107e49061217e565b805460ff908116908316036108ca5760405162461bcd60e51b815260206004820152601360248201527213dc9858db194e881cd85b59481c995cdd5b1d606a1b60448201526064016107e4565b5f838152600460205260409020546001600160a01b03161561092e5760405162461bcd60e51b815260206004820152601860248201527f4f7261636c653a20616c7265616479206469737075746564000000000000000060448201526064016107e4565b6040805160c0810182523380825260ff85811660208085018281526002805487890190815242606089019081525f60808a0181815260a08b018281528f835260048852918c90209a518b549651909916600160a01b026001600160a81b03199096166001600160a01b0390991698909817949094178955905160018901555187820155935160039096018054915115156101000261ff00199715159790971661ffff199092169190911795909517909455858201805460ff191690921790915583519081529251909286927f0e03743f42d73e536f05025a59e77abfc3f1915c5c0b3e21da3eb86aab28efc092918290030190a350610a3960015f8051602061242483398151915255565b5050565b5f9081525f805160206123e4833981519152602052604090206001015490565b7f7b8bb8356a3f32f5c111ff23f050d97f08988e0883529ea7bff3b918887a6e0e610a8781611743565b610a8f6116c7565b5f848152600360209081526040808320600490925290912060028083015460ff166003811115610ac157610ac1611f84565b14610b075760405162461bcd60e51b815260206004820152601660248201527513dc9858db194e881b9bdd0818da185b1b195b99d95960521b60448201526064016107e4565b600381015460ff1615610b5c5760405162461bcd60e51b815260206004820152601860248201527f4f7261636c653a20616c7265616479207265736f6c766564000000000000000060448201526064016107e4565b60ff84161580610b6f57508360ff166001145b610b8b5760405162461bcd60e51b81526004016107e49061217e565b600381018054861580156101000261ffff1990921691909117600117909155610c5f57815460ff191660ff85161780835561010090046001600160a01b03165f9081526005602052604090205415610c0c57815461010090046001600160a01b03165f908152600560205260408120805491610c06836121ae565b91905055505b815461010090046001600160a01b03165f818152600560209081526040918290205491519182527f2870d1c2b726c798ed4f513414afcfcf896629c39ba7226cd8b17df08c6f3589910160405180910390a25b60028201805460ff19166003179055815460408051871515815260ff909216602083015287917fe56e26f8b4fcedb6041d27993d386e28b1b1d9286ce399a06b6bee65608af978910160405180910390a2815460405160ff909116815286907f496e6d39b96d2c58eb2afccd05a8e7b49548fe5019de0d2df1ee92e8470272049060200160405180910390a25f548254604051636f83311b60e11b81526004810189905260ff90911660248201526001600160a01b039091169063df066236906044015f604051808303815f87803b158015610d39575f80fd5b505af1158015610d4b573d5f803e3d5ffd5b505050505050610d6760015f8051602061242483398151915255565b50505050565b610d7682610a3d565b610d7f81611743565b610d67838361174d565b6001600160a01b0381163314610db25760405163334bd91960e11b815260040160405180910390fd5b610dbc82826117ee565b505050565b5f805160206123c4833981519152610dd881611743565b610de0611867565b50565b610deb6118c6565b610df48261196a565b610a398282611994565b5f610e07611a50565b505f805160206123a483398151915290565b5f610e2381611743565b50600180546001600160a01b0319166001600160a01b0392909216919091179055565b5f610e5081611743565b50600255565b5f805160206123c4833981519152610e6d81611743565b610de0611a99565b7f68e79a7bf1e0bc45d0a330c573bc367f9cf464fd326078812f301165fbda4ef1610e9f81611743565b610ea76116c7565b610eaf6116fe565b60ff84161580610ec257508360ff166001145b610ede5760405162461bcd60e51b81526004016107e49061217e565b5f85815260036020819052604082206002015460ff1690811115610f0457610f04611f84565b14610f4a5760405162461bcd60e51b81526020600482015260166024820152754f7261636c653a206f7574636f6d652065786973747360501b60448201526064016107e4565b6001546001600160a01b031615801590610f6357508115155b1561102157600154604051639cc8725d60e01b81526001600160a01b0390911690639cc8725d90610f9e9088908890889088906004016121c3565b602060405180830381865afa158015610fb9573d5f803e3d5ffd5b505050506040513d601f19601f82011682018060405250810190610fdd9190612202565b6110215760405162461bcd60e51b815260206004820152601560248201527427b930b1b6329d1034b73b30b634b210383937b7b360591b60448201526064016107e4565b6040805160a08101825260ff861681523360208201524291810191909152606081016001815260200184848080601f0160208091040260200160405190810160405280939291908181526020018383808284375f9201829052509390945250508781526003602081815260409283902085518154928701516001600160a01b0316610100026001600160a81b031990931660ff909116179190911781559184015160018084019190915560608501516002840180549495509093909260ff1991909116919084908111156110f7576110f7611f84565b0217905550608082015160038201906111109082612299565b503391508690507f7d1f7b5de96805645a3416b99e7de069eeaa34ba87b5345d7d147cc86fcab99686611146620151804261216b565b6040805160ff909316835260208301919091520160405180910390a361117860015f8051602061242483398151915255565b5050505050565b5f9182525f805160206123e4833981519152602090815260408084206001600160a01b0393909316845291905290205460ff1690565b6111bd6116c7565b5f8181526003602052604090206001600282015460ff1660038111156111e5576111e5611f84565b146112295760405162461bcd60e51b815260206004820152601460248201527313dc9858db194e881b9bdd081c1c9bdc1bdcd95960621b60448201526064016107e4565b62015180816001015461123c919061216b565b42101561128b5760405162461bcd60e51b815260206004820152601f60248201527f4f7261636c653a206368616c6c656e676520706572696f64206163746976650060448201526064016107e4565b60028101805460ff1916600317905580546001600160a01b03610100909104165f9081526005602052604081208054916112c483612359565b9091555050805461010090046001600160a01b03165f818152600560209081526040918290205491519182527f2870d1c2b726c798ed4f513414afcfcf896629c39ba7226cd8b17df08c6f3589910160405180910390a2805460405160ff909116815282907f496e6d39b96d2c58eb2afccd05a8e7b49548fe5019de0d2df1ee92e8470272049060200160405180910390a25f548154604051636f83311b60e11b81526004810185905260ff90911660248201526001600160a01b039091169063df066236906044015f604051808303815f87803b1580156113a4575f80fd5b505af11580156113b6573d5f803e3d5ffd5b5050505050610de060015f8051602061242483398151915255565b5f6113db81611743565b505f80546001600160a01b0319166001600160a01b0392909216919091179055565b5f611406611ae1565b805490915060ff600160401b820416159067ffffffffffffffff165f8115801561142d5750825b90505f8267ffffffffffffffff1660011480156114495750303b155b905081158015611457575080155b156114755760405163f92ee8a960e01b815260040160405180910390fd5b845467ffffffffffffffff19166001178555831561149f57845460ff60401b1916600160401b1785555b6114a7611b09565b6114af611b09565b6114b7611b11565b6114bf611b09565b5f80546001600160a01b03808c166001600160a01b031992831617835560018054918c169190921617905560028890556114f9908761174d565b506115247f68e79a7bf1e0bc45d0a330c573bc367f9cf464fd326078812f301165fbda4ef18761174d565b5061154f7f7b8bb8356a3f32f5c111ff23f050d97f08988e0883529ea7bff3b918887a6e0e8761174d565b506115675f805160206123c48339815191528761174d565b506115927f189ab7a9244df0848122154315af71fe140f3db0fe014031783b0946b8c9d2e38761174d565b5083156115d957845460ff60401b19168555604051600181527fc7f505b2f371ae2175ee4913f4499e1f2633a7b5936321eed1cdaeb6115181d29060200160405180910390a15b505050505050505050565b600360208190525f9182526040909120805460018201546002830154938301805460ff808516966101009095046001600160a01b03169593941692919061162a9061221d565b80601f01602080910402602001604051908101604052809291908181526020018280546116569061221d565b80156116a15780601f10611678576101008083540402835291602001916116a1565b820191905f5260205f20905b81548152906001019060200180831161168457829003601f168201915b5050505050905085565b6116b482610a3d565b6116bd81611743565b610d6783836117ee565b5f805160206124248339815191528054600119016116f857604051633ee5aeb560e01b815260040160405180910390fd5b60029055565b5f805160206124048339815191525460ff161561172e5760405163d93c066560e01b815260040160405180910390fd5b565b60015f8051602061242483398151915255565b610de08133611b21565b5f5f805160206123e4833981519152611766848461117f565b6117e5575f848152602082815260408083206001600160a01b03871684529091529020805460ff1916600117905561179b3390565b6001600160a01b0316836001600160a01b0316857f2f8788117e7eff1d82e926ec794901d17c78024a50270940304540a733656f0d60405160405180910390a46001915050610766565b5f915050610766565b5f5f805160206123e4833981519152611807848461117f565b156117e5575f848152602082815260408083206001600160a01b0387168085529252808320805460ff1916905551339287917ff6391f5c32d9c69d2a47ea670b442974b53935d1edc7fd64eb21e047a839171b9190a46001915050610766565b61186f611b5a565b5f80516020612404833981519152805460ff191681557f5db9ee0a495bf2e6ff9c91a7834c1ba4fdd244a5e8aa4e537bd38aeae4b073aa335b6040516001600160a01b03909116815260200160405180910390a150565b306001600160a01b037f000000000000000000000000000000000000000000000000000000000000000016148061194c57507f00000000000000000000000000000000000000000000000000000000000000006001600160a01b03166119405f805160206123a4833981519152546001600160a01b031690565b6001600160a01b031614155b1561172e5760405163703e46dd60e11b815260040160405180910390fd5b7f189ab7a9244df0848122154315af71fe140f3db0fe014031783b0946b8c9d2e3610a3981611743565b816001600160a01b03166352d1902d6040518163ffffffff1660e01b8152600401602060405180830381865afa9250505080156119ee575060408051601f3d908101601f191682019092526119eb91810190612371565b60015b611a1657604051634c9c8ce360e01b81526001600160a01b03831660048201526024016107e4565b5f805160206123a48339815191528114611a4657604051632a87526960e21b8152600481018290526024016107e4565b610dbc8383611b89565b306001600160a01b037f0000000000000000000000000000000000000000000000000000000000000000161461172e5760405163703e46dd60e11b815260040160405180910390fd5b611aa16116fe565b5f80516020612404833981519152805460ff191660011781557f62e78cea01bee320cd4e420270b5ea74000d11b0c9f74754ebdbfc544b05a258336118a8565b5f807ff0c57e16840df040f15088dc2f81fe391c3923bec73e23a9662efc9c229c6a00610766565b61172e611bde565b611b19611bde565b61172e611c03565b611b2b828261117f565b610a395760405163e2517d3f60e01b81526001600160a01b0382166004820152602481018390526044016107e4565b5f805160206124048339815191525460ff1661172e57604051638dfc202b60e01b815260040160405180910390fd5b611b9282611c0b565b6040516001600160a01b038316907fbc7cd75a20ee27fd9adebab32041f755214dbc6bffa90cc0225b39da2e5c2d3b905f90a2805115611bd657610dbc8282611c6e565b610a39611ce0565b611be6611cff565b61172e57604051631afcd79f60e31b815260040160405180910390fd5b611730611bde565b806001600160a01b03163b5f03611c4057604051634c9c8ce360e01b81526001600160a01b03821660048201526024016107e4565b5f805160206123a483398151915280546001600160a01b0319166001600160a01b0392909216919091179055565b60605f80846001600160a01b031684604051611c8a9190612388565b5f60405180830381855af49150503d805f8114611cc2576040519150601f19603f3d011682016040523d82523d5f602084013e611cc7565b606091505b5091509150611cd7858383611d18565b95945050505050565b341561172e5760405163b398979f60e01b815260040160405180910390fd5b5f611d08611ae1565b54600160401b900460ff16919050565b606082611d2d57611d2882611d77565b611d70565b8151158015611d4457506001600160a01b0384163b155b15611d6d57604051639996b31560e01b81526001600160a01b03851660048201526024016107e4565b50805b9392505050565b805115611d8657805160208201fd5b60405163d6bda27560e01b815260040160405180910390fd5b5f60208284031215611daf575f80fd5b81356001600160e01b031981168114611d70575f80fd5b803560ff81168114611dd6575f80fd5b919050565b5f8060408385031215611dec575f80fd5b82359150611dfc60208401611dc6565b90509250929050565b5f60208284031215611e15575f80fd5b5035919050565b8015158114610de0575f80fd5b5f805f60608486031215611e3b575f80fd5b833592506020840135611e4d81611e1c565b9150611e5b60408501611dc6565b90509250925092565b80356001600160a01b0381168114611dd6575f80fd5b5f8060408385031215611e8b575f80fd5b82359150611dfc60208401611e64565b634e487b7160e01b5f52604160045260245ffd5b5f8060408385031215611ec0575f80fd5b611ec983611e64565b9150602083013567ffffffffffffffff80821115611ee5575f80fd5b818501915085601f830112611ef8575f80fd5b813581811115611f0a57611f0a611e9b565b604051601f8201601f19908116603f01168101908382118183101715611f3257611f32611e9b565b81604052828152886020848701011115611f4a575f80fd5b826020860160208301375f6020848301015280955050505050509250929050565b5f60208284031215611f7b575f80fd5b611d7082611e64565b634e487b7160e01b5f52602160045260245ffd5b60048110611fb457634e487b7160e01b5f52602160045260245ffd5b9052565b60ff851681526001600160a01b03841660208201526040810183905260808101611cd76060830184611f98565b5f805f8060608587031215611ff8575f80fd5b8435935061200860208601611dc6565b9250604085013567ffffffffffffffff80821115612024575f80fd5b818701915087601f830112612037575f80fd5b813581811115612045575f80fd5b886020828501011115612056575f80fd5b95989497505060200194505050565b5f5b8381101561207f578181015183820152602001612067565b50505f910152565b5f815180845261209e816020860160208601612065565b601f01601f19169290920160200192915050565b602081525f611d706020830184612087565b5f805f80608085870312156120d7575f80fd5b6120e085611e64565b93506120ee60208601611e64565b92506040850135915061210360608601611e64565b905092959194509250565b60ff861681526001600160a01b0385166020820152604081018490526121376060820184611f98565b60a060808201525f61214c60a0830184612087565b979650505050505050565b634e487b7160e01b5f52601160045260245ffd5b8082018082111561076657610766612157565b60208082526016908201527513dc9858db194e881a5b9d985b1a59081c995cdd5b1d60521b604082015260600190565b5f816121bc576121bc612157565b505f190190565b84815260ff8416602082015260606040820152816060820152818360808301375f818301608090810191909152601f909201601f191601019392505050565b5f60208284031215612212575f80fd5b8151611d7081611e1c565b600181811c9082168061223157607f821691505b60208210810361224f57634e487b7160e01b5f52602260045260245ffd5b50919050565b601f821115610dbc57805f5260205f20601f840160051c8101602085101561227a5750805b601f840160051c820191505b81811015611178575f8155600101612286565b815167ffffffffffffffff8111156122b3576122b3611e9b565b6122c7816122c1845461221d565b84612255565b602080601f8311600181146122fa575f84156122e35750858301515b5f19600386901b1c1916600185901b178555612351565b5f85815260208120601f198616915b8281101561232857888601518255948401946001909101908401612309565b508582101561234557878501515f19600388901b60f8161c191681555b505060018460011b0185555b505050505050565b5f6001820161236a5761236a612157565b5060010190565b5f60208284031215612381575f80fd5b5051919050565b5f8251612399818460208701612065565b919091019291505056fe360894a13ba1a3210667c828492db98dca3e2076cc3735a920a3ca505d382bbc65d7a28e3265b37a6474929f336521b332c1681b933f6cb9f3376673440d862a02dd7bc7dec4dceedda775e58dd541e08a116c6c53815c0bd028192f7b626800cd5ed15c6e187e77e9aee88184c21f4f2182ab5827cb3b7e07fbedcd63f033009b779b17422d0df92223018b32b4d1fa46e071723d6817e2486d003becc55f00a264697066735822122025f70949e80e7d753cd7d22c9f910205b545f3d4d89c333c0458ef96bfaadebb64736f6c63430008180033",
  "linkReferences": {},
  "deployedLinkReferences": {}
}