{
  "_format": "hh-sol-artifact-1",
  "contractName": "OracleXVault",
  "sourceName": "contracts/OracleXVault.sol",
  "abi": [
    {
      "inputs": [
        {
          "internalType": "contract IERC20",
          "name": "_usdc",
          "type": "address"
        },
        {
          "internalType": "address",
          "name": "_factory",
          "type": "address"
        },
        {
          "internalType": "address",
          "name": "_oracleAdapter",
          "type": "address"
        },
        {
          "internalType": "bytes32",
          "name": "_marketId",
          "type": "bytes32"
        },
        {
          "internalType": "address",
          "name": "_owner",
          "type": "address"
        }
      ],
      "stateMutability": "nonpayable",
      "type": "constructor"
    },
    {
      "anonymous": false,
      "inputs": [
        {
          "indexed": false,
          "internalType": "uint256",
          "name": "yesAmount",
          "type": "uint256"
        },
        {
          "indexed": false,
          "internalType": "uint256",
          "name": "noAmount",
          "type": "uint256"
        }
      ],
      "name": "Allocated",
      "type": "event"
    },
    {
      "anonymous": false,
      "inputs": [
        {
          "indexed": true,
          "internalType": "address",
          "name": "user",
          "type": "address"
        },
        {
          "indexed": true,
          "internalType": "uint8",
          "name": "side",
          "type": "uint8"
        },
        {
          "indexed": false,
          "internalType": "uint256",
          "name": "amount",
          "type": "uint256"
        }
      ],
      "name": "Deposited",
      "type": "event"
    },
    {
      "anonymous": false,
      "inputs": [
        {
          "indexed": true,
          "internalType": "bytes32",
          "name": "marketId",
          "type": "bytes32"
        },
        {
          "indexed": true,
          "internalType": "uint8",
          "name": "winningSide",
          "type": "uint8"
        }
      ],
      "name": "Settled",
      "type": "event"
    },
    {
      "anonymous": false,
      "inputs": [
        {
          "indexed": false,
          "internalType": "enum OracleXVault.State",
          "name": "from",
          "type": "uint8"
        },
        {
          "indexed": false,
          "internalType": "enum OracleXVault.State",
          "name": "to",
          "type": "uint8"
        }
      ],
      "name": "StateChanged",
      "type": "event"
    },
    {
      "anonymous": false,
      "inputs": [
        {
          "indexed": true,
          "internalType": "address",
          "name": "user",
          "type": "address"
        },
        {
          "indexed": false,
          "internalType": "uint256",
          "name": "amount",
          "type": "uint256"
        }
      ],
      "name": "Withdrawn",
      "type": "event"
    },
    {
      "inputs": [
        {
          "internalType": "uint256",
          "name": "yesAmount",
          "type": "uint256"
        },
        {
          "internalType": "uint256",
          "name": "noAmount",
          "type": "uint256"
        }
      ],
      "name": "allocateLiquidity",
      "outputs": [],
      "stateMutability": "nonpayable",
      "type": "function"
    },
    {
      "inputs": [],
      "name": "allocatedNo",
      "outputs": [
        {
          "internalType": "uint256",
          "name": "",
          "type": "uint256"
        }
      ],
      "stateMutability": "view",
      "type": "function"
    },
    {
      "inputs": [],
      "name": "allocatedYes",
      "outputs": [
        {
          "internalType": "uint256",
          "name": "",
          "type": "uint256"
        }
      ],
      "stateMutability": "view",
      "type": "function"
    },
    {
      "inputs": [
        {
          "internalType": "uint8",
          "name": "side",
          "type": "uint8"
        },
        {
          "internalType": "uint256",
          "name": "amount",
          "type": "uint256"
        }
      ],
      "name": "deposit",
      "outputs": [],
      "stateMutability": "nonpayable",
      "type": "function"
    },
    {
      "inputs": [],
      "name": "factory",
      "outputs": [
        {
          "internalType": "address",
          "name": "",
          "type": "address"
        }
      ],
      "stateMutability": "view",
      "type": "function"
    },
    {
      "inputs": [],
      "name": "marketId",
      "outputs": [
        {
          "internalType": "bytes32",
          "name": "",
          "type": "bytes32"
        }
      ],
      "stateMutability": "view",
      "type": "function"
    },
    {
      "inputs": [
        {
          "internalType": "address",
          "name": "",
          "type": "address"
        }
      ],
      "name": "noBalances",
      "outputs": [
        {
          "internalType": "uint256",
          "name": "",
          "type": "uint256"
        }
      ],
      "stateMutability": "view",
      "type": "function"
    },
    {
      "inputs": [],
      "name": "oracleAdapter",
      "outputs": [
        {
          "internalType": "address",
          "name": "",
          "type": "address"
        }
      ],
      "stateMutability": "view",
      "type": "function"
    },
    {
      "inputs": [],
      "name": "owner",
      "outputs": [
        {
          "internalType": "address",
          "name": "",
          "type": "address"
        }
      ],
      "stateMutability": "view",
      "type": "function"
    },
    {
      "inputs": [
        {
          "internalType": "uint8",
          "name": "_winningSide",
          "type": "uint8"
        }
      ],
      "name": "settle",
      "outputs": [],
      "stateMutability": "nonpayable",
      "type": "function"
    },
    {
      "inputs": [],
      "name": "state",
      "outputs": [
        {
          "internalType": "enum OracleXVault.State",
          "name": "",
          "type": "uint8"
        }
      ],
      "stateMutability": "view",
      "type": "function"
    },
    {
      "inputs": [],
      "name": "totalNo",
      "outputs": [
        {
          "internalType": "uint256",
          "name": "",
          "type": "uint256"
        }
      ],
      "stateMutability": "view",
      "type": "function"
    },
    {
      "inputs": [],
      "name": "totalYes",
      "outputs": [
        {
          "internalType": "uint256",
          "name": "",
          "type": "uint256"
        }
      ],
      "stateMutability": "view",
      "type": "function"
    },
    {
      "inputs": [],
      "name": "usdc",
      "outputs": [
        {
          "internalType": "contract IERC20",
          "name": "",
          "type": "address"
        }
      ],
      "stateMutability": "view",
      "type": "function"
    },
    {
      "inputs": [],
      "name": "winningSide",
      "outputs": [
        {
          "internalType": "uint8",
          "name": "",
          "type": "uint8"
        }
      ],
      "stateMutability": "view",
      "type": "function"
    },
    {
      "inputs": [],
      "name": "withdraw",
      "outputs": [],
      "stateMutability": "nonpayable",
      "type": "function"
    },
    {
      "inputs": [
        {
          "internalType": "address",
          "name": "",
          "type": "address"
        }
      ],
      "name": "yesBalances",
      "outputs": [
        {
          "internalType": "uint256",
          "name": "",
          "type": "uint256"
        }
      ],
      "stateMutability": "view",
      "type": "function"
    }
  ],
  "bytecode": "0x61010060405234801561001157600080fd5b50604051610ea3380380610ea38339810160408190526100309161007f565b6001600160a01b0394851660805292841660a05290831660c05260e052600080546001600160a81b031916919092161790556100ea565b6001600160a01b038116811461007c57600080fd5b50565b600080600080600060a0868803121561009757600080fd5b85516100a281610067565b60208701519095506100b381610067565b60408701519094506100c481610067565b6060870151608088015191945092506100dc81610067565b809150509295509295909350565b60805160a05160c05160e051610d5d6101466000396000818161019d015261046f01526000818161013201526102e30152600081816102540152610784015260008181610176015281816106940152610a140152610d5d6000f3fe608060405234801561001057600080fd5b506004361061010b5760003560e01c8063a3b5b2b3116100a2578063c45a015511610071578063c45a01551461024f578063cd2013e214610276578063ea1f466014610296578063f4d4c9d71461029f578063fbf06338146102b257600080fd5b8063a3b5b2b3146101fc578063aa0e6bc414610205578063af00888314610225578063c19d93fb1461022e57600080fd5b80636ed71ede116100de5780636ed71ede1461019857806388ba8dd6146101cd5780638da5cb5b146101d65780638df4ad12146101e957600080fd5b806328cc1b78146101105780633ccfd60b146101255780633d9f31631461012d5780633e413bee14610171575b600080fd5b61012361011e366004610ba5565b6102d8565b005b6101236104b9565b6101547f000000000000000000000000000000000000000000000000000000000000000081565b6040516001600160a01b0390911681526020015b60405180910390f35b6101547f000000000000000000000000000000000000000000000000000000000000000081565b6101bf7f000000000000000000000000000000000000000000000000000000000000000081565b604051908152602001610168565b6101bf60015481565b600054610154906001600160a01b031681565b6101236101f7366004610bc7565b610779565b6101bf60055481565b6101bf610213366004610be9565b60046020526000908152604090205481565b6101bf60025481565b60005461024290600160a01b900460ff1681565b6040516101689190610c4a565b6101547f000000000000000000000000000000000000000000000000000000000000000081565b6101bf610284366004610be9565b60036020526000908152604090205481565b6101bf60065481565b6101236102ad366004610c5e565b610912565b6000546102c690600160a81b900460ff1681565b60405160ff9091168152602001610168565b336001600160a01b037f000000000000000000000000000000000000000000000000000000000000000016146103425760405162461bcd60e51b815260206004820152600a6024820152696e6f74206f7261636c6560b01b60448201526064015b60405180910390fd5b6002600054600160a01b900460ff16600281111561036257610362610c12565b036103995760405162461bcd60e51b8152602060048201526007602482015266616c726561647960c81b6044820152606401610339565b60ff811615806103ac57508060ff166001145b6103e35760405162461bcd60e51b8152602060048201526008602482015267626164207369646560c01b6044820152606401610339565b6000805460ff838116600160a81b0260ff60a01b19811661ffff60a01b19841617600160a11b1793849055604051600160a01b60ff60a81b199094169091178390048216937fe8a97ea87e4388fa22d496b95a8ed5ced6717f49790318de2b928aaf37a021d89361045d9386939190920490911690610c88565b60405180910390a160405160ff8316907f0000000000000000000000000000000000000000000000000000000000000000907f0c2d9797d5715fc35a46380f6116b7cc3e025305d6b552e9a747b36cb808481590600090a35050565b6002600054600160a01b900460ff1660028111156104d9576104d9610c12565b146105145760405162461bcd60e51b815260206004820152600b60248201526a1b9bdd081cd95d1d1b195960aa1b6044820152606401610339565b60008054600160a81b900460ff166001036105b557336000908152600360205260409020548061056f5760405162461bcd60e51b81526020600482015260066024820152651b9bc818985b60d21b6044820152606401610339565b3360009081526003602052604081205560015460025481156105ad57816105968285610cb9565b6105a09190610cd0565b6105aa9084610cf2565b93505b50505061063d565b33600090815260046020526040902054806105fb5760405162461bcd60e51b81526020600482015260066024820152651b9bc818985b60d21b6044820152606401610339565b33600090815260046020526040812055600254600154811561063957816106228285610cb9565b61062c9190610cd0565b6106369084610cf2565b93505b5050505b600081116106785760405162461bcd60e51b81526020600482015260086024820152677a65726f2070617960c01b6044820152606401610339565b60405163a9059cbb60e01b8152336004820152602481018290527f00000000000000000000000000000000000000000000000000000000000000006001600160a01b03169063a9059cbb906044016020604051808303816000875af11580156106e5573d6000803e3d6000fd5b505050506040513d601f19601f820116820180604052508101906107099190610d05565b6107415760405162461bcd60e51b81526020600482015260096024820152681e19995c8819985a5b60ba1b6044820152606401610339565b60405181815233907f7084f5476618d8e60b11ef0d7d3f06914655adb8793e28ff7f018d4c76d505d59060200160405180910390a250565b336001600160a01b037f00000000000000000000000000000000000000000000000000000000000000001614806107ba57506000546001600160a01b031633145b6107f15760405162461bcd60e51b81526020600482015260086024820152670dcdee840c2eae8d60c31b6044820152606401610339565b6002600054600160a01b900460ff16600281111561081157610811610c12565b036108485760405162461bcd60e51b81526020600482015260076024820152661cd95d1d1b195960ca1b6044820152606401610339565b6005829055600681905560008054600160a01b900460ff16600281111561087157610871610c12565b036108d5576000805460ff60a01b198116600160a01b9081179283905560405160ff928290048316937fe8a97ea87e4388fa22d496b95a8ed5ced6717f49790318de2b928aaf37a021d8936108cb93869392041690610c88565b60405180910390a1505b60408051838152602081018390527f06686aaa593b19d01617ac400575a79693899102504b038ef5e3371ff51e4d9f910160405180910390a15050565b60008054600160a01b900460ff16600281111561093157610931610c12565b1461096d5760405162461bcd60e51b815260206004820152600c60248201526b1d985d5b1d0818db1bdcd95960a21b6044820152606401610339565b60ff8216158061098057508160ff166001145b6109b75760405162461bcd60e51b8152602060048201526008602482015267626164207369646560c01b6044820152606401610339565b600081116109f25760405162461bcd60e51b81526020600482015260086024820152671e995c9bc8185b5d60c21b6044820152606401610339565b6040516323b872dd60e01b8152336004820152306024820152604481018290527f00000000000000000000000000000000000000000000000000000000000000006001600160a01b0316906323b872dd906064016020604051808303816000875af1158015610a65573d6000803e3d6000fd5b505050506040513d601f19601f82011682018060405250810190610a899190610d05565b610ac55760405162461bcd60e51b815260206004820152600d60248201526c1e19995c919c9bdb4819985a5b609a1b6044820152606401610339565b8160ff16600103610b13573360009081526003602052604081208054839290610aef908490610cf2565b925050819055508060016000828254610b089190610cf2565b90915550610b519050565b3360009081526004602052604081208054839290610b32908490610cf2565b925050819055508060026000828254610b4b9190610cf2565b90915550505b60405181815260ff83169033907f1d0787aee899a49ef81d0b11da9aca5455b46aefed042a41bd398d74619cab009060200160405180910390a35050565b803560ff81168114610ba057600080fd5b919050565b600060208284031215610bb757600080fd5b610bc082610b8f565b9392505050565b60008060408385031215610bda57600080fd5b50508035926020909101359150565b600060208284031215610bfb57600080fd5b81356001600160a01b0381168114610bc057600080fd5b634e487b7160e01b600052602160045260246000fd5b60038110610c4657634e487b7160e01b600052602160045260246000fd5b9052565b60208101610c588284610c28565b92915050565b60008060408385031215610c7157600080fd5b610c7a83610b8f565b946020939093013593505050565b60408101610c968285610c28565b610bc06020830184610c28565b634e487b7160e01b600052601160045260246000fd5b8082028115828204841417610c5857610c58610ca3565b600082610ced57634e487b7160e01b600052601260045260246000fd5b500490565b80820180821115610c5857610c58610ca3565b600060208284031215610d1757600080fd5b81518015158114610bc057600080fdfea26469706673582212201164ac2842c035fc82144bc9427813c4059806c3a644707805a6567f868d694864736f6c63430008140033",
  "linkReferences": {},
  "deployedLinkReferences": {}
}