{
  "_format": "hh-sol-artifact-1",
  "contractName": "VerifierV2",
  "sourceName": "contracts-v2/VerifierV2.sol",
  "abi": [
    {
      "inputs": [],
      "stateMutability": "nonpayable",
      "type": "constructor"
    },
    {
      "inputs": [],
      "name": "AccessControlBadConfirmation",
      "type": "error"
    },
    {
      "inputs": [
        {
          "internalType": "address",
          "name": "account",
          "type": "address"
        },
        {
          "internalType": "bytes32",
          "name": "neededRole",
          "type": "bytes32"
        }
      ],
      "name": "AccessControlUnauthorizedAccount",
      "type": "error"
    },
    {
      "inputs": [
        {
          "internalType": "address",
          "name": "target",
          "type": "address"
        }
      ],
      "name": "AddressEmptyCode",
      "type": "error"
    },
    {
      "inputs": [
        {
          "internalType": "address",
          "name": "implementation",
          "type": "address"
        }
      ],
      "name": "ERC1967InvalidImplementation",
      "type": "error"
    },
    {
      "inputs": [],
      "name": "ERC1967NonPayable",
      "type": "error"
    },
    {
      "inputs": [],
      "name": "FailedCall",
      "type": "error"
    },
    {
      "inputs": [],
      "name": "InvalidInitialization",
      "type": "error"
    },
    {
      "inputs": [],
      "name": "NotInitializing",
      "type": "error"
    },
    {
      "inputs": [],
      "name": "UUPSUnauthorizedCallContext",
      "type": "error"
    },
    {
      "inputs": [
        {
          "internalType": "bytes32",
          "name": "slot",
          "type": "bytes32"
        }
      ],
      "name": "UUPSUnsupportedProxiableUUID",
      "type": "error"
    },
    {
      "anonymous": false,
      "inputs": [
        {
          "indexed": true,
          "internalType": "bytes32",
          "name": "marketId",
          "type": "bytes32"
        },
        {
          "indexed": true,
          "internalType": "bytes32",
          "name": "commitmentHash",
          "type": "bytes32"
        },
        {
          "indexed": false,
          "internalType": "enum VerifierV2.ProofType",
          "name": "proofType",
          "type": "uint8"
        },
        {
          "indexed": true,
          "internalType": "address",
          "name": "submitter",
          "type": "address"
        },
        {
          "indexed": false,
          "internalType": "string",
          "name": "ipfsCid",
          "type": "string"
        }
      ],
      "name": "AICommitted",
      "type": "event"
    },
    {
      "anonymous": false,
      "inputs": [
        {
          "indexed": false,
          "internalType": "uint64",
          "name": "version",
          "type": "uint64"
        }
      ],
      "name": "Initialized",
      "type": "event"
    },
    {
      "anonymous": false,
      "inputs": [
        {
          "indexed": true,
          "internalType": "bytes32",
          "name": "marketId",
          "type": "bytes32"
        },
        {
          "indexed": false,
          "internalType": "string",
          "name": "modelName",
          "type": "string"
        },
        {
          "indexed": false,
          "internalType": "string",
          "name": "modelVersion",
          "type": "string"
        }
      ],
      "name": "ModelMetadataUpdated",
      "type": "event"
    },
    {
      "anonymous": false,
      "inputs": [
        {
          "indexed": true,
          "internalType": "bytes32",
          "name": "marketId",
          "type": "bytes32"
        },
        {
          "indexed": false,
          "internalType": "bool",
          "name": "valid",
          "type": "bool"
        }
      ],
      "name": "ProofVerified",
      "type": "event"
    },
    {
      "anonymous": false,
      "inputs": [
        {
          "indexed": true,
          "internalType": "bytes32",
          "name": "role",
          "type": "bytes32"
        },
        {
          "indexed": true,
          "internalType": "bytes32",
          "name": "previousAdminRole",
          "type": "bytes32"
        },
        {
          "indexed": true,
          "internalType": "bytes32",
          "name": "newAdminRole",
          "type": "bytes32"
        }
      ],
      "name": "RoleAdminChanged",
      "type": "event"
    },
    {
      "anonymous": false,
      "inputs": [
        {
          "indexed": true,
          "internalType": "bytes32",
          "name": "role",
          "type": "bytes32"
        },
        {
          "indexed": true,
          "internalType": "address",
          "name": "account",
          "type": "address"
        },
        {
          "indexed": true,
          "internalType": "address",
          "name": "sender",
          "type": "address"
        }
      ],
      "name": "RoleGranted",
      "type": "event"
    },
    {
      "anonymous": false,
      "inputs": [
        {
          "indexed": true,
          "internalType": "bytes32",
          "name": "role",
          "type": "bytes32"
        },
        {
          "indexed": true,
          "internalType": "address",
          "name": "account",
          "type": "address"
        },
        {
          "indexed": true,
          "internalType": "address",
          "name": "sender",
          "type": "address"
        }
      ],
      "name": "RoleRevoked",
      "type": "event"
    },
    {
      "anonymous": false,
      "inputs": [
        {
          "indexed": true,
          "internalType": "address",
          "name": "implementation",
          "type": "address"
        }
      ],
      "name": "Upgraded",
      "type": "event"
    },
    {
      "inputs": [],
      "name": "DEFAULT_ADMIN_ROLE",
      "outputs": [
        {
          "internalType": "bytes32",
          "name": "",
          "type": "bytes32"
        }
      ],
      "stateMutability": "view",
      "type": "function"
    },
    {
      "inputs": [],
      "name": "UPGRADER_ROLE",
      "outputs": [
        {
          "internalType": "bytes32",
          "name": "",
          "type": "bytes32"
        }
      ],
      "stateMutability": "view",
      "type": "function"
    },
    {
      "inputs": [],
      "name": "UPGRADE_INTERFACE_VERSION",
      "outputs": [
        {
          "internalType": "string",
          "name": "",
          "type": "string"
        }
      ],
      "stateMutability": "view",
      "type": "function"
    },
    {
      "inputs": [],
      "name": "VERIFIER_ROLE",
      "outputs": [
        {
          "internalType": "bytes32",
          "name": "",
          "type": "bytes32"
        }
      ],
      "stateMutability": "view",
      "type": "function"
    },
    {
      "inputs": [
        {
          "internalType": "bytes32",
          "name": "marketId",
          "type": "bytes32"
        },
        {
          "internalType": "bytes32",
          "name": "commitmentHash",
          "type": "bytes32"
        },
        {
          "internalType": "enum VerifierV2.ProofType",
          "name": "proofType",
          "type": "uint8"
        },
        {
          "internalType": "bytes",
          "name": "proof",
          "type": "bytes"
        },
        {
          "internalType": "string",
          "name": "ipfsCid",
          "type": "string"
        }
      ],
      "name": "commitAI",
      "outputs": [],
      "stateMutability": "nonpayable",
      "type": "function"
    },
    {
      "inputs": [
        {
          "internalType": "bytes32",
          "name": "",
          "type": "bytes32"
        }
      ],
      "name": "commitments",
      "outputs": [
        {
          "internalType": "bytes32",
          "name": "commitmentHash",
          "type": "bytes32"
        },
        {
          "internalType": "enum VerifierV2.ProofType",
          "name": "proofType",
          "type": "uint8"
        },
        {
          "internalType": "bytes",
          "name": "proof",
          "type": "bytes"
        },
        {
          "internalType": "address",
          "name": "submitter",
          "type": "address"
        },
        {
          "internalType": "uint256",
          "name": "timestamp",
          "type": "uint256"
        },
        {
          "internalType": "string",
          "name": "ipfsCid",
          "type": "string"
        },
        {
          "internalType": "bool",
          "name": "verified",
          "type": "bool"
        }
      ],
      "stateMutability": "view",
      "type": "function"
    },
    {
      "inputs": [
        {
          "internalType": "bytes32",
          "name": "marketId",
          "type": "bytes32"
        }
      ],
      "name": "getCommitment",
      "outputs": [
        {
          "internalType": "bytes32",
          "name": "commitmentHash",
          "type": "bytes32"
        },
        {
          "internalType": "enum VerifierV2.ProofType",
          "name": "proofType",
          "type": "uint8"
        },
        {
          "internalType": "address",
          "name": "submitter",
          "type": "address"
        },
        {
          "internalType": "uint256",
          "name": "timestamp",
          "type": "uint256"
        },
        {
          "internalType": "string",
          "name": "ipfsCid",
          "type": "string"
        },
        {
          "internalType": "bool",
          "name": "verified",
          "type": "bool"
        }
      ],
      "stateMutability": "view",
      "type": "function"
    },
    {
      "inputs": [
        {
          "internalType": "bytes32",
          "name": "marketId",
          "type": "bytes32"
        }
      ],
      "name": "getModelMetadata",
      "outputs": [
        {
          "internalType": "string",
          "name": "modelName",
          "type": "string"
        },
        {
          "internalType": "string",
          "name": "modelVersion",
          "type": "string"
        },
        {
          "internalType": "uint256",
          "name": "confidence",
          "type": "uint256"
        },
        {
          "internalType": "string",
          "name": "dataSourcesHash",
          "type": "string"
        }
      ],
      "stateMutability": "view",
      "type": "function"
    },
    {
      "inputs": [
        {
          "internalType": "bytes32",
          "name": "role",
          "type": "bytes32"
        }
      ],
      "name": "getRoleAdmin",
      "outputs": [
        {
          "internalType": "bytes32",
          "name": "",
          "type": "bytes32"
        }
      ],
      "stateMutability": "view",
      "type": "function"
    },
    {
      "inputs": [
        {
          "internalType": "bytes32",
          "name": "role",
          "type": "bytes32"
        },
        {
          "internalType": "address",
          "name": "account",
          "type": "address"
        }
      ],
      "name": "grantRole",
      "outputs": [],
      "stateMutability": "nonpayable",
      "type": "function"
    },
    {
      "inputs": [
        {
          "internalType": "bytes32",
          "name": "role",
          "type": "bytes32"
        },
        {
          "internalType": "address",
          "name": "account",
          "type": "address"
        }
      ],
      "name": "hasRole",
      "outputs": [
        {
          "internalType": "bool",
          "name": "",
          "type": "bool"
        }
      ],
      "stateMutability": "view",
      "type": "function"
    },
    {
      "inputs": [
        {
          "internalType": "address",
          "name": "defaultAdmin",
          "type": "address"
        }
      ],
      "name": "initialize",
      "outputs": [],
      "stateMutability": "nonpayable",
      "type": "function"
    },
    {
      "inputs": [
        {
          "internalType": "bytes32",
          "name": "marketId",
          "type": "bytes32"
        }
      ],
      "name": "markVerified",
      "outputs": [],
      "stateMutability": "nonpayable",
      "type": "function"
    },
    {
      "inputs": [
        {
          "internalType": "bytes32",
          "name": "",
          "type": "bytes32"
        }
      ],
      "name": "modelMetadata",
      "outputs": [
        {
          "internalType": "string",
          "name": "modelName",
          "type": "string"
        },
        {
          "internalType": "string",
          "name": "modelVersion",
          "type": "string"
        },
        {
          "internalType": "uint256",
          "name": "confidence",
          "type": "uint256"
        },
        {
          "internalType": "string",
          "name": "dataSourcesHash",
          "type": "string"
        }
      ],
      "stateMutability": "view",
      "type": "function"
    },
    {
      "inputs": [],
      "name": "proxiableUUID",
      "outputs": [
        {
          "internalType": "bytes32",
          "name": "",
          "type": "bytes32"
        }
      ],
      "stateMutability": "view",
      "type": "function"
    },
    {
      "inputs": [
        {
          "internalType": "bytes32",
          "name": "role",
          "type": "bytes32"
        },
        {
          "internalType": "address",
          "name": "callerConfirmation",
          "type": "address"
        }
      ],
      "name": "renounceRole",
      "outputs": [],
      "stateMutability": "nonpayable",
      "type": "function"
    },
    {
      "inputs": [
        {
          "internalType": "bytes32",
          "name": "role",
          "type": "bytes32"
        },
        {
          "internalType": "address",
          "name": "account",
          "type": "address"
        }
      ],
      "name": "revokeRole",
      "outputs": [],
      "stateMutability": "nonpayable",
      "type": "function"
    },
    {
      "inputs": [
        {
          "internalType": "bytes4",
          "name": "interfaceId",
          "type": "bytes4"
        }
      ],
      "name": "supportsInterface",
      "outputs": [
        {
          "internalType": "bool",
          "name": "",
          "type": "bool"
        }
      ],
      "stateMutability": "view",
      "type": "function"
    },
    {
      "inputs": [
        {
          "internalType": "bytes32",
          "name": "marketId",
          "type": "bytes32"
        },
        {
          "internalType": "string",
          "name": "modelName",
          "type": "string"
        },
        {
          "internalType": "string",
          "name": "modelVersion",
          "type": "string"
        },
        {
          "internalType": "uint256",
          "name": "confidence",
          "type": "uint256"
        },
        {
          "internalType": "string",
          "name": "dataSourcesHash",
          "type": "string"
        }
      ],
      "name": "updateModelMetadata",
      "outputs": [],
      "stateMutability": "nonpayable",
      "type": "function"
    },
    {
      "inputs": [
        {
          "internalType": "address",
          "name": "newImplementation",
          "type": "address"
        },
        {
          "internalType": "bytes",
          "name": "data",
          "type": "bytes"
        }
      ],
      "name": "upgradeToAndCall",
      "outputs": [],
      "stateMutability": "payable",
      "type": "function"
    },
    {
      "inputs": [
        {
          "internalType": "bytes32",
          "name": "",
          "type": "bytes32"
        },
        {
          "internalType": "uint256",
          "name": "",
          "type": "uint256"
        }
      ],
      "name": "usedNonces",
      "outputs": [
        {
          "internalType": "bool",
          "name": "",
          "type": "bool"
        }
      ],
      "stateMutability": "view",
      "type": "function"
    },
    {
      "inputs": [
        {
          "internalType": "bytes32",
          "name": "marketId",
          "type": "bytes32"
        },
        {
          "internalType": "uint8",
          "name": "outcome",
          "type": "uint8"
        },
        {
          "internalType": "bytes",
          "name": "proof",
          "type": "bytes"
        }
      ],
      "name": "verifyOutcome",
      "outputs": [
        {
          "internalType": "bool",
          "name": "valid",
          "type": "bool"
        }
      ],
      "stateMutability": "view",
      "type": "function"
    }
  ],
  "bytecode": "0x60a060405230608052348015610013575f80fd5b5061001c610021565b6100d3565b7ff0c57e16840df040f15088dc2f81fe391c3923bec73e23a9662efc9c229c6a00805468010000000000000000900460ff16156100715760405163f92ee8a960e01b815260040160405180910390fd5b80546001600160401b03908116146100d05780546001600160401b0319166001600160401b0390811782556040519081527fc7f505b2f371ae2175ee4913f4499e1f2633a7b5936321eed1cdaeb6115181d29060200160405180910390a15b50565b6080516121e3620000fa5f395f818161146e0152818161149701526115fa01526121e35ff3fe608060405260043610610131575f3560e01c806391d14854116100a8578063c4d66de81161006d578063c4d66de814610394578063cf519d3d146103b3578063d547741f146103d2578063e7705db6146103f1578063ea41282014610411578063f72c0d8b14610430575f80fd5b806391d14854146102d75780639cc8725d146102f65780639e48172c14610315578063a217fddf14610344578063ad3cb1cc14610357575f80fd5b806336568abe116100f957806336568abe1461020f5780634f1ef2861461022e57806352d1902d146102415780637795820c14610255578063839df9451461028657806386ecda8b146102b8575f80fd5b806301ffc9a71461013557806306395c8614610169578063109a060a146101a2578063248a9ca3146101c35780632f2ff15d146101f0575b5f80fd5b348015610140575f80fd5b5061015461014f366004611a2f565b610463565b60405190151581526020015b60405180910390f35b348015610174575f80fd5b50610154610183366004611a56565b600260209081525f928352604080842090915290825290205460ff1681565b3480156101ad575f80fd5b506101c16101bc366004611a76565b610499565b005b3480156101ce575f80fd5b506101e26101dd366004611a76565b610565565b604051908152602001610160565b3480156101fb575f80fd5b506101c161020a366004611aa8565b610585565b34801561021a575f80fd5b506101c1610229366004611aa8565b6105a7565b6101c161023c366004611ae6565b6105df565b34801561024c575f80fd5b506101e26105fe565b348015610260575f80fd5b5061027461026f366004611a76565b610619565b60405161016096959493929190611c23565b348015610291575f80fd5b506102a56102a0366004611a76565b610707565b6040516101609796959493929190611c71565b3480156102c3575f80fd5b506101c16102d2366004611d1a565b610862565b3480156102e2575f80fd5b506101546102f1366004611aa8565b610a23565b348015610301575f80fd5b50610154610310366004611dbf565b610a59565b348015610320575f80fd5b5061033461032f366004611a76565b610bdc565b6040516101609493929190611e1c565b34801561034f575f80fd5b506101e25f81565b348015610362575f80fd5b50610387604051806040016040528060058152602001640352e302e360dc1b81525081565b6040516101609190611e65565b34801561039f575f80fd5b506101c16103ae366004611e77565b610d95565b3480156103be575f80fd5b506103346103cd366004611a76565b610ee3565b3480156103dd575f80fd5b506101c16103ec366004611aa8565b6110bb565b3480156103fc575f80fd5b506101e25f8051602061218e83398151915281565b34801561041c575f80fd5b506101c161042b366004611e90565b6110d7565b34801561043b575f80fd5b506101e27f189ab7a9244df0848122154315af71fe140f3db0fe014031783b0946b8c9d2e381565b5f6001600160e01b03198216637965db0b60e01b148061049357506301ffc9a760e01b6001600160e01b03198316145b92915050565b5f8051602061218e8339815191526104b08161133c565b5f8281526020819052604090205461050f5760405162461bcd60e51b815260206004820152601760248201527f56657269666965723a206e6f20636f6d6d69746d656e7400000000000000000060448201526064015b60405180910390fd5b5f8281526020818152604091829020600601805460ff19166001908117909155915191825283917ff8ea4b84d199e84ff35249e26840ceba1b2a1711d50a01b47e98173701172180910160405180910390a25050565b5f9081525f8051602061216e833981519152602052604090206001015490565b61058e82610565565b6105978161133c565b6105a18383611349565b50505050565b6001600160a01b03811633146105d05760405163334bd91960e11b815260040160405180910390fd5b6105da82826113ea565b505050565b6105e7611463565b6105f082611509565b6105fa8282611533565b5050565b5f6106076115ef565b505f8051602061214e83398151915290565b5f8181526020819052604081208054600182015460038301546004840154600685015460058601805488978897889760609789979396929560ff928316956001600160a01b03909216949390921690829061067390611f22565b80601f016020809104026020016040519081016040528092919081815260200182805461069f90611f22565b80156106ea5780601f106106c1576101008083540402835291602001916106ea565b820191905f5260205f20905b8154815290600101906020018083116106cd57829003601f168201915b505050505091509650965096509650965096505091939550919395565b5f60208190529081526040902080546001820154600283018054929360ff9092169261073290611f22565b80601f016020809104026020016040519081016040528092919081815260200182805461075e90611f22565b80156107a95780601f10610780576101008083540402835291602001916107a9565b820191905f5260205f20905b81548152906001019060200180831161078c57829003601f168201915b505050506003830154600484015460058501805494956001600160a01b0390931694919350906107d890611f22565b80601f016020809104026020016040519081016040528092919081815260200182805461080490611f22565b801561084f5780601f106108265761010080835404028352916020019161084f565b820191905f5260205f20905b81548152906001019060200180831161083257829003601f168201915b5050506006909301549192505060ff1687565b5f8051602061218e8339815191526108798161133c565b6127108411156108cb5760405162461bcd60e51b815260206004820152601c60248201527f56657269666965723a20696e76616c696420636f6e666964656e6365000000006044820152606401610506565b604051806080016040528089898080601f0160208091040260200160405190810160405280939291908181526020018383808284375f92019190915250505090825250604080516020601f8a01819004810282018101909252888152918101919089908990819084018382808284375f92019190915250505090825250602080820187905260408051601f870183900483028101830182528681529201919086908690819084018382808284375f9201829052509390945250508b8152600160205260409020825190915081906109a29082611fa5565b50602082015160018201906109b79082611fa5565b5060408201516002820155606082015160038201906109d69082611fa5565b50905050887f57d1637eab56f49ef52decadbf87bced6d24c30da881a3a2bf4bc54e4ea66c5c89898989604051610a109493929190612089565b60405180910390a2505050505050505050565b5f9182525f8051602061216e833981519152602090815260408084206001600160a01b0393909316845291905290205460ff1690565b5f8481526020819052604081208054610a75575f915050610bd4565b60018082015460ff166004811115610a8f57610a8f611ba2565b03610ad0575f858585604051602001610aaa939291906120af565b60408051601f19818403018152919052805160209091012091549091149150610bd49050565b6002600182015460ff166004811115610aeb57610aeb611ba2565b03610b4557610b3d868686868080601f0160208091040260200160405190810160405280939291908181526020018383808284375f9201919091525050505060038501546001600160a01b0316611638565b915050610bd4565b6003600182015460ff166004811115610b6057610b60611ba2565b03610b6f576001915050610bd4565b6004600182015460ff166004811115610b8a57610b8a611ba2565b03610bcf57610b3d868686868080601f0160208091040260200160405190810160405280939291908181526020018383808284375f920191909152506117b192505050565b5f9150505b949350505050565b60016020525f9081526040902080548190610bf690611f22565b80601f0160208091040260200160405190810160405280929190818152602001828054610c2290611f22565b8015610c6d5780601f10610c4457610100808354040283529160200191610c6d565b820191905f5260205f20905b815481529060010190602001808311610c5057829003601f168201915b505050505090806001018054610c8290611f22565b80601f0160208091040260200160405190810160405280929190818152602001828054610cae90611f22565b8015610cf95780601f10610cd057610100808354040283529160200191610cf9565b820191905f5260205f20905b815481529060010190602001808311610cdc57829003601f168201915b505050505090806002015490806003018054610d1490611f22565b80601f0160208091040260200160405190810160405280929190818152602001828054610d4090611f22565b8015610d8b5780601f10610d6257610100808354040283529160200191610d8b565b820191905f5260205f20905b815481529060010190602001808311610d6e57829003601f168201915b5050505050905084565b5f610d9e6117bb565b805490915060ff600160401b820416159067ffffffffffffffff165f81158015610dc55750825b90505f8267ffffffffffffffff166001148015610de15750303b155b905081158015610def575080155b15610e0d5760405163f92ee8a960e01b815260040160405180910390fd5b845467ffffffffffffffff191660011785558315610e3757845460ff60401b1916600160401b1785555b610e3f6117e3565b610e476117e3565b610e515f87611349565b50610e695f8051602061218e83398151915287611349565b50610e947f189ab7a9244df0848122154315af71fe140f3db0fe014031783b0946b8c9d2e387611349565b508315610edb57845460ff60401b19168555604051600181527fc7f505b2f371ae2175ee4913f4499e1f2633a7b5936321eed1cdaeb6115181d29060200160405180910390a15b505050505050565b6060805f60605f60015f8781526020019081526020015f209050805f0181600101826002015483600301838054610f1990611f22565b80601f0160208091040260200160405190810160405280929190818152602001828054610f4590611f22565b8015610f905780601f10610f6757610100808354040283529160200191610f90565b820191905f5260205f20905b815481529060010190602001808311610f7357829003601f168201915b50505050509350828054610fa390611f22565b80601f0160208091040260200160405190810160405280929190818152602001828054610fcf90611f22565b801561101a5780601f10610ff15761010080835404028352916020019161101a565b820191905f5260205f20905b815481529060010190602001808311610ffd57829003601f168201915b5050505050925080805461102d90611f22565b80601f016020809104026020016040519081016040528092919081815260200182805461105990611f22565b80156110a45780601f1061107b576101008083540402835291602001916110a4565b820191905f5260205f20905b81548152906001019060200180831161108757829003601f168201915b505050505090509450945094509450509193509193565b6110c482610565565b6110cd8161133c565b6105a183836113ea565b5f8051602061218e8339815191526110ee8161133c565b5f88815260208190526040902054156111495760405162461bcd60e51b815260206004820152601b60248201527f56657269666965723a20636f6d6d69746d656e742065786973747300000000006044820152606401610506565b8661118f5760405162461bcd60e51b81526020600482015260166024820152750accae4d2ccd2cae47440d2dcecc2d8d2c840d0c2e6d60531b6044820152606401610506565b6040518060e001604052808881526020018760048111156111b2576111b2611ba2565b815260200186868080601f0160208091040260200160405190810160405280939291908181526020018383808284375f9201919091525050509082525033602080830191909152426040808401919091528051601f87018390048302810183019091528581526060909201919086908690819084018382808284375f92018290525093855250505060209182018190528a815280825260409020825181559082015160018281018054909160ff199091169083600481111561127657611276611ba2565b02179055506040820151600282019061128f9082611fa5565b5060608201516003820180546001600160a01b0319166001600160a01b039092169190911790556080820151600482015560a082015160058201906112d49082611fa5565b5060c091909101516006909101805460ff1916911515919091179055604051339088908a907f2f7ddc45d1b88c0c0258c00de7bc2c1176d04c9ec8227fbacf9eeaa4ce5cd3479061132a908b90899089906120d6565b60405180910390a45050505050505050565b61134681336117eb565b50565b5f5f8051602061216e8339815191526113628484610a23565b6113e1575f848152602082815260408083206001600160a01b03871684529091529020805460ff191660011790556113973390565b6001600160a01b0316836001600160a01b0316857f2f8788117e7eff1d82e926ec794901d17c78024a50270940304540a733656f0d60405160405180910390a46001915050610493565b5f915050610493565b5f5f8051602061216e8339815191526114038484610a23565b156113e1575f848152602082815260408083206001600160a01b0387168085529252808320805460ff1916905551339287917ff6391f5c32d9c69d2a47ea670b442974b53935d1edc7fd64eb21e047a839171b9190a46001915050610493565b306001600160a01b037f00000000000000000000000000000000000000000000000000000000000000001614806114e957507f00000000000000000000000000000000000000000000000000000000000000006001600160a01b03166114dd5f8051602061214e833981519152546001600160a01b031690565b6001600160a01b031614155b156115075760405163703e46dd60e11b815260040160405180910390fd5b565b7f189ab7a9244df0848122154315af71fe140f3db0fe014031783b0946b8c9d2e36105fa8161133c565b816001600160a01b03166352d1902d6040518163ffffffff1660e01b8152600401602060405180830381865afa92505050801561158d575060408051601f3d908101601f1916820190925261158a918101906120f6565b60015b6115b557604051634c9c8ce360e01b81526001600160a01b0383166004820152602401610506565b5f8051602061214e83398151915281146115e557604051632a87526960e21b815260048101829052602401610506565b6105da8383611824565b306001600160a01b037f000000000000000000000000000000000000000000000000000000000000000016146115075760405163703e46dd60e11b815260040160405180910390fd5b5f825160411461164957505f610bd4565b5f858560405160200161167392919091825260f81b6001600160f81b031916602082015260210190565b6040516020818303038152906040528051906020012090505f816040516020016116c991907f19457468657265756d205369676e6564204d6573736167653a0a3332000000008152601c810191909152603c0190565b60408051601f1981840301815291815281516020928301209187015190870151606088015192935090915f1a601b81101561170c57611709601b8261210d565b90505b8060ff16601b1415801561172457508060ff16601c14155b15611736575f95505050505050610bd4565b604080515f8082526020820180845287905260ff841692820192909252606081018590526080810184905260019060a0016020604051602081039080840390855afa158015611787573d5f803e3d5ffd5b5050604051601f1901516001600160a01b03908116908a1614975050505050505050949350505050565b60015b9392505050565b5f807ff0c57e16840df040f15088dc2f81fe391c3923bec73e23a9662efc9c229c6a00610493565b611507611879565b6117f58282610a23565b6105fa5760405163e2517d3f60e01b81526001600160a01b038216600482015260248101839052604401610506565b61182d8261189e565b6040516001600160a01b038316907fbc7cd75a20ee27fd9adebab32041f755214dbc6bffa90cc0225b39da2e5c2d3b905f90a2805115611871576105da8282611901565b6105fa611973565b611881611992565b61150757604051631afcd79f60e31b815260040160405180910390fd5b806001600160a01b03163b5f036118d357604051634c9c8ce360e01b81526001600160a01b0382166004820152602401610506565b5f8051602061214e83398151915280546001600160a01b0319166001600160a01b0392909216919091179055565b60605f80846001600160a01b03168460405161191d9190612132565b5f60405180830381855af49150503d805f8114611955576040519150601f19603f3d011682016040523d82523d5f602084013e61195a565b606091505b509150915061196a8583836119ab565b95945050505050565b34156115075760405163b398979f60e01b815260040160405180910390fd5b5f61199b6117bb565b54600160401b900460ff16919050565b6060826119c0576119bb82611a07565b6117b4565b81511580156119d757506001600160a01b0384163b155b15611a0057604051639996b31560e01b81526001600160a01b0385166004820152602401610506565b50806117b4565b805115611a1657805160208201fd5b60405163d6bda27560e01b815260040160405180910390fd5b5f60208284031215611a3f575f80fd5b81356001600160e01b0319811681146117b4575f80fd5b5f8060408385031215611a67575f80fd5b50508035926020909101359150565b5f60208284031215611a86575f80fd5b5035919050565b80356001600160a01b0381168114611aa3575f80fd5b919050565b5f8060408385031215611ab9575f80fd5b82359150611ac960208401611a8d565b90509250929050565b634e487b7160e01b5f52604160045260245ffd5b5f8060408385031215611af7575f80fd5b611b0083611a8d565b9150602083013567ffffffffffffffff80821115611b1c575f80fd5b818501915085601f830112611b2f575f80fd5b813581811115611b4157611b41611ad2565b604051601f8201601f19908116603f01168101908382118183101715611b6957611b69611ad2565b81604052828152886020848701011115611b81575f80fd5b826020860160208301375f6020848301015280955050505050509250929050565b634e487b7160e01b5f52602160045260245ffd5b60058110611bd257634e487b7160e01b5f52602160045260245ffd5b9052565b5f5b83811015611bf0578181015183820152602001611bd8565b50505f910152565b5f8151808452611c0f816020860160208601611bd6565b601f01601f19169290920160200192915050565b868152611c336020820187611bb6565b60018060a01b038516604082015283606082015260c060808201525f611c5c60c0830185611bf8565b905082151560a0830152979650505050505050565b878152611c816020820188611bb6565b60e060408201525f611c9660e0830188611bf8565b6001600160a01b03871660608401526080830186905282810360a0840152611cbe8186611bf8565b91505082151560c083015298975050505050505050565b5f8083601f840112611ce5575f80fd5b50813567ffffffffffffffff811115611cfc575f80fd5b602083019150836020828501011115611d13575f80fd5b9250929050565b5f805f805f805f8060a0898b031215611d31575f80fd5b88359750602089013567ffffffffffffffff80821115611d4f575f80fd5b611d5b8c838d01611cd5565b909950975060408b0135915080821115611d73575f80fd5b611d7f8c838d01611cd5565b909750955060608b0135945060808b0135915080821115611d9e575f80fd5b50611dab8b828c01611cd5565b999c989b5096995094979396929594505050565b5f805f8060608587031215611dd2575f80fd5b84359350602085013560ff81168114611de9575f80fd5b9250604085013567ffffffffffffffff811115611e04575f80fd5b611e1087828801611cd5565b95989497509550505050565b608081525f611e2e6080830187611bf8565b8281036020840152611e408187611bf8565b90508460408401528281036060840152611e5a8185611bf8565b979650505050505050565b602081525f6117b46020830184611bf8565b5f60208284031215611e87575f80fd5b6117b482611a8d565b5f805f805f805f60a0888a031215611ea6575f80fd5b8735965060208801359550604088013560058110611ec2575f80fd5b9450606088013567ffffffffffffffff80821115611ede575f80fd5b611eea8b838c01611cd5565b909650945060808a0135915080821115611f02575f80fd5b50611f0f8a828b01611cd5565b989b979a50959850939692959293505050565b600181811c90821680611f3657607f821691505b602082108103611f5457634e487b7160e01b5f52602260045260245ffd5b50919050565b601f8211156105da57805f5260205f20601f840160051c81016020851015611f7f5750805b601f840160051c820191505b81811015611f9e575f8155600101611f8b565b5050505050565b815167ffffffffffffffff811115611fbf57611fbf611ad2565b611fd381611fcd8454611f22565b84611f5a565b602080601f831160018114612006575f8415611fef5750858301515b5f19600386901b1c1916600185901b178555610edb565b5f85815260208120601f198616915b8281101561203457888601518255948401946001909101908401612015565b508582101561205157878501515f19600388901b60f8161c191681555b5050505050600190811b01905550565b81835281816020850137505f828201602090810191909152601f909101601f19169091010190565b604081525f61209c604083018688612061565b8281036020840152611e5a818587612061565b60f884901b6001600160f81b0319168152818360018301375f910160010190815292915050565b6120e08185611bb6565b604060208201525f61196a604083018486612061565b5f60208284031215612106575f80fd5b5051919050565b60ff818116838216019081111561049357634e487b7160e01b5f52601160045260245ffd5b5f8251612143818460208701611bd6565b919091019291505056fe360894a13ba1a3210667c828492db98dca3e2076cc3735a920a3ca505d382bbc02dd7bc7dec4dceedda775e58dd541e08a116c6c53815c0bd028192f7b6268000ce23c3e399818cfee81a7ab0880f714e53d7672b08df0fa62f2843416e1ea09a2646970667358221220dccccaabbfa97734a3de64befea8c75241e4c8037bd9b36ff70c89310f31357d64736f6c63430008180033",
  "linkReferences": {},
  "deployedLinkReferences": {}
}