{
  "_format": "hh-sol-artifact-1",
  "contractName": "OracleXOracleAdapter",
  "sourceName": "contracts/OracleXOracleAdapter.sol",
  "abi": [
    {
      "inputs": [
        {
          "internalType": "address",
          "name": "_factory",
          "type": "address"
        }
      ],
      "stateMutability": "nonpayable",
      "type": "constructor"
    },
    {
      "anonymous": false,
      "inputs": [
        {
          "indexed": true,
          "internalType": "address",
          "name": "factory",
          "type": "address"
        }
      ],
      "name": "FactorySet",
      "type": "event"
    },
    {
      "anonymous": false,
      "inputs": [
        {
          "indexed": true,
          "internalType": "bytes32",
          "name": "marketId",
          "type": "bytes32"
        },
        {
          "indexed": true,
          "internalType": "uint8",
          "name": "winningSide",
          "type": "uint8"
        }
      ],
      "name": "OutcomePushed",
      "type": "event"
    },
    {
      "inputs": [],
      "name": "factory",
      "outputs": [
        {
          "internalType": "address",
          "name": "",
          "type": "address"
        }
      ],
      "stateMutability": "view",
      "type": "function"
    },
    {
      "inputs": [],
      "name": "owner",
      "outputs": [
        {
          "internalType": "address",
          "name": "",
          "type": "address"
        }
      ],
      "stateMutability": "view",
      "type": "function"
    },
    {
      "inputs": [
        {
          "internalType": "bytes32",
          "name": "marketId",
          "type": "bytes32"
        },
        {
          "internalType": "uint8",
          "name": "winningSide",
          "type": "uint8"
        }
      ],
      "name": "pushOutcome",
      "outputs": [],
      "stateMutability": "nonpayable",
      "type": "function"
    },
    {
      "inputs": [
        {
          "internalType": "address",
          "name": "_factory",
          "type": "address"
        }
      ],
      "name": "setFactory",
      "outputs": [],
      "stateMutability": "nonpayable",
      "type": "function"
    }
  ],
  "bytecode": "0x608060405234801561001057600080fd5b5060405161041938038061041983398101604081905261002f91610085565b600180546001600160a01b03199081163317909155600080546001600160a01b0384169216821781556040517f1edf3afd4ac789736e00d216cd88be164ddcef26a6eedcc30cdb0cb62f3741b19190a2506100b5565b60006020828403121561009757600080fd5b81516001600160a01b03811681146100ae57600080fd5b9392505050565b610355806100c46000396000f3fe608060405234801561001057600080fd5b506004361061004c5760003560e01c80635128846a146100515780635bb47808146100665780638da5cb5b14610079578063c45a0155146100a8575b600080fd5b61006461005f366004610290565b6100bb565b005b6100646100743660046102de565b610202565b60015461008c906001600160a01b031681565b6040516001600160a01b03909116815260200160405180910390f35b60005461008c906001600160a01b031681565b60008054604051633ecbd36f60e21b8152600481018590526001600160a01b039091169063fb2f4dbc90602401602060405180830381865afa158015610105573d6000803e3d6000fd5b505050506040513d601f19601f820116820180604052508101906101299190610302565b90506001600160a01b0381166101715760405162461bcd60e51b81526020600482015260086024820152671b9bc81d985d5b1d60c21b60448201526064015b60405180910390fd5b604051630519836f60e31b815260ff831660048201526001600160a01b038216906328cc1b7890602401600060405180830381600087803b1580156101b557600080fd5b505af11580156101c9573d6000803e3d6000fd5b505060405160ff851692508591507fc9e85ea14738d6b505dde6dcf6f58fd7d533d81cf5fe6a570e708f2e0692809d90600090a3505050565b6001546001600160a01b031633146102485760405162461bcd60e51b81526020600482015260096024820152683737ba1037bbb732b960b91b6044820152606401610168565b600080546001600160a01b0319166001600160a01b038316908117825560405190917f1edf3afd4ac789736e00d216cd88be164ddcef26a6eedcc30cdb0cb62f3741b191a250565b600080604083850312156102a357600080fd5b82359150602083013560ff811681146102bb57600080fd5b809150509250929050565b6001600160a01b03811681146102db57600080fd5b50565b6000602082840312156102f057600080fd5b81356102fb816102c6565b9392505050565b60006020828403121561031457600080fd5b81516102fb816102c656fea2646970667358221220e8eccb20e5c0f3f01c358246ce691aceee1ecab7a102e7ab591de823e048d6b564736f6c63430008140033",
  "linkReferences": {},
  "deployedLinkReferences": {}
}