{
  "_format": "hh-sol-artifact-1",
  "contractName": "veORX",
  "sourceName": "contracts-v2/veORX.sol",
  "abi": [
    {
      "inputs": [],
      "stateMutability": "nonpayable",
      "type": "constructor"
    },
    {
      "inputs": [],
      "name": "AccessControlBadConfirmation",
      "type": "error"
    },
    {
      "inputs": [
        {
          "internalType": "address",
          "name": "account",
          "type": "address"
        },
        {
          "internalType": "bytes32",
          "name": "neededRole",
          "type": "bytes32"
        }
      ],
      "name": "AccessControlUnauthorizedAccount",
      "type": "error"
    },
    {
      "inputs": [
        {
          "internalType": "address",
          "name": "target",
          "type": "address"
        }
      ],
      "name": "AddressEmptyCode",
      "type": "error"
    },
    {
      "inputs": [
        {
          "internalType": "address",
          "name": "implementation",
          "type": "address"
        }
      ],
      "name": "ERC1967InvalidImplementation",
      "type": "error"
    },
    {
      "inputs": [],
      "name": "ERC1967NonPayable",
      "type": "error"
    },
    {
      "inputs": [],
      "name": "FailedCall",
      "type": "error"
    },
    {
      "inputs": [],
      "name": "InvalidInitialization",
      "type": "error"
    },
    {
      "inputs": [],
      "name": "NotInitializing",
      "type": "error"
    },
    {
      "inputs": [],
      "name": "ReentrancyGuardReentrantCall",
      "type": "error"
    },
    {
      "inputs": [],
      "name": "UUPSUnauthorizedCallContext",
      "type": "error"
    },
    {
      "inputs": [
        {
          "internalType": "bytes32",
          "name": "slot",
          "type": "bytes32"
        }
      ],
      "name": "UUPSUnsupportedProxiableUUID",
      "type": "error"
    },
    {
      "anonymous": false,
      "inputs": [
        {
          "indexed": true,
          "internalType": "address",
          "name": "user",
          "type": "address"
        },
        {
          "indexed": false,
          "internalType": "uint256",
          "name": "amount",
          "type": "uint256"
        },
        {
          "indexed": false,
          "internalType": "uint256",
          "name": "lockEnd",
          "type": "uint256"
        },
        {
          "indexed": false,
          "internalType": "uint256",
          "name": "veAmount",
          "type": "uint256"
        }
      ],
      "name": "Deposit",
      "type": "event"
    },
    {
      "anonymous": false,
      "inputs": [
        {
          "indexed": true,
          "internalType": "address",
          "name": "user",
          "type": "address"
        },
        {
          "indexed": false,
          "internalType": "uint256",
          "name": "additionalAmount",
          "type": "uint256"
        },
        {
          "indexed": false,
          "internalType": "uint256",
          "name": "newLockEnd",
          "type": "uint256"
        }
      ],
      "name": "IncreaseLock",
      "type": "event"
    },
    {
      "anonymous": false,
      "inputs": [
        {
          "indexed": false,
          "internalType": "uint64",
          "name": "version",
          "type": "uint64"
        }
      ],
      "name": "Initialized",
      "type": "event"
    },
    {
      "anonymous": false,
      "inputs": [
        {
          "indexed": true,
          "internalType": "bytes32",
          "name": "role",
          "type": "bytes32"
        },
        {
          "indexed": true,
          "internalType": "bytes32",
          "name": "previousAdminRole",
          "type": "bytes32"
        },
        {
          "indexed": true,
          "internalType": "bytes32",
          "name": "newAdminRole",
          "type": "bytes32"
        }
      ],
      "name": "RoleAdminChanged",
      "type": "event"
    },
    {
      "anonymous": false,
      "inputs": [
        {
          "indexed": true,
          "internalType": "bytes32",
          "name": "role",
          "type": "bytes32"
        },
        {
          "indexed": true,
          "internalType": "address",
          "name": "account",
          "type": "address"
        },
        {
          "indexed": true,
          "internalType": "address",
          "name": "sender",
          "type": "address"
        }
      ],
      "name": "RoleGranted",
      "type": "event"
    },
    {
      "anonymous": false,
      "inputs": [
        {
          "indexed": true,
          "internalType": "bytes32",
          "name": "role",
          "type": "bytes32"
        },
        {
          "indexed": true,
          "internalType": "address",
          "name": "account",
          "type": "address"
        },
        {
          "indexed": true,
          "internalType": "address",
          "name": "sender",
          "type": "address"
        }
      ],
      "name": "RoleRevoked",
      "type": "event"
    },
    {
      "anonymous": false,
      "inputs": [
        {
          "indexed": true,
          "internalType": "address",
          "name": "implementation",
          "type": "address"
        }
      ],
      "name": "Upgraded",
      "type": "event"
    },
    {
      "anonymous": false,
      "inputs": [
        {
          "indexed": true,
          "internalType": "address",
          "name": "user",
          "type": "address"
        },
        {
          "indexed": false,
          "internalType": "uint256",
          "name": "amount",
          "type": "uint256"
        }
      ],
      "name": "Withdraw",
      "type": "event"
    },
    {
      "inputs": [],
      "name": "DEFAULT_ADMIN_ROLE",
      "outputs": [
        {
          "internalType": "bytes32",
          "name": "",
          "type": "bytes32"
        }
      ],
      "stateMutability": "view",
      "type": "function"
    },
    {
      "inputs": [],
      "name": "MAX_LOCK_DURATION",
      "outputs": [
        {
          "internalType": "uint256",
          "name": "",
          "type": "uint256"
        }
      ],
      "stateMutability": "view",
      "type": "function"
    },
    {
      "inputs": [],
      "name": "MIN_LOCK_DURATION",
      "outputs": [
        {
          "internalType": "uint256",
          "name": "",
          "type": "uint256"
        }
      ],
      "stateMutability": "view",
      "type": "function"
    },
    {
      "inputs": [],
      "name": "MULTIPLIER_PRECISION",
      "outputs": [
        {
          "internalType": "uint256",
          "name": "",
          "type": "uint256"
        }
      ],
      "stateMutability": "view",
      "type": "function"
    },
    {
      "inputs": [],
      "name": "UPGRADER_ROLE",
      "outputs": [
        {
          "internalType": "bytes32",
          "name": "",
          "type": "bytes32"
        }
      ],
      "stateMutability": "view",
      "type": "function"
    },
    {
      "inputs": [],
      "name": "UPGRADE_INTERFACE_VERSION",
      "outputs": [
        {
          "internalType": "string",
          "name": "",
          "type": "string"
        }
      ],
      "stateMutability": "view",
      "type": "function"
    },
    {
      "inputs": [
        {
          "internalType": "address",
          "name": "user",
          "type": "address"
        }
      ],
      "name": "balanceOf",
      "outputs": [
        {
          "internalType": "uint256",
          "name": "",
          "type": "uint256"
        }
      ],
      "stateMutability": "view",
      "type": "function"
    },
    {
      "inputs": [
        {
          "internalType": "uint256",
          "name": "amount",
          "type": "uint256"
        },
        {
          "internalType": "uint256",
          "name": "duration",
          "type": "uint256"
        }
      ],
      "name": "createLock",
      "outputs": [],
      "stateMutability": "nonpayable",
      "type": "function"
    },
    {
      "inputs": [
        {
          "internalType": "bytes32",
          "name": "role",
          "type": "bytes32"
        }
      ],
      "name": "getRoleAdmin",
      "outputs": [
        {
          "internalType": "bytes32",
          "name": "",
          "type": "bytes32"
        }
      ],
      "stateMutability": "view",
      "type": "function"
    },
    {
      "inputs": [
        {
          "internalType": "bytes32",
          "name": "role",
          "type": "bytes32"
        },
        {
          "internalType": "address",
          "name": "account",
          "type": "address"
        }
      ],
      "name": "grantRole",
      "outputs": [],
      "stateMutability": "nonpayable",
      "type": "function"
    },
    {
      "inputs": [
        {
          "internalType": "bytes32",
          "name": "role",
          "type": "bytes32"
        },
        {
          "internalType": "address",
          "name": "account",
          "type": "address"
        }
      ],
      "name": "hasRole",
      "outputs": [
        {
          "internalType": "bool",
          "name": "",
          "type": "bool"
        }
      ],
      "stateMutability": "view",
      "type": "function"
    },
    {
      "inputs": [
        {
          "internalType": "uint256",
          "name": "additionalAmount",
          "type": "uint256"
        }
      ],
      "name": "increaseLockAmount",
      "outputs": [],
      "stateMutability": "nonpayable",
      "type": "function"
    },
    {
      "inputs": [
        {
          "internalType": "uint256",
          "name": "newDuration",
          "type": "uint256"
        }
      ],
      "name": "increaseLockDuration",
      "outputs": [],
      "stateMutability": "nonpayable",
      "type": "function"
    },
    {
      "inputs": [
        {
          "internalType": "address",
          "name": "_orxToken",
          "type": "address"
        },
        {
          "internalType": "address",
          "name": "defaultAdmin",
          "type": "address"
        }
      ],
      "name": "initialize",
      "outputs": [],
      "stateMutability": "nonpayable",
      "type": "function"
    },
    {
      "inputs": [
        {
          "internalType": "address",
          "name": "",
          "type": "address"
        }
      ],
      "name": "locked",
      "outputs": [
        {
          "internalType": "uint256",
          "name": "amount",
          "type": "uint256"
        },
        {
          "internalType": "uint256",
          "name": "end",
          "type": "uint256"
        }
      ],
      "stateMutability": "view",
      "type": "function"
    },
    {
      "inputs": [],
      "name": "orxToken",
      "outputs": [
        {
          "internalType": "contract IERC20",
          "name": "",
          "type": "address"
        }
      ],
      "stateMutability": "view",
      "type": "function"
    },
    {
      "inputs": [],
      "name": "proxiableUUID",
      "outputs": [
        {
          "internalType": "bytes32",
          "name": "",
          "type": "bytes32"
        }
      ],
      "stateMutability": "view",
      "type": "function"
    },
    {
      "inputs": [
        {
          "internalType": "bytes32",
          "name": "role",
          "type": "bytes32"
        },
        {
          "internalType": "address",
          "name": "callerConfirmation",
          "type": "address"
        }
      ],
      "name": "renounceRole",
      "outputs": [],
      "stateMutability": "nonpayable",
      "type": "function"
    },
    {
      "inputs": [
        {
          "internalType": "bytes32",
          "name": "role",
          "type": "bytes32"
        },
        {
          "internalType": "address",
          "name": "account",
          "type": "address"
        }
      ],
      "name": "revokeRole",
      "outputs": [],
      "stateMutability": "nonpayable",
      "type": "function"
    },
    {
      "inputs": [
        {
          "internalType": "bytes4",
          "name": "interfaceId",
          "type": "bytes4"
        }
      ],
      "name": "supportsInterface",
      "outputs": [
        {
          "internalType": "bool",
          "name": "",
          "type": "bool"
        }
      ],
      "stateMutability": "view",
      "type": "function"
    },
    {
      "inputs": [],
      "name": "totalLockedSupply",
      "outputs": [
        {
          "internalType": "uint256",
          "name": "",
          "type": "uint256"
        }
      ],
      "stateMutability": "view",
      "type": "function"
    },
    {
      "inputs": [],
      "name": "totalSupply",
      "outputs": [
        {
          "internalType": "uint256",
          "name": "",
          "type": "uint256"
        }
      ],
      "stateMutability": "view",
      "type": "function"
    },
    {
      "inputs": [
        {
          "internalType": "address",
          "name": "newImplementation",
          "type": "address"
        },
        {
          "internalType": "bytes",
          "name": "data",
          "type": "bytes"
        }
      ],
      "name": "upgradeToAndCall",
      "outputs": [],
      "stateMutability": "payable",
      "type": "function"
    },
    {
      "inputs": [],
      "name": "withdraw",
      "outputs": [],
      "stateMutability": "nonpayable",
      "type": "function"
    }
  ],
  "bytecode": "0x60a060405230608052348015610013575f80fd5b5061001c610021565b6100d3565b7ff0c57e16840df040f15088dc2f81fe391c3923bec73e23a9662efc9c229c6a00805468010000000000000000900460ff16156100715760405163f92ee8a960e01b815260040160405180910390fd5b80546001600160401b03908116146100d05780546001600160401b0319166001600160401b0390811782556040519081527fc7f505b2f371ae2175ee4913f4499e1f2633a7b5936321eed1cdaeb6115181d29060200160405180910390a15b50565b6080516118966100f95f395f81816110c8015281816110f1015261125201526118965ff3fe608060405260043610610147575f3560e01c806352d1902d116100b3578063ad3cb1cc1161006d578063ad3cb1cc14610361578063b309483a1461039e578063b52c05fe146103b3578063cbf9fe5f146103d2578063d547741f14610419578063f72c0d8b14610438575f80fd5b806352d1902d146102c757806366d587b3146102db57806370a08231146102fa57806378b4330f1461031957806391d148541461032f578063a217fddf1461034e575f80fd5b806336568abe1161010457806336568abe1461022c5780633ccfd60b1461024b578063403f44471461025f578063485cc9551461027e5780634f1bfc9e1461029d5780634f1ef286146102b4575f80fd5b806301ffc9a71461014b578063032db3391461017f57806316a0ea3c146101b557806318160ddd146101d8578063248a9ca3146101ec5780632f2ff15d1461020b575b5f80fd5b348015610156575f80fd5b5061016a6101653660046114df565b61046b565b60405190151581526020015b60405180910390f35b34801561018a575f80fd5b505f5461019d906001600160a01b031681565b6040516001600160a01b039091168152602001610176565b3480156101c0575f80fd5b506101ca60025481565b604051908152602001610176565b3480156101e3575f80fd5b506002546101ca565b3480156101f7575f80fd5b506101ca610206366004611506565b6104a1565b348015610216575f80fd5b5061022a610225366004611538565b6104c1565b005b348015610237575f80fd5b5061022a610246366004611538565b6104e3565b348015610256575f80fd5b5061022a61051b565b34801561026a575f80fd5b5061022a610279366004611506565b6106bc565b348015610289575f80fd5b5061022a610298366004611562565b61089f565b3480156102a8575f80fd5b506101ca630784ce0081565b61022a6102c236600461159e565b6109f8565b3480156102d2575f80fd5b506101ca610a17565b3480156102e6575f80fd5b5061022a6102f5366004611506565b610a32565b348015610305575f80fd5b506101ca61031436600461165a565b610bb6565b348015610324575f80fd5b506101ca62093a8081565b34801561033a575f80fd5b5061016a610349366004611538565b610c3e565b348015610359575f80fd5b506101ca5f81565b34801561036c575f80fd5b50610391604051806040016040528060058152602001640352e302e360dc1b81525081565b6040516101769190611695565b3480156103a9575f80fd5b506101ca61271081565b3480156103be575f80fd5b5061022a6103cd3660046116c7565b610c74565b3480156103dd575f80fd5b506104046103ec36600461165a565b600160208190525f9182526040909120805491015482565b60408051928352602083019190915201610176565b348015610424575f80fd5b5061022a610433366004611538565b610ef3565b348015610443575f80fd5b506101ca7f189ab7a9244df0848122154315af71fe140f3db0fe014031783b0946b8c9d2e381565b5f6001600160e01b03198216637965db0b60e01b148061049b57506301ffc9a760e01b6001600160e01b03198316145b92915050565b5f9081525f80516020611821833981519152602052604090206001015490565b6104ca826104a1565b6104d381610f0f565b6104dd8383610f19565b50505050565b6001600160a01b038116331461050c5760405163334bd91960e11b815260040160405180910390fd5b6105168282610fba565b505050565b610523611033565b335f90815260016020526040902080546105585760405162461bcd60e51b815260040161054f906116e7565b60405180910390fd5b80600101544210156105ac5760405162461bcd60e51b815260206004820152601760248201527f76654f52583a206c6f636b206e6f742065787069726564000000000000000000604482015260640161054f565b8054600280548291905f906105c2908490611723565b9091555050335f8181526001602081905260408083208381559091018290559054905163a9059cbb60e01b81526004810192909252602482018390526001600160a01b03169063a9059cbb906044016020604051808303815f875af115801561062d573d5f803e3d5ffd5b505050506040513d601f19601f820116820180604052508101906106519190611736565b61066d5760405162461bcd60e51b815260040161054f90611755565b60405181815233907f884edad9ce6fa2440d8a54cc123490eb96d2768479d49ff9c7366125a94243649060200160405180910390a250506106ba60015f8051602061184183398151915255565b565b6106c4611033565b335f90815260016020526040902080546106f05760405162461bcd60e51b815260040161054f906116e7565b428160010154116107395760405162461bcd60e51b81526020600482015260136024820152721d9953d4960e881b1bd8dac8195e1c1a5c9959606a1b604482015260640161054f565b5f821161077d5760405162461bcd60e51b81526020600482015260126024820152711d9953d4960e881e995c9bc8185b5bdd5b9d60721b604482015260640161054f565b81815f015f82825461078f9190611785565b925050819055508160025f8282546107a79190611785565b90915550505f546040516323b872dd60e01b8152336004820152306024820152604481018490526001600160a01b03909116906323b872dd906064016020604051808303815f875af11580156107ff573d5f803e3d5ffd5b505050506040513d601f19601f820116820180604052508101906108239190611736565b61083f5760405162461bcd60e51b815260040161054f90611755565b600181015460405133917f66e33648391623d9b3e64ef71570ffd27ca5573dbdaad968eab23d69108377d09161087d91868252602082015260400190565b60405180910390a25061089c60015f8051602061184183398151915255565b50565b5f6108a861107d565b805490915060ff600160401b820416159067ffffffffffffffff165f811580156108cf5750825b90505f8267ffffffffffffffff1660011480156108eb5750303b155b9050811580156108f9575080155b156109175760405163f92ee8a960e01b815260040160405180910390fd5b845467ffffffffffffffff19166001178555831561094157845460ff60401b1916600160401b1785555b6109496110a5565b6109516110b5565b6109596110b5565b5f80546001600160a01b0319166001600160a01b03891617815561097d9087610f19565b506109a87f189ab7a9244df0848122154315af71fe140f3db0fe014031783b0946b8c9d2e387610f19565b5083156109ef57845460ff60401b19168555604051600181527fc7f505b2f371ae2175ee4913f4499e1f2633a7b5936321eed1cdaeb6115181d29060200160405180910390a15b50505050505050565b610a006110bd565b610a0982611161565b610a13828261118b565b5050565b5f610a20611247565b505f8051602061180183398151915290565b610a3a611033565b335f9081526001602052604090208054610a665760405162461bcd60e51b815260040161054f906116e7565b62093a80821015610ab15760405162461bcd60e51b81526020600482015260156024820152741d9953d4960e881b1bd8dac81d1bdbc81cda1bdc9d605a1b604482015260640161054f565b630784ce00821115610afc5760405162461bcd60e51b815260206004820152601460248201527376654f52583a206c6f636b20746f6f206c6f6e6760601b604482015260640161054f565b5f610b078342611785565b905081600101548111610b5c5760405162461bcd60e51b815260206004820152601d60248201527f76654f52583a206d75737420696e637265617365206475726174696f6e000000604482015260640161054f565b60018201819055604080515f81526020810183905233917f66e33648391623d9b3e64ef71570ffd27ca5573dbdaad968eab23d69108377d0910160405180910390a2505061089c60015f8051602061184183398151915255565b6001600160a01b0381165f9081526001602081815260408084208151808301909252805480835293015491810191909152901580610bf8575080602001514210155b15610c0557505f92915050565b5f428260200151610c169190611723565b9050630784ce0081835f0151610c2c9190611798565b610c3691906117af565b949350505050565b5f9182525f80516020611821833981519152602090815260408084206001600160a01b0393909316845291905290205460ff1690565b610c7c611033565b5f8211610cc05760405162461bcd60e51b81526020600482015260126024820152711d9953d4960e881e995c9bc8185b5bdd5b9d60721b604482015260640161054f565b62093a80811015610d0b5760405162461bcd60e51b81526020600482015260156024820152741d9953d4960e881b1bd8dac81d1bdbc81cda1bdc9d605a1b604482015260640161054f565b630784ce00811115610d565760405162461bcd60e51b815260206004820152601460248201527376654f52583a206c6f636b20746f6f206c6f6e6760601b604482015260640161054f565b335f9081526001602052604090205415610da75760405162461bcd60e51b815260206004820152601260248201527176654f52583a206c6f636b2065786973747360701b604482015260640161054f565b5f610db28242611785565b6040805180820182528581526020808201848152335f9081526001928390529384209251835551910155600280549293508592909190610df3908490611785565b90915550505f546040516323b872dd60e01b8152336004820152306024820152604481018590526001600160a01b03909116906323b872dd906064016020604051808303815f875af1158015610e4b573d5f803e3d5ffd5b505050506040513d601f19601f82011682018060405250810190610e6f9190611736565b610e8b5760405162461bcd60e51b815260040161054f90611755565b5f610e9533610bb6565b604080518681526020810185905290810182905290915033907f36af321ec8d3c75236829c5317affd40ddb308863a1236d2d277a4025cccee1e9060600160405180910390a25050610a1360015f8051602061184183398151915255565b610efc826104a1565b610f0581610f0f565b6104dd8383610fba565b61089c8133611290565b5f5f80516020611821833981519152610f328484610c3e565b610fb1575f848152602082815260408083206001600160a01b03871684529091529020805460ff19166001179055610f673390565b6001600160a01b0316836001600160a01b0316857f2f8788117e7eff1d82e926ec794901d17c78024a50270940304540a733656f0d60405160405180910390a4600191505061049b565b5f91505061049b565b5f5f80516020611821833981519152610fd38484610c3e565b15610fb1575f848152602082815260408083206001600160a01b0387168085529252808320805460ff1916905551339287917ff6391f5c32d9c69d2a47ea670b442974b53935d1edc7fd64eb21e047a839171b9190a4600191505061049b565b5f8051602061184183398151915280546001190161106457604051633ee5aeb560e01b815260040160405180910390fd5b60029055565b60015f8051602061184183398151915255565b5f807ff0c57e16840df040f15088dc2f81fe391c3923bec73e23a9662efc9c229c6a0061049b565b6110ad6112c9565b6106ba6112ee565b6106ba6112c9565b306001600160a01b037f000000000000000000000000000000000000000000000000000000000000000016148061114357507f00000000000000000000000000000000000000000000000000000000000000006001600160a01b03166111375f80516020611801833981519152546001600160a01b031690565b6001600160a01b031614155b156106ba5760405163703e46dd60e11b815260040160405180910390fd5b7f189ab7a9244df0848122154315af71fe140f3db0fe014031783b0946b8c9d2e3610a1381610f0f565b816001600160a01b03166352d1902d6040518163ffffffff1660e01b8152600401602060405180830381865afa9250505080156111e5575060408051601f3d908101601f191682019092526111e2918101906117ce565b60015b61120d57604051634c9c8ce360e01b81526001600160a01b038316600482015260240161054f565b5f80516020611801833981519152811461123d57604051632a87526960e21b81526004810182905260240161054f565b61051683836112f6565b306001600160a01b037f000000000000000000000000000000000000000000000000000000000000000016146106ba5760405163703e46dd60e11b815260040160405180910390fd5b61129a8282610c3e565b610a135760405163e2517d3f60e01b81526001600160a01b03821660048201526024810183905260440161054f565b6112d161134b565b6106ba57604051631afcd79f60e31b815260040160405180910390fd5b61106a6112c9565b6112ff82611364565b6040516001600160a01b038316907fbc7cd75a20ee27fd9adebab32041f755214dbc6bffa90cc0225b39da2e5c2d3b905f90a28051156113435761051682826113c7565b610a13611439565b5f61135461107d565b54600160401b900460ff16919050565b806001600160a01b03163b5f0361139957604051634c9c8ce360e01b81526001600160a01b038216600482015260240161054f565b5f8051602061180183398151915280546001600160a01b0319166001600160a01b0392909216919091179055565b60605f80846001600160a01b0316846040516113e391906117e5565b5f60405180830381855af49150503d805f811461141b576040519150601f19603f3d011682016040523d82523d5f602084013e611420565b606091505b5091509150611430858383611458565b95945050505050565b34156106ba5760405163b398979f60e01b815260040160405180910390fd5b60608261146d57611468826114b7565b6114b0565b815115801561148457506001600160a01b0384163b155b156114ad57604051639996b31560e01b81526001600160a01b038516600482015260240161054f565b50805b9392505050565b8051156114c657805160208201fd5b60405163d6bda27560e01b815260040160405180910390fd5b5f602082840312156114ef575f80fd5b81356001600160e01b0319811681146114b0575f80fd5b5f60208284031215611516575f80fd5b5035919050565b80356001600160a01b0381168114611533575f80fd5b919050565b5f8060408385031215611549575f80fd5b823591506115596020840161151d565b90509250929050565b5f8060408385031215611573575f80fd5b61157c8361151d565b91506115596020840161151d565b634e487b7160e01b5f52604160045260245ffd5b5f80604083850312156115af575f80fd5b6115b88361151d565b9150602083013567ffffffffffffffff808211156115d4575f80fd5b818501915085601f8301126115e7575f80fd5b8135818111156115f9576115f961158a565b604051601f8201601f19908116603f011681019083821181831017156116215761162161158a565b81604052828152886020848701011115611639575f80fd5b826020860160208301375f6020848301015280955050505050509250929050565b5f6020828403121561166a575f80fd5b6114b08261151d565b5f5b8381101561168d578181015183820152602001611675565b50505f910152565b602081525f82518060208401526116b3816040850160208701611673565b601f01601f19169190910160400192915050565b5f80604083850312156116d8575f80fd5b50508035926020909101359150565b6020808252600e908201526d76654f52583a206e6f206c6f636b60901b604082015260600190565b634e487b7160e01b5f52601160045260245ffd5b8181038181111561049b5761049b61170f565b5f60208284031215611746575f80fd5b815180151581146114b0575f80fd5b6020808252601690820152751d9953d4960e881d1c985b9cd9995c8819985a5b195960521b604082015260600190565b8082018082111561049b5761049b61170f565b808202811582820484141761049b5761049b61170f565b5f826117c957634e487b7160e01b5f52601260045260245ffd5b500490565b5f602082840312156117de575f80fd5b5051919050565b5f82516117f6818460208701611673565b919091019291505056fe360894a13ba1a3210667c828492db98dca3e2076cc3735a920a3ca505d382bbc02dd7bc7dec4dceedda775e58dd541e08a116c6c53815c0bd028192f7b6268009b779b17422d0df92223018b32b4d1fa46e071723d6817e2486d003becc55f00a26469706673582212209b57fd862e3eafd83b6a0235706fa5638b3955b49fd64e5ba3aee90732b61ea364736f6c63430008180033",
  "linkReferences": {},
  "deployedLinkReferences": {}
}